:020000040800F2
:10000000802D0020A101000879120008711200085B
:10001000751200082D0B00082323000800000000C3
:10002000000000000000000000000000891B000824
:10003000830E0008000000002D1500087D1C00083C
:10004000BB010008BB010008BB010008BB010008A0
:10005000BB010008BB010008BB010008BB01000890
:10006000BB010008BB010008BB010008BB01000880
:10007000BB010008BB010008BB010008BB01000870
:10008000BB010008BB010008BB010008BB01000860
:10009000BB010008BB010008BB010008BB01000850
:1000A000BB010008F51C0008BB010008BB010008EB
:1000B000051D0008BB010008BB010008BB010008CA
:1000C000BB010008BB010008BB010008BB01000820
:1000D000BB010008BB01000811200008BB0100089B
:1000E000BB010008BB010008BB010008BB01000800
:1000F000BB010008BB010008BB010008BB010008F0
:10010000000000000000000000000000BB0100082B
:10011000BB010008BB010008BB010008BB010008CF
:10012000BB010008E90B0008BB010008BB01000887
:10013000150C0008BB0100080000000000000000D2
:10014000BB010008BB010008BB0100080000000063
:10015000000000000000000000000000000000009F
:100160000000000000000000BB010008BB01000807
:10017000BB010008000000000000000000000000BB
:1001800000000000BB010008DFF810D000F020FBE9
:100190000048004701470008AFF30080802D002091
:1001A0000648804706480047FEE7FEE7FEE7FEE711
:1001B000FEE7FEE7FEE7FEE7FEE7FEE7851C000838
:1001C0008901000840EA01039B0703D009E008C940
:1001D000121F08C0042AFAD203E011F8013B00F80C
:1001E000013B521EF9D27047D2B201E000F8012B58
:1001F000491EFBD270470022F6E710B513460A46A7
:1002000004461946FFF7F0FF204610BD2DE9FE4FCA
:10021000804681EA0300C00F0C46009021F00041A7
:1002200023F00045B8EB0200A94105D24046214623
:1002300090461C460B46024623F00040104347D030
:10024000270DC7F30A00C3F30A510290401A019028
:1002500040286BDAC3F3130040F4801B00989246E9
:1002600020B10023D2EB030A63EB0B0B0198594634
:10027000C0F14002504600F0CFF906460D46504608
:100280005946019A00F0E7F910EB0800614100249B
:1002900087EA115284EAE7731A4340D0009A62B3A6
:1002A000019A012A4FEA075215DC001B61EB02019B
:1002B0004FF0004202EA0752CDE90042001C41F52E
:1002C000801132462B4600F01EFA03B0BDE8F08FD5
:1002D00040462146F9E7001B61EB0201001C41F595
:1002E000801300185B412018A2F5001747EB0301AB
:1002F00040EAD570B6196D4111E06D084FEA360637
:1003000045EAC0754FEA0752001B61EB0201001C71
:1003100041F5801149084FEA300000195141324639
:100320002B4603B0BDE8F04F00F0DEB90098012283
:1003300040000023D0EB020263EBE07300982146FB
:100340004FEAE074B8EB000061EB0401E9E783F0E9
:1003500000435BE781F0004158E72DE9FE4F81EA59
:10036000030404F0004421F0004100944FF0000B1E
:1003700023F0004350EA01045ED052EA03045BD04C
:10038000C3F30A54C1F30A552C44A4F2F334019484
:10039000A0FB0254C1F3130141F48011C3F3130312
:1003A00043F4801301FB024400FB034E840A970AC6
:1003B00044EA815447EA8357A4FB076802958D0AF3
:1003C00005FB07854FEA932C04FB0C542705029D7F
:1003D0004FEA065847EA1637B5EB08056EEB070CEF
:1003E000870E920E47EA811742EA8312A7FB0201A9
:1003F000B6EB0B0164EB00042B0D43EA0C335E18E3
:1004000044EB1C50DA465146E7FB0201C5F31304E6
:100410004FEA0B3343EA14534FEA0432019C43EA98
:100420000603A4F10C040294009CCDE900B400F092
:100430006AF903B0BDE8F08F00200146F9E72DE925
:10044000F04D81EA030404F0004B21F0004514460E
:100450004FF0000A23F0004150EA050220D054EA90
:1004600001021DD0C5F30A570246C5F31303C1F3B9
:100470001300C1F30A5640F4801543F48013A7EB30
:100480000608101BD64608F2FD3873EB050002D3B0
:1004900008F1010801E092185B41B8F1000F03DA9E
:1004A00000200146BDE8F08D00204FF48011064683
:1004B00084460EE0171B73EB050705D3121B63EB95
:1004C000050306434CEA010C49084FEA3000921834
:1004D0005B4150EA0107EDD152EA030012D082EAF3
:1004E000040083EA0501084305D0101BAB4106D286
:1004F0000122002306E000224FF0004302E06FF0EB
:10050000010253101AEB06004CEB085110EB0A00E5
:1005100041EB0B01BDE8F04D00F0E6B80EB5C10FA0
:1005200080EAE0700844CA07002140F233438DE8B6
:100530000E000A460B4600F0E6F803B000BD0EB50B
:1005400040F2334102910021CDE900110A460B46E9
:1005500000F0D9F803B000BD00F0004230F00040D8
:100560000AD0C10D01F56071C0F3160042EA0151D5
:10057000C208400711437047002001467047000041
:1005800030B5041E71F1000404DB4FF0004440421A
:1005900064EB0101141E73F1000405DB1C464FF0EF
:1005A0000043524263EB04038B4208BF824230BDDA
:1005B00030B5041E71F1000404DB4FF000444042EA
:1005C00064EB0101141E73F1000405DB1C464FF0BF
:1005D0000043524263EB0403994208BF904230BD8E
:1005E00001F0004330B421F0004150EA010206D08E
:1005F0000A0DA2F56072C1F31301002A02DC30BCBF
:1006000000207047440F44EAC104C100E01830BC28
:1006100000EBC25000F031B8202A04DB203A00FA87
:1006200002F1002070479140C2F1200320FA03F349
:10063000194390407047202A04DB203A21FA02F047
:100640000021704721FA02F3D040C2F1200291400C
:10065000084319467047202A06DBCB17203A41FA97
:1006600002F043EAE07306E041FA02F3D040C2F13F
:10067000200291400843194670470029A8BF7047DF
:10068000401C490008BF20F00100704710B4B0FAC8
:1006900080FC00FA0CF050EA010404BF10BC704763
:1006A00049B1CCF1200421FA04F411FA0CF118BF7D
:1006B000012121430843A3EB0C01CB1D4FEA00614C
:1006C0004FEA102042BF002010BC704700EBC3501F
:1006D00010440029A4BF10BC7047401C490008BF4B
:1006E00020F0010010BC704710B5141E73F1000417
:1006F00008DA401C41F1000192185B411A4301D114
:1007000020F0010010BD2DE9F04D92469B4611B13D
:10071000B1FA81F202E0B0FA80F220329046FFF79F
:100720007BFF04460F4640EA0A0041EA0B015346AC
:100730005A46084313D0114653EA010019D0C8F1B4
:1007400040025046FFF777FF05460E465046594691
:100750004246FFF761FF084305D0012004E0204630
:100760003946BDE8F08D0020054346EAE0762C438B
:1007700037430A986305E40AA0EB08000022FD0A4B
:1007800044EA47540A3002D500200146E9E7010552
:1007900010196941DDE9084500196941BDE8F04DCE
:1007A000A2E770B521F0004303430CD0C1F30A5512
:1007B0000024D5EB040564EB0403D617AD1AB3414E
:1007C00002DB0020014670BD201841EB025170BDD4
:1007D000064C074D06E0E06840F0010394E807008E
:1007E00098471034AC42F6D3FFF7D2FC905700087C
:1007F000B05700082DE9F04D00231A461B1A8A4114
:1008000003DB00200146BDE8F08DC1F30A52C1F3BD
:10081000130141F480154FF0000BD10702D10018ED
:100820006D41521E0027044640F2FF11384601EB8D
:10083000620A3E468046024600204FF48011FFF7D0
:10084000FAFEC2197141BB1846EB0100B4EB030C70
:1008500075EB000C04D3E41A65EB000517460E4651
:10086000241908F101006D4180463428E3DDF919AF
:1008700046EB0600091BA84103D24FF0FF32134696
:1008800001E0002213461BEB070046EB0A51BDE8CE
:10089000F04DFFF729BF21B1826842F0010282606A
:1008A00003E0826842F002028260704710B50022C5
:1008B000B0F1A04F02D0124B984204D1114B1A68EC
:1008C000114B1A4003E0114B1A680F4B1A40D1E943
:1008D000003423438C682343CC6843EA44330C7CC4
:1008E00043EA04231A43B0F1A04F02D0044B9842CC
:1008F00002D1044B1A6001E0044B1A6010BD0000E5
:100900000001005008030050E010FCFF08070050F1
:1009100021B1C26842F00102C26003E0C26822F065
:100920000102C2607047C26822F00202C260C2685F
:100930000A43C2607047000010B50446B4F1A04FEE
:1009400002D00E48844209D10121080700F018FEA8
:1009500000214FF0805000F013FE0EE00848844262
:1009600002D00848844208D10121480700F008FE5F
:1009700000214FF0005000F003FE10BD00010050B8
:100980000004005000050050014600208A6802F073
:1009900000420AB1012000E000207047024600201A
:1009A00013680B400BB1012000E0002070470000ED
:1009B00010B502460020D0680C4B1840D1E9003435
:1009C00023438C682343CC6823430C6923434C693D
:1009D00023438C6923431843D060106B20F00F0031
:1009E0000B7F5B1E1843106310BD000007C0FFFDA6
:1009F000F0B50C461D4600BF00BF052A0FDA016B9B
:100A000002EB420677001F2606FA07F3994302EB32
:100A10004206760004FA06F3194301633CE00A2A11
:100A200011DA416B561F06EB460677001F2606FAC1
:100A300007F39943561F06EB4606760004FA06F3C1
:100A40001943416328E00F2A13DA816BA2F10A06E9
:100A500006EB460677001F2606FA07F39943A2F134
:100A60000A0606EB4606760004FA06F3194381638C
:100A700012E0C16BA2F10F0606EB460677001F26B7
:100A800006FA07F39943A2F10F0606EB4606760035
:100A900004FA06F31943C163092C14DD8169A4F13A
:100AA0000A0606EB4607072606FA07F386699E4301
:100AB00086618669A4F10A0707EB470705FA07F77D
:100AC0003E43866110E04169661E06EB4607382604
:100AD00006FA07F346699E434661466904EB4407FC
:100AE00005FA07F73E434661F0BD826822F0804276
:100AF000826082680A4382607047816841F00041E9
:100B000081607047816841F00401816070478268AC
:100B100022F04052826021B1826842F080528260AD
:100B200003E0826842F000528260704700BFFEE737
:100B300010B52AB1036801248C402343036004E00C
:100B4000036801248C40A343036010BD10B532B18B
:100B500003684FF480548C402343036005E003682E
:100B60004FF480548C40A343036010BD10B504467D
:100B70000B48844209D10121480700F021FD0021E2
:100B80004FF0005000F01CFD08E00121880600F045
:100B900017FD00214FF0806000F012FD10BD000035
:100BA0000074004070B500230024036840F6FE7511
:100BB0008D40AB43D2E90056354396683543D6683D
:100BC00045EA060404FA01F52B43036070BD18B52D
:100BD00000230093009001F11403009C2344009330
:100BE000009B1A6018BD000010B5084800F00CF911
:100BF00058B1064800F048F802F0D8FD28B9802125
:100C0000034802F0BFFE02F0D7FD10BD2000001027
:100C1000E400002010B5154800F0F6F820B304F009
:100C20009FF9134908600846006812490968401A8C
:100C3000114908600E4800680E4908600B4800F032
:100C400023F802F0B3FD28B980210C4802F09AFE87
:100C500002F0B2FD0A48007830B901200849087056
:100C6000064840880749088010BD000000000210B7
:100C700044000020400000203C000020E400002050
:100C80003A0000203800002000F0805111B10349E3
:100C9000086001E002494860704700000404024017
:100CA0000000024021B1026842F00102026004E04B
:100CB00002684FF6FE731A400260704701684FF6F3
:100CC000FE72114001600021016041608160C160DD
:100CD0004B49884208D14A490839496841F00F0117
:100CE000474A083A51608AE045491431884208D1A0
:100CF00043490839496841F0F001414A083A5160D6
:100D00007DE03F492831884208D13D49083949688A
:100D100041F470613A4A083A516070E038493C3118
:100D2000884208D136490839496841F47041344A4B
:100D3000083A516063E032495031884208D1304965
:100D40000839496841F470212D4A083A516056E04B
:100D50002B496431884208D129490839496841F44E
:100D60007001274A083A516049E0254978318842A4
:100D700008D123490839496841F07061204A083A8E
:100D800051603CE01F49884206D1011F096841F0CB
:100D90000F01021F116032E01A491431884208D154
:100DA0001849091F096841F0F001164A121F116025
:100DB00025E014492831884208D11249091F0968E1
:100DC00041F470610F4A121F116018E00D493C3167
:100DD000884208D10B49091F096841F47041094A4A
:100DE000121F11600BE007495031884207D10549B5
:100DF000091F096841F47021024A121F11607047EF
:100E0000080002400804024001460020002201F0D0
:100E1000805313B1054B1A6801E0054B1A6802EACA
:100E200001030BB1012000E00020704700040240E4
:100E3000000002401AB103680B43036002E003683C
:100E40008B430360704710B50022026847F6F073C9
:100E50009A430C6A8B6823430C6923434C692343F0
:100E60008C692343CC6923434C6A23438C6A234314
:100E70001A4302608B8943600B6883604B68C360D0
:100E800010BD7047F0B50A4600210024002500235C
:100E900000BF3FE0012606FA01F4166806EA0405E1
:100EA000A54236D11679012E02D01679022E18D11C
:100EB00086684FEA410C032707FA0CF7BE438660A9
:100EC00056794F00BE4087683E438660868801277A
:100ED0008F40BE438680878896798E40B6B237436E
:100EE000878006684FEA410C032707FA0CF7BE43D8
:100EF000066016794F00BE4007683E430660C3682F
:100F00004F000326BE40B343D6794F00BE40334363
:100F1000C360491C1029BDD3F0BDF0B500230024E7
:100F20004D07ED0E02FA05F3CE1000F1200555F83D
:100F300026504E07F70E0F26BE40B543CF1000F1E6
:100F4000200646F82750CE1000F1200555F826500F
:100F500045EA0304CE1000F1200545F82640F0BD17
:100F600002460020138A0B400BB1012000E0002054
:100F700070470185704781617047000070B5054674
:100F80002C1D702020740B4820604020A080094850
:100F9000A0608021A18170202870002028836883B0
:100FA00085F824000121880400F0DAFA204603F0D5
:100FB00029FE70BD000400482DE9F04104460E46AC
:100FC000174604F104081448016840468847207811
:100FD000012303EB4000C1B20F48826840469047AE
:100FE0000D4841694046884700250BE00A48C16822
:100FF000404688477055084801210269404690479D
:10100000681CC5B2BD42F1DB0348416840468847D1
:101010000020BDE8F0810000580000203EB50446E5
:10102000002001900290062201A92046FFF7C4FF8C
:101030009DF805009DF8041040EA012000B22083CD
:101040009DF808009DF8071040EA01206083022106
:1010500001A802F0C9FC264908709DF8060009782D
:10106000884201D000203EBD02210DF1070002F0B0
:10107000BBFC1F4908709DF809000978884201D01F
:101080000020F0E7B4F9180000EE100AB8EEC00A2C
:101090009FED181AC0EE010A9FED171A9FED170A6F
:1010A00010EE810A84ED070A608B00EE100AF8EE5C
:1010B000400A9FED101A80EE810ADFED110A20EE42
:1010C000200A84ED080A94ED070ADFED0D0A20EEF0
:1010D000200ABDEEC00A10EE100A00B200900122F4
:1010E000694641F2050003F099FC0020BBE70000CF
:1010F000710000200000804700002F4300003442B0
:101100000000C842F8B504460D46261D28128DF889
:101110000000E8B28DF801001548016830468847A4
:1011200020784006010E12488268304690471048E9
:101130004169304688470F4908709DF800100C48F7
:101140008268304690470A484169304688479DF892
:10115000011007488268304690470548416930468B
:10116000884703484168304688470020F8BD0000A2
:10117000580000207000002010B504464BF2980182
:101180002046FFF7BFFF002010BD10B5044647F60C
:1011900066012046FFF7B6FF002010BD10B50446DB
:1011A00043F217512046FFF7ADFF002010BD0000AD
:1011B00010B50C48007830B903F0D2FE0A49086037
:1011C000012008490870094801680748006803F0D1
:1011D000CDFE30B10020034908700549054803F0F1
:1011E00091FE10BD80000020780000207C000020CF
:1011F000B00A0020F911000870B505462C4694F895
:10120000240005282BD2DFE800F0030A151C230078
:101210002046FFF7C3FF022084F8240023E04EF6A7
:10122000C8712046FFF76EFF032210492046FFF7E2
:10123000C3FE18E02046FFF7A8FF032084F824002F
:1012400011E02046FFF7EAFE042084F824000AE0BB
:101250002046FFF791FF002084F8240003E00020DF
:1012600084F8240000BF00BF70BD000072000020A1
:1012700000BFFEE700BFFEE77047000010B50C4856
:10128000007830B903F06CFE0A4908600120084973
:101290000870094801680748006803F067FE30B12C
:1012A0000020034908700021044803F02BFE10BD04
:1012B000980000209000002094000020C112000837
:1012C00010B52DED048B82B0044603F093F908EEBF
:1012D000900A9FED270AF0EE409A9FED250AB0EEA6
:1012E000409A00200190B8EE680ADFED220A20EE55
:1012F000200ADFED210A80EE201AB0EE418A9FED30
:101300001D0A30EE480AB5EEC00AF1EE10FA0BD015
:10131000B2EE040A28EE000ADFED160A70EEC80AE3
:1013200080EE201AF0EE419AB0EE690A00F02EF835
:10133000B0EE409A114B0A2211491248B0EE490A08
:1013400002F030F9B0EE409A9FED0F0A29EE000A44
:10135000BCEEC00A10EE100A80B20190012201A971
:1013600041F2010003F05AFB02B0BDEC048B10BD4A
:101370000000000033335340000080458C00002003
:1013800088000020D80A00200000C842F0EE400A81
:10139000B5209FED270AB0EE401A00210CE0254A47
:1013A00002EB810292ED000AB4EEE00AF1EE10FACF
:1013B00001D288B202E0491CB529F0DB00BF38B980
:1013C0001D4901EB800191ED000AB0EE401A29E0C1
:1013D000B52808D1411E184A02EB810191ED000A9F
:1013E000B0EE401A1EE0411E124A02EB810191ED5F
:1013F000000A114601EB8001D1ED001A30EE610ABE
:10140000114601EB8001D1ED001A70EEE11A81EE78
:10141000802A094901EB800191ED000A30EE420A71
:10142000B0EE401A054981ED001A91ED000A7047AF
:10143000000000002C5400085851000884000020CF
:1014400070B5002100230F22C47804B3154C246822
:1014500004F4E064C4F5E064210AC1F10403CA4065
:10146000447804FA03F184781440214309010E4CB6
:101470000678A155047804F01F050124AC400578D6
:101480006D11AD0005F1E025C5F8004109E00478D3
:1014900004F01F050124AC40044D0678761145F890
:1014A000264070BD0CED00E000E400E080E100E0CB
:1014B00002490143024A1160704700000000FA052A
:1014C0000CED00E041B1094A0244926B42F0010286
:1014D000064B03449A6307E0044A0244926B22F0ED
:1014E0000102024B03449A63704700000000014070
:1014F0000021024A0244916370470000000001404D
:1015000010B50022064B03449A6B22F06C02D1E91D
:10151000003423431A43024B03449A6310BD000076
:1015200000000140002141600160704770470000E9
:101530000021010F31B1094AD26A22F47852074BD7
:10154000DA6205E0054AD26A22F4F872034BDA62E5
:10155000024AD26A0243014BDA627047001002402D
:1015600029B1064A52690243044B5A6104E0034A16
:1015700052698243014B5A617047000000100240DB
:1015800029B1064A926A0243044B9A6204E0034A74
:10159000926A8243014B9A62704700000010024039
:1015A00029B1064AD2690243044BDA6104E0034AD6
:1015B000D2698243014BDA6170470000001002409B
:1015C00029B1064A12690243044B1A6104E0034A36
:1015D00012698243014B1A617047000000100240FB
:1015E00029B1064A92690243044B9A6104E0034A16
:1015F00092698243014B9A617047000000100240DB
:1016000029B1064AD2680243044BDA6004E0034A77
:10161000D2688243014BDA6070470000001002403C
:101620002DE9F043002200260027944600250021E2
:1016300000230024DFF83C85D8F8048008F00C0271
:1016400022B1042A07D0082A30D109E0DFF8288522
:10165000C0F800802FE0DFF82085C0F800802AE085
:10166000DFF81085D8F8048008F47016DFF80485D8
:10167000D8F8048008F480374FF0020808EB96464B
:1016800027B9DFF8F88406FB08F10DE0DFF8E48401
:10169000D8F82C8008F00F0808F1010CDFF8D88486
:1016A000B8FBFCF808FB06F1016004E0DFF8C88431
:1016B000C0F8008000BF00BFDFF8B884D8F804800D
:1016C00008F0F0021209DFF8B88418F80240D0F8E8
:1016D000008028FA04F8C0F80480DFF89884D8F86D
:1016E000048008F4E062120ADFF8948418F80250CB
:1016F000D0F8048028FA05F8C0F80880DFF8748470
:10170000D8F8048008F46052D20ADFF8748418F81C
:101710000230D0F8048028FA03F8C0F80C80DFF813
:101720005484D8F82C8008F4F872120902F00F08DB
:10173000DFF8509439F8185002F01008B8F1000F93
:1017400005D025B1B1FBF5F8C0F8108003E0D0F862
:101750000080C0F81080DFF81C84D8F82C8008F4D2
:101760007852520A02F00F08DFF8189439F818502E
:1017700002F01008B8F1000F05D025B1B1FBF5F863
:10178000C0F8148003E0D0F80080C0F81480DFF8BF
:10179000E483D8F8308008F01008B8F1100F04D0B6
:1017A000DFF8D483C0F8188003E0D0F80080C0F8D8
:1017B0001880DFF8C083D8F8308008F02008B8F12E
:1017C000200F04D0DFF8B083C0F81C8003E0D0F80D
:1017D0000080C0F81C80DFF89C83D8F8308008F0C7
:1017E0004008B8F1400F04D0DFF88C83C0F82080A7
:1017F00003E0D0F80080C0F82080DFF87883D8F8C4
:10180000308008F48078B8F5807F0AD1D0F8008065
:10181000884506D1A34204D14FEA4108C0F824808C
:1018200003E0D0F80C80C0F82480DFF84883D8F8B3
:10183000308008F48058B8F5805F0AD1D0F8008075
:10184000884506D1A34204D14FEA4108C0F8288058
:1018500003E0D0F80C80C0F82880DFF81883D8F8AF
:10186000308008F40078B8F5007F0AD1D0F8008005
:10187000884506D1A34204D14FEA4108C0F82C8024
:1018800003E0D0F80C80C0F82C80DFF8E882D8F8AC
:10189000308008F48068B8F5806F0AD1D0F80080F5
:1018A000884506D1A34204D14FEA4108C0F84C80D4
:1018B00003E0D0F80C80C0F84C80DFF8B882D8F88C
:1018C000308008F40068B8F5006F0AD1D0F80080C5
:1018D000884506D1A34204D14FEA4108C0F85080A0
:1018E00003E0D0F80C80C0F85080DFF88882D8F888
:1018F000308008F40058B8F5005F0AD1D0F80080B5
:10190000884506D1A34204D14FEA4108C0F854806B
:1019100003E0D0F80C80C0F85080DFF85882D8F887
:10192000308008F40048B8F5004F0AD1D0F80080A4
:10193000884506D1A34204D14FEA4108C0F8588037
:1019400003E0D0F80C80C0F85880DFF82882D8F87F
:10195000308008F00308B8F1000F04D1D0F80C80F3
:10196000C0F8388028E0DFF80C82D8F8308008F022
:101970000308B8F1010F04D1D0F80080C0F8388016
:101980001AE0DFF8F081D8F8308008F00308B8F1E9
:10199000020F04D14FF40048C0F838800CE0DFF8A3
:1019A000D481D8F8308008F00308B8F1030F03D1D0
:1019B000DFF8C481C0F83880DFF8B881D8F830800B
:1019C00008F44038B8F1000F04D1D0F80880C0F80E
:1019D0003C8028E0DFF89C81D8F8308008F440385B
:1019E000B8F5803F04D1D0F80080C0F83C801AE000
:1019F000DFF88081D8F8308008F44038B8F5003F2F
:101A000004D14FF40048C0F83C800CE0DFF864815A
:101A1000D8F8308008F44038B8F5403F03D1DFF8FB
:101A20005881C0F83C80DFF84C81D8F8308008F449
:101A30004028B8F1000F04D1D0F80880C0F84080E9
:101A400028E0DFF83081D8F8308008F44028B8F575
:101A5000802F04D1D0F80080C0F840801AE0DFF871
:101A60001481D8F8308008F44028B8F5002F04D14C
:101A70004FF40048C0F840800CE0DFF8F880D8F858
:101A8000308008F44028B8F5402F03D1DFF8E88013
:101A9000C0F84080DFF8DC80D8F8308008F44018C7
:101AA000B8F1000F04D1D0F80880C0F8448028E0D5
:101AB000DFF8C080D8F8308008F44018B8F5801FEF
:101AC00004D1D0F80080C0F844801AE0DFF8A48088
:101AD000D8F8308008F44018B8F5001F04D14FF44E
:101AE0000048C0F844800CE0DFF88880D8F83080E7
:101AF00008F44018B8F5401F03D1DFF87C80C0F827
:101B00004480DFF87080D8F8308008F44008B8F1DD
:101B1000000F04D1D0F80880C0F8488028E0DFF832
:101B20005480D8F8308008F44008B8F5800F04D10C
:101B3000D0F80080C0F848801AE0DFF83880D8F884
:101B4000308008F44008B8F5000F04D14FF4004885
:101B5000C0F848800CE0DFF81C80D8F8308008F42A
:101B60004008B8F5400F03D1DFF80C80C0F848807A
:101B7000BDE8F0830010024000127A0000093D0029
:101B80000000002010000020704700000CB500206D
:101B9000019000903748006840F480303549086073
:101BA00000BF3448006800F4003000900198401CE9
:101BB0000190009818B90198B0F5A04FF1D12D48C7
:101BC000006800F4003010B10120009001E0002016
:101BD0000090009801284BD12748006840F0100081
:101BE000254908600846006820F0030008600846A0
:101BF000006840F0020008601E4840681D494860C7
:101C00000846406848600846406840F48060486084
:101C10000846406820F47C1048600846406840F45C
:101C2000E81048600846C06A20F00F00C862084605
:101C3000C06AC8620846006840F08070086000BF53
:101C40000C48006800F000700028F9D0094840688E
:101C500020F00300074948600846406840F0020051
:101C6000486000BF0348406800F00C000828F9D124
:101C70000CBD0000001002400020024010B503F02F
:101C800067F910BD10B51748006840F47000154999
:101C900008601548006840F0010013490860002002
:101CA000486008460068114908400F490860084626
:101CB000006820F4802008600846406820F4FE0098
:101CC00048600846C06A20F00F00C8620846006BF2
:101CD000074908400449086300208860FFF756FF61
:101CE00010BD000088ED00E000100240FFFFF6FE8E
:101CF000CCFC00FF10B50121014800F0C6F810BD72
:101D0000002C014010B50121880700F0B5F818B18A
:101D10000121880700F001F810BDCA4392B20261A8
:101D2000704721B1028842F00102028004E002887B
:101D30004FF6FE731A4002807047000010B504464B
:101D40004348844208D10121C014FFF759FC002107
:101D5000E014FFF755FC7AE0B4F1804F08D101217F
:101D60000846FFF72DFC00210120FFF729FC6EE05B
:101D70003848844208D101210220FFF721FC0021CC
:101D80000220FFF71DFC62E03348844208D10121A4
:101D90000420FFF715FC00210420FFF711FC56E09A
:101DA0002E48844208D101211020FFF709FC0021B0
:101DB0001020FFF705FC4AE02948844208D10121A0
:101DC0002020FFF7FDFB00212020FFF7F9FB3EE07C
:101DD0002448844208D101214014FFF711FC00215E
:101DE0006014FFF70DFC32E01F48844209D1012145
:101DF0000804FFF705FC00214FF48030FFF700FCDA
:101E000025E01A48844209D101214804FFF7F8FB74
:101E100000214FF40030FFF7F3FB18E01448844230
:101E200009D101218804FFF7EBFB00214FF480204A
:101E3000FFF7E6FB0BE00F48844208D101210805BB
:101E4000FFF7DEFB00214FF48010FFF7D9FB10BD38
:101E5000002C014000040040000800400010004039
:101E600000140040003401400040014000440140A3
:101E700000480140005001400246002013690B4019
:101E80000BB1012000E00020704730B50246002071
:101E900000230024156905EA0103D56805EA010459
:101EA00013B10CB1012000E0002030BD30B500249A
:101EB00000220023056A25F010050562026A4368C6
:101EC0008469174D2C4024F440740D6844EA0524BD
:101ED00022F020028D8942EA05128D8842EA05121D
:101EE000104DA84202D0104DA84213D122F080021A
:101EF000CD8942EA051222F04002CD8842EA05125D
:101F000023F4806323F400630D8A43EA85034D8A3A
:101F100043EA8503436084618D688563026230BD56
:101F2000FF8FFFFE002C01400034014000210160C2
:101F30008180C18081608181C1810182418270473D
:101F400042684FF68F731A40426042680A4342600B
:101F500070470000002202881E4B98420ED01E4B94
:101F600098420BD0B0F1804F08D01C4B984205D05E
:101F70001B4B984202D01B4B984204D14FF68F73F3
:101F80001A404B881A43184B984207D0174B984277
:101F900004D04FF6FF431A400B891A4302804B6866
:101FA000C3620B8803850B4B98420ED00A4B9842B4
:101FB0000BD00F4B984208D00E4B984205D00E4BD9
:101FC000984202D0074B984201D14B8903860123E6
:101FD00043617047002C0140003401400004004080
:101FE0000008004000500140001000400014004074
:101FF0000040014000440140004801404FF0FF31E3
:1020000041600021018001814180418170470000D1
:1020100010B52749274800F0C2F8012803D1244908
:10202000244800F051F82449224800F0B8F801286B
:102030001CD121491F4800F047F81E4800F068F9FC
:102040001E49B1F800141D4A50541046B0F800045F
:10205000401C1146A1F80004B1F80004C11700EBC0
:1020600091518912A0EB8121A2F800141449114862
:1020700000F095F801280FD111490E4800F024F81E
:102080000C4800F045F90D48B0F8001402F0E8FBE8
:1020900000200A49A1F800040A49064800F07FF828
:1020A000012803D10749034800F00EF810BD0000D5
:1020B000000303000044004005010500AC060020B9
:1020C000040104000601060010B5002200230A0CDA
:1020D000012404FA02F3036210BD21B1026842F048
:1020E0000102026003E0026822F001020260704710
:1020F00010B504462048844209D101218803FFF726
:102100007FFA00214FF48040FFF77AFA32E01B4853
:10211000844209D101214804FFF752FA00214FF40B
:102120000030FFF74DFA25E01548844209D101211E
:102130008804FFF745FA00214FF48020FFF740FAAA
:1021400018E01048844209D10121C804FFF738FA89
:1021500000214FF40020FFF733FA0BE00A488442D5
:1021600008D101210805FFF72BFA00214FF4801058
:10217000FFF726FA10BD000000380140004400407F
:1021800000480040004C0040005000400246002043
:10219000D3690B400BB1012000E00020704770B5FF
:1021A00002460B460024002100250020C3F307252A
:1021B000D9B2012606FA01F1012D02D1166831408B
:1021C00006E0022D02D15668314001E096683140A8
:1021D0001C0C012606FA04F4D669344011B10CB186
:1021E000012000E0002070BDF0B503460024002669
:1021F000002500201846C1F30724CEB2012707FAB4
:1022000006F5022C01D1001D02E0032C00D108309C
:102210001AB107682F43076002E00768AF43076001
:10222000F0BD00002DE9F04198B004460D460027AE
:10223000B8460026206820F001002060666826F479
:102240004056A86806436660266841F20C608643E3
:10225000E968686808432969084306432660A66858
:1022600026F4407668690643A66001A8FFF7D8F90E
:102270002348844202D1DDF83C8013E021488442A7
:1022800002D1DDF840800DE01F48844202D1DDF824
:10229000448007E01D48844202D1DDF8488001E017
:1022A000DDF84C80206800F4004060B14FEA48003F
:1022B0002968B0FBF1F74FEA48002968B0FBF1F25A
:1022C00001FB120607E02868B8FBF0F72868B8FBA6
:1022D000F0F100FB11862868B6EB500F00D37F1C8D
:1022E000206800F4004038B1C7F342064FF6F071A1
:1022F00007EA010040EA0607A78118B0BDE8F081AF
:10230000003801400044004000480040004C0040BC
:102310000146888CC0F308007047C1F308020285AB
:10232000704700BFFEE703B401984100009850EAEF
:10233000C12018BF04204A0D18BF40F0010040F230
:10234000FF72B2EB515F08BF40F00200012808BFE6
:10235000052002B0704700002DE9F04D2DED040B73
:102360002DED0E8B96B0DDE92550279CDDF890A071
:1023700025F0004624F00048BAF1000F14BF0121F7
:10238000002101EB4502FC4953184A1093422AD31D
:10239000002814BF0123002303EB44030B44F74937
:1023A0008B4220D358EA00019FEDF59B76D0DFF8F1
:1023B000D8B35D4503D1BAF1000F05D188E0BAF179
:1023C000000F08BF002100D0012101EB450111F5EC
:1023D000001F08D8002814BF0121002101EB44018F
:1023E00011F5001F0BD99DED261B9DED240B16B09A
:1023F000BDEC0E8B04B0BDE8F04D00F069BE0027C7
:10240000002DBCBFE149884521DAE1498845A8BFD4
:1024100002271CDAC3451ADCDE4901EB28511429D6
:1024200008DDC1F1340220FA02F101FA02F282421F
:102430000DD108E058B9C1F1140228FA02F101FAED
:1024400002F2424503D101F00101C1F1020756EA4F
:102450000A0124D1002C22DA002D18BF022F01D04E
:10246000012F0AD0022000F07FFE16B0BDEC0E8BCB
:1024700004B0BDE8F04D00F013BE022000F074FE81
:1024800000F00EFE51EC100B81F0004141EC100BFE
:1024900016B0BDEC0E8B04B0BDE8F08D18E09FEDDA
:1024A000BEAB9FEDBF8B002871D1B848804522D1CB
:1024B00005F1804010F5801008BFBAF1000F07D079
:1024C000B3450ADC002CA8BF9DED260BE0DA0DE039
:1024D000B0EE490AF0EE690ADAE7002C06DA9DED63
:1024E000260B51EC100B81F000416FE0AE487844B0
:1024F00090ED000BCCE7D8454DD1002C48DA2EB139
:1025000086423AD1BAF1000F42D126E0BAF1000F6B
:1025100013D0022000F028FE00F0F6FD8DED020B36
:102520009DED240B8DED000B10EE900A039961F3E5
:102530001E0003909DED020BAAE78DED02AB9DED11
:10254000240B1AEE901A10EE900A8DED000B61F339
:102550001E0003909DED020B9AE78DED028B9DED21
:10256000240B18EE901A10EE900A8DED000B61F31B
:102570001E0003909DED020B8AE709DA9DED240B06
:1025800051EC190B53EC102BFDF759FF1EE020E026
:102590009DED240B7CE786421BDAB4F1804F0DD011
:1025A000A4F10050B0F1FF5013D1002D11DB9DEDCF
:1025B000240B51EC100B02F00AFC07E09DED240BFC
:1025C00053EC102B51EC100B00F0C2BC41EC100B83
:1025D0005EE79DED240B51EC100B01F0B5FABAF15A
:1025E000000FCDE90E0142D19FED710B46B3A6F16C
:1025F000E040B0F17F600CD05E4538D1002D00DAAC
:10260000A7B3022F0CBF01204FF0FF30FDF786FF6C
:10261000DCE7002D01DD002C0DDA002D01DD002CA2
:102620001FDB002D16DA002C14DB012F08BF9FEDF5
:10263000620B3FF42DAFB0EE4A0AF0EE6A0A27E7CC
:10264000022F18BF002D0CD0012F0AD1002DFFF64C
:102650001FAF06E0002DB8BF002C08DA012F3FF4B1
:1026600017AFB0EE480AF0EE680A11E71BE0012050
:1026700000EBE57050EA070115D0791EB0EE498AEB
:10268000F0EE698A084308BF9FED4D8B4E48002548
:10269000804570DD4D494E48884514DDB0420DDB64
:1026A000002C19DB2FE0012000F05EFD16B0BDEC20
:1026B0000E8B04B0BDE8F04D00F016BDB34502DC52
:1026C000002C09DC1FE0864202DA002C1BDA03E052
:1026D0005E452BDD002C16DD022000F045FD00F0EC
:1026E00013FD8DED020B53EC1A2B51EC180BFDF77B
:1026F00034FECDE900010399019861F31E000390B7
:102700009DED020BC4E6022000F02EFD00F00CFD52
:1027100010EE901A18EE900A8DED020B8DED008BE5
:1027200061F31E0003909DED020BB1E69DED0E0BD3
:1027300053EC192B51EC100BFDF709FE9FED260B06
:10274000CDE9080153EC102B9DED080B51EC100B5B
:10275000FDF703FE9FED221B53EC112BFDF7FAFD55
:102760009DED081B53EC112BFDF7F7FD9FED1E1B94
:1027700053EC112B3CE08CE0FFFF1F00FFFF0F002C
:10278000000000000000F03F0000F03F0000F07F7C
:102790000000404301FCFFFF000000000000F07F4C
:1027A0000000000000000000963200000000000061
:1027B0000000000000000080000000000000F0FFAA
:1027C000000000000000F0BF0000E0410000F04306
:1027D000FFFFEF3F00000000000000000000D03FBE
:1027E000555555555555D53F000000000000E03FB8
:1027F000FDF7B0FD9DED080B41EC1A0B53EC102BCF
:1028000051EC100BFDF7A9FD53EC1A2BFDF7A5FDBC
:1028100041EC1A0B9FEDFE0B53EC102B9DED080BBA
:1028200051EC100BFDF799FD41EC1B0B9FEDFA0BE2
:1028300051EC1A0B53EC102BFDF78FFD41EC1A0BEA
:102840009FEDF70B53EC102B9DED080B51EC100B8B
:10285000FDF783FD53EC1A2BFDF779FD41EC1A0BC4
:1028600051EC1B0B53EC1A2BFDF7D0FC0690CDE975
:1028700006519DED060B53EC1B2B51EC100BFDF795
:1028800066FD53EC1A2BFDF765FD41EC100B00F0D3
:10289000A1B90020B6F5801F0EDA9FEDE30B53ECD3
:1028A000102B9DED0E0B51EC100BFDF756FDCDE9F5
:1028B0000E016FF034000E4600EB2650A0F2FF37F9
:1028C000C6F31300DA4940F07F6646F0405688426E
:1028D000D8BF002408DDD7498142C8BF012403DCEA
:1028E0000024A6F580167F1CD348784400EBC40072
:1028F0000F9690ED00CB9DED0E0B53EC1C2B51EC85
:10290000100BFDF724FD9DED0E0B41EC1B0B53EC62
:102910001C2B51EC100BFDF779FC41EC100B51EC2A
:10292000190B53EC102BFDF78AFD41EC1D0B51ECFC
:102930001B0B53EC1D2BFDF710FD41EC1A0BBF4890
:102940008DED10AB7844109590ED000B4FF00050DA
:1029500040EA660000EB84408DED080B00F5002096
:1029600009909DED080B53EC1C2B51EC100BFDF75F
:10297000EEFC9DED0E1B53EC112BFDF7EBFC41EC37
:10298000100B53EC102B9DED100B51EC100BFDF7C1
:10299000E4FC9DED080B41EC1C0B53EC102B9DED62
:1029A000100B51EC100BFDF7D8FC53EC1B2BFDF773
:1029B000D1FC53EC1C2BFDF7CAFC53EC1D2BFDF78F
:1029C000CCFC41EC1C0B53EC1A2B51EC1A0BFDF711
:1029D000C4FC41EC1B0B9A480621B0EE4B0AF0EE0A
:1029E0006B0A784400F0E0FAB0EE401AF0EE601A9C
:1029F000B0EE41DAF0EE61DA53EC1B2B51EC1B0B1D
:102A0000FDF7ABFC53EC1D2BFDF7A7FC9DED100B68
:102A100041EC1B0B53EC1A2B51EC100BFDF7F6FBA2
:102A200053EC1C2BFDF799FC53EC1B2BFDF7EEFB35
:102A30009DED100B41EC1B0B53EC102B51EC100BCC
:102A4000FDF78BFC41EC1D0B9FED7FEB53EC1E2B38
:102A5000FDF7DCFB53EC1B2BFDF7D8FB0890CDE911
:102A600008519DED080B53EC1E2B51EC100BFDF79C
:102A70006EFC53EC1D2BFDF76AFC53EC1B2BFDF792
:102A800069FC9DED080B41EC1D0B53EC102B9DEDEB
:102A9000100B51EC100BFDF760FC41EC1B0B53ECE1
:102AA0001A2B51EC1D0BFDF758FC9DED080B41EC6A
:102AB0001A0B53EC102B51EC1C0BFDF74EFC53EC96
:102AC0001A2BFDF7A3FB41EC1A0B51EC1B0B53EC3B
:102AD0001A2BFDF79BFB0C90CDE90C519DED0C0BD7
:102AE00053EC1B2B51EC100BFDF731FC53EC1A2B64
:102AF000FDF730FC41EC1B0B9FED550B53EC102BFD
:102B00009DED0C0B51EC100BFDF727FC41EC1A0B63
:102B10009FED510B51EC1B0B53EC102BFDF71DFCE3
:102B200041EC1B0B9FED4E0B53EC102B9DED0C0B52
:102B300051EC100BFDF711FC53EC1B2BFDF766FB62
:102B400041EC100B4848784400EBC40090ED001BAA
:102B500051EC100B53EC112BFDF758FB41EC1B0B08
:102B60003846FDF7DBFCCDE9080153EC1B2B51EC9B
:102B70001A0BFDF74BFB41EC100B3C48784400EB83
:102B8000C40090ED00CB51EC100B53EC1C2BFDF767
:102B90003DFB9DED081B53EC112BFDF737FB069019
:102BA000CDE906519DED080B53EC102B9DED060B66
:102BB00051EC100BFDF7CBFB53EC1C2BFDF7C7FBC7
:102BC00053EC1A2BFDF7C3FB53EC1B2BFDF7C2FB99
:102BD00041EC100B9DED261B53EC102B8DED001BD3
:102BE00000959DED260B51EC100BFDF7B6FB9DED0E
:102BF000000B41EC1A0B53EC102B9DED260B51EC06
:102C0000100BFDF7A4FB9DED061B53EC112B2FE0E1
:102C1000000000604715F73FFE822B654715F73F20
:102C200044DF5DF80BAE543E00000000000040435E
:102C30008E9803007AB60B00122E0000402E000082
:102C40004A2D0000000000000000000000000840C5
:102C5000000000E009C7EE3FFD033ADC09C7EE3F84
:102C6000F5015B14E02F3EBED62B0000902B000038
:102C7000FDF773FB53EC1A2BFDF7C8FA9DED060B1D
:102C800041EC1A0B53EC102B9DED000B51EC100B8B
:102C9000FDF763FBCDE90C019DED0C0B51EC1A0B1C
:102CA00053EC102BFDF7B2FACDE902010C46AA490C
:102CB0008C422FDB611A084318D19DED0C0B53ECAD
:102CC000102B9DED020B51EC100BFDF740FB41EC7E
:102CD0001B0B9FEDA30B51EC1A0B53EC102BFDF7C4
:102CE00095FA53EC1B2BFDF763FC2DD2022000F06C
:102CF0003BFA00F009FA10EE901A18EE900A8DEDEA
:102D0000020B8DED008B61F31E0003909DED020B15
:102D1000FFF7BEBB944A24F00041914214D393497B
:102D2000214408437FF4EFAC9DED0C0B53EC102BCA
:102D30009DED020B51EC100BFDF709FB53EC1A2B28
:102D4000FDF736FC7FF6DFAC24F000408849894A65
:102D5000002601EB205182422BDA481C4FF48011EF
:102D600021FA00F02044844AC0F30A517A44A1F2C7
:102D7000FF3192ED000B814A8DED080BCA4020EA2D
:102D80000202C0F3130040F48010C1F1140120FAD4
:102D900001F60992002CB8BF76429DED080B53EC6A
:102DA000102B9DED0C0B51EC100BFDF7D0FACDE97B
:102DB0000C019DED0C0B51EC1A0B53EC102BFDF795
:102DC00025FA9FED6F0B0890CDE9085153EC102BBD
:102DD0009DED080B51EC100BFDF7BFFA41EC1B0BFE
:102DE0009FED690B53EC102B9DED080B51EC100B74
:102DF000FDF7B3FA9DED0C0B41EC1C0B53EC102BC3
:102E00009DED080B51EC100BFDF7A1FA53EC1A2BBA
:102E1000FDF7A0FA9FED5E1B53EC112BFDF79DFA19
:102E200053EC1C2BFDF7F2F941EC1A0B51EC1B0B88
:102E300053EC1A2BFDF7EAF9CDE902019DED020BE7
:102E400053EC1B2B51EC100BFDF781FA53EC1A2BB2
:102E5000FDF780FA9DED020B41EC1A0B53EC102BA1
:102E600051EC100BFDF779FACDE908014A489DEDC8
:102E7000080B0521784400F097F89DED081B51ECF4
:102E8000100B53EC112BFDF768FA9DED021B53EC70
:102E9000112BFDF75FFACDE906019DED020B53EC16
:102EA0001A2B51EC100BFDF758FA53EC1A2BFDF7C7
:102EB000ADF99FED3B0B41EC1A0B53EC102B9DED44
:102EC000060B51EC100BFDF742FA9DED060B41ECA1
:102ED0001B0B53EC102B9DED020B51EC100BFDF76F
:102EE0003CFA53EC1B2BFDF7AAFA53EC1A2BFDF717
:102EF0002EFA9DED021B53EC112BFDF728FA53EC33
:102F0000192BFDF727FACDE9020101EB0650011557
:102F10000029C8BF039015DC9DED020B324651EC31
:102F2000100BFDF73EFCFFF7FEF9042808BF00F088
:102F3000FBF832469DED020B51EC100BFDF731FC16
:102F4000CDE902019DED020B51EC180B53EC102B57
:102F5000FDF703FAFFF73ABB0000904000000000C5
:102F6000FE822B654715973C00CC904000346F3FA4
:102F700001FCFFFF0000E03F182A0000FFFF0F00E8
:102F800000000000432EE63F396CA80C615C20BEB7
:102F9000EF39FAFE422EE63FE8280000000000006C
:102FA000000000000000004070B504462DED028BCB
:102FB0004D1E00EBC500B0EE408AF0EE608A90ED49
:102FC000000B35F0060017D053EC182B51EC100B0A
:102FD000FDF7C3F941EC100B6D1E04EBC50090ED3D
:102FE000001B51EC100B53EC112BFDF70FF941ECCA
:102FF000100B35F00600E7D1022D36D0042D1CD081
:10300000062D1CBFBDEC028B70BD53EC182B51EC90
:10301000100BFDF7A2F994ED0A1B53EC112BFDF7F1
:10302000F5F853EC182BFDF798F994ED081B53ECC9
:10303000112BFDF7EBF841EC100B53EC182B51EC76
:10304000100BFDF78AF994ED061B53EC112BFDF7DD
:10305000DDF853EC182BFDF780F994ED040B53ECDD
:10306000102BFDF7D3F841EC100B53EC182B51EC5F
:10307000100BFDF772F994ED021B53EC112BFDF7C9
:10308000C5F853EC182BFDF768F994ED001B53ECD1
:10309000112BFDF7BBF8BDEC028B41EC100B70BDA2
:1030A0009FED070B10B553EC102B9FED070B51EC68
:1030B000100BFDF7C4F941EC100B10BD000000002F
:1030C0000000000000000000000000000000F03FD1
:1030D00010B553EC112B51EC100BFDF797F841ECA8
:1030E000100B10BD000000009FED050B10B553EC58
:1030F000102B51EC100BFDF7A2F941EC100B10BD99
:1031000000000000000000009FED050B10B553EC1F
:10311000102B51EC100BFDF720F941EC100B10BDFA
:1031200000000000000000709FED050B10B553EC8F
:10313000102B51EC100BFDF710F941EC100B10BDEA
:10314000000000000000001002E008C8121F08C1C3
:10315000002AFAD170477047002001E001C1121F18
:10316000002AFBD170470000014908607047000049
:10317000E000002000B58DB001212B48FDF7C7FC11
:1031800000212948FDF7B1FC2748FDF7B6FC00BF38
:103190002548FDF7F9FB0028FAD1009001904FF483
:1031A00000400290022003900A208DF8100069462A
:1031B0001D48FDF77BFB4FF4005005900020069062
:1031C0000790089009900A900B9002208DF830002B
:1031D00005A91548FDF7ECFB06230122032112483F
:1031E000FDF706FC0623022204210F48FDF700FC30
:1031F00002210D48FDF797FB01210B48FDF788FBE5
:1032000001210948FDF747FB00BF01210648FDF7F2
:10321000C5FB0028F9D001210448FDF743FD024811
:10322000FDF770FC0DB000BD000100500804024025
:1032300000B58BB001210220FEF792F90E480090F4
:103240000E480190002002900220ADF80C000020F2
:103250000490802005904000069080000790202078
:1032600008900002099000200A9069460448FDF782
:10327000EAFD0BB000BD000040010050300000200E
:103280000804024000B58DB001212D48FDF73FFC38
:1032900000212B48FDF729FC2948FDF72EFC00BF33
:1032A0002748FDF771FB0028FAD1009001904FF4F8
:1032B00000400290022003900A208DF81000694619
:1032C0001F48FDF7F3FA0020059006904FF4E070D8
:1032D00007904FF480600890002009900A900B90AE
:1032E00002208DF8300005A91548FDF761FB062383
:1032F000012205211248FDF77BFB062302220C2147
:103300000F48FDF775FB02210D48FDF70CFB01216D
:103310000B48FDF7FDFA01210948FDF7BCFA00BF93
:1033200001210748FDF73AFB0028F9D001210548A3
:10333000FDF7B8FC0248FDF7E5FB0DB000BD00004D
:10334000000400505804024000B58DB00121022055
:10335000FEF706F9184802901848039000200490E0
:103360004FF48070ADF81400002006908020079084
:10337000400008908000099020200A9000020B90E5
:1033800000200C903C208DF8040000208DF80600F1
:103390008DF8050001208DF8070001A8FEF750F810
:1033A000012202210648FDF745FD02A90448FDF768
:1033B0004AFD0DB000BD000040040050E4000020B4
:1033C0005804024000B58DB001212A48FDF79FFB4B
:1033D00000212848FDF789FB2648FDF78EFB00BF3A
:1033E0002448FDF7D1FA0028FAD1009001904FF45B
:1033F00000400290022003900A208DF810006946D8
:103400001C48FDF753FA4FF4005005900020069039
:103410004FF4E07007900020089009900A900B90FC
:1034200001208DF8300005A91248FDF7C1FA0623E6
:10343000012205210F48FDF7DBFA02210D48FDF7B7
:1034400072FA01210B48FDF763FA01210948FDF7E3
:1034500022FA00BF01210748FDF7A0FA0028F9D0A1
:1034600001210548FDF71EFC0248FDF74BFB0DB09E
:1034700000BD0000000500501C04024000B58BB0E8
:1034800001210220FEF76CF81048009010480190CE
:10349000002002900120ADF80C0000200490802054
:1034A00005904000069080000790202008900002C0
:1034B000099000200A90012202210648FDF7BAFC7B
:1034C00069460448FDF7BFFC0BB000BD4005005045
:1034D000360000201C0402401CB501214804FEF700
:1034E0003FF801218804FEF73BF8C020009003203C
:1034F0008DF8040000208DF8070069464FF09040D9
:10350000FDF7C0FC4FF60140009069460148FDF709
:10351000B9FC1CBD0004004810B51448FDF70CFAB6
:103520001348FDF709FA1348FDF706FA4FF48070C7
:10353000FDF7FEFF01210807FEF712F80E48FDF720
:10354000F7FF01214807FEF70BF8FFF7C5FF00F072
:1035500015F8FFF7F9FEFFF795FEFFF78FFFFFF76E
:1035600031FFFFF765FEFFF705FE10BD00010050BB
:103570000004005000050050002000101CB50C2075
:10358000FDF7B6FF6846FDF7CDFF002000900190E3
:1035900069460C20FDF7B4FF01210C20FDF792FFD6
:1035A0001CBD00002DE9F0412DED0A8BB0EE409AD4
:1035B00004460D46174698469FED590BB0EE40AABB
:1035C000F0EE60AA9FED560BB0EE40BAF0EE60BA96
:1035D0009FED530BB0EE408AF0EE608A286890FBB6
:1035E000F7F107FB110004EB800080ED009A2868DA
:1035F000401C286094ED000A10EE101A0846FCF7F3
:10360000ABFF41EC1B0B41EC1A0B002648E004EB2E
:10361000860090ED000A10EE101A0846FCF79CFF99
:1036200041EC1C0B53EC182BFCF7F0FD41EC180B94
:1036300004EB860090ED000A10EE101A0846FCF725
:103640008BFF41EC1C0B53EC1A2BFCF7B1FF0AD299
:1036500004EB860090ED000A10EE101A0846FCF705
:103660007BFF41EC1A0B04EB860090ED000A10EE94
:10367000101A0846FCF770FF41EC1C0B53EC1B2B97
:10368000FCF77EFF0AD204EB860090ED000A10EEF4
:10369000101A0846FCF760FF41EC1B0B701CC6B209
:1036A000BE42B4DB2868B84204D1012088F800008B
:1036B0000020286098F8000068B92868FCF72EFF01
:1036C00041EC1C0B53EC1C2B51EC180BFCF7B7FE18
:1036D00041EC180B1AE053EC1A2B51EC180BFCF7C9
:1036E00036FE41EC1C0B53EC1B2BFCF730FE41EC7F
:1036F000180BB81EFCF712FF41EC1C0B53EC1C2BF3
:1037000051EC180BFCF79BFE41EC180B51EC180B1D
:10371000FCF766FF00EE100ABDEC0A8BBDE8F081F5
:1037200000000000000000002DE9F0410546069E63
:103730000027BC460024106890FBF3F803FB180038
:1037400021F810501068401C106008888446074615
:10375000002012E031F81080444431F81080B84560
:1037600001DD31F8107031F81080E04501DA31F8F0
:1037700010C000F1010808F0FF009842EADB106871
:10378000984203D10120307000201060307818B9C1
:103790001068B4FBF0F405E0E01BA0EB0C04981EED
:1037A000B4FBF0F4A0B2BDE8F0810000014800884D
:1037B00070470000CA0000200120014908807047BE
:1037C000CA00002010B50C48007830B901F0C8FBE1
:1037D0000A4908600120084908700948016807483B
:1037E000006801F0C3FB30B10020034908700021DC
:1037F000044801F087FB10BDD8000020D000002055
:10380000D40000200938000810B504460548008897
:1038100000B910BD00200349088000F005F800BF82
:10382000F7E70000CA000020F0B52DED028BADF5E2
:10383000017D4FF4807141A8FCF7DDFC4FF48071ED
:1038400001A8FCF7D8FC0024002500260027002052
:1038500017E0424931F81010B1F5006F08DB3F491D
:1038600031F810302146641C41AA22F8113007E0DB
:103870003A4931F8103029466D1C01AA22F811305E
:10388000401C8028E5DB214641A800F091F829463C
:1038900001A800F08DF8282C0FDD0A2004E041A9D2
:1038A00031F810100E44401CA4F119018142F6DCDD
:1038B000A4F12300B6FBF0F604E00DF5017DBDECAC
:1038C000028BF0BD282D0FDD192004E001A931F88D
:1038D00010100F44401CA5F10A018142F6DCA5F14D
:1038E0002300B7FBF0F700E0E7E7F01B00EE100A5B
:1038F000B8EE400ADFED1A0A20EE200ADFED190AC1
:1039000080EE208ADFED180A88EE200ADFED170A24
:1039100080EE201A164880ED001A164B0A2216492E
:103920001648DFF84CC09CED000AFFF73BFE10483C
:1039300080ED000A90ED000ADFED110A20EE200A6A
:10394000BCEEC00A10EE100A80B200900122694657
:1039500041F2020001F062F800BFAEE7600B002008
:10396000333353400000804500004943CDCC4C3DEB
:10397000CC000020C8000020C4000020600C002003
:1039800000007A4470B5024600231446802901DA0B
:103990000B4600E08023002005E034F82050034E61
:1039A00026F81050401C9842F7DB70BD600B0020D9
:1039B00070B50B46002113E04A1C0EE030F81150A0
:1039C00030F81260B54207DD30F8114030F812507F
:1039D00020F8115020F81240521C9A42EEDB491C8C
:1039E0005D1E8D42E8DC70BD30B502460B46FF20FF
:1039F000002111E0545C604000240AE000F08005E2
:103A000025B1312585EA4005E8B201E04506280EDA
:103A1000641C082CF2DB491C9942EBD330BD00003A
:103A20001FB501214807FDF7BBFD1748FDF79EF8BC
:103A30002420009000200190029003906A4600210B
:103A40001148FDF7AFF8012200210F48FDF770F88B
:103A5000012200210C48FDF779F800200090019028
:103A60000290022003906A4610210748FDF79AF859
:103A7000012210210448FDF75BF840F2FF7200219B
:103A80000148FDF7A4F81FBD0074004000B58BB0DD
:103A900001210220FDF764FD1248FDF70FF91248DD
:103AA000009012480190102002908020ADF80C0088
:103AB0000020049080200590400006908000079030
:103AC000202008904FF44050099000200A90694649
:103AD0000448FDF7B8F901210248FDF7E3F80BB0FF
:103AE00000BD00003004024008740040E4020020E1
:103AF0001CB501214804FDF733FD01210846FDF7FF
:103B00006FFD3020009003208DF804008DF8050033
:103B100000208DF8070069464FF09040FDF7B2F99C
:103B20001CBD000010B5802340F2FF724FF49B7162
:103B3000044800F04AFDFFF7DBFFFFF771FFFFF7D6
:103B4000A5FF10BDE402002082B0CDE9000121F004
:103B5000004001909DED000B02B051EC100B70473E
:103B600030B52DED0C8B83B000F04AFD04463C4887
:103B70000A233C4A3C4900902046FFF7D5FD044605
:103B80002046FCF7DCFC41EC1B0B9FED380B53ECA3
:103B9000102BFCF7E2FB41EC1A0B9FED360B53ECBC
:103BA000102BFCF74CFC41EC190BFCF719FD08EE4F
:103BB000900A9FED320A10EE105A00200290F5EEA6
:103BC000C08AF1EE10FA09D09FED2D0AF2EE040A38
:103BD00000EEE80AC0EE280A10EE905A2948D0F804
:103BE00005100846FCF7B8FC41EC1C0B2846FCF716
:103BF000B3FC41EC1D0BB0EE4C1AF0EE6C1AB0EEBB
:103C00004D0AF0EE6D0AFEF7A7FBB0EE40AAF0EE0B
:103C100060AA1C48D0F801100846FCF79DFC41EC56
:103C20001B0B53EC1A2BFCF798FB41EC190BFCF720
:103C3000D7FC08EE100ABCEEC80A10EE100A80B2DB
:103C4000029018EE100A0F498861012202A941F280
:103C5000070000F0E3FE03B0BDEC0C8B30BD0000AC
:103C6000B0000020AC0000204C0B002066666666A9
:103C700066660A400000000000FEAF400000000041
:103C800000000442000B002010B50A48C07C20B19F
:103C9000012805D0022809D105E000F00DF806E062
:103CA00000F02EF803E0FFF75BFF00E000BF00BF6D
:103CB00010BD0000000B002010B500F0A1FC0D4964
:103CC0000A680968491C0B4B19600B4921F812005E
:103CD000184600680A2802D101200849C87405481E
:103CE00000680A2190FBF1F201FB12000149086013
:103CF00010BD0000AC0000204C0B0020000B002089
:103D00002DE9F0412DED0C8B00F07AFC6C490A682E
:103D10000968491C6A4B19606A4921F81200184663
:103D200000680A2190FBF1F201FB120019460860BD
:103D30000024002500270026624800880546044626
:103D4000002014E05F4931F81010A14202DD5D4906
:103D500031F810405B4931F81010A94202DD594991
:103D600031F81050574931F810100E44401C0A2801
:103D7000E8DB9FED550AF0EE408A9FED530AF0EE26
:103D800040AA9FED510AB0EE408A0A20B6FBF0F837
:103D90004046FCF7D4FB41EC1D0B9FED4C0B53EC64
:103DA000102BFCF7DAFA41EC1C0B9FED4A0B53EC9D
:103DB000102BFCF744FB41EC1B0BFCF711FC08EE4D
:103DC000900A2046FCF7BBFB41EC1D0B9FED3F0B1F
:103DD00053EC102BFCF7C1FA41EC1C0B9FED3D0B93
:103DE00053EC102BFCF72BFB41EC1B0BFCF7F8FB07
:103DF0000AEE900A2846FCF7A2FB41EC1D0B9FED52
:103E0000330B53EC102BFCF7A8FA41EC1C0B9FED85
:103E1000310B53EC102BFCF712FB41EC1B0BFCF7A6
:103E2000DFFB08EE100A9FED289ADFED279A9FED41
:103E300026AAF5EEC08AF1EE10FA09D09FED270A06
:103E4000F0EE000A00EEE80AC0EE280AB0EE609A32
:103E5000B5EEC08AF1EE10FA09D09FED200AF0EE1F
:103E6000000A00EEEA0AC0EE080AF0EE609AB5EE2B
:103E7000C08AF1EE10FA09D09FED180AF0EE000AA0
:103E800000EEC80AC0EE080AB0EE60AA39EECA0A0F
:103E9000BCEEC00A10EE107A052F0CD2B2EE040A66
:103EA000B4EEC09AF1EE10FA05DD02200C49C87498
:103EB000002003490860BDEC0C8BBDE8F0810000D8
:103EC000AC0000204C0B0020000000006666666617
:103ED00066660A40000000000000B0403333D34063
:103EE000000B002030B52DED0C8B83B000F092FB61
:103EF00004463C480A233C4A3C4900902046FFF7D0
:103F000013FC04462046FCF71AFB41EC1B0B9FED0B
:103F1000380B53EC102BFCF720FA41EC1A0B9FEDF9
:103F2000360B53EC102BFCF78AFA41EC190BFCF71B
:103F300057FB08EE900A9FED320A10EE105A00204F
:103F40000290F5EEC08AF1EE10FA09D09FED2D0A2D
:103F5000F0EE000A00EEE80AC0EE280A10EE905AD1
:103F60002948D0F80D100846FCF7F6FA41EC1C0B76
:103F70002846FCF7F1FA41EC1D0BB0EE4C1AF0EEBE
:103F80006C1AB0EE4D0AF0EE6D0AFEF7E5F9B0EEF0
:103F900040AAF0EE60AA1C48D0F809100846FCF7C9
:103FA000DBFA41EC1B0B53EC1A2BFCF7D6F941EC76
:103FB000190BFCF715FB08EE100ABCEEC80A10EE50
:103FC000100A80B2029018EE100A0F4948610122CF
:103FD00002A941F2070000F021FD03B0BDEC0C8BFB
:103FE00030BD0000A8000020A4000020380B0020F5
:103FF0006666666666660A400000000000FEAF4026
:10400000000000003333D340000B002010B50A48F5
:10401000407C20B1012805D0022809D105E000F03C
:104020000DF806E000F02EF803E0FFF75BFF00E07C
:1040300000BF00BF10BD0000000B002010B500F055
:10404000E9FA0D490A680968491C0B4B19600B49CC
:1040500021F81200184600680A2802D101200849F8
:104060004874054800680A2190FBF1F201FB120038
:104070000149086010BD0000A4000020380B00209A
:10408000000B00202DE9F0412DED0C8B00F0C2FA61
:104090006C490A680968491C6A4B19606A4921F829
:1040A0001200184600680A2190FBF1F201FB120091
:1040B0001946086000240025002700266248008871
:1040C00005460446002014E05F4931F81010A14273
:1040D00002DD5D4931F810405B4931F81010A9420A
:1040E00002DD594931F81050574931F810100E448B
:1040F000401C0A28E8DB9FED550AF0EE408A9FED50
:10410000530AF0EE40AA9FED510AB0EE408A0A2011
:10411000B6FBF0F84046FCF712FA41EC1D0B9FEDA0
:104120004C0B53EC102BFCF718F941EC1C0B9FEDDA
:104130004A0B53EC102BFCF782F941EC1B0BFCF7FC
:104140004FFA08EE900A2046FCF7F9F941EC1D0BF6
:104150009FED3F0B53EC102BFCF7FFF841EC1C0BD1
:104160009FED3D0B53EC102BFCF769F941EC1B0B59
:10417000FCF736FA0AEE900A2846FCF7E0F941EC23
:104180001D0B9FED330B53EC102BFCF7E6F841ECC5
:104190001C0B9FED310B53EC102BFCF750F941EC4D
:1041A0001B0BFCF71DFA08EE100A9FED289ADFEDB5
:1041B000279A9FED26AAF5EEC08AF1EE10FA09D0F3
:1041C0009FED270AF0EE000A00EEE80AC0EE280A8A
:1041D000B0EE609AB5EEC08AF1EE10FA09D09FED0C
:1041E000200AF0EE000A00EEEA0AC0EE080AF0EE3D
:1041F000609AB5EEC08AF1EE10FA09D09FED180A68
:10420000F0EE000A00EEC80AC0EE080AB0EE60AA9E
:1042100039EECA0ABCEEC00A10EE107A052F0CD295
:10422000B2EE040AB4EEC09AF1EE10FA05DD0220F7
:104230000C494874002003490860BDEC0C8BBDE8B4
:10424000F0810000A4000020380B002000000000D6
:104250006666666666660A40000000000000B040C0
:104260003333D340000B002000B500F009F80020E4
:104270000249C8744874887400BD0000000B002017
:1042800016480078012818D0B7EE000A10EE100A80
:104290001249C1F80900B7EE000A10EE100AC1F881
:1042A0000D00B7EE000A10EE100AC1F80100B7EEDB
:1042B000000A10EE100AC1F805009FED090A10EE81
:1042C000100A064988619FED060A10EE100A48613F
:1042D0009FED030A10EE100AC8617047000B002022
:1042E000000000000120014908707047000B002009
:1042F0002DE9FC410020019000260024002500F05B
:104300008FF9074631480A23314A3249009038462E
:10431000FFF70AFA07462F482D49096830F811605F
:104320002B49096830F81140002008E0294931F88C
:104330001010A14202DA274931F81040401C0A2827
:10434000F4DB2548C06900EE100AB5EEC00AF1EEB4
:1043500010FA12D12048006A78B9301B85B2B5F541
:10436000FA7F21DB1D480580B7EE000A10EE100A27
:104370001949C8611E20086216E018480088201AF2
:10438000B0F5967F07DB1448006A20B11248006A36
:10439000401E114908621048006A28B99FED100AB2
:1043A00010EE100A0C49C8610B48C06900EE100AF3
:1043B000BCEEC00A10EE100A80B20190012201A9E1
:1043C00041F2080000F02AFBBDE8FC81A0000020BB
:1043D0009C000020240B0020000B0020B6000020D1
:1043E0000000000010B50A48807C20B1012805D0EB
:1043F000022809D105E000F00DF806E000F030F8E1
:1044000003E0FFF775FF00E000BF00BF10BD000034
:10441000000B00201CB50121C804FDF7A1F8012103
:104420000846FDF7DDF84FF40050009001208DF8AC
:10443000040003208DF8050000208DF80700694670
:104440000548FCF71FFD4FF400510348FCF793FDAE
:104450000120024988741CBD00080048000B0020A0
:10446000F8B500F0DDF804460025002600273B489B
:10447000007820B101281FD002286BD138E03848DD
:104480000A23384A384900902046FFF74DF9044680
:104490003348007801280ED1B4F57A7F0BDD002077
:1044A0002F4908702F49086001202C4908704103EA
:1044B0002E48FCF75EFD4EE029480A23294A2A4986
:1044C00000902046FFF730F904462548007801287F
:1044D0000DD1C82C0BDA0020214908702149086051
:1044E00002201E49087001032048FCF744FD00BF6C
:1044F0001B480A231B4A1C4900902046FFF714F969
:1045000004461748007800B9F8BD174806880588A2
:10451000002010E0144931F81010B14202DD1249B8
:1045200031F81060104931F81010A94202DA0E4932
:1045300031F81050401C0A28ECDB701B87B2C82FE2
:1045400007DA02200A4988740020054908700549E5
:10455000086000BF00BF00BF00BFD5E7B400002067
:10456000A00000209C000020240B00200008004830
:10457000000B002010B50C48007830B900F0F0FCBA
:104580000A4908600120084908700948016807487D
:10459000006800F0EBFC30B10020034908700021F6
:1045A000044800F0AFFC10BDC0000020B80000209F
:1045B000BC000020B945000810B50446FFF712FF03
:1045C000FFF724FDFFF760FB10BD70B50446002027
:1045D0000CE003EBD376B0EB660F03DA551824F842
:1045E000105002E0551A24F81050401C9842F0DB9D
:1045F00070BD0000014800887047000036000020B0
:104600000020024908700248008870473A000020E4
:10461000380000200148408870470000300000202A
:104620000148008870470000300000201CB50121BF
:104630008804FCF795FF4FF40070009001208DF87E
:10464000040003208DF8050069460448FCF71AFCB5
:104650004FF400710148FCF78CFC1CBD00040048BD
:1046600010B5FFF7E3FF00F001F810BD10B54FF4EF
:1046700000710248FCF77DFC10BD000000040048FA
:1046800010B54FF400710248FCF775FC10BD000036
:104690000004004810B50C48007830B900F060FC08
:1046A0000A4908600120084908700948016807485C
:1046B000006800F05BFC30B1002003490870002165
:1046C000044800F01FFC10BD540000204C000020E6
:1046D00050000020D946000810B50446074800786D
:1046E00028B9012005490870FFF7C0FF04E0002049
:1046F00002490870FFF7C4FF10BD00004800002009
:104700002149481EB0F1807F00D31BE0481E4FF0C6
:10471000E022506150170F22002807DA13071D0E00
:104720001A4B00F00F04241F1D5503E013071C0E45
:10473000174B1C5400BF00204FF0E022906107206F
:10474000106100BF00F06CF800F0D2FBFFF788FFAB
:10475000FFF7E8F9FEF7E0FE00F06CFC00F0E0FC8B
:10476000FFF782FD0B48FCF709FC0BE0FFF792FF17
:10477000FCF71EFDFFF726F8FCF780FDFFF7FAFEB9
:1047800000F05CFBF2E700004019010018ED00E0CA
:1047900000E400E0B00A002030B502460B464FF6B8
:1047A000FF70002109E0555C4540ECB2044D35F83E
:1047B000145085EA20204C1CA1B29942F3DB30BD95
:1047C000E4030020F0B5C1B005460E464FF48071F9
:1047D00001A8FBF710FD00240027104802782146AD
:1047E000641C01A8425405F18000C2B22146641C39
:1047F00001A842542146641C4654611CFFF7CCFFBB
:1048000007463A0A2146641C01A842542146641C0A
:104810004754214600F08AFC41B0F0BD550000200D
:1048200030B54AF20104002014E0002182B20023D6
:104830000AE081EA020505F0010515B184EA61018B
:1048400000E0491052105B1C082BF2DB034B23F8ED
:104850001010401CFF28E8DD30BD0000E4030020FC
:104860002DE9F04704460D464FF00009CA4620786E
:104870001D490978884201D0BDE8F087A81E215C57
:10488000681E205C41EA0029A81E81B22046FFF77D
:1048900083FF8246D14500D0EEE76678E078A178C4
:1048A00040EA01276079217940EA0128032E04D0EB
:1048B000042E03D0102E0ED106E000BF424639462A
:1048C000304600F013F80BE02346424639463046A6
:1048D00000F0E0F804E001213046FFF773FF00BF6D
:1048E00000BF00BFC8E70000550000202DE9F043DD
:1048F000C1B007460C4616464FF4807101A8FBF77D
:104900007AFC0025A846A946142E06DD0321384668
:10491000FFF758FF41B0BDE8F083B4F5805F03DADC
:10492000334800EB440928E0B4F5005F05DAA4F54C
:104930008050304901EB40091FE0B4F5405F05DAD3
:10494000A4F500502C4901EB400916E0B4F5804F66
:1049500005DAA4F54050294901EB40090DE0B4F512
:10496000A04F05DAA4F58040254901EB400904E099
:1049700002213846FFF726FFCCE722480278284676
:10498000691C8DB201A90A542846691C8DB201A97F
:104990000F547000C0F307222846691C8DB201A98C
:1049A0000A547006020E2846691C8DB201A90A54E9
:1049B000720048194946FBF705FC05EB460085B235
:1049C000294601A8FFF7E8FE80462846691C8DB2FB
:1049D00001A901F800804FEA18222846691C8DB20F
:1049E00001A90A54294601A800F0A0FB00BF91E7E5
:1049F000E40500200C060020340600205C060020A0
:104A0000840600205500002010B5002201880B0A02
:104A1000CCB243EA0422028010BD00002DE9F0412F
:104A200004460E4615460027B4F5805F03DA1548A4
:104A300000EB44071CE0B4F5005F05DAA4F58050F4
:104A4000114901EB400713E0B4F5405F05DAA4F526
:104A500000500E4901EB40070AE0B4F5804F05DA3B
:104A6000A4F540500A4901EB400701E0BDE8F081A0
:104A70006A0031463846FBF7A5FB3846FFF7C4FF0E
:104A800000BFF3E7E40500200C06002034060020F8
:104A90005C0600202DE9F04FC1B082460C46164658
:104AA0001F464FF4807101A8FBF7A5FB0025AB461C
:104AB000A846142E06DD03215046FFF783FE41B0C1
:104AC000BDE8F08FB4F5805F03DA3B4800EB4408A3
:104AD00010E0B4F5A04F08DAB4F5804F05DBA4F57B
:104AE0008040364901EB400804E002215046FFF7C0
:104AF00069FEE4E74FF00009B4F5804F04D1B879BE
:104B0000797940EA012906E098F800000002B8F837
:104B1000001040EA1129B4F5804F07DBB9F1010F0D
:104B200004D004215046FFF74DFEC8E7B9F1010F4C
:104B300001D1FFF7D7FB7200791D4046FBF742FB1E
:104B40001F4802782846691C8DB201A90A542846DC
:104B5000691C8DB201A901F800A022122846691C27
:104B60008DB201A90A542846691C8DB201A90C54C2
:104B700032122846691C8DB201A90A542846691CC4
:104B80008DB201A90E54294601A8FFF705FE834600
:104B90002846691C8DB201A901F800B04FEA1B221A
:104BA0002846691C8DB201A90A54294601A800F0C3
:104BB000BDFA00BF83E70000E40500208406002062
:104BC0005500002010B50446A189A068FCF7D1F972
:104BD00000F00DF8A1882068FCF7CDF900F007F887
:104BE000A189A068FCF7C7F900F001F810BD08B56D
:104BF0000020009002E00098401C0090009864287B
:104C0000F9DB08BD1CB504460CB900201CBDC02052
:104C1000009001208DF8040000208DF8070001208D
:104C20008DF8060069460648FCF72CF94021044837
:104C3000FCF79FF980210248FCF79BF90120E5E78A
:104C40000004004870B50446FFF7D1FFA188206832
:104C5000FCF791F9FFF7CBFFA189A068FCF780F979
:104C60000546A1882068FCF784F9284670BD70B518
:104C700004460025002104F1080000F01DF8FFF7AC
:104C8000B6FFA1882068FCF776F9FFF7B0FFA1898D
:104C9000A068FCF765F900B90125A1882068FCF738
:104CA00068F9FFF7A4FF012104F1080000F004F8FF
:104CB000FFF79DFF284670BD7CB504460D46A088D1
:104CC00000908DF8045000208DF8070001208DF829
:104CD000060069462068FCF7D5F87CBD70B504462F
:104CE0000D4625B1A189A068FCF743F903E0A1892D
:104CF000A068FCF740F9FFF77AFFA1882068FCF76D
:104D00003AF9FFF774FFA1882068FCF732F9FFF742
:104D10006EFFA189A068FCF72EF970BD10B504469E
:104D2000A189A068FCF725F9FFF761FFA188206839
:104D3000FCF71FF9FFF75BFF10BD70B504460D4689
:104D400025B1A189A068FCF716F903E0A189A06844
:104D5000FCF70FF9FFF74BFFA1882068FCF70BF970
:104D6000FFF745FFA1882068FCF703F970BD70B517
:104D700004460D46002608E005F080012046FFF7B6
:104D8000DCFF6806050E701CC6B2082EF4DBA18994
:104D9000A068FCF7F0F870BD70B50446002500214E
:104DA00004F10800FFF788FF002607E02046FFF720
:104DB00049FF40EA4500C5B2701CC6B2082EF5DBBB
:104DC000012104F10800FFF777FF284670BD00B508
:104DD0002DED048B83B041EC190BFBF70BFD41EC7F
:104DE000180B18EE100A18EE901A8DED008B0028A3
:104DF00018BF0120084320F00040C0F17F6000F19F
:104E0000E040C00F14D019EE101A19EE900A8DED83
:104E1000009B002918BF0121084320F00040C0F189
:104E20007F6000F1E040C00F04BF0120FEF79CF955
:104E300051EC180B03B0BDEC048B00BD10B54BE07A
:104E40002A48B0F8F00000EB4000284901EB800050
:104E5000007A012809D10020B1F8F01001EB4101DE
:104E6000224A02EB8101087212E02048B0F8F000FB
:104E7000401C1E49A1F8F0000846B0F8F0001421CB
:104E800090FBF1F201FB12001849A1F8F00023E0B9
:104E9000164AB2F8F02002EB4202144B03EB8202F6
:104EA00050681A46B2F8F02002EB420253F8221082
:104EB00088470E48B0F8F000401C0C49A1F8F000FB
:104EC0000846B0F8F000142190FBF1F201FB12004B
:104ED0000649A1F8F00000BF0448B0F8F00003490B
:104EE000B1F8F2108842ABD110BD0000880C002050
:104EF00000200349A1F8F000A1F8F200704700007B
:104F0000880C00203EB50090019101228DF8082008
:104F10000E4AB2F8F22002EB42020C4B03EB820283
:104F20009DE8380038C2094AB2F8F220521C074BFB
:104F3000A3F8F2201A46B2F8F220142392FBF3F4FD
:104F400003FB1422014BA3F8F2203EBD880C002085
:104F500002480068401C014908607047DC000020DE
:104F60000148006870470000DC00002010B50246D0
:104F70000B4600210024FFF7F3FF0146914203D2C4
:104F8000C2F1FF30441800E08C1A9C4201D9012084
:104F900010BD0020FCE700B589B04FF08040FCF761
:104FA000CDFE4FF4E060FCF783FA1C208DF814006E
:104FB00001208DF8150003208DF8160001208DF8D2
:104FC000170005A8FCF73CFA01210846FCF7E8FAAF
:104FD00006A8FDF713F840F2322007900020ADF844
:104FE0001800ADF82000ADF81A0006A94FF0804077
:104FF000FCF7B0FF20214806FCF7A2FF6846FCF74B
:1050000095FF602000900020ADF80C000120ADF865
:105010000400C82002906946C006FCF747FF012142
:105020008807FCF77EFE1F214FF08040FCF775FEDD
:1050300009B000BD10B5FFF7AEFF10BD00B587B0D9
:1050400001214804FCF7ACFA4FF4E060FCF730FAB9
:1050500026208DF8000000208DF801008DF8020058
:1050600001208DF803006846FCF7EAF91848FDF7BF
:105070003FF84FF4E130019000200290039004903B
:1050800006900C20059001A91148FDF7CBF80122EC
:1050900010490F48FDF7A8F801220F490C48FDF709
:1050A000A3F801210A48FDF718F800BF4FF480016A
:1050B0000748FDF76BF80028F8D000BF4FF4001147
:1050C0000348FDF763F80028F8D007B000BD0000E2
:1050D0000044004005010500040104001CB5012145
:1050E0008804FCF73DFA1820009002208DF8040097
:1050F00003208DF8050000208DF80600694607485A
:10510000FBF7C0FE072203210448FBF706FF072236
:1051100004210248FBF701FF1CBD00000004004809
:1051200010B5FFF7DBFFFFF789FF10BD70B505462F
:105130000E4600240BE0295D0648FDF7EEF800BF9F
:1051400040210448FDF722F80028F9D0641CB4423D
:10515000F1DB70BD0044004000005CC2000058C29A
:10516000000054C2000050C200004CC2000048C2FF
:10517000000044C2000040C200003CC2000038C22F
:10518000000034C2000030C200002CC2000028C25F
:10519000000024C2000020C200001CC2000018C28F
:1051A000000014C2000010C200000CC2000008C2BF
:1051B000000004C2000000C20000F8C10000F0C1FD
:1051C0000000E8C10000E0C10000D8C10000D0C16B
:1051D0000000C8C10000C0C10000B8C10000B0C1DB
:1051E0000000A8C10000A0C1000098C1000090C14B
:1051F000000088C1000080C1000070C1000060C1D3
:10520000000050C1000040C1000030C1000020C1BA
:10521000000010C1000000C10000E0C00000C0C0DC
:105220000000A0C0000080C0000040C0000000C01E
:10523000000080BF000000000000803F0000004030
:1052400000004040000080400000A0400000C0403E
:105250000000E0400000004100001041000020413B
:10526000000030410000404100005041000060411A
:105270000000704100008041000088410000904122
:10528000000098410000A0410000A8410000B0418A
:105290000000B8410000C0410000C8410000D041FA
:1052A0000000D8410000E0410000E8410000F0416A
:1052B0000000F841000000420000044200000842E3
:1052C00000000C420000104200001442000018428E
:1052D00000001C420000204200002442000028423E
:1052E00000002C42000030420000344200003842EE
:1052F00000003C420000404200004442000048429E
:1053000000004C420000504200005442000058424D
:1053100000005C42000060420000644200006842FD
:1053200000006C42000070420000744200007842AD
:1053300000007C4200008042000082420000844263
:10534000000086420000884200008A4200008C4231
:1053500000008E4200009042000092420000944201
:10536000000096420000984200009A4200009C42D1
:1053700000009E420000A0420000A2420000A442A1
:105380000000A6420000A8420000AA420000AC4271
:105390000000AE420000B0420000B2420000B44241
:1053A0000000B6420000B8420000BA420000BC4211
:1053B0000000BE420000C0420000C2420000C442E1
:1053C0000000C6420000C8420000CA420000CC42B1
:1053D0000000CE420000D0420000D2420000D44281
:1053E0000000D6420000D8420000DA420000DC4251
:1053F0000000DE420000E0420000E2420000E44221
:105400000000E6420000E8420000EA420000EC42F0
:105410000000EE420000F0420000F2420000F442C0
:105420000000F6420000F8420000FA423353814483
:1054300062C06F44EE5C5E44D15A4E44C79B3F4409
:1054400039043244447B2544FCE91944C73B0F44EA
:10545000D35D0544D37DF843B89EE743EC01D843C0
:10546000508DC943F628BC435CBFAF436A3CA4439C
:10547000148E9943B6A38F43F46D8643B2BD7B432C
:1054800075D36B4360055D43F43D4F4379694243F7
:10549000C3753643EC512B4398EE2043B23D17437E
:1054A0002D320E4300C00543CFB7FB4252F8EC4209
:1054B000912DDF422B47D2423934C64266E6BA42CA
:1054C000DF4FB042D763A64287169D42B25D944239
:1054D000982E8C42008084426F927A421F056D4262
:1054E000B4486042DF4F5442500D4942BC743E42C2
:1054F000E77B344293182B428340224285EB1942CA
:1055000068111242F6A80A420EAD0342F628FA418B
:1055100052B8ED41CFF7E1412FDDD6414260CC4199
:10552000BC74C2417B14B9413F35B041E5D0A741BD
:1055300060E59F411D5A9841643B9141E17A8A415F
:105540007B14844131087C41448B7041CBA165417F
:10555000AE475B41A4705141AC1C48417D3F3F4187
:10556000FED43641FED42E41643B27410000204149
:10557000B81E19417593124104560C417F6A0641C9
:105580009CC40041B4C8F6401283EC4083C0E240A2
:10559000A470D9407593D040C520C8403108C040A0
:1055A0001D5AB840F4FDB040B6F3A9409643A3405D
:1055B0002FDD9C4052B8964060E59040C74B8B4031
:1055C000B6F38540FED480409EEF77408D976E40C5
:1055D000CBA16540560E5D402FDD5440F4FD4C409C
:1055E000A4704540A2453E40295C374039B4304064
:1055F000355E2A40BA492440C9761E40FED4184080
:10560000BC741340A2450E4010580940A69B0440AC
:1056100000000040C74BF73F17D9EE3FB4C8E63F44
:10562000DBF9DE3F508DD73F8941D03F1058C93F4D
:1056300021B0C23FBA49BC3FDD24B63F8941B03FEB
:10564000FA7EAA3FF4FDA43F77BE9F3FBE9F9A3FDC
:105650008FC2953F2506913F7F6A8C3F6210883F3D
:105660000AD7833FEE7C7F3FD9CE773FC520703F7E
:1056700039B4683FC1CA613F48E15A3F5839543F85
:105680007B144E3F9EEF473F4A0C423FF6283C3F7B
:10569000B4C8363F7368313FBA492C3F022B273FCD
:1056A0005C8F223F2DB21D3F1058193FF4FD143F6F
:1056B000D7A3103FCDCC0C3F39B4083F2FDD043FBA
:1056C000AE47013F5A64FB3E6ABCF43E7B14EE3E9B
:1056D0008B6CE73EAE47E13ED122DB3EF4FDD43E8B
:1056E000295CCF3E713DCA3EA69BC43EEE7CBF3EC8
:1056F000355EBA3E8FC2B53ED7A3B03E448BAC3EBA
:10570000000000000000F03F000000000000F83F33
:1057100000000000000000000000004003B8E23F6D
:10572000000000000000000006D0CF43EBFD4C3E1F
:10573000033333333333E33FFFAB6FDBB66DDB3F14
:105740004D268F515555D53F01411DA96074D13F5C
:1057500065DBC9934A86CD3FEF4E454A287ECA3F56
:105760003E5555555555C53F93BDBE166CC166BFD8
:105770002CDE25AF6A56113FF16BD2C541BDBBBED1
:10578000D0A4BE726937663E000000000000000031
:10579000B057000800000020E40000004831000875
:1057A00094580008E40000209C2C000058310008A8
:1057B00000000000010203040102030406070809B7
:1057C000010002000400060008000A000C0010009E
:1057D00020004000800000010000000000000000E8
:1057E00000000000000000000000000000000000B9
:1057F00000000000000000000000000000000000A9
:10580000F4010000000100001D4D0008C54B000818
:105810006F4D0008994D0008DD4C00086F4C0008E2
:105820000100000000000000000000006400000013
:105830000000000000000000000000000000000068
:1058400000000000F4010000000000000000000063
:105850000000000000000000000000000000000048
:1058600000000400000000000000000064000000D0
:105870000000000000000000000000000000000028
:1058800000000000F4010000000000000000000023
:045890000000000014
:040000050800018965
:00000001FF
