:020000040800F2
:1000000090440020A1010008B1160008A9160008BC
:10001000AD160008FD0200082728000800000000B7
:100020000000000000000000000000002521000882
:10003000E70F000800000000C91A00081922000894
:10004000BB010008BB010008BB010008BB010008A0
:10005000BB010008BB010008BB010008BB01000890
:10006000BB010008BB010008BB010008BB01000880
:10007000BB010008BB010008BB010008BB01000870
:10008000BB010008BB010008BB010008BB01000860
:10009000BB010008BB010008BB010008BB01000850
:1000A000BB01000899220008BB010008BB01000841
:1000B000A9220008BB010008BB010008BB01000821
:1000C000BB010008BB010008BB010008BB01000820
:1000D000BB010008BB01000821250008BB01000886
:1000E000BB010008BB010008BB010008BB01000800
:1000F000BB010008BB010008BB010008BB010008F0
:10010000000000000000000000000000BB0100082B
:10011000BB010008BB010008BB010008BB010008CF
:10012000BB0100084D0D0008BB010008BB01000821
:10013000790D0008BB01000800000000000000006D
:10014000BB010008BB010008BB0100080000000063
:10015000000000000000000000000000000000009F
:100160000000000000000000BB010008BB01000807
:10017000BB010008000000000000000000000000BB
:1001800000000000BB010008DFF810D000F0ACFB5D
:100190000048004791590008AFF3008090440020C8
:1001A0000648804706480047FEE7FEE7FEE7FEE711
:1001B000FEE7FEE7FEE7FEE7FEE7FEE72122000896
:1001C0008901000840EA01039B0703D009E008C940
:1001D000121F08C0042AFAD203E011F8013B00F80C
:1001E000013B521EF9D27047D2B201E000F8012B58
:1001F000491EFBD270470022F6E710B513460A46A7
:1002000004461946FFF7F0FF204610BD10B5002246
:1002100000E0521C835C8C5CA34201D1002BF8D11E
:10022000D8B2E1B2401A10BD30B5044600200346F2
:1002300000E05B1C934203D2E05CCD5C401BF8D035
:1002400030BD0EB5C10F80EAE0700844CA07002136
:1002500040F233438DE80E000A460B4600F0DEFA0A
:1002600003B000BD0EB540F2334102910021CDE94B
:1002700000110A460B4600F0D1FA03B000BD00F0B1
:10028000004230F000400AD0C10D01F56071C0F3AA
:10029000160042EA0151C20840071143704700208E
:1002A0000146704730B5041E71F1000404DB4FF0C5
:1002B0000044404264EB0101141E73F1000405DBAD
:1002C0001C464FF00043524263EB04038B4208BFCD
:1002D000824230BD202A04DB203A00FA02F10020DD
:1002E00070479140C2F1200320FA03F31943904074
:1002F0007047816841F000418160704700BFFEE7B0
:10030000E90707001900000000000000B5E7B3D8B6
:10031000D0C5CFA2B2C9BCAFC8EDBCFE0000000082
:1003200000000000000000000000000000000000CD
:1003300000000000000000000000000000000000BD
:1003400000000000000000000000000000000000AD
:10035000000000000000000000000000000000009D
:10036000000000000000000000000000000000008D
:10037000CCECCEA2B5E7D7D3A1AAA1AAEFAEB5E740
:10038000000000000000000000000000000000006D
:10039000000000000000000000000000000000005D
:1003A000000000000000000000000000000000004D
:1003B000000000000000000000000000000000003D
:1003C000000000000000000000000000000000002D
:1003D000000000002DE9FE4F804681EA0300C00FB7
:1003E0000C46009021F0004123F00045B8EB0200DC
:1003F000A94105D24046214690461C460B4602467E
:1004000023F00040104347D0270DC7F30A00C3F381
:100410000A510290401A019040286BDAC3F313008E
:1004200040F4801B0098924620B10023D2EB030ACF
:1004300063EB0B0B01985946C0F140025046FFF7A1
:1004400049FF06460D4650465946019A00F08EF97E
:1004500010EB08006141002487EA115284EAE77337
:100460001A4340D0009A62B3019A012A4FEA075218
:1004700015DC001B61EB02014FF0004202EA07525B
:10048000CDE90042001C41F5801132462B4600F0B8
:10049000C5F903B0BDE8F08F40462146F9E7001BDF
:1004A00061EB0201001C41F5801300185B4120182C
:1004B000A2F5001747EB030140EAD570B6196D416C
:1004C00011E06D084FEA360645EAC0754FEA07525B
:1004D000001B61EB0201001C41F5801149084FEA45
:1004E00030000019514132462B4603B0BDE8F04FB1
:1004F00000F085B90098012240000023D0EB0202F1
:1005000063EBE073009821464FEAE074B8EB00001B
:1005100061EB0401E9E783F000435BE781F0004110
:1005200058E72DE9FE4F81EA030404F0004421F06E
:10053000004100944FF0000B23F0004350EA010407
:100540005ED052EA03045BD0C3F30A54C1F30A55E8
:100550002C44A4F2F3340194A0FB0254C1F3130120
:1005600041F48011C3F3130343F4801301FB0244ED
:1005700000FB034E840A970A44EA815447EA8357F2
:10058000A4FB076802958D0A05FB07854FEA932CAB
:1005900004FB0C542705029D4FEA065847EA16371C
:1005A000B5EB08056EEB070C870E920E47EA811734
:1005B00042EA8312A7FB0201B6EB0B0164EB0004D5
:1005C0002B0D43EA0C335E1844EB1C50DA465146BF
:1005D000E7FB0201C5F313044FEA0B3343EA14535C
:1005E0004FEA0432019C43EA0603A4F10C0402948E
:1005F000009CCDE900B400F011F903B0BDE8F08F24
:1006000000200146F9E72DE9F04D81EA030404F0EA
:10061000004B21F0004514464FF0000A23F0004142
:1006200050EA050220D054EA01021DD0C5F30A5752
:100630000246C5F31303C1F31300C1F30A5640F495
:10064000801543F48013A7EB0608101BD64608F26A
:10065000FD3873EB050002D308F1010801E09218A0
:100660005B41B8F1000F03DA00200146BDE8F08DD0
:1006700000204FF48011064684460EE0171B73EBF2
:10068000050705D3121B63EB050306434CEA010C77
:1006900049084FEA300092185B4150EA0107EDD15A
:1006A00052EA030012D082EA040083EA05010843FB
:1006B00005D0101BAB4106D20122002306E0002228
:1006C0004FF0004302E06FF0010253101AEB0600F6
:1006D0004CEB085110EB0A0041EB0B01BDE8F04D6B
:1006E00000F08DB830B5041E71F1000404DB4FF04A
:1006F0000044404264EB0101141E73F1000405DB69
:100700001C464FF00043524263EB0403994208BF7A
:10071000904230BD01F0004330B421F0004150EA76
:10072000010206D00A0DA2F56072C1F31301002A7E
:1007300002DC30BC00207047440F44EAC104C10011
:10074000E01830BC00EBC25000F022B8202A04DBD5
:10075000203A21FA02F00021704721FA02F3D0403A
:10076000C2F120029140084319467047202A06DB57
:10077000CB17203A41FA02F043EAE07306E041FA6F
:1007800002F3D040C2F1200291400843194670475D
:100790000029A8BF7047401C490008BF20F0010095
:1007A000704710B4B0FA80FC00FA0CF050EA010473
:1007B00004BF10BC704749B1CCF1200421FA04F405
:1007C00011FA0CF118BF012121430843A3EB0C01DE
:1007D000CB1D4FEA00614FEA102042BF002010BC41
:1007E000704700EBC35010440029A4BF10BC7047F1
:1007F000401C490008BF20F0010010BC704710B534
:10080000141E73F1000408DA401C41F10001921833
:100810005B411A4301D120F0010010BD2DE9F04DDC
:1008200092469B4611B1B1FA81F202E0B0FA80F231
:1008300020329046FFF74EFD04460F4640EA0A007C
:1008400041EA0B0153465A46084313D0114653EA76
:10085000010019D0C8F140025046FFF777FF054666
:100860000E46504659464246FFF734FD084305D030
:10087000012004E020463946BDE8F08D0020054304
:1008800046EAE0762C4337430A986305E40AA0EB76
:1008900008000022FD0A44EA47540A3002D500202D
:1008A0000146E9E7010510196941DDE9084500192C
:1008B0006941BDE8F04DA2E770B521F00043034364
:1008C0000CD0C1F30A550024D5EB040564EB0403F6
:1008D000D617AD1AB34102DB0020014670BD2018C7
:1008E00041EB025170BD0000064C074D06E0E06888
:1008F00040F0010394E8070098471034AC42F6D367
:10090000FFF746FC846A0008A46A00082DE9F04D50
:1009100000231A461B1A8A4103DB00200146BDE86A
:10092000F08DC1F30A52C1F3130141F480154FF069
:10093000000BD10702D100186D41521E002704465A
:1009400040F2FF11384601EB620A3E4680460246FD
:1009500000204FF48011FFF7F9FEC2197141BB1856
:1009600046EB0100B4EB030C75EB000C04D3E41A66
:1009700065EB000517460E46241908F101006D418C
:1009800080463428E3DDF91946EB0600091BA8412F
:1009900003D24FF0FF32134601E0002213461BEB57
:1009A000070046EB0A51BDE8F04DFFF728BF70B5D0
:1009B0008C1810F8015B15F0070301D110F8013B0A
:1009C0002A1106D110F8012B03E010F8016B01F891
:1009D000016B5B1EF9D12B0705D40023521E0DD4E9
:1009E00001F8013BFAE710F8013BCB1A921C03E037
:1009F00013F8015B01F8015B521EF9D5A142D8D36F
:100A0000002070BD21B1826842F00102826003E0E3
:100A1000826842F0020282607047000010B5002236
:100A2000B0F1A04F02D0124B984204D1114B1A687A
:100A3000114B1A4003E0114B1A680F4B1A40D1E9D1
:100A4000003423438C682343CC6843EA44330C7C52
:100A500043EA04231A43B0F1A04F02D0044B98425A
:100A600002D1044B1A6001E0044B1A6010BD000073
:100A70000001005008030050E010FCFF0807005080
:100A800021B1C26842F00102C26003E0C26822F0F4
:100A90000102C2607047C26822F00202C260C268EE
:100AA0000A43C2607047000010B50446B4F1A04F7D
:100AB00002D00E48844209D10121080701F02EF826
:100AC00000214FF0805001F029F80EE008488442E0
:100AD00002D00848844208D10121480701F01EF8DD
:100AE00000214FF0005001F019F810BD0001005036
:100AF0000004005000050050014600208A6802F002
:100B000000420AB1012000E00020704702460020A8
:100B100013680B400BB1012000E00020704700007B
:100B200010B502460020D0680C4B1840D1E90034C3
:100B300023438C682343CC6823430C6923434C69CB
:100B400023438C6923431843D060106B20F00F00BF
:100B50000B7F5B1E1843106310BD000007C0FFFD34
:100B6000F0B50C461D4600BF00BF052A0FDA016B29
:100B700002EB420677001F2606FA07F3994302EBC1
:100B80004206760004FA06F3194301633CE00A2AA0
:100B900011DA416B561F06EB460677001F2606FA50
:100BA00007F39943561F06EB4606760004FA06F350
:100BB0001943416328E00F2A13DA816BA2F10A0678
:100BC00006EB460677001F2606FA07F39943A2F1C3
:100BD0000A0606EB4606760004FA06F3194381631B
:100BE00012E0C16BA2F10F0606EB460677001F2646
:100BF00006FA07F39943A2F10F0606EB46067600C4
:100C000004FA06F31943C163092C14DD8169A4F1C8
:100C10000A0606EB4607072606FA07F386699E438F
:100C200086618669A4F10A0707EB470705FA07F70B
:100C30003E43866110E04169661E06EB4607382692
:100C400006FA07F346699E434661466904EB44078A
:100C500005FA07F73E434661F0BD826822F0804204
:100C6000826082680A4382607047816841F00401B3
:100C700081607047826822F04052826021B18268B0
:100C800042F08052826003E0826842F0005282604B
:100C9000704710B52AB1036801248C4023430360D8
:100CA00004E0036801248C40A343036010BD10B529
:100CB00032B103684FF480548C402343036005E055
:100CC00003684FF480548C40A343036010BD0000C0
:100CD00010B504460B48844209D10121480700F0B1
:100CE0003DFF00214FF0005000F038FF08E00121E7
:100CF000880600F033FF00214FF0806000F02EFFE7
:100D000010BD00000074004070B50023002403688B
:100D100040F6FE758D40AB43D2E9005635439668E8
:100D20003543D66845EA060404FA01F52B4303600F
:100D300070BD18B500230093009001F11403009CCE
:100D400023440093009B1A6018BD000010B50848AA
:100D500000F00CF958B1064800F048F802F0BAFF6C
:100D600028B9C821034803F0B9F802F0B9FF10BD53
:100D7000200000105801002010B5154800F0F6F8CA
:100D800020B305F085FA1349086008460068124947
:100D90000968401A114908600E4800680E49086049
:100DA0000B4800F023F802F095FF28B9C8210C4841
:100DB00003F094F802F094FF0A48007830B901205B
:100DC00008490870064840880749088010BD00009F
:100DD00000000210480000204400002040000020D5
:100DE000580100203C0000203A00002000F0805113
:100DF00011B10349086001E00249486070470000F2
:100E0000040402400000024021B1026842F00102E5
:100E1000026004E002684FF6FE731A4002607047F9
:100E200001684FF6FE7211400160002101604160CF
:100E30008160C1604B49884208D14A4908394968F4
:100E400041F00F01474A083A51608AE045491431A0
:100E5000884208D143490839496841F0F001414AC4
:100E6000083A51607DE03F492831884208D13D4928
:100E70000839496841F470613A4A083A516070E0B3
:100E800038493C31884208D136490839496841F42B
:100E90007041344A083A516063E032495031884227
:100EA00008D130490839496841F470212D4A083A7F
:100EB000516056E02B496431884208D129490839EC
:100EC000496841F47001274A083A516049E02549D0
:100ED0007831884208D123490839496841F0706166
:100EE000204A083A51603CE01F49884206D1011F60
:100EF000096841F00F01021F116032E01A491431F4
:100F0000884208D11849091F096841F0F001164AC2
:100F1000121F116025E014492831884208D1124976
:100F2000091F096841F470610F4A121F116018E02F
:100F30000D493C31884208D10B49091F096841F429
:100F40007041094A121F11600BE007495031884275
:100F500007D10549091F096841F47021024A121F8F
:100F6000116070470800024008040240014600205A
:100F7000002201F0805313B1054B1A6801E0054BC4
:100F80001A6802EA01030BB1012000E0002070475B
:100F900000040240000002401AB103680B430360E2
:100FA00002E003688B430360704710B500220268BB
:100FB00047F6F0739A430C6A8B6823430C6923430A
:100FC0004C6923438C692343CC6923434C6A2343F4
:100FD0008C6A23431A4302608B8943600B688360E9
:100FE0004B68C36010BD70470149C860704700007E
:100FF0000020024030B5044604254FF4302000F0B4
:1010000077F80546042D16D10C48006940F002001F
:101010000A49086108464461006940F040000861DF
:101020004FF4302000F064F805460448006920F0D1
:10103000020002490861284630BD0000002002403D
:1010400004200B49C96801F0010109B101200EE03B
:101050000749C96801F0100109B1022007E00449FD
:10106000C96801F0040109B1032000E004207047C1
:10107000002002400348006940F0800001490861F7
:10108000704700000020024070B504460D4604265B
:101090004FF4302000F02CF80646042E11D10A48F7
:1010A000006940F001000849086125804FF43020B4
:1010B00000F01EF806460448006920F001000249CD
:1010C0000861304670BD00000020024005480069FC
:1010D00000F0800020B1044802494860034848609D
:1010E000704700000020024023016745AB89EFCD27
:1010F00000B502460423FFF7A3FF034603E0FFF712
:101100009FFF0346521E012B01D1002AF7D102B9DD
:101110000523184600BD000010B50446B4F1904FF9
:1011200009D10121480400F0F9FC00214FF40030FE
:1011300000F0F4FC56E02C48844208D10121000262
:1011400000F0ECFC0021200200F0E8FC4AE0274817
:10115000844208D10121000200F0E0FC00212002BD
:1011600000F0DCFC3EE02248844209D10121080560
:1011700000F0D4FC00214FF4801000F0CFFC31E0EF
:101180001C48844208D10121400200F0C7FC002124
:10119000600200F0C3FC25E01748844209D1012118
:1011A000880500F0BBFC00214FF4800000F0B6FC85
:1011B00018E01248844209D10121C80500F0AEFCB4
:1011C00000214FF4000000F0A9FC0BE00C48844221
:1011D00008D10121080400F0A1FC00214FF4803067
:1011E00000F09CFC10BD000000040048000800480E
:1011F000000C004800100048001400480018004887
:10120000001C0048F0B50A460021002400250023F8
:1012100000BF3FE0012606FA01F4166806EA04055D
:10122000A54236D11679012E02D01679022E18D198
:1012300086684FEA410C032707FA0CF7BE43866025
:1012400056794F00BE4087683E43866086880127F6
:101250008F40BE438680878896798E40B6B23743EA
:10126000878006684FEA410C032707FA0CF7BE4354
:10127000066016794F00BE4007683E430660C368AB
:101280004F000326BE40B343D6794F00BE403343E0
:10129000C360491C1029BDD3F0BDF0B50023002464
:1012A0004D07ED0E02FA05F3CE1000F1200555F8BA
:1012B00026504E07F70E0F26BE40B543CF1000F163
:1012C000200646F82750CE1000F1200555F826508C
:1012D00045EA0304CE1000F1200545F82640F0BD94
:1012E00002460020138A0B400BB1012000E00020D1
:1012F00070470185704781617047000070B50546F1
:101300002C1D702020740D4820604020A0800B48C8
:10131000A0608021A181702028700020288368832C
:1013200085F824000121880400F0E8FB204604F041
:10133000DDFD01200249087070BD00000004004876
:10134000900000202DE9F04704460E4617464FF066
:10135000000804F1040917480168484688472078C6
:10136000012303EB4000C1B212488268484690470F
:10137000104841694846884710B14FF0010802E023
:101380004046BDE8F08700250BE00A48C1684846A2
:101390008847705507480121026948469047681CF4
:1013A000C5B2BD42F1DB0348416848468847404624
:1013B000E7E70000780000201FB5044600200290F7
:1013C0000390062202A92046FFF7BCFF9DF8090002
:1013D0009DF8081040EA012020839DF80C009DF83C
:1013E0000B1040EA01206083022102A802F05AFE9D
:1013F0002E4908709DF80A000978884202D0002022
:1014000004B010BD02210DF10B0002F04BFE274984
:1014100008709DF80D000978884201D00020EFE7A0
:10142000208B00EE100AB8EE400A9FED211AC0EEA4
:10143000010A9FED201A9FED200A10EE810A84ED2B
:10144000070A608B00EE100AF8EE400A9FED181AAA
:1014500080EE810ADFED190A20EE200A84ED080AE9
:1014600094ED070ADFED150A20EE200ABDEEC00A52
:1014700010EE100A00B2019094ED080ADFED0F0A99
:1014800020EE200ABDEEC00A10EE100A00B2009055
:10149000012201A941F2050004F024FC0122694661
:1014A00041F2090004F01EFC0120A9E79100002090
:1014B0000000804700002F43000034420000C84273
:1014C00010B50446204600F059F810B10220014939
:1014D000087010BD90000020F8B504460D460026A7
:1014E000271D28128DF80000E8B28DF801001A4877
:1014F00001683846884720784006010E1648826801
:1015000038469047144841693846884708B1012653
:1015100000E000269DF800100F488268384690478A
:101520000D4841693846884708B1012600E0002689
:101530009DF801100848826838469047064841697E
:101540003846884708B1012600E000260248416875
:10155000384688473046F8BD7800002010B504466C
:101560004BF298012046FFF7B7FF10BD10B50446B7
:1015700047F666012046FFF7AFFF10BD10B50446E1
:1015800043F217512046FFF7A7FF10BD10B50446E0
:1015900094F8240005283FD2DFE800F0030F1A2654
:1015A00032002046FFF7EAFF18B1022084F8240039
:1015B00002E0002084F8240032E04EF6C871204694
:1015C000FFF78AFF032217492046FFF7BBFE27E0FB
:1015D0002046FFF7CBFF18B1032084F8240002E077
:1015E000002084F824001BE02046FFF7E5FE18B138
:1015F000042084F8240002E0002084F824000FE096
:101600002046FFF7ABFF18B1002084F8240002E069
:10161000002084F8240003E0002084F8240000BFA8
:1016200000BF10BD9200002010B50C48007830B902
:1016300004F02EFE0A490860012008490870094894
:1016400001680748006804F029FE30B10020034912
:1016500008700549054804F0C9FD10BDA000002030
:10166000980000209C000020FC100020711600084B
:1016700070B5044625460B48007820B1012806D0F5
:1016800002280CD107E02846FFF738FE08E028467C
:10169000FFF716FF04E02846FFF778FF00E000BFE1
:1016A00000BF70BD9000002000BFFEE700BFFEE756
:1016B0007047000010B52DED048B82B09FED2A0A13
:1016C000F0EE408A9FED280AB0EE409A002001908B
:1016D00003F048FC044625480523254A2549009087
:1016E000204602F0B5FA044600EE104AB8EE400A71
:1016F000DFED210A20EE200ADFED200A80EE201A1D
:10170000B0EE418A9FED1C0A30EE480AB5EEC00AE1
:10171000F1EE10FA0CD0B2EE040A28EE000ADFED6A
:10172000160A70EEC80A80EE201AF0EE418A03E035
:1017300002B0BDEC048B10BDB0EE680A00F0DEF81C
:10174000B0EE409A9FED0E0A29EE000ABCEEC00AE8
:1017500010EE100A80B20190012201A941F20100AD
:1017600004F0C0FA00BFE3E700000000AC00002076
:10177000A80000202411002033335340000080458E
:101780000000C84210B503F0EDFB0E490A68096875
:10179000491C0C4B19600C4921F8120018460068CE
:1017A000052805D101200949087000201946086064
:1017B00004480068052190FBF1F201FB1200014989
:1017C000086010BDA800002024110020AD000020FA
:1017D00010B52DED028B82B09FED210AF0EE408A0C
:1017E00003F0C0FB04461F4805231F4A1F49009011
:1017F000204602F02DFA044600EE104AB8EE400AE8
:10180000DFED1B0A20EE200ADFED1A0A80EE201A17
:10181000B0EE418A9FED160A30EE480AB5EEC00AD6
:10182000F1EE10FA0CD0B2EE040A28EE000ADFED59
:10183000100A70EEC80A80EE201AF0EE418A03E02A
:1018400002B0BDEC028B10BD9FED0B0AF4EEC08A16
:10185000F1EE10FA02D202200849087000BFEFE74B
:1018600000000000AC000020A8000020241100208F
:1018700033335340000080450000FA44AD0000209F
:1018800010B50C48007830B904F002FD0A49086030
:10189000012008490870094801680748006804F0F9
:1018A000FDFC30B10020034908700021044804F019
:1018B0009DFC10BDB8000020B0000020B400002046
:1018C000C518000810B504460B48007820B101285F
:1018D00005D0022809D105E0FFF754FF09E0FFF722
:1018E00077FF06E0FFF7E6FE03E0002002490870FC
:1018F00000BF00BF10BD0000AD000020F0EE400AA8
:10190000B5209FED270AB0EE401A00210CE0254AD1
:1019100002EB810292ED000AB4EEE00AF1EE10FA59
:1019200001D288B202E0491CB529F0DB00BF38B90A
:101930001D4901EB800191ED000AB0EE401A29E04B
:10194000B52808D1411E184A02EB810191ED000A29
:10195000B0EE401A1EE0411E124A02EB810191EDE9
:10196000000A114601EB8001D1ED001A30EE610A48
:10197000114601EB8001D1ED001A70EEE11A81EE03
:10198000802A094901EB800191ED000A30EE420AFC
:10199000B0EE401A054981ED001A91ED000A70473A
:1019A000000000000867000834640008A40000205C
:1019B00070B5002100230F22C47804B3154C2468AD
:1019C00004F4E064C4F5E064210AC1F10403CA40F0
:1019D000447804FA03F184781440214309010E4C41
:1019E0000678A155047804F01F050124AC40057861
:1019F0006D11AD0005F1E025C5F8004109E004785E
:101A000004F01F050124AC40044D0678761145F81A
:101A1000264070BD0CED00E000E400E080E100E055
:101A200002490143024A1160704700000000FA05B4
:101A30000CED00E041B1094A0244926B42F0010210
:101A4000064B03449A6307E0044A0244926B22F077
:101A50000102024B03449A637047000000000140FA
:101A60000021024A024491637047000000000140D7
:101A700010B50022064B03449A6B22F06C02D1E9A8
:101A8000003423431A43024B03449A6310BD000001
:101A90000000014041B1094A0244926B42F40062E5
:101AA000064B03449A6307E0044A0244926B22F413
:101AB0000062024B03449A6370470000000001403B
:101AC0000021416001607047704700000021010F54
:101AD00031B1094AD26A22F47852074BDA6205E042
:101AE000054AD26A22F4F872034BDA62024AD26AD9
:101AF0000243014BDA6270470010024029B1064AE6
:101B000052690243044B5A6104E0034A526982431A
:101B1000014B5A61704700000010024029B1064A8B
:101B2000926A0243044B9A6204E0034A926A824337
:101B3000014B9A62704700000010024029B1064A2A
:101B4000D2690243044BDA6104E0034AD26982435A
:101B5000014BDA61704700000010024029B1064ACB
:101B600012690243044B1A6104E0034A126982437A
:101B7000014B1A61704700000010024029B1064A6B
:101B800092690243044B9A6104E0034A92698243DA
:101B9000014B9A61704700000010024029B1064ACB
:101BA000D2680243044BDA6004E0034AD2688243FD
:101BB000014BDA6070470000001002402DE9F0434D
:101BC000002200260027944600250021002300243F
:101BD000DFF83C85D8F8048008F00C0222B1042A12
:101BE00007D0082A30D109E0DFF82885C0F8008046
:101BF0002FE0DFF82085C0F800802AE0DFF81085AC
:101C0000D8F8048008F47016DFF80485D8F804804A
:101C100008F480374FF0020808EB964627B9DFF842
:101C2000F88406FB08F10DE0DFF8E484D8F82C8096
:101C300008F00F0808F1010CDFF8D884B8FBFCF8B5
:101C400008FB06F1016004E0DFF8C884C0F80080FA
:101C500000BF00BFDFF8B884D8F8048008F0F002B5
:101C60001209DFF8B88418F80240D0F8008028FA8A
:101C700004F8C0F80480DFF89884D8F8048008F4E9
:101C8000E062120ADFF8948418F80250D0F8048059
:101C900028FA05F8C0F80880DFF87484D8F80480C2
:101CA00008F46052D20ADFF8748418F80230D0F8D1
:101CB000048028FA03F8C0F80C80DFF85484D8F8C0
:101CC0002C8008F4F872120902F00F08DFF8509423
:101CD00039F8185002F01008B8F1000F05D025B1FE
:101CE000B1FBF5F8C0F8108003E0D0F80080C0F830
:101CF0001080DFF81C84D8F82C8008F47852520A3F
:101D000002F00F08DFF8189439F8185002F01008A4
:101D1000B8F1000F05D025B1B1FBF5F8C0F814807B
:101D200003E0D0F80080C0F81480DFF8E483D8F82E
:101D3000308008F01008B8F1100F04D0DFF8D48319
:101D4000C0F8188003E0D0F80080C0F81880DFF8F1
:101D5000C083D8F8308008F02008B8F1200F04D0F4
:101D6000DFF8B083C0F81C8003E0D0F80080C0F832
:101D70001C80DFF89C83D8F8308008F04008B8F168
:101D8000400F04D0DFF88C83C0F8208003E0D0F847
:101D90000080C0F82080DFF87883D8F8308008F41D
:101DA0008078B8F5807F0AD1D0F80080884506D1C8
:101DB000A34204D14FEA4108C0F8248003E0D0F8E0
:101DC0000C80C0F82480DFF84883D8F8308008F40D
:101DD0008058B8F5805F0AD1D0F80080884506D1D8
:101DE000A34204D14FEA4108C0F8288003E0D0F8AC
:101DF0000C80C0F82880DFF81883D8F8308008F409
:101E00000078B8F5007F0AD1D0F80080884506D167
:101E1000A34204D14FEA4108C0F82C8003E0D0F877
:101E20000C80C0F82C80DFF8E882D8F8308008F405
:101E30008068B8F5806F0AD1D0F80080884506D157
:101E4000A34204D14FEA4108C0F84C8003E0D0F827
:101E50000C80C0F84C80DFF8B882D8F8308008F4E5
:101E60000068B8F5006F0AD1D0F80080884506D127
:101E7000A34204D14FEA4108C0F8508003E0D0F8F3
:101E80000C80C0F85080DFF88882D8F8308008F4E1
:101E90000058B8F5005F0AD1D0F80080884506D117
:101EA000A34204D14FEA4108C0F8548003E0D0F8BF
:101EB0000C80C0F85080DFF85882D8F8308008F4E1
:101EC0000048B8F5004F0AD1D0F80080884506D107
:101ED000A34204D14FEA4108C0F8588003E0D0F88B
:101EE0000C80C0F85880DFF82882D8F8308008F0DD
:101EF0000308B8F1000F04D1D0F80C80C0F8388086
:101F000028E0DFF80C82D8F8308008F00308B8F138
:101F1000010F04D1D0F80080C0F838801AE0DFF853
:101F2000F081D8F8308008F00308B8F1020F04D12E
:101F30004FF40048C0F838800CE0DFF8D481D8F8BE
:101F4000308008F00308B8F1030F03D1DFF8C48133
:101F5000C0F83880DFF8B881D8F8308008F440380D
:101F6000B8F1000F04D1D0F80880C0F83C8028E018
:101F7000DFF89C81D8F8308008F44038B8F5803F0D
:101F800004D1D0F80080C0F83C801AE0DFF88081EE
:101F9000D8F8308008F44038B8F5003F04D14FF449
:101FA0000048C0F83C800CE0DFF86481D8F830804D
:101FB00008F44038B8F5403F03D1DFF85881C0F845
:101FC0003C80DFF84C81D8F8308008F44028B8F124
:101FD000000F04D1D0F80880C0F8408028E0DFF876
:101FE0003081D8F8308008F44028B8F5802F04D12B
:101FF000D0F80080C0F840801AE0DFF81481D8F8EB
:10200000308008F44028B8F5002F04D14FF4004880
:10201000C0F840800CE0DFF8F880D8F8308008F491
:102020004028B8F5402F03D1DFF8E880C0F84080A1
:10203000DFF8DC80D8F8308008F44018B8F1000FE1
:1020400004D1D0F80880C0F8448028E0DFF8C080D0
:10205000D8F8308008F44018B8F5801F04D1D0F8C3
:102060000080C0F844801AE0DFF8A480D8F83080FF
:1020700008F44018B8F5001F04D14FF40048C0F828
:1020800044800CE0DFF88880D8F8308008F44018ED
:10209000B8F5401F03D1DFF87C80C0F84480DFF83A
:1020A0007080D8F8308008F44008B8F1000F04D1EF
:1020B000D0F80880C0F8488028E0DFF85480D8F8CD
:1020C000308008F44008B8F5800F04D1D0F80080C3
:1020D000C0F848801AE0DFF83880D8F8308008F47B
:1020E0004008B8F5000F04D14FF40048C0F848800C
:1020F0000CE0DFF81C80D8F8308008F44008B8F510
:10210000400F03D1DFF80C80C0F84880BDE8F083B1
:102110000010024000127A0000093D00000000207B
:1021200010000020704700000CB5002001900090C6
:102130003748006840F480303549086000BF3448B3
:10214000006800F4003000900198401C0190009855
:1021500018B90198B0F5A04FF1D12D48006800F4EE
:10216000003010B10120009001E0002000900098A4
:1021700001284BD12748006840F01000254908602D
:102180000846006820F0030008600846006840F038
:10219000020008601E4840681D49486008464068C3
:1021A00048600846406840F48060486008464068DF
:1021B00020F47C1048600846406840F4E81048600D
:1021C0000846C06A20F00F00C8620846C06AC862AC
:1021D0000846006840F08070086000BF0C48006846
:1021E00000F000700028F9D00948406820F0030092
:1021F000074948600846406840F00200486000BF58
:102200000348406800F00C000828F9D10CBD00001C
:10221000001002400020024010B504F031F810BD5B
:1022200010B51948006840F4700017490860174855
:10223000006840F001001549086000204860084629
:10224000006813490840114908600846006820F4F6
:10225000802008600846406820F4FE004860084678
:10226000C06A20F00F00C8620846006B09490840A8
:102270000649086300208860FFF756FF4FF00060B2
:1022800001498039086010BD88ED00E0001002406F
:10229000FFFFF6FECCFC00FF10B50121014800F065
:1022A000C6F810BD002C014010B50121880700F0D0
:1022B000B5F818B10121880700F001F810BDCA4334
:1022C00092B20261704721B1028842F0010202809D
:1022D00004E002884FF6FE731A4002807047000047
:1022E00010B504464348844208D10121C014FFF7C9
:1022F00055FC0021E014FFF751FC7AE0B4F1804F67
:1023000008D101210846FFF729FC00210120FFF731
:1023100025FC6EE03848844208D101210220FFF7F5
:102320001DFC00210220FFF719FC62E033488442C3
:1023300008D101210420FFF711FC00210420FFF740
:102340000DFC56E02E48844208D101211020FFF7F1
:1023500005FC00211020FFF701FC4AE029488442D7
:1023600008D101212020FFF7F9FB00212020FFF7F1
:10237000F5FB3EE02448844208D101214014FFF7D8
:102380000DFC00216014FFF709FC32E01F48844275
:1023900009D101210804FFF701FC00214FF480302E
:1023A000FFF7FCFB25E01A48844209D101214804CB
:1023B000FFF7F4FB00214FF40030FFF7EFFB18E0CC
:1023C0001448844209D101218804FFF7E7FB00216A
:1023D0004FF48020FFF7E2FB0BE00F48844208D166
:1023E00001210805FFF7DAFB00214FF48010FFF709
:1023F000D5FB10BD002C0140000400400008004047
:102400000010004000140040003401400040014032
:1024100000440140004801400050014002460020B5
:1024200013690B400BB1012000E00020704730B56C
:102430000246002000230024156905EA0103D5683F
:1024400005EA010413B10CB1012000E0002030BD09
:1024500042684FF68F731A40426042680A434260F6
:1024600070470000002202881E4B98420ED01E4B7F
:1024700098420BD0B0F1804F08D01C4B984205D049
:102480001B4B984202D01B4B984204D14FF68F73DE
:102490001A404B881A43184B984207D0174B984262
:1024A00004D04FF6FF431A400B891A4302804B6851
:1024B000C3620B8803850B4B98420ED00A4B98429F
:1024C0000BD00F4B984208D00E4B984205D00E4BC4
:1024D000984202D0074B984201D14B8903860123D1
:1024E00043617047002C014000340140000400406B
:1024F000000800400050014000100040001400405F
:102500000040014000440140004801404FF0FF31CD
:1025100041600021018001814180418170470000BC
:1025200010B52449244800F051F82449224800F00D
:10253000B8F801281CD121491F4800F047F81E486F
:1025400000F068F91E49B1F800181D4A50541046B1
:10255000B0F80008401C1146A1F80008B1F80008C6
:10256000C11700EB5151C912A0EBC121A2F800180C
:102570001449114800F095F801280FD111490E486F
:1025800000F024F80C4800F045F90D48B0F80018A8
:1025900003F0B2FA00200A49A1F800080A490648E7
:1025A00000F07FF8012803D10749034800F00EF836
:1025B00010BD0000000303000044004005010500B9
:1025C000F8080020040104000601060010B50022EE
:1025D00000230A0C012404FA02F3036210BD21B1A6
:1025E000026842F00102026003E0026822F0010288
:1025F0000260704710B504462048844209D1012189
:102600008803FFF7CBFA00214FF48040FFF7C6FAAA
:1026100032E01B48844209D101214804FFF79EFAA9
:1026200000214FF40030FFF799FA25E01548844265
:1026300009D101218804FFF791FA00214FF480208D
:10264000FFF78CFA18E01048844209D10121C80430
:10265000FFF784FA00214FF40020FFF77FFA0BE028
:102660000A48844208D101210805FFF777FA0021C2
:102670004FF48010FFF772FA10BD000000380140DF
:102680000044004000480040004C00400050004022
:1026900002460020D3690B400BB1012000E000206E
:1026A000704770B502460B4600240021002500202B
:1026B000C3F30725D9B2012606FA01F1012D02D193
:1026C0001668314006E0022D02D15668314001E023
:1026D000966831401C0C012606FA04F4D669344091
:1026E00011B10CB1012000E0002070BDF0B503462F
:1026F00000240026002500201846C1F30724CEB28E
:10270000012707FA06F5022C01D1001D02E0032C77
:1027100000D108301AB107682F43076002E007684C
:10272000AF430760F0BD00002DE9F04198B00446CA
:102730000D460027B8460026206820F001002060E2
:10274000666826F44056A86806436660266841F22B
:102750000C608643E96868680843296908430643B2
:102760002660A66826F4407668690643A66001A83C
:10277000FFF724FA2348844202D1DDF83C8013E0BD
:102780002148844202D1DDF840800DE01F48844298
:1027900002D1DDF8448007E01D48844202D1DDF813
:1027A000488001E0DDF84C80206800F4004060B112
:1027B0004FEA48002968B0FBF1F74FEA4800296862
:1027C000B0FBF1F201FB120607E02868B8FBF0F756
:1027D0002868B8FBF0F100FB11862868B6EB500FB3
:1027E00000D37F1C206800F4004038B1C7F34206D4
:1027F0004FF6F07107EA010040EA0607A78118B01A
:10280000BDE8F0810038014000440040004800402D
:10281000004C00400146888CC0F308007047C1F3AB
:1028200008020285704700BFFEE703B4019841002B
:10283000009850EAC12018BF04204A0D18BF40F08C
:10284000010040F2FF72B2EB515F08BF40F002009E
:10285000012808BF052002B07047000000000000FA
:102860002DE9F04D2DED040B2DED0E8B96B0DDE92D
:102870002550279CDDF890A025F0004624F0004864
:10288000BAF1000F14BF0121002101EB4502FC4900
:1028900053184A1093422AD3002814BF012300235F
:1028A00003EB44030B44F7498B4220D358EA000161
:1028B0009FEDF59B76D0DFF8D8B35D4503D1BAF133
:1028C000000F05D188E0BAF1000F08BF002100D049
:1028D000012101EB450111F5001F08D8002814BFA4
:1028E0000121002101EB440111F5001F0BD99DEDE1
:1028F000261B9DED240B16B0BDEC0E8B04B0BDE87D
:10290000F04D00F069BE0027002DBCBFE1498845AD
:1029100021DAE1498845A8BF02271CDAC3451ADC41
:10292000DE4901EB2851142908DDC1F1340220FAF7
:1029300002F101FA02F282420DD108E058B9C1F168
:10294000140228FA02F101FA02F2424503D101F021
:102950000101C1F1020756EA0A0124D1002C22DA52
:10296000002D18BF022F01D0012F0AD0022000F045
:102970007FFE16B0BDEC0E8B04B0BDE8F04D00F04C
:1029800013BE022000F074FE00F00EFE51EC100B9E
:1029900081F0004141EC100B16B0BDEC0E8B04B081
:1029A000BDE8F08D18E09FEDBEAB9FEDBF8B00281A
:1029B00071D1B848804522D105F1804010F58010D2
:1029C00008BFBAF1000F07D0B3450ADC002CA8BF3E
:1029D0009DED260BE0DA0DE0B0EE490AF0EE690A53
:1029E000DAE7002C06DA9DED260B51EC100B81F096
:1029F00000416FE0AE48784490ED000BCCE7D8453D
:102A00004DD1002C48DA2EB186423AD1BAF1000FEE
:102A100042D126E0BAF1000F13D0022000F028FEC8
:102A200000F0F6FD8DED020B9DED240B8DED000BFE
:102A300010EE900A039961F31E0003909DED020BC6
:102A4000AAE78DED02AB9DED240B1AEE901A10EE65
:102A5000900A8DED000B61F31E0003909DED020BBB
:102A60009AE78DED028B9DED240B18EE901A10EE77
:102A7000900A8DED000B61F31E0003909DED020B9B
:102A80008AE709DA9DED240B51EC190B53EC102B5E
:102A9000FDF7B9FD1EE020E09DED240B7CE78642AA
:102AA0001BDAB4F1804F0DD0A4F10050B0F1FF500B
:102AB00013D1002D11DB9DED240B51EC100B03F015
:102AC000FAFA07E09DED240B53EC102B51EC100BA0
:102AD00000F0C2BC41EC100B5EE79DED240B51EC05
:102AE000100B01F091FBBAF1000FCDE90E0142D1BC
:102AF0009FED710B46B3A6F1E040B0F17F600CD0C2
:102B00005E4538D1002D00DAA7B3022F0CBF01209B
:102B10004FF0FF30FDF795FBDCE7002D01DD002CC9
:102B20000DDA002D01DD002C1FDB002D16DA002C44
:102B300014DB012F08BF9FED620B3FF42DAFB0EE09
:102B40004A0AF0EE6A0A27E7022F18BF002D0CD0C0
:102B5000012F0AD1002DFFF61FAF06E0002DB8BFF0
:102B6000002C08DA012F3FF417AFB0EE480AF0EE60
:102B7000680A11E71BE0012000EBE57050EA07014D
:102B800015D0791EB0EE498AF0EE698A084308BF75
:102B90009FED4D8B4E480025804570DD4D494E48D8
:102BA000884514DDB0420DDB002C19DB2FE001203D
:102BB00000F05EFD16B0BDEC0E8B04B0BDE8F04D2C
:102BC00000F016BDB34502DC002C09DC1FE0864294
:102BD00002DA002C1BDA03E05E452BDD002C16DD4B
:102BE000022000F045FD00F013FD8DED020B53ECCB
:102BF0001A2B51EC180BFDF794FCCDE90001039959
:102C0000019861F31E0003909DED020BC4E60220C3
:102C100000F02EFD00F00CFD10EE901A18EE900A58
:102C20008DED020B8DED008B61F31E0003909DED89
:102C3000020BB1E69DED0E0B53EC192B51EC100B72
:102C4000FDF769FC9FED260BCDE9080153EC102B35
:102C50009DED080B51EC100BFDF763FC9FED221B63
:102C600053EC112BFDF75AFC9DED081B53EC112B77
:102C7000FDF757FC9FED1E1B53EC112B3CE08CE045
:102C8000FFFF1F00FFFF0F00000000000000F03FEB
:102C90000000F03F0000F07F0000404301FCFFFF18
:102CA000000000000000F07F0000000000000000B5
:102CB0006E400000000000000000000000000080E6
:102CC000000000000000F0FF000000000000F0BF66
:102CD0000000E0410000F043FFFFEF3F0000000074
:102CE000000000000000D03F555555555555D53FC3
:102CF000000000000000E03FFDF710FC9DED080B18
:102D000041EC1A0B53EC102B51EC100BFDF709FCA6
:102D100053EC1A2BFDF705FC41EC1A0B9FEDFE0B53
:102D200053EC102B9DED080B51EC100BFDF7F9FB4C
:102D300041EC1B0B9FEDFA0B51EC1A0B53EC102BD3
:102D4000FDF7EFFB41EC1A0B9FEDF70B53EC102B4B
:102D50009DED080B51EC100BFDF7E3FB53EC1A2B28
:102D6000FDF7D9FB41EC1A0B51EC1B0B53EC1A2B62
:102D7000FDF730FB0690CDE906519DED060B53ECB7
:102D80001B2B51EC100BFDF7C6FB53EC1A2BFDF778
:102D9000C5FB41EC100B00F0A1B90020B6F5801F77
:102DA0000EDA9FEDE30B53EC102B9DED0E0B51EC67
:102DB000100BFDF7B6FBCDE90E016FF034000E46A7
:102DC00000EB2650A0F2FF37C6F31300DA4940F0BB
:102DD0007F6646F040568842D8BF002408DDD749B8
:102DE0008142C8BF012403DC0024A6F580167F1CA5
:102DF000D348784400EBC4000F9690ED00CB9DEDD6
:102E00000E0B53EC1C2B51EC100BFDF784FB9DEDCE
:102E10000E0B41EC1B0B53EC1C2B51EC100BFDF774
:102E2000D9FA41EC100B51EC190B53EC102BFDF7B8
:102E3000EAFB41EC1D0B51EC1B0B53EC1D2BFDF77A
:102E400070FB41EC1A0BBF488DED10AB7844109528
:102E500090ED000B4FF0005040EA660000EB84401C
:102E60008DED080B00F5002009909DED080B53EC4B
:102E70001C2B51EC100BFDF74EFB9DED0E1B53EC84
:102E8000112BFDF74BFB41EC100B53EC102B9DED80
:102E9000100B51EC100BFDF744FB9DED080B41ECC2
:102EA0001C0B53EC102B9DED100B51EC100BFDF790
:102EB00038FB53EC1B2BFDF731FB53EC1C2BFDF7C0
:102EC0002AFB53EC1D2BFDF72CFB41EC1C0B53ECA8
:102ED0001A2B51EC1A0BFDF724FB41EC1B0B9A4803
:102EE0000621B0EE4B0AF0EE6B0A784400F0E0FAEF
:102EF000B0EE401AF0EE601AB0EE41DAF0EE61DAB0
:102F000053EC1B2B51EC1B0BFDF70BFB53EC1D2B58
:102F1000FDF707FB9DED100B41EC1B0B53EC1A2B3F
:102F200051EC100BFDF756FA53EC1C2BFDF7F9FA98
:102F300053EC1B2BFDF74EFA9DED100B41EC1B0BD8
:102F400053EC102B51EC100BFDF7EBFA41EC1D0B81
:102F50009FED7FEB53EC1E2BFDF73CFA53EC1B2B44
:102F6000FDF738FA0890CDE908519DED080B53ECB8
:102F70001E2B51EC100BFDF7CEFA53EC1D2BFDF779
:102F8000CAFA53EC1B2BFDF7C9FA9DED080B41EC77
:102F90001D0B53EC102B9DED100B51EC100BFDF79E
:102FA000C0FA41EC1B0B53EC1A2B51EC1D0BFDF737
:102FB000B8FA9DED080B41EC1A0B53EC102B51ECB9
:102FC0001C0BFDF7AEFA53EC1A2BFDF703FA41EC9C
:102FD0001A0B51EC1B0B53EC1A2BFDF7FBF90C9061
:102FE000CDE90C519DED0C0B53EC1B2B51EC100B50
:102FF000FDF791FA53EC1A2BFDF790FA41EC1B0BFD
:103000009FED550B53EC102B9DED0C0B51EC100B61
:10301000FDF787FA41EC1A0B9FED510B51EC1B0B9E
:1030200053EC102BFDF77DFA41EC1B0B9FED4E0B83
:1030300053EC102B9DED0C0B51EC100BFDF771FABE
:1030400053EC1B2BFDF7C6F941EC100B48487844B4
:1030500000EBC40090ED001B51EC100B53EC112B56
:10306000FDF7B8F941EC1B0B3846FDF7EAF8CDE95E
:10307000080153EC1B2B51EC1A0BFDF7ABF941EC9B
:10308000100B3C48784400EBC40090ED00CB51ECB1
:10309000100B53EC1C2BFDF79DF99DED081B53EC19
:1030A000112BFDF797F90690CDE906519DED080B20
:1030B00053EC102B9DED060B51EC100BFDF72BFA8A
:1030C00053EC1C2BFDF727FA53EC1A2BFDF723FAD0
:1030D00053EC1B2BFDF722FA41EC100B9DED261B48
:1030E00053EC102B8DED001B00959DED260B51EC44
:1030F000100BFDF716FA9DED000B41EC1A0B53EC8B
:10310000102B9DED260B51EC100BFDF704FA9DEDF5
:10311000061B53EC112B2FE0000000604715F73F12
:10312000FE822B654715F73F44DF5DF80BAE543E3A
:1031300000000000000040438E9803007AB60B00A8
:10314000EA3B0000183C0000223B000000000000A9
:103150000000000000000840000000E009C7EE3F4A
:10316000FD033ADC09C7EE3FF5015B14E02F3EBEDC
:10317000AE39000068390000FDF7D3F953EC1A2B83
:10318000FDF728F99DED060B41EC1A0B53EC102BC3
:103190009DED000B51EC100BFDF7C3F9CDE90C01CF
:1031A0009DED0C0B51EC1A0B53EC102BFDF712F9A3
:1031B000CDE902010C46AA498C422FDB611A084373
:1031C00018D19DED0C0B53EC102B9DED020B51EC27
:1031D000100BFDF7A0F941EC1B0B9FEDA30B51EC7D
:1031E0001A0B53EC102BFDF7F5F853EC1B2BFDF7E6
:1031F00079FA2DD2022000F03BFA00F009FA10EE25
:10320000901A18EE900A8DED020B8DED008B61F394
:103210001E0003909DED020BFFF7BEBB944A24F005
:103220000041914214D39349214408437FF4EFAC09
:103230009DED0C0B53EC102B9DED020B51EC100B84
:10324000FDF769F953EC1A2BFDF74CFA7FF6DFAC6A
:1032500024F000408849894A002601EB205182422F
:103260002BDA481C4FF4801121FA00F02044844AE4
:10327000C0F30A517A44A1F2FF3192ED000B814A6A
:103280008DED080BCA4020EA0202C0F3130040F49F
:103290008010C1F1140120FA01F60992002CB8BF88
:1032A00076429DED080B53EC102B9DED0C0B51EC71
:1032B000100BFDF730F9CDE90C019DED0C0B51EC35
:1032C0001A0B53EC102BFDF785F89FED6F0B089050
:1032D000CDE9085153EC102B9DED080B51EC100B70
:1032E000FDF71FF941EC1B0B9FED690B53EC102B05
:1032F0009DED080B51EC100BFDF713F99DED0C0B38
:1033000041EC1C0B53EC102B9DED080B51EC100BFA
:10331000FDF701F953EC1A2BFDF700F99FED5E1B49
:1033200053EC112BFDF7FDF853EC1C2BFDF752F875
:1033300041EC1A0B51EC1B0B53EC1A2BFDF74AF81E
:10334000CDE902019DED020B53EC1B2B51EC100B50
:10335000FDF7E1F853EC1A2BFDF7E0F89DED020BB9
:1033600041EC1A0B53EC102B51EC100BFDF7D9F874
:10337000CDE908014A489DED080B0521784400F08D
:1033800097F89DED081B51EC100B53EC112BFDF73A
:10339000C8F89DED021B53EC112BFDF7BFF8CDE9EA
:1033A00006019DED020B53EC1A2B51EC100BFDF7AF
:1033B000B8F853EC1A2BFDF70DF89FED3B0B41ECE1
:1033C0001A0B53EC102B9DED060B51EC100BFDF777
:1033D000A2F89DED060B41EC1B0B53EC102B9DED61
:1033E000020B51EC100BFDF79CF853EC1B2BFDF777
:1033F0000AF953EC1A2BFDF78EF89DED021B53ECE6
:10340000112BFDF788F853EC192BFDF787F8CDE960
:10341000020101EB065001150029C8BF039015DC1D
:103420009DED020B324651EC100BFDF745FAFFF70C
:10343000FCF9042808BF00F0FBF832469DED020BB2
:1034400051EC100BFDF738FACDE902019DED020BAE
:1034500051EC180B53EC102BFDF763F8FFF73ABB58
:103460000000904000000000FE822B654715973C4D
:1034700000CC904000346F3F01FCFFFF0000E03FB4
:10348000F0370000FFFF0F0000000000432EE63F72
:10349000396CA80C615C20BEEF39FAFE422EE63F83
:1034A000C0360000000000000000000000000040E6
:1034B00070B504462DED028B4D1E00EBC500B0EE3D
:1034C000408AF0EE608A90ED000B35F0060017D0D0
:1034D00053EC182B51EC100BFDF723F841EC100BBB
:1034E0006D1E04EBC50090ED001B51EC100B53EC6E
:1034F000112BFCF76FFF41EC100B35F00600E7D104
:10350000022D36D0042D1CD0062D1CBFBDEC028B25
:1035100070BD53EC182B51EC100BFDF702F894ED35
:103520000A1B53EC112BFCF755FF53EC182BFCF73F
:10353000F8FF94ED081B53EC112BFCF74BFF41EC0B
:10354000100B53EC182B51EC100BFCF7EAFF94ED29
:10355000061B53EC112BFCF73DFF53EC182BFCF72B
:10356000E0FF94ED040B53EC102BFCF733FF41EC20
:10357000100B53EC182B51EC100BFCF7D2FF94ED11
:10358000021B53EC112BFCF725FF53EC182BFCF717
:10359000C8FF94ED001B53EC112BFCF71BFFBDEC97
:1035A000028B41EC100B70BD9FED070B10B553EC77
:1035B000102B9FED070B51EC100BFDF724F841EC9D
:1035C000100B10BD00000000000000000000000013
:1035D000000000000000F03F10B553EC112B51EC3F
:1035E000100BFCF7F7FE41EC100B10BD00000000C3
:1035F0009FED050B10B553EC102B51EC100BFDF7A4
:1036000002F841EC100B10BD0000000000000000AB
:103610009FED050B10B553EC102B51EC100BFCF784
:1036200080FF41EC100B10BD000000000000007096
:103630009FED050B10B553EC102B51EC100BFCF764
:1036400070FF41EC100B10BD0000000000000010E6
:1036500002E008C8121F08C1002AFAD1704770475B
:10366000002001E001C1121F002AFBD170470000B9
:1036700001490860704700005401002000B58DB07A
:1036800001212B48FDF7F6FA00212948FDF7E5FA5C
:103690002748FCF72EFE00BF2548FDF72DFA00282D
:1036A000FAD1009001904FF4004002900220039064
:1036B0000A208DF8100069461D48FDF7AFF94FF458
:1036C00000500590002006900790089009900A90FD
:1036D0000B9002208DF8300005A91548FDF720FA5F
:1036E0000623012203211248FDF73AFA062302229B
:1036F00004210F48FDF734FA02210D48FDF7CBF9FC
:1037000001210B48FDF7BCF901210948FDF77AF9C1
:1037100000BF01210648FDF7F9F90028F9D0012181
:103720000448FDF771FB0248FDF79FFA0DB000BD9C
:10373000000100500804024000B58BB01148FDF7AD
:103740006FFB01210220FEF7D9F90F4800900F48C6
:103750000190002002900220ADF80C00002004909F
:10376000802005904000069080000790202008905F
:103770000002099000200A9069460248FDF715FCF6
:103780000BB000BD08040240400100503000002092
:1037900000B58DB001212D48FDF76CFA00212B48B2
:1037A000FDF75BFA2948FCF7A4FD00BF2748FDF7A9
:1037B000A3F90028FAD1009001904FF40040029044
:1037C000022003900A208DF8100069461F48FDF77B
:1037D00025F90020059006904FF4E07007904FF413
:1037E00080600890002009900A900B9002208DF8CC
:1037F000300005A91548FDF793F90623012205219C
:103800001248FDF7ADF9062302220C210F48FDF7FF
:10381000A7F902210D48FDF73EF901210B48FDF7FC
:103820002FF901210948FDF7EDF800BF01210748F4
:10383000FDF76CF90028F9D001210548FDF7E4FAFD
:103840000248FDF712FA0DB000BD00000004005060
:103850005804024000B58DB01B48FDF7E1FA012184
:103860000220FEF74BF919480290194803900020F6
:1038700004904FF4C870ADF814000020069080202A
:103880000790400008908000099020200A900002D4
:103890000B9000200C903C208DF8040001208DF846
:1038A00006008DF805008DF8070001A8FEF780F8E6
:1038B000012202210448FDF76FFB02A90248FDF72F
:1038C00074FB0DB000BD00005804024040040050DD
:1038D0005801002000B58DB001212D48FDF7CAF92F
:1038E00000212B48FDF7B9F92948FCF702FD00BF7C
:1038F0002748FDF701F90028FAD1009001904FF414
:1039000000400290022003900A208DF810006946C2
:103910001F48FDF783F84FF40050059000200690F3
:103920004FF4E07007900020089009900A900B90E7
:1039300002208DF8300005A91548FDF7F1F806239F
:10394000012205211248FDF70BF90623022203216B
:103950000F48FDF705F902210D48FDF79CF80121FC
:103960000B48FDF78DF801210948FDF74BF800BF22
:1039700001210748FDF7CAF80028F9D001210548C0
:10398000FDF742FA0248FDF770F90DB000BD0000E6
:10399000000500501C04024000B58BB01148FDF733
:1039A0003FFA01210220FEF7A9F80F4800900F48C6
:1039B0000190002002900220ADF80C00002004903D
:1039C00080200590400006908000079020200890FD
:1039D0000002099000200A9069460248FDF7E5FAC6
:1039E0000BB000BD1C040240400500503600002012
:1039F0001CB501214804FEF781F801218804FEF777
:103A00007DF8C020009003208DF8040000208DF880
:103A1000070069464FF09040FDF7F4FB4FF60100B8
:103A2000009069460148FDF7EDFB1CBD000400480D
:103A300010B51448FDF738F81348FDF735F813486A
:103A4000FDF732F84FF48070FEF740F801210807C7
:103A5000FEF754F80E48FEF739F801214807FEF743
:103A60004DF8FFF7C5FF00F015F8FFF7F3FEFFF77D
:103A70008FFEFFF791FFFFF72DFFFFF75DFEFFF7CA
:103A8000FDFD10BD00010050000400500005005075
:103A9000002000101CB50C20FDF7E2FF6846FEF781
:103AA0000FF8602000900420019069460C20FDF77B
:103AB000DFFF01210C20FDF7EDFF00210C20FDF7B9
:103AC000E9FF01210C20FDF7B5FF1CBD2DE9F041F8
:103AD0002DED0A8BB0EE409A04460D4617469846E7
:103AE0009FED590BB0EE40AAF0EE60AA9FED560B89
:103AF000B0EE40BAF0EE60BA9FED530BB0EE408AE4
:103B0000F0EE608A286890FBF7F107FB110004EBE8
:103B1000800080ED009A2868401C286094ED000A1F
:103B200010EE101A0846FCF7AAFB41EC1B0B41EC07
:103B30001A0B002648E004EB860090ED000A10EE18
:103B4000101A0846FCF79BFB41EC1C0B53EC182B9E
:103B5000FCF740FC41EC180B04EB860090ED000AEA
:103B600010EE101A0846FCF78AFB41EC1C0B53ECD4
:103B70001A2BFCF7B7FD0AD204EB860090ED000A81
:103B800010EE101A0846FCF77AFB41EC1A0B04EB16
:103B9000860090ED000A10EE101A0846FCF76FFB45
:103BA00041EC1C0B53EC1B2BFCF77CFB0AD204EB07
:103BB000860090ED000A10EE101A0846FCF75FFB35
:103BC00041EC1B0B701CC6B2BE42B4DB2868B84285
:103BD00004D1012088F800000020286098F8000037
:103BE00068B92868FCF72DFB41EC1C0B53EC1C2B2F
:103BF00051EC180BFCF707FD41EC180B1AE053ECE5
:103C00001A2B51EC180BFCF786FC41EC1C0B53EC07
:103C10001B2BFCF780FC41EC180BB81EFCF711FBCA
:103C200041EC1C0B53EC1C2B51EC180BFCF7EBFC80
:103C300041EC180B51EC180BFCF76CFD00EE100A70
:103C4000BDEC0A8BBDE8F081000000000000000020
:103C50002DE9F0410546069E0027BC460024106869
:103C600090FBF3F803FB180021F810501068401C7B
:103C70001060088884460746002012E031F8108062
:103C8000444431F81080B84501DD31F8107031F846
:103C90001080E04501DA31F810C000F1010808F0A9
:103CA000FF009842EADB1068984203DB0120307085
:103CB00000201060307818B91068B4FBF0F405E00B
:103CC000E01BA0EB0C04981EB4FBF0F4A0B2BDE81E
:103CD000F08100000148008870470000EA000020E1
:103CE0000120014908807047EA00002010B50C4807
:103CF000007830B902F0CCFA0A490860012008497E
:103D00000870094801680748006802F0C7FA30B136
:103D10000020034908700021044802F067FA10BD32
:103D20000C0100200401002008010020313D0008A2
:103D300010B504460648008800B910BD00200449AB
:103D4000088000F007F800F0DFF800BFF5E700009A
:103D5000EA000020F0B52DED048BADF5497D4FF460
:103D6000C87165A8FCF747FA4FF4C87101A8FCF7C1
:103D700042FA0024002500260027002017E04B49C6
:103D800031F81010B1F5006F08DB484931F81030F8
:103D90002146641C65AA22F8113007E0434931F836
:103DA000103029466D1C01AA22F81130401CC82889
:103DB000E5DB214665A800F059F9294601A800F085
:103DC00055F9322C0FDD142004E065A931F81010EC
:103DD0000E44401CA4F114018142F6DCA4F1280039
:103DE000B6FBF0F604E00DF5497DBDEC048BF0BDAB
:103DF000322D0FDD142004E001A931F810100F441A
:103E0000401CA5F114018142F6DCA5F12800B7FBA6
:103E1000F0F700E0E7E7F01B00EE100AB8EE400A0A
:103E2000DFED230A20EE200ADFED220A80EE208A51
:103E3000DFED210A88EE200ADFED200A80EE201A4D
:103E40001F4880ED001A1F4B0A221F491F48DFF848
:103E500070C09CED000AFFF739FE194880ED000A9A
:103E60004FF6FF70009016480068FCF708FA41EC26
:103E7000190B9FED170B53EC102BFCF713FA0CD218
:103E80000F4890ED000ADFED140A20EE200ABCEE88
:103E9000C00A10EE100A80B200900122694641F279
:103EA000020001F01FFF00BF9DE7000090110020FD
:103EB000333353400000804500004943CDCC4C3D96
:103EC000F8000020E8000020E4000020201300207B
:103ED000333333333333D33F00007A4470B5024673
:103EE00000231446C82901DA0B4600E0C82300204D
:103EF00005E034F82050034E26F81050401C98423C
:103F0000F7DB70BD901100202DE9F0412DED0C8BF9
:103F100082B000240027A04600269FED420AB0EEA2
:103F2000408A9FED400A10EE105A9FED3E0AF0EED7
:103F3000408A01F023F804463B480A233B4A3C49A7
:103F400000902046FFF784FE044626463046FCF7E4
:103F500089F941EC1B0B9FED370B53EC102BFCF751
:103F6000E0FA41EC1A0B9FED350B53EC102BFCF7EC
:103F70004AFB41EC190BFCF7CDFB05464FF6FF70F1
:103F800001902846FCF77BF941EC190B9FED2D0BB6
:103F900053EC102BFCF7A6FB33D22846FCF76FF945
:103FA00041EC1D0B9FED290B53EC102BFCF7B3FAE2
:103FB00041EC1C0B9FED270B53EC102BFCF7B1FAD7
:103FC00041EC1B0B9FED210B53EC102BFCF702FA7D
:103FD00041EC1A0B9FED210B53EC102BFCF79BFAD5
:103FE00041EC190BFCF796FB08EE100A9FED1D0A39
:103FF00028EE000ABCEEC00A10EE100A80B2019052
:1040000003E09FED080AB0EE408A012201A91003E7
:1040100001F068FE144880ED008A02B0BDEC0C8B04
:10402000BDE8F08100000000F4000020EC0000205A
:104030005C1300206666666666660A400000000043
:104040000000B040333333333333FB3F666666667C
:104050006666FA3F00000000000028409A9999998E
:104060009999A93F00007A44FC00002070B50B46E6
:10407000002113E04A1C0EE030F8115030F81260B5
:10408000B54207DD30F8114030F8125020F81150D9
:1040900020F81240521C9A42EEDB491C5D1E8D42F4
:1040A000E8DC70BD30B502460B46FF20002111E070
:1040B000545C604000240AE000F0800525B1312501
:1040C00085EA4005E8B201E04506280E641C082C8C
:1040D000F2DB491C9942EBD330BD00001FB51948F3
:1040E000FCF7F6FD01214807FDF728FD242000908C
:1040F00000200190029003906A4600211148FCF7CD
:1041000003FE012200210F48FCF7C3FD012200211C
:104110000C48FCF7CCFD002000900190029002209A
:1041200003906A4610210748FCF7EEFD012210219A
:104130000448FCF7AEFD40F2FF7200210148FCF795
:10414000F8FD1FBD0074004000B58BB01548FCF7AA
:1041500067FE01210220FDF7D1FC1248FCF760FE4A
:10416000114800901148019010200290C820ADF82D
:104170000C000020049080200590400006908000F4
:104180000790202008904FF44050099000200A909A
:1041900069460448FCF709FF01210248FCF734FE98
:1041A0000BB000BD300402400874004078040020C9
:1041B0001CB501214804FDF7A1FC01210846FDF7CB
:1041C000DDFC3020009003208DF804008DF8050000
:1041D00000208DF8070069464FF09040FDF712F877
:1041E0001CBD000010B5C82340F2FF724FF49B7154
:1041F000044800F092FEFFF7DBFFFFF76FFFFFF7C9
:10420000A3FF10BD7804002082B0CDE9000121F0A9
:10421000004001909DED000B02B051EC100B704777
:1042200010B5FCF753FF00240DE00A494FF400627B
:1042300002FB0410FCF7DEFE042803D0FCF71AFF93
:10424000002010BD641C012CEFDBFCF713FF0120E4
:10425000F7E7000000B8010810B50446FCF736FF88
:104260002046FCF7C7FE042803D0FCF703FF00201C
:1042700010BDFCF7FFFE0120FAE710B50346002051
:1042800002E01C5C0C54401C9042FADB10BD2DE98E
:10429000F04105460E461746FCF718FF3420FCF7A0
:1042A000A3FE00240BE036F814102846FCF7ECFEC1
:1042B000042801D1AD1C01E000BFFEE7641CBC4234
:1042C000F1DBFCF7D7FEBDE8F081000030B52DED45
:1042D0000C8B83B000F036FE04463E480A233E4A6B
:1042E0003E4900902046FFF7B3FC04462046FBF70A
:1042F000B9FF41EC1B0B9FED3A0B53EC102BFCF775
:1043000010F941EC1A0B9FED380B53EC102BFCF716
:104310007AF941EC190BFCF7FDF908EE900A9FEDD4
:10432000340A10EE105A00200290F5EEC08AF1EE29
:1043300010FA09D09FED2F0AF2EE040A00EEE80A07
:10434000C0EE280A10EE905A2B48D0F80510084607
:10435000FBF795FF41EC1C0B2846FBF790FF41EC67
:104360001D0BB0EE4C1AF0EE6C1AB0EE4D0AF0EEEA
:104370006D0AFEF775FAB0EE40AAF0EE60AA1E488C
:10438000D0F801100846FBF77AFF41EC1B0B53EC09
:104390001A2BFCF7C6F841EC190BFCF7BBF908EE39
:1043A000100A9FED160A28EE000ABCEEC00A10EEB5
:1043B000100A80B2029018EE100A0F49886101229B
:1043C00002A941F2060001F08DFC03B0BDEC0C8B9C
:1043D00030BD0000D0000020CC0000207A11002069
:1043E0006666666666660A400000000000FEAF4032
:1043F00000000000000004422E1100200000C8420E
:1044000010B50B48C07C20B1012805D0022809D185
:1044100005E000F00FF809E000F032F806E0FFF7E1
:1044200055FF03E000200249C87400BF00BF10BD63
:104430002E11002010B500F085FD0E490A680968AC
:10444000491C0C4B19600C4921F8120018460068F1
:104450000A2805D101200949C874002019460860BE
:10446000044800680A2190FBF1F201FB12000149A7
:10447000086010BDCC0000207A1100202E11002011
:104480002DE9F0412DED0C8B00F05CFD6F490A68C1
:104490000968491C6D4B19606D4921F812001846D6
:1044A00000680A2190FBF1F201FB12001946086036
:1044B000002400250027002665480088054604469C
:1044C000002014E0624931F81010A14202DD604979
:1044D00031F810405E4931F81010A94202DA5C4907
:1044E00031F810505A4931F810100E44401C0A2877
:1044F000E8DB9FED580AB0EE408A9FED560AB0EE19
:10450000409A9FED540AF0EE408A0A20B6FBF0F87C
:104510004046FBF7A7FE41EC1D0B9FED4F0B53EC04
:10452000102BFBF7FEFF41EC1C0B9FED4D0B53ECEA
:10453000102BFCF768F841EC1B0BFCF7EBF808EECE
:10454000100A2046FBF78EFE41EC1C0B9FED420B40
:1045500053EC102BFBF7E5FF41EC1B0B9FED400BE1
:1045600053EC102BFCF74FF841EC1D0BFCF7D2F885
:1045700009EE100A2846FBF775FE41EC1C0B9FED77
:10458000360B53EC102BFBF7CCFF41EC1B0B9FEDD4
:10459000340B53EC102BFCF736F841EC1D0BFCF7F9
:1045A000B9F808EE900ADFED2B9A9FED2AAADFED0D
:1045B00029AAB5EEC08AF1EE10FA09D09FED2A0AB9
:1045C000F2EE040A00EEC80AC0EE080AF0EE609AA5
:1045D000F5EEC08AF1EE10FA09D09FED230AF2EE53
:1045E000040A00EEC90AC0EE090AB0EE60AAF5EEB0
:1045F000C08AF1EE10FA09D09FED1B0AF2EE040A10
:1046000000EEE80AC0EE280AF0EE60AA3AEE6A0A66
:10461000BCEEC00A10EE107A052F13D2B2EE040AD7
:10462000F4EEC09AF1EE10FA0CDD9FED100AB4EE34
:10463000C08AF1EE10FA05DD02200D49C874002091
:1046400002490860BDEC0C8BBDE8F081CC00002075
:104650007A110020000000006666666666660A4001
:10466000000000000000B04000000442CDCC4C3DF2
:104670002E11002030B52DED0C8B83B000F06CFCBA
:1046800004463E480A233E4A3E4900902046FFF732
:10469000DFFA04462046FBF7E5FD41EC1B0B9FEDDE
:1046A0003A0B53EC102BFBF73CFF41EC1A0B9FED40
:1046B000380B53EC102BFBF7A6FF41EC190BFCF762
:1046C00029F808EE900A9FED340A10EE105A0020E7
:1046D0000290F5EEC08AF1EE10FA09D09FED2F0A94
:1046E000F0EE000A00EEE80AC0EE280A10EE905A3A
:1046F0002B48D0F80D100846FBF7C1FD41EC1C0B10
:104700002846FBF7BCFD41EC1D0BB0EE4C1AF0EE59
:104710006C1AB0EE4D0AF0EE6D0AFEF7A1F8B0EE9D
:1047200040AAF0EE60AA1E48D0F809100846FBF730
:10473000A6FD41EC1B0B53EC1A2BFBF7F2FE41ECF0
:10474000190BFBF7E7FF08EE100A9FED160A28EE9B
:10475000000ABCEEC00A10EE100A80B2029018EEF9
:10476000100A0F494861012202A941F2070001F035
:10477000B9FA03B0BDEC0C8B30BD0000C8000020BE
:10478000C4000020661100206666666666660A4000
:104790000000000000FEAF40000000003333D340B3
:1047A0002E1100200000C84210B50B48407C20B1FB
:1047B000012805D0022809D105E000F00FF809E032
:1047C00000F032F806E0FFF755FF03E00020024951
:1047D000487400BF00BF10BD2E11002010B500F0BE
:1047E000BBFB0E490A680968491C0C4B19600C494F
:1047F00021F81200184600680A2805D1012009494D
:104800004874002019460860044800680A2190FB9B
:10481000F1F201FB12000149086010BDC400002044
:10482000661100202E1100202DE9F0412DED0C8B9A
:1048300000F092FB6F490A680968491C6D4B1960CA
:104840006D4921F81200184600680A2190FBF1F228
:1048500001FB1200194608600024002500270026ED
:104860006548008805460446002014E0624931F896
:104870001010A14202DD604931F810405E4931F864
:104880001010A94202DA5C4931F810505A4931F847
:1048900010100E44401C0A28E8DB9FED580AB0EEC9
:1048A000408A9FED560AB0EE409A9FED540AF0EE12
:1048B000408A0A20B6FBF0F84046FBF7D3FC41ECF7
:1048C0001D0B9FED4F0B53EC102BFBF72AFE41EC19
:1048D0001C0B9FED4D0B53EC102BFBF794FE41ECA2
:1048E0001B0BFBF717FF08EE100A2046FBF7BAFC7C
:1048F00041EC1C0B9FED420B53EC102BFBF711FE10
:1049000041EC1B0B9FED400B53EC102BFBF77BFE98
:1049100041EC1D0BFBF7FEFE09EE100A2846FBF7E3
:10492000A1FC41EC1C0B9FED360B53EC102BFBF75D
:10493000F8FD41EC1B0B9FED340B53EC102BFBF7F8
:1049400062FE41EC1D0BFBF7E5FE08EE900ADFED81
:104950002B9A9FED2AAADFED29AAB5EEC08AF1EEC7
:1049600010FA09D09FED2A0AF0EE000A00EEC80AFC
:10497000C0EE080AF0EE609AF5EEC08AF1EE10FA89
:1049800009D09FED230AF0EE000A00EEC90AC0EE3E
:10499000090AB0EE60AAF5EEC08AF1EE10FA09D06D
:1049A0009FED1B0AF0EE000A00EEE80AC0EE280AAE
:1049B000F0EE60AA3AEE6A0ABCEEC00A10EE107A77
:1049C000052F13D2B1EE040AF4EEC09AF1EE10FAFC
:1049D0000CDD9FED100AB4EEC08AF1EE10FA05DD91
:1049E00002200D494874002002490860BDEC0C8B80
:1049F000BDE8F081C4000020661100200000000026
:104A00006666666666660A40000000000000B04008
:104A10003333D340CDCC4C3D2E11002010B500F0E7
:104A200009F800200249C8744874887410BD000059
:104A30002E11002010B511221D491E48FFF71DFC44
:104A40001B48007801281DD0B7EE000A10EE100AAE
:104A50001749C1F80900B7EE000A10EE100AC1F8B4
:104A60000D00B7EE000A10EE100AC1F80100B7EE13
:104A7000000A10EE100AC1F805000120087000F0CD
:104A80005DF802E000200A49087000F017F89FED79
:104A90000A0A10EE100A064988619FED070A10EE17
:104AA000100A48619FED040A10EE100AC86110BD9B
:104AB0002E11002000C00108000000001FB50020DA
:104AC00000900190029003901B48D0F801000090E4
:104AD0001948D0F8050001901748D0F80900029055
:104AE0001548D0F80D000390BDF80040BDF8020055
:104AF000ADF80000ADF80240BDF80440BDF8060076
:104B0000ADF80400ADF80640BDF80840BDF80A0055
:104B1000ADF80800ADF80A40BDF80C40BDF80E0035
:104B2000ADF80C00ADF80E400822694644F20100D1
:104B300001F0D8F81FBD00002E110020F0B585B09F
:104B400016480078012826D1032414216846FBF773
:104B500052FB124D112610E01148FFF77DFB771C28
:104B600007EBD770C0F34F0229460D48FFF78FFBC4
:104B7000112269460A48FFF780FB1122074968465F
:104B8000FBF752FB20B1201EA4F10101CCB2E3D10E
:104B900000F008F800BF05B0F0BD00002E110020A5
:104BA00000C0010800200149087070472E11002044
:104BB00001200149087070472E1100203FB50146C1
:104BC0000020009001900290039000BF1DE031F89A
:104BD00010301B1211F8104043EA0423024600EB88
:104BE000D27464106D4605EB8404638001EB4003CE
:104BF0005B881B1201EB4004A47843EA042300EB1A
:104C0000D27464102DF82430801C0828DFDB074A9A
:104C10000098C2F801000198C2F805000298C2F895
:104C200009000398C2F80D003FBD00002E110020BE
:104C30002DE9FC410020019000260024002500F011
:104C400097F9074631480A23314A324900903846DD
:104C5000FEF7FEFF07462F482D49096830F811601E
:104C60002B49096830F81140002008E0294931F843
:104C70001010A14202DA274931F81040401C0A28DE
:104C8000F4DB2548C06900EE100AB5EEC00AF1EE6B
:104C900010FA12D12048006A78B9301B85B2B5F5F8
:104CA000FA7F21DB1D480580B7EE000A10EE100ADE
:104CB0001949C8611E20086216E018480088201AA9
:104CC000B0F5967F07DB1448006A20B11248006AED
:104CD000401E114908621048006A28B99FED100A69
:104CE00010EE100A0C49C8610B48C06900EE100AAA
:104CF000BCEEC00A10EE100A80B20190012201A998
:104D000041F2080000F0EEFFBDE8FC81C000002089
:104D1000BC000020521100202E110020D6000020DF
:104D20000000000010B50B48807C20B1012805D0A0
:104D3000022809D105E000F00FF809E000F032F890
:104D400006E0FFF775FF03E000200249887400BF0A
:104D500000BF10BD2E1100201CB50121C804FCF7B6
:104D6000CDFE01210846FCF709FF4FF400500090EA
:104D700001208DF8040003208DF8050000208DF837
:104D8000070069460548FCF73DFA4FF40051034817
:104D9000FCF7B1FA0120024988741CBD00080048E4
:104DA0002E110020F8B500F0E3F804460025002697
:104DB00000273D48007820B101281FD002286BD180
:104DC00038E03A480A233A4A3A4900902046FEF72A
:104DD0003FFF04463548007801280ED1B4F57A7FAC
:104DE0000BDD0020314908703149086001202E494F
:104DF000087041033048FCF77CFA51E02B480A2345
:104E00002B4A2C4900902046FEF722FF04462748F3
:104E1000007801280DD1C82C0BDA00202349087036
:104E20002349086002202049087001032248FCF74A
:104E300062FA35E01D480A231D4A1E4900902046AB
:104E4000FEF706FF04461948007800B9F8BD194876
:104E500006880588002010E0164931F81010B1428C
:104E600002DD144931F81060124931F81010A942DE
:104E700002DA104931F81050401C0A28ECDB701B94
:104E800087B2C82F07DA02200C498874002007492E
:104E900008700749086003E000200349087000BF5C
:104EA00000BF00BFD2E70000D4000020C0000020F7
:104EB000BC00002052110020000800482E110020E4
:104EC00010B50C48007830B901F0E2F90A490860E1
:104ED000012008490870094801680748006801F086
:104EE000DDF930B10020034908700021044801F0C9
:104EF0007DF910BDE0000020D8000020DC0000207B
:104F0000054F000810B50446FFF70CFFFFF74CFCF7
:104F1000FFF776FAFFF712FE10BD70B504460020C9
:104F20000CE003EBD376B0EB660F03DA551824F8E8
:104F3000105002E0551A24F81050401C9842F0DB43
:104F400070BD0000002002490870024800887047C8
:104F50003C0000203A0000200148408870470000D3
:104F60003000002001480088704700003600002013
:104F70000148008870470000300000200148408848
:104F8000704700003600002070B504460E4604F558
:104F900040750748016805F10C00FBF737F908B9BF
:104FA000012070BD0320034908830020F9E70000B9
:104FB000340100207423002070B500244FF4806673
:104FC0000325434800684349084400F5806042498E
:104FD0000988404A131403FB0121884213D300BF00
:104FE0003D4909883B4A131403FB0120FFF734F9BC
:104FF00020B9281EA5F10101CDB2F1D136480088B3
:10500000401C354908803548C1693148006800F5C1
:10501000806081421AD94FF40072314801683148EA
:105020000068FFF734F92F48006800F580602D49CB
:1050300008602B48006800F5806029490860244812
:10504000006800F58060224908603CE02348C069A0
:105050001F49096888422FD02048C0691C49096847
:10506000401A401CC0F34F021D4801681D480068EB
:10507000FFF70DF91948C06915490968401A19491F
:105080000968084417490860154801681348C06951
:105090000F4A1268801A401C400801EB400010497A
:1050A00008600E48C0690A490968401A0849096839
:1050B00008440749086006E00020084908700548D0
:1050C000486000F00FF90A2007490880204670BDAB
:1050D000180100200078000824010020742300201B
:1050E000200100201C010020120100202DE9F041C8
:1050F00005460F461048406800F5407405F54076B7
:10510000E0884FF6FF71884208D12089884205D196
:105110006089884202D10120BDE8F0810C2231462D
:105120002046FBF781F8002801DA0120F4E704208B
:10513000014908830020EFE77423002070B50124A3
:105140000E488568808B81B2284600F071FC0B49BF
:1051500008840846008C898A884208D101200749C2
:10516000088301221831032000F0BCFD03E0052074
:10517000024908830024204670BD000074230020EB
:1051800010B501240A480069B0F5204F05D9022066
:10519000074908830024204610BD002004490883E5
:1051A00001221831032000F09DFD2046F4E70000A5
:1051B00074230020002006490A8849888A4206D1C3
:1051C0000449897D022901D1012000E000207047B7
:1051D000702300207423002070B5ADF5806D01258B
:1051E0000024A9026846FBF706F800F001F9B0F5C3
:1051F000806F45DB6422A902684600F017F9044677
:10520000A9026846FFF7C0FE20B9002528460DF523
:10521000806D70BD4FF480616846FFF767FF10B97D
:1052200000252846F3E71848C069184908440119C1
:105230001548408B154A02EBC02081420AD312491F
:10524000498B02EBC120FFF707F80F48408B401C49
:105250000D494883661C06EBD671C1F34F020A491B
:10526000C9690A4BC8186946FFF711F80648C069B2
:1052700020440549C8610A20054908800120C6E785
:1052800000252846C3E70000742300200018010809
:10529000100100200020064908704FF000604860AF
:1052A00004488860002008734AF6552048847047F7
:1052B000742300200018010810B5084C2422214650
:1052C0000748FAF77FFF0648408C4AF65521884286
:1052D00003D0FFF7DFFF00F005F810BD00B80108AC
:1052E0007423002010B5FEF79BFF242202490348D7
:1052F000FEF7CDFF10BD00007423002000B80108A8
:1053000010B5FFF7D9FF0A2008490880084908802E
:1053100000200849087388750846406800F5407108
:105320000622D00200F0DEFC10BD000010010020BB
:10533000120100207423002070B50446656872B61F
:105340000A48006840F000600849086008460068A4
:1053500040F000700860206880F3088800BF081DD6
:1053600004602E4662B6B04770BD000004ED00E058
:1053700070B504460E46A078022800D070BDA07912
:10538000E17940EA0125E07878B90120174988756C
:10539000207A617A40EA0120A17A40EA0140E17A6C
:1053A00040EA016011490861E8E7E078112809D175
:1053B00002200E498875207A617A40EA01200B4963
:1053C0008882DBE7E078102803D100200749887540
:1053D00000E0D3E7B5F5806F06DC4FF4FA7229469A
:1053E00004F1080000F0DAF900BFC7E774230020D9
:1053F0000D490A8849888A4205DA0B494A88098892
:10540000511A88B20EE008490A8849888A4208DDA4
:1054100005490988C1F5805203494988114488B279
:1054200000E0002070470000702300202DE9F041CB
:1054300006460D4617462D4801884088814205DA08
:105440002A4841880088081A84B20EE0274801885B
:105450004088814208DD25480088C0F580512348F6
:105460004088084484B200E00024AC4201DD2C46B0
:1054700000E000BF1D4800882044B0F5805F08DAD6
:105480001A4800881A4A811822463046FAF79AFECE
:1054900017E016480088C0F5805214480088144B65
:1054A000C1183046FAF78EFE10490988C1F58051BF
:1054B000621A0E490B8806F58051C81A0C49FAF792
:1054C00081FE0A480088204481B2084801800146D4
:1054D0000888C11700EB11510913A0EB01318AB202
:1054E00002490A802046BDE8F081000070230020B8
:1054F0007013002001200449897D012900D17047E3
:10550000002000BFFBE700007423002010B5114805
:10551000007830B900F0BCFE0F49086001200D4949
:1055200008700E4801680C48006800F0B7FE30B102
:105530000020084908700021094800F057FE09487A
:105540000078012802D1FFF737FD02E0002000F0CB
:10555000A5F810BD30010020280100202C010020FA
:10556000695500087423002010B5044617480088C8
:10557000002804DD15480088401E1449088014489E
:105580004068B0F1006F03D10A201249088008E09A
:1055900010480088002804DD0E480088401E0D4990
:1055A00008800B48007B80B90A48008868B94FF42E
:1055B00080610948FFF7E8FC18B10748FFF7BCFE17
:1055C00003E04FF000600249486010BD1001002068
:1055D00074230020120100200078000800200549F3
:1055E000098821B90621044A11830120704700BFB0
:1055F000FCE70000100100207423002070B5ADF519
:10560000806D0125A9026846FAF7F5FD00246422A1
:10561000A9026846FFF70AFF04461CB928460DF5A3
:10562000806D70BD1A48C0692044B0F5204F29D262
:105630001748C0691749084401191548408B154A95
:1056400002EBC02081420AD31149498B02EBC120F1
:10565000FEF702FE0E48408B401C0D49488326464B
:1056600004EBD671C1F34F0209498968084BDB6925
:10567000C8186946FEF70BFE0548C0692044044976
:10568000C86100E000250A20034908802846C6E7D3
:1056900074230020001801081001002010B50446F2
:1056A0003948007B052866D2DFE800F0031C293862
:1056B0005500FFF71FFFA0B1FFF762FD70B1012099
:1056C000314908730020C8610884488300212F48AD
:1056D000018041800A202E49088002E004202A49E6
:1056E00008734EE0FFF778FD10B1022026490873D9
:1056F000FFF774FF10B104202349087341E0FFF75E
:105700007DFFFFF757FD10B103201F490873FFF716
:1057100065FF10B104201C49087332E0FFF70EFD4D
:10572000A8B1012018490870FFF7DCFD00BFBFF3E6
:105730004F8F1848006800F4E06017490843001DC7
:1057400014490860BFF34F8F00BF00BFFEE704207D
:105750000D49087300BF00200B490873C861088415
:1057600000210A48018041800122074918310320A5
:1057700000F0B8FA05E000200349C8610884087306
:1057800000BF00BF10BD0000742300207023002064
:10579000100100200CED00E00000FA0570B5054690
:1057A0000C4616461C4840882044B0F5805F08DA55
:1057B00019494988194A881822462946FAF702FDEC
:1057C00017E015494988C1F5805213494988134BA0
:1057D000C8182946FAF7F6FC0F484088C0F58050F3
:1057E000221A0D48438805F58050C11A0B48FAF774
:1057F000E9FC09484088204481B2074841800146BD
:105800004888C11700EB11510913A0EB01318AB28E
:1058100001494A8070BD00007023002070130020F1
:1058200010B5044660890B49096888420CD20020F3
:1058300008490860607B18B9204600F04DF808E080
:10584000204600F03FF804E0024800686430014957
:10585000086010BD5C0000201CB5044601218804CE
:10586000FCF74CF96068009001208DF804000320DB
:105870008DF8050069460C48FBF7C4FCA28891B27C
:105880002068FBF736FD002009E0084951F8201098
:1058900019B9064941F8204003E000BF401C0A281E
:1058A000F3DB00BF1CBD0000000400480806002018
:1058B00010B50348FFF7D0FF014800F003F810BD12
:1058C0004C00002010B50446A28891B22068FBF776
:1058D00010FD0020607310BD10B50446A28891B27F
:1058E0002068FBF708FD0120607310BD10B5044669
:1058F000207A20B1012806D002280CD107E02046EA
:10590000FFF7E0FF0AE02046FFF7E6FF06E020464B
:10591000FFF786FF02E00020207200BF00BF10BD2D
:1059200010B50C48007830B900F0B2FC0A490860A4
:10593000012008490870094801680748006800F01C
:10594000ADFC30B10020034908700021044800F08C
:105950004DFC10BD680000206000002064000020A5
:105960006559000870B5054600240CE0074850F85A
:10597000240028B1054951F82400FFF7B7FF00E0E3
:1059800000E000BF641C0A2CF0DB70BD080600209C
:1059900000F092F8FFF7B4FC00F04EFC2149481EDD
:1059A000B0F1807F00D31BE0481E4FF0E022506131
:1059B00050170F22002807DA13071D0E1A4B00F0AC
:1059C0000F04241F1D5503E013071C0E174B1C5416
:1059D00000BF00204FF0E02290610720106100BF5F
:1059E0004FF4A060FCF71CF800F0F6FBFFF760FF37
:1059F000FEF7F8FBFEF71CF800F08EFCFFF70EF840
:105A000000F0FCFC0DE0FFF78BFFFBF70DFEFEF74F
:105A10006DF9FBF735FFFFF753FAFFF777FD00F05D
:105A200081FBF0E74019010018ED00E000E400E020
:105A300030B502460B464FF6FF70002109E0555C79
:105A40004540ECB2044D35F8145085EA20204C1C3A
:105A5000A1B29942F3DB30BD30060020F0B5C1B0F1
:105A600005460E464FF4807101A8FAF7C4FB0024E6
:105A70000027104802782146641C01A8425405F111
:105A80008000C2B22146641C01A842542146641C15
:105A90004654611CFFF7CCFF07463A0A2146641CB6
:105AA00001A842542146641C4754214600F0ACFC36
:105AB00041B0F0BD7600002030B54AF2010400206C
:105AC00014E0002182B200230AE081EA020505F019
:105AD000010515B184EA610100E0491052105B1C18
