:020000040800F2
:10000000A0400020A10100089D15000895150008DA
:10001000991500086D0C0008132700080000000067
:100020000000000000000000000000001120000897
:10003000FF02000800000000B519000805210008B3
:10004000BB010008BB010008BB010008BB010008A0
:10005000BB010008BB010008BB010008BB01000890
:10006000BB010008BB010008BB010008BB01000880
:10007000BB010008BB010008BB010008BB01000870
:10008000BB010008BB010008BB010008BB01000860
:10009000BB010008BB010008BB010008BB01000850
:1000A000BB01000885210008BB010008BB01000856
:1000B00095210008BB010008BB010008BB01000836
:1000C000BB010008BB010008BB010008BB01000820
:1000D000BB010008BB0100080D240008BB0100089B
:1000E000BB010008BB010008BB010008BB01000800
:1000F000BB010008BB010008BB010008BB010008F0
:10010000000000000000000000000000BB0100082B
:10011000BB010008BB010008BB010008BB010008CF
:10012000BB010008290D0008BB010008BB01000845
:10013000550D0008BB010008000000000000000091
:10014000BB010008BB010008BB0100080000000063
:10015000000000000000000000000000000000009F
:100160000000000000000000BB010008BB01000807
:10017000BB010008000000000000000000000000BB
:1001800000000000BB010008DFF810D000F0A0FB69
:1001900000480047DD500008AFF30080A040002079
:1001A0000648804706480047FEE7FEE7FEE7FEE711
:1001B000FEE7FEE7FEE7FEE7FEE7FEE70D210008AB
:1001C0008901000840EA01039B0703D009E008C940
:1001D000121F08C0042AFAD203E011F8013B00F80C
:1001E000013B521EF9D27047D2B201E000F8012B58
:1001F000491EFBD270470022F6E710B513460A46A7
:1002000004461946FFF7F0FF204610BD30B50446FE
:100210000020034600E05B1C934203D2E05CCD5C0F
:10022000401BF8D030BD0EB5C10F80EAE070084425
:10023000CA07002140F233438DE80E000A460B4600
:1002400000F0E1FA03B000BD0EB540F23341029177
:100250000021CDE900110A460B4600F0D4FA03B0A4
:1002600000BD00F0004230F000400AD0C10D01F5A1
:100270006071C0F3160042EA0151C2084007114301
:10028000704700200146704730B5041E71F100042C
:1002900004DB4FF00044404264EB0101141E73F193
:1002A000000405DB1C464FF00043524263EB04039D
:1002B0008B4208BF824230BD30B5041E71F100048C
:1002C00004DB4FF00044404264EB0101141E73F163
:1002D000000405DB1C464FF00043524263EB04036D
:1002E000994208BF904230BD21B1826842F00102BC
:1002F000826003E0826842F00202826070477047C9
:10030000000000190700E907B5E7B3D8D0C5CFA2B0
:10031000B2C9BCAFC8EDBCFE000000000000000088
:1003200000000000000000000000000000000000CD
:1003300000000000000000000000000000000000BD
:1003400000000000000000000000000000000000AD
:10035000000000000000000000000000000000009D
:10036000000000000000000000000000CCECCEA265
:10037000B5E7D7D3A1AAA1AAEFAEB5E70000000068
:10038000000000000000000000000000000000006D
:10039000000000000000000000000000000000005D
:1003A000000000000000000000000000000000004D
:1003B000000000000000000000000000000000003D
:1003C000000000000000000000000000000000002D
:1003D0002DE9FE4F804681EA0300C00F0C460090D5
:1003E00021F0004123F00045B8EB0200A94105D2FD
:1003F0004046214690461C460B46024623F00040EC
:10040000104347D0270DC7F30A00C3F30A510290E7
:10041000401A019040286BDAC3F3130040F4801BAC
:100420000098924620B10023D2EB030A63EB0B0B3A
:1004300001985946C0F14002504600F06DF9064659
:100440000D4650465946019A00F085F910EB080018
:100450006141002487EA115284EAE7731A4340D0CD
:10046000009A62B3019A012A4FEA075215DC001B79
:1004700061EB02014FF0004202EA0752CDE900426F
:10048000001C41F5801132462B4600F0BCF903B048
:10049000BDE8F08F40462146F9E7001B61EB020101
:1004A000001C41F5801300185B412018A2F50017CD
:1004B00047EB030140EAD570B6196D4111E06D08B4
:1004C0004FEA360645EAC0754FEA0752001B61EB5A
:1004D0000201001C41F5801149084FEA3000001963
:1004E000514132462B4603B0BDE8F04F00F07CB9D5
:1004F0000098012240000023D0EB020263EBE0737E
:10050000009821464FEAE074B8EB000061EB04016B
:10051000E9E783F000435BE781F0004158E72DE90C
:10052000FE4F81EA030404F0004421F000410094EE
:100530004FF0000B23F0004350EA01045ED052EA72
:1005400003045BD0C3F30A54C1F30A552C44A4F24C
:10055000F3340194A0FB0254C1F3130141F4801160
:10056000C3F3130343F4801301FB024400FB034E67
:10057000840A970A44EA815447EA8357A4FB076830
:1005800002958D0A05FB07854FEA932C04FB0C545A
:100590002705029D4FEA065847EA1637B5EB0805CE
:1005A0006EEB070C870E920E47EA811742EA831220
:1005B000A7FB0201B6EB0B0164EB00042B0D43EA31
:1005C0000C335E1844EB1C50DA465146E7FB02013F
:1005D000C5F313044FEA0B3343EA14534FEA0432D2
:1005E000019C43EA0603A4F10C040294009CCDE9AB
:1005F00000B400F008F903B0BDE8F08F0020014618
:10060000F9E72DE9F04D81EA030404F0004B21F0F5
:10061000004514464FF0000A23F0004150EA05025D
:1006200020D054EA01021DD0C5F30A570246C5F393
:100630001303C1F31300C1F30A5640F4801543F4C9
:100640008013A7EB0608101BD64608F2FD3873EBA3
:10065000050002D308F1010801E092185B41B8F1EE
:10066000000F03DA00200146BDE8F08D00204FF4B2
:100670008011064684460EE0171B73EB050705D371
:10068000121B63EB050306434CEA010C49084FEAD1
:10069000300092185B4150EA0107EDD152EA0300A5
:1006A00012D082EA040083EA0501084305D0101B3A
:1006B000AB4106D20122002306E000224FF00043A6
:1006C00002E06FF0010253101AEB06004CEB0851E8
:1006D00010EB0A0041EB0B01BDE8F04D00F084B8CF
:1006E00001F0004330B421F0004150EA010206D08D
:1006F0000A0DA2F56072C1F31301002A02DC30BCBE
:1007000000207047440F44EAC104C100E01830BC27
:1007100000EBC25000F031B8202A04DB203A00FA86
:1007200002F1002070479140C2F1200320FA03F348
:10073000194390407047202A04DB203A21FA02F046
:100740000021704721FA02F3D040C2F1200291400B
:10075000084319467047202A06DBCB17203A41FA96
:1007600002F043EAE07306E041FA02F3D040C2F13E
:10077000200291400843194670470029A8BF7047DE
:10078000401C490008BF20F00100704710B4B0FAC7
:1007900080FC00FA0CF050EA010404BF10BC704762
:1007A00049B1CCF1200421FA04F411FA0CF118BF7C
:1007B000012121430843A3EB0C01CB1D4FEA00614B
:1007C0004FEA102042BF002010BC704700EBC3501E
:1007D00010440029A4BF10BC7047401C490008BF4A
:1007E00020F0010010BC704710B5141E73F1000416
:1007F00008DA401C41F1000192185B411A4301D113
:1008000020F0010010BD2DE9F04D92469B4611B13C
:10081000B1FA81F202E0B0FA80F220329046FFF79E
:100820007BFF04460F4640EA0A0041EA0B015346AB
:100830005A46084313D0114653EA010019D0C8F1B3
:1008400040025046FFF777FF05460E465046594690
:100850004246FFF761FF084305D0012004E020462F
:100860003946BDE8F08D0020054346EAE0762C438A
:1008700037430A986305E40AA0EB08000022FD0A4A
:1008800044EA47540A3002D500200146E9E7010551
:1008900010196941DDE9084500196941BDE8F04DCD
:1008A000A2E770B521F0004303430CD0C1F30A5511
:1008B0000024D5EB040564EB0403D617AD1AB3414D
:1008C00002DB0020014670BD201841EB025170BDD3
:1008D000064C074D06E0E06840F0010394E807008D
:1008E00098471034AC42F6D3FFF752FC646100081D
:1008F000846100082DE9F04D00231A461B1A8A4135
:1009000003DB00200146BDE8F08DC1F30A52C1F3BC
:10091000130141F480154FF0000BD10702D10018EC
:100920006D41521E0027044640F2FF11384601EB8C
:10093000620A3E468046024600204FF48011FFF7CF
:10094000FAFEC2197141BB1846EB0100B4EB030C6F
:1009500075EB000C04D3E41A65EB000517460E4650
:10096000241908F101006D4180463428E3DDF919AE
:1009700046EB0600091BA84103D24FF0FF32134695
:1009800001E0002213461BEB070046EB0A51BDE8CD
:10099000F04DFFF729BF70B58C1810F8015B15F00A
:1009A000070301D110F8013B2A1106D110F8012BE1
:1009B00003E010F8016B01F8016B5B1EF9D12B0706
:1009C00005D40023521E0DD401F8013BFAE710F8BC
:1009D000013BCB1A921C03E013F8015B01F8015BA9
:1009E000521EF9D5A142D8D3002070BD10B5002207
:1009F000B0F1A04F02D0124B984204D1114B1A68AB
:100A0000114B1A4003E0114B1A680F4B1A40D1E901
:100A1000003423438C682343CC6843EA44330C7C82
:100A200043EA04231A43B0F1A04F02D0044B98428A
:100A300002D1044B1A6001E0044B1A6010BD0000A3
:100A40000001005008030050E010FCFF08070050B0
:100A500021B1C26842F00102C26003E0C26822F024
:100A60000102C2607047C26822F00202C260C2681E
:100A70000A43C2607047000010B50446B4F1A04FAD
:100A800002D00E48844209D10121080700F0BCFFC2
:100A900000214FF0805000F0B7FF0EE0084884427C
:100AA00002D00848844208D10121480700F0ACFF79
:100AB00000214FF0005000F0A7FF10BD00010050D2
:100AC0000004005000050050014600208A6802F032
:100AD00000420AB1012000E00020704702460020D9
:100AE00013680B400BB1012000E0002070470000AC
:100AF00010B502460020D0680C4B1840D1E90034F4
:100B000023438C682343CC6823430C6923434C69FB
:100B100023438C6923431843D060106B20F00F00EF
:100B20000B7F5B1E1843106310BD000007C0FFFD64
:100B3000F0B50C461D4600BF00BF052A0FDA016B59
:100B400002EB420677001F2606FA07F3994302EBF1
:100B50004206760004FA06F3194301633CE00A2AD0
:100B600011DA416B561F06EB460677001F2606FA80
:100B700007F39943561F06EB4606760004FA06F380
:100B80001943416328E00F2A13DA816BA2F10A06A8
:100B900006EB460677001F2606FA07F39943A2F1F3
:100BA0000A0606EB4606760004FA06F3194381634B
:100BB00012E0C16BA2F10F0606EB460677001F2676
:100BC00006FA07F39943A2F10F0606EB46067600F4
:100BD00004FA06F31943C163092C14DD8169A4F1F9
:100BE0000A0606EB4607072606FA07F386699E43C0
:100BF00086618669A4F10A0707EB470705FA07F73C
:100C00003E43866110E04169661E06EB46073826C2
:100C100006FA07F346699E434661466904EB4407BA
:100C200005FA07F73E434661F0BD826822F0804234
:100C3000826082680A4382607047816841F00041A7
:100C400081607047816841F004018160704782686B
:100C500022F04052826021B1826842F0805282606C
:100C600003E0826842F000528260704700BFFEE7F6
:100C700010B52AB1036801248C402343036004E0CB
:100C8000036801248C40A343036010BD10B532B14A
:100C900003684FF480548C402343036005E00368ED
:100CA0004FF480548C40A343036010BD10B504463C
:100CB0000B48844209D10121480700F0C5FE0021FC
:100CC0004FF0005000F0C0FE08E00121880600F05F
:100CD000BBFE00214FF0806000F0B6FE10BD0000AA
:100CE0000074004070B500230024036840F6FE75D0
:100CF0008D40AB43D2E90056354396683543D668FC
:100D000045EA060404FA01F52B43036070BD18B5EB
:100D100000230093009001F11403009C23440093EE
:100D2000009B1A6018BD000010B5084800F00CF9CF
:100D300058B1064800F048F802F038FF28B9C82139
:100D4000034803F037F802F037FF10BD2000001011
:100D50003801002010B5154800F0F6F820B304F073
:100D600009FE134908600846006812490968401ADC
:100D7000114908600E4800680E4908600B4800F0F1
:100D800023F802F013FF28B9C8210C4803F012F829
:100D900002F012FF0A48007830B9012008490870B3
:100DA000064840880749088010BD00000000021076
:100DB00048000020440000204000002038010020AE
:100DC0003C0000203A00002000F0805111B103499E
:100DD000086001E0024948607047000004040240D6
:100DE0000000024021B1026842F00102026004E00A
:100DF00002684FF6FE731A400260704701684FF6B2
:100E0000FE72114001600021016041608160C1609B
:100E10004B49884208D14A490839496841F00F01D5
:100E2000474A083A51608AE045491431884208D15E
:100E300043490839496841F0F001414A083A516094
:100E40007DE03F492831884208D13D490839496849
:100E500041F470613A4A083A516070E038493C31D7
:100E6000884208D136490839496841F47041344A0A
:100E7000083A516063E032495031884208D1304924
:100E80000839496841F470212D4A083A516056E00A
:100E90002B496431884208D129490839496841F40D
:100EA0007001274A083A516049E025497831884263
:100EB00008D123490839496841F07061204A083A4D
:100EC00051603CE01F49884206D1011F096841F08A
:100ED0000F01021F116032E01A491431884208D113
:100EE0001849091F096841F0F001164A121F1160E4
:100EF00025E014492831884208D11249091F0968A0
:100F000041F470610F4A121F116018E00D493C3125
:100F1000884208D10B49091F096841F47041094A08
:100F2000121F11600BE007495031884207D1054973
:100F3000091F096841F47021024A121F11607047AD
:100F4000080002400804024001460020002201F08F
:100F5000805313B1054B1A6801E0054B1A6802EA89
:100F600001030BB1012000E00020704700040240A3
:100F7000000002401AB103680B43036002E00368FB
:100F80008B430360704710B50022026847F6F07388
:100F90009A430C6A8B6823430C6923434C692343AF
:100FA0008C692343CC6923434C6A23438C6A2343D3
:100FB0001A4302608B8943600B6883604B68C3608F
:100FC00010BD00000149C8607047000000200240C9
:100FD00030B5044604254FF4302000F077F805467C
:100FE000042D16D10C48006940F002000A4908613E
:100FF00008464461006940F0400008614FF4302029
:1010000000F064F805460448006920F00200024937
:101010000861284630BD00000020024004200B4932
:10102000C96801F0010109B101200EE00749C96852
:1010300001F0100109B1022007E00449C96801F07C
:10104000040109B1032000E00420704700200240A1
:101050000348006940F080000149086170470000C2
:101060000020024070B504460D4604264FF430209F
:1010700000F02CF80646042E11D10A48006940F011
:1010800001000849086125804FF4302000F01EF867
:1010900006460448006920F0010002490861304614
:1010A00070BD0000002002400548006900F080008B
:1010B00020B1044802494860034848607047000076
:1010C0000020024023016745AB89EFCD00B5024601
:1010D0000423FFF7A3FF034603E0FFF79FFF034648
:1010E000521E012B01D1002AF7D102B9052318465F
:1010F00000BDF0B50A46002100240025002300BFF2
:101100003FE0012606FA01F4166806EA0405A54246
:1011100036D11679012E02D01679022E18D18668A2
:101120004FEA410C032707FA0CF7BE438660567955
:101130004F00BE4087683E438660868801278F4007
:10114000BE438680878896798E40B6B237438780C3
:1011500006684FEA410C032707FA0CF7BE43066006
:1011600016794F00BE4007683E430660C3684F00D3
:101170000326BE40B343D6794F00BE403343C3601D
:10118000491C1029BDD3F0BDF0B5002300244D0744
:10119000ED0E02FA05F3CE1000F1200555F82650A9
:1011A0004E07F70E0F26BE40B543CF1000F12006C4
:1011B00046F82750CE1000F1200555F8265045EA94
:1011C0000304CE1000F1200545F82640F0BD02468C
:1011D0000020138A0B400BB1012000E00020704773
:1011E000018570478161704770B505462C1D7020E0
:1011F00020740D4820604020A0800B48A060802112
:10120000A1817020287000202883688385F824003D
:101210000121880400F0E8FB204604F0FDF90120DC
:101220000249087070BD00000004004890000020D2
:101230002DE9F04704460E4617464FF0000804F12A
:10124000040917480168484688472078012303EBC2
:101250004000C1B212488268484690471048416930
:101260004846884710B14FF0010802E04046BDE80B
:10127000F08700250BE00A48C1684846884770554A
:1012800007480121026948469047681CC5B2BD4223
:10129000F1DB03484168484688474046E7E70000DD
:1012A000780000201FB5044600200290039006221B
:1012B00002A92046FFF7BCFF9DF809009DF8081021
:1012C00040EA012020839DF80C009DF80B1040EAB5
:1012D00001206083022102A802F050FE2E4908700E
:1012E0009DF80A000978884202D0002004B010BDA1
:1012F00002210DF10B0002F041FE274908709DF814
:101300000D000978884201D00020EFE7208B00EE25
:10131000100AB8EE400A9FED211AC0EE010A9FEDB7
:10132000201A9FED200A10EE810A84ED070A608BD7
:1013300000EE100AF8EE400A9FED181A80EE810ABE
:10134000DFED190A20EE200A84ED080A94ED070A61
:10135000DFED150A20EE200ABDEEC00A10EE100ADD
:1013600000B2019094ED080ADFED0F0A20EE200A8A
:10137000BDEEC00A10EE100A00B20090012201A9D1
:1013800041F2050004F044F80122694641F20900E7
:1013900004F03EF80120A9E79100002000008047FA
:1013A00000002F43000034420000C84210B504463C
:1013B000204600F059F810B102200149087010BD14
:1013C00090000020F8B504460D460026271D28127F
:1013D0008DF80000E8B28DF801001A48016838461F
:1013E000884720784006010E1648826838469047A4
:1013F000144841693846884708B1012600E00026B4
:101400009DF800100F488268384690470D484169A2
:101410003846884708B1012600E000269DF80110F3
:1014200008488268384690470648416938468847E8
:1014300008B1012600E00026024841683846884786
:101440003046F8BD7800002010B504464BF29801F4
:101450002046FFF7B7FF10BD10B5044647F66601FA
:101460002046FFF7AFFF10BD10B5044643F21751F9
:101470002046FFF7A7FF10BD10B5044694F82400DE
:1014800005283FD2DFE800F0030F1A26320020467D
:10149000FFF7EAFF18B1022084F8240002E00020E0
:1014A00084F8240032E04EF6C8712046FFF78AFF28
:1014B000032217492046FFF7BBFE27E02046FFF72F
:1014C000CBFF18B1032084F8240002E0002084F848
:1014D00024001BE02046FFF7E5FE18B1042084F845
:1014E000240002E0002084F824000FE02046FFF7EB
:1014F000ABFF18B1002084F8240002E0002084F83B
:10150000240003E0002084F8240000BF00BF10BDC9
:101510009200002010B50C48007830B904F02AFA87
:101520000A4908600120084908700948016807480D
:10153000006804F025FA30B100200349087005491D
:10154000054804F0E9F910BDA00000209800002033
:101550009C000020DC0C00205D15000870B50446DE
:1015600025460B48007820B1012806D002280CD16E
:1015700007E02846FFF738FE08E02846FFF716FF89
:1015800004E02846FFF778FF00E000BF00BF70BD11
:101590009000002000BFFEE700BFFEE7704700009C
:1015A00010B52DED048B82B09FED2A0AF0EE408A33
:1015B0009FED280AB0EE409A0020019003F002FC53
:1015C000044625480523254A25490090204602F077
:1015D000ABFA044600EE104AB8EE400ADFED210AED
:1015E00020EE200ADFED200A80EE201AB0EE418ABC
:1015F0009FED1C0A30EE480AB5EEC00AF1EE10FA73
:101600000CD0B2EE040A28EE000ADFED160A70EEE6
:10161000C80A80EE201AF0EE418A03E002B0BDEC69
:10162000048B10BDB0EE680A00F0DEF8B0EE409A10
:101630009FED0E0A29EE000ABCEEC00A10EE100A59
:1016400080B20190012201A941F2010003F0E0FE05
:1016500000BFE3E700000000AC000020A80000206D
:10166000040D002033335340000080450000C84281
:1016700010B503F0A7FB0E490A680968491C0C4B1A
:1016800019600C4921F8120018460068052805D198
:1016900001200949087000201946086004480068C4
:1016A000052190FBF1F201FB12000149086010BD19
:1016B000A8000020040D0020AD00002010B52DED85
:1016C000028B82B09FED210AF0EE408A03F07AFB94
:1016D00004461F4805231F4A1F490090204602F078
:1016E00023FA044600EE104AB8EE400ADFED1B0A6A
:1016F00020EE200ADFED1A0A80EE201AB0EE418AB1
:101700009FED160A30EE480AB5EEC00AF1EE10FA67
:101710000CD0B2EE040A28EE000ADFED100A70EEDB
:10172000C80A80EE201AF0EE418A03E002B0BDEC58
:10173000028B10BD9FED0B0AF4EEC08AF1EE10FA99
:1017400002D202200849087000BFEFE70000000045
:10175000AC000020A8000020040D002033335340CB
:10176000000080450000FA44AD00002010B50C4890
:10177000007830B904F0FEF80A49086001200849F1
:101780000870094801680748006804F0F9F830B1AA
:101790000020034908700021044804F0BDF810BD82
:1017A000B8000020B0000020B4000020B1170008ED
:1017B00010B504460B48007820B1012805D0022856
:1017C00009D105E0FFF754FF09E0FFF777FF06E0D6
:1017D000FFF7E6FE03E000200249087000BF00BFEB
:1017E00010BD0000AD000020F0EE400AB5209FEDD6
:1017F000270AB0EE401A00210CE0254A02EB8102D4
:1018000092ED000AB4EEE00AF1EE10FA01D288B2CD
:1018100002E0491CB529F0DB00BF38B91D4901EBD6
:10182000800191ED000AB0EE401A29E0B52808D1F8
:10183000411E184A02EB810191ED000AB0EE401AF8
:101840001EE0411E124A02EB810191ED000A114691
:1018500001EB8001D1ED001A30EE610A114601EB77
:101860008001D1ED001A70EEE11A81EE802A09495B
:1018700001EB800191ED000A30EE420AB0EE401A11
:10188000054981ED001A91ED000A70470000000043
:10189000EC5D0008185B0008A400002070B5002172
:1018A00000230F22C47804B3154C246804F4E064C8
:1018B000C4F5E064210AC1F10403CA40447804FA83
:1018C00003F184781440214309010E4C0678A15598
:1018D000047804F01F050124AC4005786D11AD00BB
:1018E00005F1E025C5F8004109E0047804F01F0582
:1018F0000124AC40044D0678761145F8264070BDB1
:101900000CED00E000E400E080E100E0024901436A
:10191000024A1160704700000000FA050CED00E07B
:1019200041B1094A0244926B42F00102064B034462
:101930009A6307E0044A0244926B22F00102024BD0
:1019400003449A6370470000000001400021024AEE
:1019500002449163704700000000014010B500226E
:10196000064B03449A6B22F06C02D1E90034234306
:101970001A43024B03449A6310BD0000000001406B
:1019800041B1094A0244926B42F40062064B03449F
:101990009A6307E0044A0244926B22F40062024B0D
:1019A00003449A6370470000000001400021416039
:1019B00001607047704700000021010F31B1094AF2
:1019C000D26A22F47852074BDA6205E0054AD26AFD
:1019D00022F4F872034BDA62024AD26A0243014BE4
:1019E000DA6270470010024029B1064A5269024388
:1019F000044B5A6104E0034A52698243014B5A6125
:101A0000704700000010024029B1064A926A024362
:101A1000044B9A6204E0034A926A8243014B9A6241
:101A2000704700000010024029B1064AD269024303
:101A3000044BDA6104E0034AD2698243014BDA6164
:101A4000704700000010024029B1064A12690243A3
:101A5000044B1A6104E0034A12698243014B1A6184
:101A6000704700000010024029B1064A9269024303
:101A7000044B9A6104E0034A92698243014B9A61E4
:101A8000704700000010024029B1064AD2680243A4
:101A9000044BDA6004E0034AD2688243014BDA6007
:101AA00070470000001002402DE9F043002200269C
:101AB000002794460025002100230024DFF83C8500
:101AC000D8F8048008F00C0222B1042A07D0082AB2
:101AD00030D109E0DFF82885C0F800802FE0DFF87A
:101AE0002085C0F800802AE0DFF81085D8F804804F
:101AF00008F47016DFF80485D8F8048008F48037FD
:101B00004FF0020808EB964627B9DFF8F88406FB89
:101B100008F10DE0DFF8E484D8F82C8008F00F0815
:101B200008F1010CDFF8D884B8FBFCF808FB06F1DB
:101B3000016004E0DFF8C884C0F8008000BF00BF87
:101B4000DFF8B884D8F8048008F0F0021209DFF852
:101B5000B88418F80240D0F8008028FA04F8C0F8D9
:101B60000480DFF89884D8F8048008F4E062120A50
:101B7000DFF8948418F80250D0F8048028FA05F8A9
:101B8000C0F80880DFF87484D8F8048008F4605244
:101B9000D20ADFF8748418F80230D0F8048028FAEA
:101BA00003F8C0F80C80DFF85484D8F82C8008F4CF
:101BB000F872120902F00F08DFF8509439F8185043
:101BC00002F01008B8F1000F05D025B1B1FBF5F80F
:101BD000C0F8108003E0D0F80080C0F81080DFF873
:101BE0001C84D8F82C8008F47852520A02F00F08AE
:101BF000DFF8189439F8185002F01008B8F1000F07
:101C000005D025B1B1FBF5F8C0F8148003E0D0F899
:101C10000080C0F81480DFF8E483D8F8308008F042
:101C20001008B8F1100F04D0DFF8D483C0F8188082
:101C300003E0D0F80080C0F81880DFF8C083D8F83F
:101C4000308008F02008B8F1200F04D0DFF8B0830E
:101C5000C0F81C8003E0D0F80080C0F81C80DFF8DA
:101C60009C83D8F8308008F04008B8F1400F04D0C9
:101C7000DFF88C83C0F8208003E0D0F80080C0F843
:101C80002080DFF87883D8F8308008F48078B8F5C1
:101C9000807F0AD1D0F80080884506D1A34204D1C4
:101CA0004FEA4108C0F8248003E0D0F80C80C0F867
:101CB0002480DFF84883D8F8308008F48058B8F5DD
:101CC000805F0AD1D0F80080884506D1A34204D1B4
:101CD0004FEA4108C0F8288003E0D0F80C80C0F833
:101CE0002880DFF81883D8F8308008F40078B8F539
:101CF000007F0AD1D0F80080884506D1A34204D1E4
:101D00004FEA4108C0F82C8003E0D0F80C80C0F8FE
:101D10002C80DFF8E882D8F8308008F48068B8F5C5
:101D2000806F0AD1D0F80080884506D1A34204D143
:101D30004FEA4108C0F84C8003E0D0F80C80C0F8AE
:101D40004C80DFF8B882D8F8308008F40068B8F525
:101D5000006F0AD1D0F80080884506D1A34204D193
:101D60004FEA4108C0F8508003E0D0F80C80C0F87A
:101D70005080DFF88882D8F8308008F40058B8F531
:101D8000005F0AD1D0F80080884506D1A34204D173
:101D90004FEA4108C0F8548003E0D0F80C80C0F846
:101DA0005080DFF85882D8F8308008F40048B8F541
:101DB000004F0AD1D0F80080884506D1A34204D153
:101DC0004FEA4108C0F8588003E0D0F80C80C0F812
:101DD0005880DFF82882D8F8308008F00308B8F17E
:101DE000000F04D1D0F80C80C0F8388028E0DFF86C
:101DF0000C82D8F8308008F00308B8F1010F04D144
:101E0000D0F80080C0F838801AE0DFF8F081D8F808
:101E1000308008F00308B8F1020F04D14FF40048F5
:101E2000C0F838800CE0DFF8D481D8F8308008F0B2
:101E30000308B8F1030F03D1DFF8C481C0F838807C
:101E4000DFF8B881D8F8308008F44038B8F1000FD6
:101E500004D1D0F80880C0F83C8028E0DFF89C81ED
:101E6000D8F8308008F44038B8F5803F04D1D0F875
:101E70000080C0F83C801AE0DFF88081D8F830801C
:101E800008F44038B8F5003F04D14FF40048C0F8DA
:101E90003C800CE0DFF86481D8F8308008F44038EA
:101EA000B8F5403F03D1DFF85881C0F83C80DFF837
:101EB0004C81D8F8308008F44028B8F1000F04D1E4
:101EC000D0F80880C0F8408028E0DFF83081D8F8EA
:101ED000308008F44028B8F5802F04D1D0F8008075
:101EE000C0F840801AE0DFF81481D8F8308008F498
:101EF0004028B8F5002F04D14FF40048C0F84080C6
:101F00000CE0DFF8F880D8F8308008F44028B8F505
:101F1000402F03D1DFF8E880C0F84080DFF8DC8094
:101F2000D8F8308008F44018B8F1000F04D1D0F888
:101F30000880C0F8448028E0DFF8C080D8F83080FE
:101F400008F44018B8F5801F04D1D0F80080C0F81C
:101F500044801AE0DFF8A480D8F8308008F44018F4
:101F6000B8F5001F04D14FF40048C0F844800CE0DD
:101F7000DFF88880D8F8308008F44018B8F5401FA2
:101F800003D1DFF87C80C0F84480DFF87080D8F897
:101F9000308008F44008B8F1000F04D1D0F8088070
:101FA000C0F8488028E0DFF85480D8F8308008F482
:101FB0004008B8F5800F04D1D0F80080C0F8488000
:101FC0001AE0DFF83880D8F8308008F44008B8F517
:101FD000000F04D14FF40048C0F848800CE0DFF84F
:101FE0001C80D8F8308008F44008B8F5400F03D1C1
:101FF000DFF80C80C0F84880BDE8F0830010024094
:1020000000127A0000093D000000002010000020AE
:10201000704700000CB50020019000903748006820
:1020200040F480303549086000BF3448006800F44F
:10203000003000900198401C0190009818B9019858
:10204000B0F5A04FF1D12D48006800F4003010B178
:102050000120009001E000200090009801284BD161
:102060002748006840F010002549086008460068CD
:1020700020F0030008600846006840F00200086095
:102080001E4840681D494860084640684860084648
:10209000406840F4806048600846406820F47C1046
:1020A00048600846406840F4E81048600846C06A46
:1020B00020F00F00C8620846C06AC862084600687F
:1020C00040F08070086000BF0C48006800F00070AD
:1020D0000028F9D00948406820F00300074948600B
:1020E0000846406840F00200486000BF034840686E
:1020F00000F00C000828F9D10CBD000000100240CF
:102100000020024010B503F02DFC10BD10B5194899
:10211000006840F47000174908601748006840F0F4
:10212000010015490860002048600846006813490E
:102130000840114908600846006820F480200860C3
:102140000846406820F4FE0048600846C06A20F057
:102150000F00C8620846006B094908400649086339
:1021600000208860FFF756FF4FF00060014980397A
:10217000086010BD88ED00E000100240FFFFF6FE91
:10218000CCFC00FF10B50121014800F0C6F810BDDD
:10219000002C014010B50121880700F0B5F818B1F6
:1021A0000121880700F001F810BDCA4392B2026114
:1021B000704721B1028842F00102028004E00288E7
:1021C0004FF6FE731A4002807047000010B50446B7
:1021D0004348844208D10121C014FFF755FC002177
:1021E000E014FFF751FC7AE0B4F1804F08D10121EF
:1021F0000846FFF729FC00210120FFF725FC6EE0CF
:102200003848844208D101210220FFF71DFC00213B
:102210000220FFF719FC62E03348844208D1012113
:102220000420FFF711FC00210420FFF70DFC56E00D
:102230002E48844208D101211020FFF705FC00211F
:102240001020FFF701FC4AE02948844208D101210F
:102250002020FFF7F9FB00212020FFF7F5FB3EE0EF
:102260002448844208D101214014FFF70DFC0021CD
:102270006014FFF709FC32E01F48844209D10121B4
:102280000804FFF701FC00214FF48030FFF7FCFB4E
:1022900025E01A48844209D101214804FFF7F4FBE4
:1022A00000214FF40030FFF7EFFB18E014488442A0
:1022B00009D101218804FFF7E7FB00214FF48020BA
:1022C000FFF7E2FB0BE00F48844208D1012108052B
:1022D000FFF7DAFB00214FF48010FFF7D5FB10BDAC
:1022E000002C0140000400400008004000100040A5
:1022F000001400400034014000400140004401400F
:1023000000480140005001400246002013690B4084
:102310000BB1012000E00020704730B502460020DC
:1023200000230024156905EA0103D56805EA0104C4
:1023300013B10CB1012000E0002030BD42684FF61F
:102340008F731A40426042680A434260704700003F
:10235000002202881E4B98420ED01E4B98420BD092
:10236000B0F1804F08D01C4B984205D01B4B9842CF
:1023700002D01B4B984204D14FF68F731A404B8802
:102380001A43184B984207D0174B984204D04FF687
:10239000FF431A400B891A4302804B68C3620B88C3
:1023A00003850B4B98420ED00A4B98420BD00F4B33
:1023B000984208D00E4B984205D00E4B984202D05E
:1023C000074B984201D14B89038601234361704733
:1023D000002C01400034014000040040000800408F
:1023E0000050014000100040001400400040014037
:1023F00000440140004801404FF0FF31416000219E
:1024000001800181418041817047000010B524495D
:10241000244800F051F82449224800F0B8F8012877
:102420001CD121491F4800F047F81E4800F068F908
:102430001E49B1F800141D4A50541046B0F800046B
:10244000401C1146A1F80004B1F80004C11700EBCC
:1024500091518912A0EB8121A2F80014144911486E
:1024600000F095F801280FD111490E4800F024F82A
:102470000C4800F045F90D48B0F8001402F0E0FEF9
:1024800000200A49A1F800040A49064800F07FF834
:10249000012803D10749034800F00EF810BD0000E1
:1024A000000303000044004005010500D808002097
:1024B000040104000601060010B5002200230A0CE6
:1024C000012404FA02F3036210BD21B1026842F054
:1024D0000102026003E0026822F00102026070471C
:1024E00010B504462048844209D101218803FFF732
:1024F000CBFA00214FF48040FFF7C6FA32E01B48C8
:10250000844209D101214804FFF79EFA00214FF4CB
:102510000030FFF799FA25E01548844209D10121DE
:102520008804FFF791FA00214FF48020FFF78CFA1E
:1025300018E01048844209D10121C804FFF784FA49
:1025400000214FF40020FFF77FFA0BE00A48844295
:1025500008D101210805FFF777FA00214FF4801018
:10256000FFF772FA10BD000000380140004400403F
:1025700000480040004C004000500040024600204F
:10258000D3690B400BB1012000E00020704770B50B
:1025900002460B460024002100250020C3F3072536
:1025A000D9B2012606FA01F1012D02D11668314097
:1025B00006E0022D02D15668314001E096683140B4
:1025C0001C0C012606FA04F4D669344011B10CB192
:1025D000012000E0002070BDF0B503460024002675
:1025E000002500201846C1F30724CEB2012707FAC0
:1025F00006F5022C01D1001D02E0032C00D10830A9
:102600001AB107682F43076002E00768AF4307600D
:10261000F0BD00002DE9F04198B004460D460027BA
:10262000B8460026206820F001002060666826F485
:102630004056A86806436660266841F20C608643EF
:10264000E968686808432969084306432660A66864
:1026500026F4407668690643A66001A8FFF724FACD
:102660002348844202D1DDF83C8013E021488442B3
:1026700002D1DDF840800DE01F48844202D1DDF830
:10268000448007E01D48844202D1DDF8488001E023
:10269000DDF84C80206800F4004060B14FEA48004B
:1026A0002968B0FBF1F74FEA48002968B0FBF1F266
:1026B00001FB120607E02868B8FBF0F72868B8FBB2
:1026C000F0F100FB11862868B6EB500F00D37F1C99
:1026D000206800F4004038B1C7F342064FF6F071AD
:1026E00007EA010040EA0607A78118B0BDE8F081BB
:1026F000003801400044004000480040004C0040C9
:102700000146888CC0F308007047C1F308020285B7
:10271000704700BFFEE703B401984100009850EAFB
:10272000C12018BF04204A0D18BF40F0010040F23C
:10273000FF72B2EB515F08BF40F00200012808BFF2
:10274000052002B0704700002DE9F04D2DED040B7F
:102750002DED0E8B96B0DDE92550279CDDF890A07D
:1027600025F0004624F00048BAF1000F14BF012103
:10277000002101EB4502FC4953184A1093422AD329
:10278000002814BF0123002303EB44030B44F74943
:102790008B4220D358EA00019FEDF59B76D0DFF8FD
:1027A000D8B35D4503D1BAF1000F05D188E0BAF185
:1027B000000F08BF002100D0012101EB450111F5F8
:1027C000001F08D8002814BF0121002101EB44019B
:1027D00011F5001F0BD99DED261B9DED240B16B0A6
:1027E000BDEC0E8B04B0BDE8F04D00F069BE0027D3
:1027F000002DBCBFE149884521DAE1498845A8BFE1
:1028000002271CDAC3451ADCDE4901EB28511429E2
:1028100008DDC1F1340220FA02F101FA02F282422B
:102820000DD108E058B9C1F1140228FA02F101FAF9
:1028300002F2424503D101F00101C1F1020756EA5B
:102840000A0124D1002C22DA002D18BF022F01D05A
:10285000012F0AD0022000F07FFE16B0BDEC0E8BD7
:1028600004B0BDE8F04D00F013BE022000F074FE8D
:1028700000F00EFE51EC100B81F0004141EC100B0A
:1028800016B0BDEC0E8B04B0BDE8F08D18E09FEDE6
:10289000BEAB9FEDBF8B002871D1B848804522D1D7
:1028A00005F1804010F5801008BFBAF1000F07D085
:1028B000B3450ADC002CA8BF9DED260BE0DA0DE045
:1028C000B0EE490AF0EE690ADAE7002C06DA9DED6F
:1028D000260B51EC100B81F000416FE0AE487844BC
:1028E00090ED000BCCE7D8454DD1002C48DA2EB145
:1028F00086423AD1BAF1000F42D126E0BAF1000F78
:1029000013D0022000F028FE00F0F6FD8DED020B42
:102910009DED240B8DED000B10EE900A039961F3F1
:102920001E0003909DED020BAAE78DED02AB9DED1D
:10293000240B1AEE901A10EE900A8DED000B61F345
:102940001E0003909DED020B9AE78DED028B9DED2D
:10295000240B18EE901A10EE900A8DED000B61F327
:102960001E0003909DED020B8AE709DA9DED240B12
:1029700051EC190B53EC102BFDF743FE1EE020E049
:102980009DED240B7CE786421BDAB4F1804F0DD01D
:10299000A4F10050B0F1FF5013D1002D11DB9DEDDB
:1029A000240B51EC100B02F01CFF07E09DED240BF3
:1029B00053EC102B51EC100B00F0C2BC41EC100B8F
:1029C0005EE79DED240B51EC100B01F087FBBAF193
:1029D000000FCDE90E0142D19FED710B46B3A6F178
:1029E000E040B0F17F600CD05E4538D1002D00DAB8
:1029F000A7B3022F0CBF01204FF0FF30FDF713FCEF
:102A0000DCE7002D01DD002C0DDA002D01DD002CAE
:102A10001FDB002D16DA002C14DB012F08BF9FED01
:102A2000620B3FF42DAFB0EE4A0AF0EE6A0A27E7D8
:102A3000022F18BF002D0CD0012F0AD1002DFFF658
:102A40001FAF06E0002DB8BF002C08DA012F3FF4BD
:102A500017AFB0EE480AF0EE680A11E71BE001205C
:102A600000EBE57050EA070115D0791EB0EE498AF7
:102A7000F0EE698A084308BF9FED4D8B4E48002554
:102A8000804570DD4D494E48884514DDB0420DDB70
:102A9000002C19DB2FE0012000F05EFD16B0BDEC2C
:102AA0000E8B04B0BDE8F04D00F016BDB34502DC5E
:102AB000002C09DC1FE0864202DA002C1BDA03E05E
:102AC0005E452BDD002C16DD022000F045FD00F0F8
:102AD00013FD8DED020B53EC1A2B51EC180BFDF787
:102AE0001EFDCDE900010399019861F31E000390DA
:102AF0009DED020BC4E6022000F02EFD00F00CFD5F
:102B000010EE901A18EE900A8DED020B8DED008BF1
:102B100061F31E0003909DED020BB1E69DED0E0BDF
:102B200053EC192B51EC100BFDF7F3FC9FED260B2A
:102B3000CDE9080153EC102B9DED080B51EC100B67
:102B4000FDF7EDFC9FED221B53EC112BFDF7E4FC90
:102B50009DED081B53EC112BFDF7E1FC9FED1E1BB7
:102B600053EC112B3CE08CE0FFFF1F00FFFF0F0038
:102B7000000000000000F03F0000F03F0000F07F88
:102B80000000404301FCFFFF000000000000F07F58
:102B90000000000000000000663800000000000097
:102BA0000000000000000080000000000000F0FFB6
:102BB000000000000000F0BF0000E0410000F04312
:102BC000FFFFEF3F00000000000000000000D03FCA
:102BD000555555555555D53F000000000000E03FC4
:102BE000FDF79AFC9DED080B41EC1A0B53EC102BF2
:102BF00051EC100BFDF793FC53EC1A2BFDF78FFCF7
:102C000041EC1A0B9FEDFE0B53EC102B9DED080BC6
:102C100051EC100BFDF783FC41EC1B0B9FEDFA0B05
:102C200051EC1A0B53EC102BFDF779FC41EC1A0B0D
:102C30009FEDF70B53EC102B9DED080B51EC100B97
:102C4000FDF76DFC53EC1A2BFDF763FC41EC1A0BFE
:102C500051EC1B0B53EC1A2BFDF7BAFB0690CDE998
:102C600006519DED060B53EC1B2B51EC100BFDF7A1
:102C700050FC53EC1A2BFDF74FFC41EC100B00F00D
:102C8000A1B90020B6F5801F0EDA9FEDE30B53ECDF
:102C9000102B9DED0E0B51EC100BFDF740FCCDE918
:102CA0000E016FF034000E4600EB2650A0F2FF3705
:102CB000C6F31300DA4940F07F6646F0405688427A
:102CC000D8BF002408DDD7498142C8BF012403DCF6
:102CD0000024A6F580167F1CD348784400EBC4007E
:102CE0000F9690ED00CB9DED0E0B53EC1C2B51EC91
:102CF000100BFDF70EFC9DED0E0B41EC1B0B53EC86
:102D00001C2B51EC100BFDF763FB41EC100B51EC4D
:102D1000190B53EC102BFDF774FC41EC1D0B51EC1F
:102D20001B0B53EC1D2BFDF7FAFB41EC1A0BBF48B4
:102D30008DED10AB7844109590ED000B4FF00050E6
:102D400040EA660000EB84408DED080B00F50020A2
:102D500009909DED080B53EC1C2B51EC100BFDF76B
:102D6000D8FB9DED0E1B53EC112BFDF7D5FB41EC71
:102D7000100B53EC102B9DED100B51EC100BFDF7CD
:102D8000CEFB9DED080B41EC1C0B53EC102B9DED85
:102D9000100B51EC100BFDF7C2FB53EC1B2BFDF796
:102DA000BBFB53EC1C2BFDF7B4FB53EC1D2BFDF7C9
:102DB000B6FB41EC1C0B53EC1A2B51EC1A0BFDF734
:102DC000AEFB41EC1B0B9A480621B0EE4B0AF0EE2D
:102DD0006B0A784400F0E0FAB0EE401AF0EE601AA8
:102DE000B0EE41DAF0EE61DA53EC1B2B51EC1B0B29
:102DF000FDF795FB53EC1D2BFDF791FB9DED100BA3
:102E000041EC1B0B53EC1A2B51EC100BFDF7E0FAC5
:102E100053EC1C2BFDF783FB53EC1B2BFDF7D8FA6F
:102E20009DED100B41EC1B0B53EC102B51EC100BD8
:102E3000FDF775FB41EC1D0B9FED7FEB53EC1E2B5B
:102E4000FDF7C6FA53EC1B2BFDF7C2FA0890CDE94B
:102E500008519DED080B53EC1E2B51EC100BFDF7A8
:102E600058FB53EC1D2BFDF754FB53EC1B2BFDF7CC
:102E700053FB9DED080B41EC1D0B53EC102B9DED0E
:102E8000100B51EC100BFDF74AFB41EC1B0B53EC04
:102E90001A2B51EC1D0BFDF742FB9DED080B41EC8D
:102EA0001A0B53EC102B51EC1C0BFDF738FB53ECB9
:102EB0001A2BFDF78DFA41EC1A0B51EC1B0B53EC5E
:102EC0001A2BFDF785FA0C90CDE90C519DED0C0BFA
:102ED00053EC1B2B51EC100BFDF71BFB53EC1A2B87
:102EE000FDF71AFB41EC1B0B9FED550B53EC102B20
:102EF0009DED0C0B51EC100BFDF711FB41EC1A0B87
:102F00009FED510B51EC1B0B53EC102BFDF707FB06
:102F100041EC1B0B9FED4E0B53EC102B9DED0C0B5E
:102F200051EC100BFDF7FBFA53EC1B2BFDF750FA9D
:102F300041EC100B4848784400EBC40090ED001BB6
:102F400051EC100B53EC112BFDF742FA41EC1B0B2B
:102F50003846FDF768F9CDE9080153EC1B2B51EC1D
:102F60001A0BFDF735FA41EC100B3C48784400EBA6
:102F7000C40090ED00CB51EC100B53EC1C2BFDF773
:102F800027FA9DED081B53EC112BFDF721FA069053
:102F9000CDE906519DED080B53EC102B9DED060B72
:102FA00051EC100BFDF7B5FA53EC1C2BFDF7B1FA01
:102FB00053EC1A2BFDF7ADFA53EC1B2BFDF7ACFAD3
:102FC00041EC100B9DED261B53EC102B8DED001BDF
:102FD00000959DED260B51EC100BFDF7A0FA9DED31
:102FE000000B41EC1A0B53EC102B9DED260B51EC12
:102FF000100BFDF78EFA9DED061B53EC112B2FE005
:10300000000000604715F73FFE822B654715F73F2C
:1030100044DF5DF80BAE543E00000000000040436A
:103020008E9803007AB60B00E233000010340000E3
:103030001A330000000000000000000000000840FB
:10304000000000E009C7EE3FFD033ADC09C7EE3F90
:10305000F5015B14E02F3EBEA63100006031000098
:10306000FDF75DFA53EC1A2BFDF7B2F99DED060B57
:1030700041EC1A0B53EC102B9DED000B51EC100B97
:10308000FDF74DFACDE90C019DED0C0B51EC1A0B3F
:1030900053EC102BFDF79CF9CDE902010C46AA492F
:1030A0008C422FDB611A084318D19DED0C0B53ECB9
:1030B000102B9DED020B51EC100BFDF72AFA41ECA1
:1030C0001B0B9FEDA30B51EC1A0B53EC102BFDF7D0
:1030D0007FF953EC1B2BFDF7EFF82DD2022000F007
:1030E0003BFA00F009FA10EE901A18EE900A8DEDF6
:1030F000020B8DED008B61F31E0003909DED020B22
:10310000FFF7BEBB944A24F00041914214D3934987
:10311000214408437FF4EFAC9DED0C0B53EC102BD6
:103120009DED020B51EC100BFDF7F3F953EC1A2B4C
:10313000FDF7C2F87FF6DFAC24F000408849894AE9
:10314000002601EB205182422BDA481C4FF48011FB
:1031500021FA00F02044844AC0F30A517A44A1F2D3
:10316000FF3192ED000B814A8DED080BCA4020EA39
:103170000202C0F3130040F48010C1F1140120FAE0
:1031800001F60992002CB8BF76429DED080B53EC76
:10319000102B9DED0C0B51EC100BFDF7BAF9CDE99E
:1031A0000C019DED0C0B51EC1A0B53EC102BFDF7A1
:1031B0000FF99FED6F0B0890CDE9085153EC102BE0
:1031C0009DED080B51EC100BFDF7A9F941EC1B0B21
:1031D0009FED690B53EC102B9DED080B51EC100B80
:1031E000FDF79DF99DED0C0B41EC1C0B53EC102BE6
:1031F0009DED080B51EC100BFDF78BF953EC1A2BDE
:10320000FDF78AF99FED5E1B53EC112BFDF787F953
:1032100053EC1C2BFDF7DCF841EC1A0B51EC1B0BAB
:1032200053EC1A2BFDF7D4F8CDE902019DED020B0A
:1032300053EC1B2B51EC100BFDF76BF953EC1A2BD5
:10324000FDF76AF99DED020B41EC1A0B53EC102BC4
:1032500051EC100BFDF763F9CDE908014A489DEDEB
:10326000080B0521784400F097F89DED081B51EC00
:10327000100B53EC112BFDF752F99DED021B53EC93
:10328000112BFDF749F9CDE906019DED020B53EC39
:103290001A2B51EC100BFDF742F953EC1A2BFDF7EA
:1032A00097F89FED3B0B41EC1A0B53EC102B9DED67
:1032B000060B51EC100BFDF72CF99DED060B41ECC4
:1032C0001B0B53EC102B9DED020B51EC100BFDF77B
:1032D00026F953EC1B2BFDF794F953EC1A2BFDF751
:1032E00018F99DED021B53EC112BFDF712F953EC6D
:1032F000192BFDF711F9CDE9020101EB065001157B
:103300000029C8BF039015DC9DED020B324651EC3D
:10331000100BFDF7C6FAFFF7FEF9042808BF00F00E
:10332000FBF832469DED020B51EC100BFDF7B9FA9C
:10333000CDE902019DED020B51EC180B53EC102B63
:10334000FDF7EDF8FFF73ABB0000904000000000E9
:10335000FE822B654715973C00CC904000346F3FB0
:1033600001FCFFFF0000E03FE82F0000FFFF0F001F
:1033700000000000432EE63F396CA80C615C20BEC3
:10338000EF39FAFE422EE63FB82E000000000000A2
:10339000000000000000004070B504462DED028BD7
:1033A0004D1E00EBC500B0EE408AF0EE608A90ED55
:1033B000000B35F0060017D053EC182B51EC100B16
:1033C000FDF7ADF841EC100B6D1E04EBC50090ED60
:1033D000001B51EC100B53EC112BFCF7F9FF41ECE7
:1033E000100B35F00600E7D1022D36D0042D1CD08D
:1033F000062D1CBFBDEC028B70BD53EC182B51EC9D
:10340000100BFDF78CF894ED0A1B53EC112BFCF715
:10341000DFFF53EC182BFDF782F894ED081B53ECFB
:10342000112BFCF7D5FF41EC100B53EC182B51EC92
:10343000100BFDF774F894ED061B53EC112BFCF701
:10344000C7FF53EC182BFDF76AF894ED040B53EC0F
:10345000102BFCF7BDFF41EC100B53EC182B51EC7B
:10346000100BFDF75CF894ED021B53EC112BFCF7ED
:10347000AFFF53EC182BFDF752F894ED001B53EC03
:10348000112BFCF7A5FFBDEC028B41EC100B70BDBE
:103490009FED070B10B553EC102B9FED070B51EC74
:1034A000100BFDF7AEF841EC100B10BD0000000052
:1034B0000000000000000000000000000000F03FDD
:1034C00010B553EC112B51EC100BFCF781FF41ECC4
:1034D000100B10BD000000009FED050B10B553EC64
:1034E000102B51EC100BFDF78CF841EC100B10BDBC
:1034F00000000000000000009FED050B10B553EC2C
:10350000102B51EC100BFDF70AF841EC100B10BD1D
:1035100000000000000000709FED050B10B553EC9B
:10352000102B51EC100BFCF7FAFF41EC100B10BD07
:10353000000000000000001002E008C8121F08C1CF
:10354000002AFAD170477047002001E001C1121F24
:10355000002AFBD170470000014908607047000055
:103560003401002000B58DB001212B48FDF76FFB21
:1035700000212948FDF759FB2748FDF75EFB00BFF6
:103580002548FDF7A1FA0028FAD1009001904FF4E8
:1035900000400290022003900A208DF81000694636
:1035A0001D48FDF723FA4FF40050059000200690C7
:1035B0000790089009900A900B9002208DF8300037
:1035C00005A91548FDF794FA0623012203211248A4
:1035D000FDF7AEFA0623022204210F48FDF7A8FAF0
:1035E00002210D48FDF73FFA01210B48FDF730FAA3
:1035F00001210948FCF778FE00BF01210648FDF7CC
:103600006DFA0028F9D001210448FDF7EBFB0248D0
:10361000FDF718FB0DB000BD00010050080402408A
:1036200000B58BB001210220FEF7DEF90E480090B4
:103630000E480190002002900220ADF80C000020FE
:103640000490802005904000069080000790202084
:1036500008900002099000200A9069460448FDF78E
:1036600092FC0BB000BD0000400100503000002073
:103670000804024000B58DB001212D48FDF7E7FA9E
:1036800000212B48FDF7D1FA2948FDF7D6FA00BFF3
:103690002748FDF719FA0028FAD1009001904FF45D
:1036A00000400290022003900A208DF81000694625
:1036B0001F48FDF79BF90020059006904FF4E0703D
:1036C00007904FF480600890002009900A900B90BA
:1036D00002208DF8300005A91548FDF709FA0623E8
:1036E000012205211248FDF723FA062302220C21AC
:1036F0000F48FDF71DFA02210D48FDF7B4F901212D
:103700000B48FDF7A5F901210948FCF7EDFD00BFC5
:1037100001210748FDF7E2F90028F9D00121054809
:10372000FDF760FB0248FDF78DFA0DB000BD00000B
:10373000000400505804024000B58DB00121022061
:10374000FEF752F9174802901748039000200490A2
:103750004FF4C870ADF81400002006908020079048
:10376000400008908000099020200A9000020B90F1
:1037700000200C903C208DF8040001208DF80600FC
:103780008DF805008DF8070001A8FEF787F80122E3
:1037900002210648FDF7EEFB02A90448FDF7F3FB02
:1037A0000DB000BD40040050380100205804024014
:1037B00000B58DB001212D48FDF749FA00212B48B5
:1037C000FDF733FA2948FDF738FA00BF2748FDF71F
:1037D0007BF90028FAD1009001904FF4004002904C
:1037E000022003900A208DF8100069461F48FDF75B
:1037F000FDF84FF400500590002006904FF4E07063
:1038000007900020089009900A900B9002208DF8F4
:10381000300005A91548FDF76BF9062301220521A3
:103820001248FDF785F90623022203210F48FDF710
:103830007FF902210D48FDF716F901210B48FDF72C
:1038400007F901210948FCF74FFD00BF0121074896
:10385000FDF744F90028F9D001210548FDF7C2FA27
:103860000248FDF7EFF90DB000BD00000005005063
:103870001C04024000B58BB001210220FEF7B4F811
:103880000E4800900E480190002002900220ADF8F2
:103890000C000020049080200590400006908000DD
:1038A0000790202008900002099000200A906946A5
:1038B0000448FDF768FB0BB000BD00004005005058
:1038C000360000201C0402401CB501214804FEF70C
:1038D0008BF801218804FEF787F8C02000900320B0
:1038E0008DF8040000208DF8070069464FF09040E5
:1038F000FDF7FFFB4FF60100009069460148FDF718
:10390000F8FB1CBD0004004810B51448FDF7B4F8DE
:103910001348FDF7B1F81348FDF7AEF84FF4807087
:10392000FEF74AF801210807FEF75EF80E48FEF799
:1039300043F801214807FEF757F8FFF7C5FF00F0ED
:1039400015F8FFF7F9FEFFF795FEFFF793FFFFF776
:103950002FFFFFF765FEFFF705FE10BD00010050C9
:103960000004005000050050002000101CB50C2081
:10397000FDF7ECFF6846FEF719F860200090042080
:10398000019069460C20FDF7E9FF01210C20FDF7AD
:10399000F7FF00210C20FDF7F3FF01210C20FDF7BC
:1039A000BFFF1CBD2DE9F0412DED0A8BB0EE409A12
:1039B00004460D46174698469FED590BB0EE40AAB7
:1039C000F0EE60AA9FED560BB0EE40BAF0EE60BA92
:1039D0009FED530BB0EE408AF0EE608A286890FBB2
:1039E000F7F107FB110004EB800080ED009A2868D6
:1039F000401C286094ED000A10EE101A0846FCF7EF
:103A000030FC41EC1B0B41EC1A0B002648E004EBA8
:103A1000860090ED000A10EE101A0846FCF721FC13
:103A200041EC1C0B53EC182BFCF7D2FC41EC180BAF
:103A300004EB860090ED000A10EE101A0846FCF721
:103A400010FC41EC1C0B53EC1A2BFCF735FC0AD292
:103A500004EB860090ED000A10EE101A0846FCF701
:103A600000FC41EC1A0B04EB860090ED000A10EE0E
:103A7000101A0846FCF7F5FB41EC1C0B53EC1B2B12
:103A8000FCF702FC0AD204EB860090ED000A10EE6F
:103A9000101A0846FCF7E5FB41EC1B0B701CC6B284
:103AA000BE42B4DB2868B84204D1012088F8000087
:103AB0000020286098F8000068B92868FCF7B3FB7C
:103AC00041EC1C0B53EC1C2B51EC180BFCF799FD33
:103AD00041EC180B1AE053EC1A2B51EC180BFCF7C5
:103AE00018FD41EC1C0B53EC1B2BFCF712FD41ECB9
:103AF000180BB81EFCF797FB41EC1C0B53EC1C2B6E
:103B000051EC180BFCF77DFD41EC180B51EC180B38
:103B1000FCF7E6FD00EE100ABDEC0A8BBDE8F08173
:103B200000000000000000002DE9F0410546069E5F
:103B30000027BC460024106890FBF3F803FB180034
:103B400021F810501068401C106008888446074611
:103B5000002012E031F81080444431F81080B8455C
:103B600001DD31F8107031F81080E04501DA31F8EC
:103B700010C000F1010808F0FF009842EADB10686D
:103B8000984203D10120307000201060307818B9BD
:103B90001068B4FBF0F405E0E01BA0EB0C04981EE9
:103BA000B4FBF0F4A0B2BDE8F08100000148008849
:103BB00070470000EA00002001200149088070479A
:103BC000EA00002010B50C48007830B901F0D2FEB0
:103BD0000A49086001200849087009480168074837
:103BE000006801F0CDFE30B10020034908700021CB
:103BF000044801F091FE10BD0C01002004010020DA
:103C000008010020093C000810B504460648008859
:103C100000B910BD00200449088000F007F800F04A
:103C2000DFF800BFF5E70000EA000020F0B52DED59
:103C3000048BADF5497D4FF4C87165A8FCF7DBFA3C
:103C40004FF4C87101A8FCF7D6FA0024002500261D
:103C50000027002017E04B4931F81010B1F5006F34
:103C600008DB484931F810302146641C65AA22F867
:103C7000113007E0434931F8103029466D1C01AA84
:103C800022F81130401CC828E5DB214665A800F069
:103C900059F9294601A800F055F9322C0FDD1420FE
:103CA00004E065A931F810100E44401CA4F1140181
:103CB0008142F6DCA4F12800B6FBF0F604E00DF535
:103CC000497DBDEC048BF0BD322D0FDD142004E0E6
:103CD00001A931F810100F44401CA5F114018142D4
:103CE000F6DCA5F12800B7FBF0F700E0E7E7F01BF2
:103CF00000EE100AB8EE400ADFED230A20EE200A9B
:103D0000DFED220A80EE208ADFED210A88EE200A0C
:103D1000DFED200A80EE201A1F4880ED001A1F4BAD
:103D20000A221F491F48DFF870C09CED000AFFF708
:103D300039FE194880ED000A4FF6FF7000901648D2
:103D40000068FCF78EFA41EC190B9FED170B53EC52
:103D5000102BFCF799FA0CD20F4890ED000ADFED1A
:103D6000140A20EE200ABCEEC00A10EE100A80B23F
:103D700000900122694641F2020001F049FB00BFB8
:103D80009DE70000700D0020333353400000804554
:103D900000004943CDCC4C3DF8000020E800002055
:103DA000E4000020000F0020333333333333D33F9C
:103DB00000007A4470B5024600231446C82901DA8F
:103DC0000B4600E0C823002005E034F82050034EE5
:103DD00026F81050401C9842F7DB70BD700D002093
:103DE0002DE9F0412DED0C8B82B000240027A04678
:103DF00000269FED420AB0EE408A9FED400A10EE89
:103E0000105A9FED3E0AF0EE408A00F0E7FF0446AC
:103E10003B480A233B4A3C4900902046FFF784FE7A
:103E2000044626463046FCF70FFA41EC1B0B9FED8B
:103E3000370B53EC102BFCF772FB41EC1A0B9FED88
:103E4000350B53EC102BFCF7DCFB41EC190BFCF7AA
:103E500047FC05464FF6FF7001902846FCF701FA33
:103E600041EC190B9FED2D0B53EC102BFCF724FAB2
:103E700033D22846FCF7F5F941EC1D0B9FED290BD9
:103E800053EC102BFCF745FB41EC1C0B9FED270B73
:103E900053EC102BFCF743FB41EC1B0B9FED210B6C
:103EA00053EC102BFCF794FA41EC1A0B9FED210B0D
:103EB00053EC102BFCF72DFB41EC190BFCF710FC1D
:103EC00008EE100A9FED1D0A28EE000ABCEEC00A9B
:103ED00010EE100A80B2019003E09FED080AB0EEE8
:103EE000408A012201A9100301F092FA144880EDE2
:103EF000008A02B0BDEC0C8BBDE8F0810000000030
:103F0000F4000020EC0000203C0F0020666666668E
:103F100066660A40000000000000B04033333333CF
:103F20003333FB3F666666666666FA3F0000000054
:103F3000000028409A9999999999A93F00007A44DC
:103F4000FC00002070B50B46002113E04A1C0EE077
:103F500030F8115030F81260B54207DD30F81140EA
:103F600030F8125020F8115020F81240521C9A429A
:103F7000EEDB491C5D1E8D42E8DC70BD30B50246AB
:103F80000B46FF20002111E0545C604000240AE051
:103F900000F0800525B1312585EA4005E8B201E051
:103FA0004506280E641C082CF2DB491C9942EBD311
:103FB00030BD00001FB501214807FDF735FD17484A
:103FC000FCF774FE242000900020019002900390E2
:103FD0006A4600211148FCF785FE012200210F48A6
:103FE000FCF746FE012200210C48FCF74FFE0020A2
:103FF000009001900290022003906A461021074829
:10400000FCF770FE012210210448FCF731FE40F25B
:10401000FF7200210148FCF77AFE1FBD00740040CA
:1040200000B58BB001210220FDF7DEFC1248FCF741
:10403000E5FE124800901248019010200290C8201E
:10404000ADF80C0000200490802005904000069000
:1040500080000790202008904FF4405009900020E5
:104060000A9069460448FCF78EFF01210248FCF7DC
:10407000B9FE0BB000BD00003004024008740040DF
:10408000580400201CB501214804FDF7ADFC0121B6
:104090000846FDF7E9FC3020009003208DF804006D
:1040A0008DF8050000208DF8070069464FF090401C
:1040B000FDF71FF81CBD000010B5C82340F2FF72C9
:1040C0004FF49B71044800F058FEFFF7DBFFFFF749
:1040D00071FFFFF7A5FF10BD5804002082B0CDE9A5
:1040E000000121F0004001909DED000B02B051EC69
:1040F000100B704710B5FCF7D7FF00240BE0E1026E
:1041000001F50060FCF764FF042803D0FCF7A0FF72
:10411000002010BD641C042CF1DBFCF799FF01208A
:10412000F7E72DE9F04105460E461746FCF7BCFFC0
:104130003420FCF747FF00240BE036F81410284623
:10414000FCF790FF042801D1AD1C01E000BFFEE7A1
:10415000641CBC42F1DBFCF77BFFBDE8F081000092
:1041600030B52DED0C8B83B000F01CFE04463E48AC
:104170000A233E4A3E4900902046FFF7D5FC0446FC
:104180002046FCF761F841EC1B0B9FED3A0B53EC1A
:10419000102BFCF7C4F941EC1A0B9FED380B53ECD4
:1041A000102BFCF72EFA41EC190BFCF799FA08EEEC
:1041B000900A9FED340A10EE105A00200290F5EE9E
:1041C000C08AF1EE10FA09D09FED2F0AF2EE040A30
:1041D00000EEE80AC0EE280A10EE905A2B48D0F8FC
:1041E00005100846FCF73DF841EC1C0B2846FCF78F
:1041F00038F841EC1D0BB0EE4C1AF0EE6C1AB0EE34
:104200004D0AF0EE6D0AFEF79FFAB0EE40AAF0EE0E
:1042100060AA1E48D0F801100846FCF722F841ECCD
:104220001B0B53EC1A2BFCF77AF941EC190BFCF73A
:1042300057FA08EE100A9FED160A28EE000ABCEEA7
:10424000C00A10EE100A80B2029018EE100A0F4950
:104250008861012202A941F2060001F0D9F803B0F9
:10426000BDEC0C8B30BD0000D0000020CC00002045
:104270005A0D00206666666666660A400000000009
:1042800000FEAF4000000000000004420E0D0020C0
:104290000000C84210B50B48C07C20B1012805D0F1
:1042A000022809D105E000F00FF809E000F032F82B
:1042B00006E0FFF755FF03E000200249C87400BF85
:1042C00000BF10BD0E0D002010B500F06BFD0E49B3
:1042D0000A680968491C0C4B19600C4921F8120046
:1042E000184600680A2805D101200949C874002031
:1042F00019460860044800680A2190FBF1F201FBAE
:1043000012000149086010BDCC0000205A0D0020A9
:104310000E0D00202DE9F0412DED0C8B00F042FD3B
:104320006F490A680968491C6D4B19606D4921F88D
:104330001200184600680A2190FBF1F201FB1200FE
:1043400019460860002400250027002665480088DB
:1043500005460446002014E0624931F81010A142DD
:1043600002DD604931F810405E4931F81010A94271
:1043700002DA5C4931F810505A4931F810100E44F5
:10438000401C0A28E8DB9FED580AB0EE408A9FEDFA
:10439000560AB0EE409A9FED540AF0EE408A0A2089
:1043A000B6FBF0F84046FBF74FFF41EC1D0B9FEDCD
:1043B0004F0B53EC102BFCF7B2F841EC1C0B9FEDAC
:1043C0004D0B53EC102BFCF71CF941EC1B0BFCF7CD
:1043D00087F908EE100A2046FBF736FF41EC1C0B6C
:1043E0009FED420B53EC102BFCF799F841EC1B0BA3
:1043F0009FED400B53EC102BFCF703F941EC1D0B28
:10440000FCF76EF909EE100A2846FBF71DFF41EC98
:104410001C0B9FED360B53EC102BFCF780F841EC96
:104420001B0B9FED340B53EC102BFCF7EAF841EC1F
:104430001D0BFCF755F908EE900ADFED2B9A9FED66
:104440002AAADFED29AAB5EEC08AF1EE10FA09D04A
:104450009FED2A0AF2EE040A00EEC80AC0EE080A2E
:10446000F0EE609AF5EEC08AF1EE10FA09D09FEDF9
:10447000230AF2EE040A00EEC90AC0EE090AB0EE01
:1044800060AAF5EEC08AF1EE10FA09D09FED1B0A82
:10449000F2EE040A00EEE80AC0EE280AF0EE60AA86
:1044A0003AEE6A0ABCEEC00A10EE107A052F13D25B
:1044B000B2EE040AF4EEC09AF1EE10FA0CDD9FEDB4
:1044C000100AB4EEC08AF1EE10FA05DD02200D49A3
:1044D000C874002002490860BDEC0C8BBDE8F08177
:1044E000CC0000205A0D00200000000066666666C1
:1044F00066660A40000000000000B0400000044270
:10450000CDCC4C3D0E0D002030B52DED0C8B83B085
:1045100000F052FC04463E480A233E4A3E490090C1
:104520002046FFF701FB04462046FBF78DFE41ECD9
:104530001B0B9FED3A0B53EC102BFBF7F0FF41ECFC
:104540001A0B9FED380B53EC102BFCF75AF841EC8B
:10455000190BFCF7C5F808EE900A9FED340A10EE2F
:10456000105A00200290F5EEC08AF1EE10FA09D040
:104570009FED2F0AF0EE000A00EEE80AC0EE280ACE
:1045800010EE905A2B48D0F80D100846FBF769FE44
:1045900041EC1C0B2846FBF764FE41EC1D0BB0EE12
:1045A0004C1AF0EE6C1AB0EE4D0AF0EE6D0AFEF702
:1045B000CBF8B0EE40AAF0EE60AA1E48D0F8091081
:1045C0000846FBF74EFE41EC1B0B53EC1A2BFBF796
:1045D000A6FF41EC190BFCF783F808EE100A9FEDDB
:1045E000160A28EE000ABCEEC00A10EE100A80B2CD
:1045F000029018EE100A0F494861012202A941F207
:10460000070000F005FF03B0BDEC0C8B30BD0000CF
:10461000C8000020C4000020460D002066666666C3
:1046200066660A400000000000FEAF400000000087
:104630003333D3400E0D00200000C84210B50B48A4
:10464000407C20B1012805D0022809D105E000F006
:104650000FF809E000F032F806E0FFF755FF03E03D
:1046600000200249487400BF00BF10BD0E0D00209D
:1046700010B500F0A1FB0E490A680968491C0C4BF3
:1046800019600C4921F81200184600680A2805D163
:104690000120094948740020194608600448006850
:1046A0000A2190FBF1F201FB12000149086010BDE4
:1046B000C4000020460D00200E0D00202DE9F04121
:1046C0002DED0C8B00F078FB6F490A680968491CD6
:1046D0006D4B19606D4921F81200184600680A21D7
:1046E00090FBF1F201FB120019460860002400253E
:1046F000002700266548008805460446002014E08F
:10470000624931F81010A14202DD604931F81040D1
:104710005E4931F81010A94202DA5C4931F81050B4
:104720005A4931F810100E44401C0A28E8DB9FED6E
:10473000580AB0EE408A9FED560AB0EE409A9FEDBF
:10474000540AF0EE408A0A20B6FBF0F84046FBF728
:104750007BFD41EC1D0B9FED4F0B53EC102BFBF73A
:10476000DEFE41EC1C0B9FED4D0B53EC102BFBF7C9
:1047700048FF41EC1B0BFBF7B3FF08EE100A204685
:10478000FBF762FD41EC1C0B9FED420B53EC102B31
:10479000FBF7C5FE41EC1B0B9FED400B53EC102BC0
:1047A000FBF72FFF41EC1D0BFBF79AFF09EE100AF8
:1047B0002846FBF749FD41EC1C0B9FED360B53ECF3
:1047C000102BFBF7ACFE41EC1B0B9FED340B53ECB5
:1047D000102BFBF716FF41EC1D0BFBF781FF08EEDA
:1047E000900ADFED2B9A9FED2AAADFED29AAB5EEFC
:1047F000C08AF1EE10FA09D09FED2A0AF0EE000A05
:1048000000EEC80AC0EE080AF0EE609AF5EEC08A23
:10481000F1EE10FA09D09FED230AF0EE000A00EE47
:10482000C90AC0EE090AB0EE60AAF5EEC08AF1EE40
:1048300010FA09D09FED1B0AF0EE000A00EEE80A1C
:10484000C0EE280AF0EE60AA3AEE6A0ABCEEC00A90
:1048500010EE107A052F13D2B1EE040AF4EEC09ACE
:10486000F1EE10FA0CDD9FED100AB4EEC08AF1EE05
:1048700010FA05DD02200D49487400200249086045
:10488000BDEC0C8BBDE8F081C4000020460D00207B
:10489000000000006666666666660A40000000006A
:1048A0000000B0403333D340CDCC4C3D0E0D002042
:1048B00010B500F009F800200249C87448748874E3
:1048C00010BD00000E0D002010B51C480078012816
:1048D0001BD0B7EE000A10EE100A1849C1F8090003
:1048E000B7EE000A10EE100AC1F80D00B7EE000A8C
:1048F00010EE100AC1F80100B7EE000A10EE100A1F
:10490000C1F805000120087002E000200B49087082
:1049100000F058F800F016F89FED090A10EE100AA2
:10492000064988619FED060A10EE100A48619FED66
:10493000040A10EE100AC86110BD00000E0D002020
:10494000000000001FB5002000900190029003902D
:104950001B48D0F8010000901948D0F805000190DC
:104960001748D0F8090002901548D0F80D000390C0
:10497000BDF80040BDF80200ADF80000ADF80240FF
:10498000BDF80440BDF80600ADF80400ADF80640DF
:10499000BDF80840BDF80A00ADF80800ADF80A40BF
:1049A000BDF80C40BDF80E00ADF80C00ADF80E409F
:1049B0000822694644F2010000F02AFD1FBD0000F4
:1049C0000E0D002070B586B00D480078012815D175
:1049D0000324142101A8FBF70EFC094D112600BF8A
:1049E0001122074901A8FBF711FC20B1201EA4F1F8
:1049F0000101CCB2F4D100F005F800BF06B070BDE3
:104A00000E0D002000200149087070470E0D002097
:104A100001200149087070470E0D00203FB5014686
:104A20000020009001900290039000BF1DE031F83B
:104A300010301B1211F8104043EA0423024600EB29
:104A4000D27464106D4605EB8404638001EB40036F
:104A50005B881B1201EB4004A47843EA042300EBBB
:104A6000D27464102DF82430801C0828DFDB074A3C
:104A70000098C2F801000198C2F805000298C2F837
:104A800009000398C2F80D003FBD00000E0D002084
:104A90002DE9FC410020019000260024002500F0B3
:104AA00097F9074631480A23314A3249009038467F
:104AB000FFF73AF807462F482D49096830F811608A
:104AC0002B49096830F81140002008E0294931F8E5
:104AD0001010A14202DA274931F81040401C0A2880
:104AE000F4DB2548C06900EE100AB5EEC00AF1EE0D
:104AF00010FA12D12048006A78B9301B85B2B5F59A
:104B0000FA7F21DB1D480580B7EE000A10EE100A7F
:104B10001949C8611E20086216E018480088201A4A
:104B2000B0F5967F07DB1448006A20B11248006A8E
:104B3000401E114908621048006A28B99FED100A0A
:104B400010EE100A0C49C8610B48C06900EE100A4B
:104B5000BCEEC00A10EE100A80B20190012201A939
:104B600041F2080000F054FCBDE8FC81C0000020C8
:104B7000BC000020320D00200E0D0020D6000020C9
:104B80000000000010B50B48807C20B1012805D042
:104B9000022809D105E000F00FF809E000F032F832
:104BA00006E0FFF775FF03E000200249887400BFAC
:104BB00000BF10BD0E0D00201CB50121C804FCF77C
:104BC00013FF01210846FCF74FFF4FF400500090FF
:104BD00001208DF8040003208DF8050000208DF8D9
:104BE000070069460548FCF784FA4FF40051034872
:104BF000FCF7F8FA0120024988741CBD000800483F
:104C00000E0D0020F8B500F0E3F80446002500265C
:104C100000273D48007820B101281FD002286BD121
:104C200038E03A480A233A4A3A4900902046FEF7CB
:104C30007BFF04463548007801280ED1B4F57A7F11
:104C40000BDD0020314908703149086001202E49F0
:104C5000087041033048FCF7C3FA51E02B480A239F
:104C60002B4A2C4900902046FEF75EFF0446274859
:104C7000007801280DD1C82C0BDA002023490870D8
:104C80002349086002202049087001032248FCF7EC
:104C9000A9FA35E01D480A231D4A1E490090204606
:104CA000FEF742FF04461948007800B9F8BD1948DC
:104CB00006880588002010E0164931F81010B1422E
:104CC00002DD144931F81060124931F81010A94280
:104CD00002DA104931F81050401C0A28ECDB701B36
:104CE00087B2C82F07DA02200C49887400200749D0
:104CF00008700749086003E000200349087000BFFE
:104D000000BF00BFD2E70000D4000020C000002098
:104D1000BC000020320D0020000800480E0D0020CD
:104D200010B50C48007830B900F024FE0A4908603C
:104D3000012008490870094801680748006800F028
:104D40001FFE30B10020034908700021044800F024
:104D5000E3FD10BDE0000020D8000020DC000020B2
:104D6000654D000810B50446FFF70CFFFFF766FC21
:104D7000FFF790FAFFF726FE10BD70B5044600203D
:104D80000CE003EBD376B0EB660F03DA551824F88A
:104D9000105002E0551A24F81050401C9842F0DBE5
:104DA00070BD00000020024908700248008870476A
:104DB0003C0000203A000020014840887047000075
:104DC00030000020014800887047000036000020B5
:104DD00001480088704700003000002001484088EA
:104DE0007047000036000020002006490870064881
:104DF0000068086105480068C86105480068886265
:104E000070470000541F00202401002028010020CA
:104E10002C01002070B50A4C542221460948FBF7AA
:104E2000D1F926252946074800F0A6F90549B1F829
:104E30005210884203D0FFF7D7FF00F005F870BD8D
:104E400000B80108541F002010B5FFF753F9542291
:104E500002490348FFF765F910BD0000541F002008
:104E600000B8010810B5FFF7D5FF42F210701349E2
:104E700008801348007840B94FF00060104948633B
:104E8000012048700F48886316E00D48007801281B
:104E900007D10C480A494863022048700A488863D1
:104EA0000AE007480078022806D107480449486309
:104EB000012048700348886310BD00000E010020E7
:104EC000541F0020007800080018010810B504469F
:104ED00060890B49096888420CD2002008490860A3
:104EE000607B18B9204600F07BF808E0204600F00F
:104EF0006DF804E00248006864300149086010BDA4
:104F00005C00002010B51248007830B900F032FD86
:104F10001049086001200E4908700F4801680D48CB
:104F2000006800F02DFD88B10020094908700B4889
:104F3000007828B901200949087000F075F805E0EB
:104F4000002006490870022000F06EF810BD000035
:104F5000740000206C00002070000020750000200C
:104F60001CB5044601218804FCF73EFD60680090F2
:104F700001208DF8040003208DF8050069460C48D7
:104F8000FCF7B7F8A28891B22068FCF729F9002055
:104F900009E0084951F8201019B9064941F82040A4
:104FA00003E000BF401C0A28F3DB00BF1CBD00006B
:104FB00000040048E805002010B50348FFF7D0FFC3
:104FC000014800F003F810BD4C00002010B5044665
:104FD000A28891B22068FCF703F90020607310BD2D
:104FE00010B50446A28891B22068FCF7FBF80120B6
:104FF000607310BD10B50446207A20B1012806D098
:1050000002280CD107E02046FFF7E0FF0AE0204627
:10501000FFF7E6FF06E02046FFF758FF02E000201A
:10502000207200BF00BF10BD20B1012807D00228A8
:1050300017D10DE000210C4A1172117312E0012109
:10504000094A11734FF4FA7151810221117209E07A
:105050000221054A11734FF4FA6151810221117244
:1050600000E000BF00BF70474C00002010B50C48A6
:10507000007830B900F07EFC0A4908600120084938
:105080000870094801680748006800F079FC30B1F1
:105090000020034908700021044800F03DFC10BDC9
:1050A000680000206000002064000020B15000086B
:1050B00070B5054600240CE0074850F8240028B1DC
:1050C000054951F82400FFF795FF00E000E000BF1C
:1050D000641C0A2CF0DB70BDE80500202349481E43
:1050E000B0F1807F00D31BE0481E4FF0E0225061FA
:1050F00050170F22002807DA13071D0E1C4B00F073
:105100000F04241F1D5503E013071C0E194B1C54DC
:1051100000BF00204FF0E02290610720106100BF27
:105120004FF4A060FCF7F2FB00F06AF800F0EAFB35
:10513000FFF742FFFEF7C0FFFEF7E6FB00F05EFC64
:10514000FFF7B6FBFFF78EFE00F0CAFC0DE0FFF79D
:105150008DFFFFF7D7FEFCF7DDF9FEF733FDFCF717
:1051600005FBFFF7DDFD00F073FBF0E740190100E0
:1051700018ED00E000E400E030B502460B464FF6C3
:10518000FF70002109E0555C4540ECB2044D35F854
:10519000145085EA20204C1CA1B29942F3DB30BDAB
:1051A00010060020F0B5C1B005460E464FF48071E0
:1051B00001A8FBF720F800240027104802782146B8
:1051C000641C01A8425405F18000C2B22146641C4F
:1051D00001A842542146641C4654611CFFF7CCFFD1
:1051E00007463A0A2146641C01A842542146641C21
:1051F0004754214600F07AFC41B0F0BD7600002013
:1052000030B54AF20104002014E0002182B20023EC
:105210000AE081EA020505F0010515B184EA6101A1
:1052200000E0491052105B1C082BF2DB034B23F803
:105230001010401CFF28E8DD30BD000010060020E3
:105240002DE9F04704460D464FF00009CA46642D8B
:1052500001DC022D01DABDE8F08720781C490978CD
:10526000884200D0F7E7A81E215C681E205C41EA56
:105270000029A81E81B22046FFF77EFF8246D14555
:1052800000D0E8E76678E078A17840EA0127607905
:10529000217940EA0128032E04D0042E03D0102ED9
:1052A0000ED106E000BF42463946304600F012F803
:1052B0000BE0234642463946304600F0F1F804E060
:1052C00001213046FFF76EFF00BF00BF00BFC2E7FD
:1052D000760000202DE9F043C1B007460C46164683
:1052E0004FF4807101A8FAF786FF0025A846A94669
:1052F000142E06DD03213846FFF754FF41B0BDE808
:10530000F083B4F5805F03DA334800EB440928E00A
:10531000B4F5005F05DAA4F58050304901EB40098F
:105320001FE0B4F5405F05DAA4F500502C4901EB0D
:10533000400916E0B4F5804F05DAA4F5405029493C
:1053400001EB40090DE0B4F5A04F05DAA4F580406B
:10535000254901EB400904E002213846FFF722FF0E
:10536000CCE7224802782846691C8DB201A90A546C
:105370002846691C8DB201A90F547000C0F30722A2
:105380002846691C8DB201A90A547006020E2846EF
:10539000691C8DB201A90A54720048194946FAF7EE
:1053A00011FF05EB460085B2294601A8FFF7E4FE90
:1053B00080462846691C8DB201A901F800804FEA99
:1053C00018222846691C8DB201A90A54294601A851
:1053D00000F08CFB00BF91E7100800203808002087
:1053E0006008002088080020B00800207600002017
:1053F00030B50023002207E00488240A057844EA37
:1054000005230380801C521C8A42F5DB30BD00005E
:105410002DE9F04104460E4615460027B4F5805F9D
:1054200003DA1A4800EB440725E0B4F5005F05DA1B
:10543000A4F58050164901EB40071CE0B4F5405F2D
:1054400005DAA4F50050134901EB400713E0B4F569
:10545000804F05DAA4F540500F4901EB40070AE000
:10546000B4F5A04F05DAA4F580400C4901EB4007E4
:1054700001E0BDE8F0816A0031463846FAF7A2FE45
:1054800029463846FFF7B4FF00BFF2E710080020B6
:10549000380800206008002088080020B00800209C
:1054A0002DE9F04FC1B082460C4616461F464FF418
:1054B000807101A8FAF79FFE0025AB46A846142E7E
:1054C00006DD03215046FFF76DFE41B0BDE8F08FC9
:1054D000B4F5805F03DA3D4800EB440810E0B4F512
:1054E000A04F08DAB4F5804F05DBA4F580403849B9
:1054F00001EB400804E002215046FFF753FEE4E7C9
:105500004FF00009B4F5804F04D1F879B97940EA39
:10551000012906E098F800000002B8F8001040EAFF
:105520001129B4F5804F07DBB9F1010F04D0042134
:105530005046FFF737FEC8E77200B91D4046FAF73C
:1055400041FE244802782846691C8DB201A90A54FC
:105550002846691C8DB201A901F800A02212284634
:10556000691C8DB201A90A542846691C8DB201A993
:105570000C5432122846691C8DB201A90A542846DF
:10558000691C8DB201A90E54294601A8FFF7F4FD4C
:1055900083462846691C8DB201A901F800B04FEA84
:1055A0001B222846691C8DB201A90A54294601A86C
:1055B00000F09CFAB9F1010F05D10548801CFFF7F6
:1055C0002DFAFFF725FA00BF7FE700001008002042
:1055D000B00800207600002010B50446A189A0681C
:1055E000FBF7FEFD00F00DF8A1882068FBF7FAFD3F
:1055F00000F007F8A189A068FBF7F4FD00F001F8BE
:1056000010BD08B50020009002E00098401C0090FA
:1056100000986428F9DB08BD1CB504460CB90020CD
:105620001CBDC020009001208DF8040000208DF8E2
:10563000070001208DF8060069460648FBF759FD72
:1056400040210448FBF7CCFD80210248FBF7C8FD50
:105650000120E5E70004004870B50446FFF7D1FFDC
:10566000A1882068FBF7BEFDFFF7CBFFA189A068EA
:10567000FBF7ADFD0546A1882068FBF7B1FD284684
:1056800070BD70B504460025002104F1080000F04B
:105690001DF8FFF7B6FFA1882068FBF7A3FDFFF711
:1056A000B0FFA189A068FBF792FD00B90125A18890
:1056B0002068FBF795FDFFF7A4FF012104F1080026
:1056C00000F004F8FFF79DFF284670BD7CB5044646
:1056D0000D46A08800908DF8045000208DF807003A
:1056E00001208DF8060069462068FBF702FD7CBDAD
:1056F00070B504460D4625B1A189A068FBF770FD81
:1057000003E0A189A068FBF76DFDFFF77AFFA18890
:105710002068FBF767FDFFF774FFA1882068FBF79F
:105720005FFDFFF76EFFA189A068FBF75BFD70BD11
:1057300010B50446A189A068FBF752FDFFF761FF91
:10574000A1882068FBF74CFDFFF75BFF10BD70B52B
:1057500004460D4625B1A189A068FBF743FD03E08F
:10576000A189A068FBF73CFDFFF74BFFA1882068EB
:10577000FBF738FDFFF745FFA1882068FBF730FDF8
:1057800070BD70B504460D46002608E005F08001A6
:105790002046FFF7DCFF6806050E701CC6B2082E17
:1057A000F4DBA189A068FBF71DFD70BD70B5044650
:1057B0000025002104F10800FFF788FF002607E01C
:1057C0002046FFF749FF40EA4500C5B2701CC6B24B
:1057D000082EF5DB012104F10800FFF777FF2846CA
:1057E00070BD00B52DED048B83B041EC190BFBF7B8
:1057F00081F841EC180B18EE100A18EE901A8DED96
:10580000008B002818BF0120084320F00040C0F1A1
:105810007F6000F1E040C00F14D019EE101A19EEAD
:10582000900A8DED009B002918BF0121084320F04C
:105830000040C0F17F6000F1E040C00F04BF0120D4
:10584000FDF78AFE51EC180B03B0BDEC048B00BDD4
:1058500010B54BE02A48B0F8F00000EB40002849B2
:1058600001EB8000007A012809D10020B1F8F01086
:1058700001EB4101224A02EB8101087212E020484B
:10588000B0F8F000401C1E49A1F8F0000846B0F83E
:10589000F000142190FBF1F201FB12001849A1F86D
:1058A000F00023E0164AB2F8F02002EB4202144B5B
:1058B00003EB820250681A46B2F8F02002EB420273
:1058C00053F8221088470E48B0F8F000401C0C49ED
:1058D000A1F8F0000846B0F8F000142190FBF1F2B6
:1058E00001FB12000649A1F8F00000BF0448B0F81F
:1058F000F0000349B1F8F2108842ABD110BD0000AE
:10590000A81F002000200349A1F8F000A1F8F20030
:1059100070470000A81F00203EB5009001910122B1
:105920008DF808200E4AB2F8F22002EB42020C4B2E
:1059300003EB82029DE8380038C2094AB2F8F2202F
:10594000521C074BA3F8F2201A46B2F8F220142397
:1059500092FBF3F403FB1422014BA3F8F2203EBDAB
:10596000A81F002002480068401C014908607047D9
:10597000300100200148006870470000300100201D
:1059800010B502460B4600210024FFF7F3FF014645
:10599000914203D2C2F1FF30441800E08C1A9C42BD
:1059A00001D9012010BD0020FCE70EB54FF080406A
:1059B000FCF70CFC01210846FCF736F86846FCF7BA
:1059C0001BFD40F2671001900020ADF80000ADF81B
:1059D0000800ADF8020069464FF08040FCF7B8FCC3
:1059E00020214806FCF7AAFC01218807FCF7E1FB0F
:1059F0001F214FF08040FCF7D8FB0EBD10B5FFF71C
:105A0000D4FF10BD00B587B001214804FCF70CF8A5
:105A100026208DF8000000208DF801008DF802008E
:105A200001208DF803006846FBF738FF1848FCF7A3
:105A300057FD4FF4E1300190002002900390049054
:105A400006900C20059001A91148FCF7E3FD012206
:105A500010490F48FCF7C0FD01220F490C48FCF724
:105A6000BBFD01210A48FCF730FD00BF4FF4800167
:105A70000748FCF783FD0028F8D000BF4FF4001161
:105A80000348FCF77BFD0028F8D007B000BD0000FC
:105A90000044004005010500040104001CB501217B
:105AA0008804FBF7A1FF1820009002208DF8040065
:105AB00003208DF8050000208DF806006946074890
:105AC000FBF717FB072203210448FBF75DFB0722C6
:105AD00004210248FBF758FB1CBD000000040048ED
