:020000040800F2
:1000000078740020D50200089D2500089525000879
:1000100099250008CF200008F733000800000000F1
:10002000000000000000000000000000C92C0008D3
:100030005B240008000000008D260008612E0008E7
:10004000EF020008EF020008EF020008EF020008CC
:10005000EF020008EF020008EF020008EF020008BC
:10006000EF020008EF020008EF0200088D210008EF
:10007000EF02000829220008EF020008EF02000842
:10008000EF020008EF020008EF020008EF0200088C
:10009000EF020008EF020008EF020008EF0200087C
:1000A000EF020008E92E0008EF020008EF02000846
:1000B000EF020008052F0008EF020008EF02000819
:1000C000EF020008EF020008EF020008EF0200084C
:1000D000EF020008EF300008F1300008EF020008DE
:1000E000EF020008EF020008EF020008EF0200082C
:1000F000EF020008EF020008EF020008EF0200081C
:10010000000000000000000000000000EF020008F6
:10011000EF020008EF020008EF020008EF020008FB
:10012000EF020008EF020008EF020008EF020008EB
:10013000EF020008EF0200080000000000000000CD
:10014000EF020008EF020008EF02000800000000C4
:10015000000000000000000000000000000000009F
:100160000000000000000000EF020008EF0200089D
:10017000EF02000800000000000000000000000086
:1001800000000000EF02000800F002F800F092F812
:100190000AA090E8000C82448344AAF10107DA45E2
:1001A00001D100F087F8AFF2090EBAE80F0013F0A2
:1001B000010F18BFFB1A43F001031847F076000047
:1001C00010770000103A24BF78C878C1FAD85207D7
:1001D00024BF30C830C144BF04680C6070470000C1
:1001E0000023002400250026103A28BF78C1FBD840
:1001F000520728BF30C148BF0B6070476E2900F01E
:100200004D82702900F09783662907F0CD8065291B
:1002100007F0CA80672907F0C780612907F0C68008
:1002200003681B0A28BF41F08001692900F0FA81A8
:10023000642900F0F781752900F0F4816F2900F03E
:100240002483782900F06383E92900F0BF82E42940
:1002500000F0BC82F52900F0B982EF2900F021837B
:10026000F82900F062830368DB0928BF41F08001B0
:10027000632901F08180732901F08680E32901F070
:100280009180F32901F09680002070471FB506F099
:10029000D3FF01F0E5F804000020002105F050FB39
:1002A000401C60600020002105F034FBE0601FBDB1
:1002B00010B510BD01F0A6F81146FFF7E7FF04F0F6
:1002C00051FF01F083F903B4FFF7F2FF03BC01F023
:1002D000E9F900000948804709480047FEE7FEE7C2
:1002E000FEE7FEE7FEE7FEE7FEE7FEE7FEE7FEE7E6
:1002F00004480549054A064B70470000792E00085E
:1003000089010008781400207874002078540020B7
:10031000785400207CB51D4616460C00009001D094
:100320002044401E074B7B442A46694601903046D4
:1003300000F0CDF905461CB10020694600F0DAF95D
:1003400028467CBDD503000010B5431C02E010F820
:10035000011B71B18107FAD14FF0013202C88C1A2A
:100360008C4314EAC211F9D0C01A0A0603D0C01E89
:1003700010BDC01A10BD0A0401D0801E10BD0902B4
:10038000FCD0401E10BD032A40F2308010F0030C58
:1003900000F0158011F8013BBCF1020F624498BFD8
:1003A00011F801CB00F8013B38BF11F8013BA2F175
:1003B000040298BF00F801CB38BF00F8013B11F0F0
:1003C000030300F02580083AC0F0088051F8043B90
:1003D000083A51F804CBA0E80810F5E7121D5CBFFD
:1003E00051F8043B40F8043BAFF30080D20724BF30
:1003F00011F8013B11F801CB48BF11F8012B24BFC4
:1004000000F8013B00F801CB48BF00F8012B704712
:1004100010B5203AC0F00B80B1E81850203AA0E89F
:100420001850B1E81850A0E81850BFF4F5AF5FEAD3
:10043000027C24BFB1E81850A0E8185044BF18C986
:1004400018C0BDE810405FEA827C24BF51F8043B2D
:1004500040F8043B08BF7047D20728BF31F8023B81
:1004600048BF11F8012B28BF20F8023B48BF00F815
:10047000012B70474FF0000200B513469446964694
:10048000203922BFA0E80C50A0E80C50B1F12001A7
:10049000BFF4F7AF090728BFA0E80C5048BF0CC055
:1004A0005DF804EB890028BF40F8042B08BF7047B3
:1004B00048BF20F8022B11F0804F18BF00F8012B25
:1004C000704700004FF0013C50F8042B51F8043BFA
:1004D0009A4221D1A2EB0C03934313EACC1317D118
:1004E00050F8042B51F8043B9A4215D1A2EB0C03AF
:1004F000934313EACC130BD150F8042B51F8043B6F
:100500009A4209D1A2EB0C03934313EACC13DBD03C
:100510004FF00000704700BFD01A01BAB1FA81F164
:1005200001F0180122FA01F0CB40C1F12001DBB249
:10053000C0B2C01A2CFA01F3D11A914311EAC311C7
:10054000E6D1704770477047704710B500F0C2FAA7
:10055000006810BD10B5044600F0BCFA046010BD80
:1005600070B5044685690068C10601D5302600E0F3
:100570002026C00707D070BDD4E90121304690473E
:10058000206A401C20626D1EF6D570BD70B5044611
:1005900085690078C00707D170BDD4E9012120200A
:1005A0009047206A401C20626D1EF6D570BD096818
:1005B0004A0501D540B27047C905FCD500B2704765
:1005C00009684A0501D5C0B27047C905FCD580B29B
:1005D000704770B50C460546012A05D0287880067C
:1005E00000D5EA69002302E0012305E05B1C934289
:1005F00002D2E05C0028F9D1A869E618C01AA86107
:10060000286A184428622846FFF7AAFF04E0D5E9C3
:10061000012114F8010B9047B442F8D32846FFF7A4
:10062000B5FF70BD2DE9F04106460024106875291C
:10063000314616A510D0FFF7BAFF002802DA404273
:1006400013A507E031688A0701D512A502E0490722
:1006500004D511A5012401E0FFF7B2FF00210A2211
:1006600006F1240709E0B0FBF2FCB0FBF2F302FB59
:100670001C00303078541846491C0028F3D123461A
:100680002A463046BDE8F04100F086BA000000007E
:100690002D0000002B0000002000000011680268FF
:1006A000006A530501D508700AE0D30501D508801A
:1006B00006E0130603D5C217C1E9000200E0086096
:1006C0000120704701694A1C02610878704700B533
:1006D0008FB0CDE901310021059105497944CDE97B
:1006E00003101146684600F031F90FB000BD00005C
:1006F000E5FFFFFF0A6802F8010B0A607047D1E9C5
:1007000000239A4202D2531C0B6010707047000005
:100710002DE9FF5F15468A460446DFF8AC80F844B1
:100720000027D8E900103E46CDE9001010E03AF865
:1007300016106A4602A800F041FE411C07D021783D
:10074000890603D5E269391891420DD80744761C11
:100750002078800602D5E069B84205DDAE42E6DBCE
:100760003AF816000028E2D1A069C01BA06120461B
:10077000FFF7F6FED8E90010CDE90010002017E0E1
:100780003AF818106A4602A800F018FEB0F1FF3FD0
:1007900081460BD000250DF1080B05E0D4E90121BD
:1007A0001BF8050090476D1C4D45F7D308F101007B
:1007B000B0428046E4DB206A384420622046FFF7DE
:1007C000E5FEBDE8FF9F00005E6F00002DE9F041EF
:1007D0008046D21D22F007020025D2E90002F52949
:1007E00015A614D0011E72F1000106DA0023D0EB29
:1007F000030063EB020211A608E0D8F800108B0793
:1008000001D50FA602E0490701D50EA60125114624
:10081000002408F1240704E000F060F930323A5572
:10082000641C50EA0102F7D12B463246214640466D
:10083000BDE8F04100F0B0B9000000002D0000005C
:100840002B0000002000000030B4002100F124043F
:1008500008E002F00705D208303542EA4372DB08AF
:100860006554491C52EA0305F3D10468002310A221
:10087000250707D5A40600D421B1C46901230DA220
:10088000641EC46130BC00F087B910B5044621462F
:100890001068FFF795FE02462046BDE81040002391
:1008A000D2E7D21D22F00701D1E90023CCE70000F6
:1008B0000000000030000000F0B40D46018809057A
:1008C00002D5214C7C4402E01F4C7C440E340021B4
:1008D00000F1240608E002F00F071209E75D42EA82
:1008E00003721B097754491C52EA0307F3D10278BB
:1008F0000023120704D5702D06D009B1022311344C
:100900002246F0BC00F048B901231034F8E770B576
:1009100004460D4621461068FFF752FE024629465E
:100920002046BDE870400023C6E7D21D22F0070331
:10093000D3E90023C0E70368126843F02003036093
:100940000823C3610023B7E7C06D00002DE9F05F05
:10095000894604464FF0000ADFF874B1FB44C0F842
:1009600020A02046E1688847002874D0252806D0BA
:10097000D4E901219047206A401C2062F1E700265B
:100980005F462046E16888472028054607DB312D71
:1009900005D2781910F8200C08B10643F1E7B0072A
:1009A00001D526F00406C4F81CA00027C4F818A03E
:1009B0002A2D09D0284604F00BF838B304EB870839
:1009C000303DC8F8185019E059F8041B204604EBD4
:1009D00087029161E1688847012F054618D1E069D7
:1009E000002820DA26F020061DE0D8F8180000EBD9
:1009F000800005EB40003038C8F818002046E16858
:100A00008847054603F0E4FF0028EED1012F0AD005
:100A10002E2D08D12046E16888477F1C0546022F0D
:100A200046F02006C4DBA069002803DA404246F005
:100A30000106A061F00701D026F010066C2D0BD046
:100A4000682D09D04C2D39D06A2D35D0742D35D074
:100A50007A2D33D016E038E0E1682F4620468847EB
:100A6000B842054609D16C2F26D04FF48060E1686A
:100A7000064320468847054604E06C2F1AD04FF401
:100A8000807006430DB3A5F14100192802D8203526
:100A900046F400664A462946204626604E46FFF741
:100AA000ADFB80B101280BD0F61D26F0070000F148
:100AB000080956E74020E4E78020D8E70020D6E781
:100AC00006F104094DE7284652E7206ABDE8F09F89
:100AD000506D0000004870471414002030B5B0F18C
:100AE0000A024FEA900E71F100034EEA817EB0EBEC
:100AF0000E0061EB91014FEA101E4EEA017E10EBF1
:100B00000E0041EB11114FEA102E4EEA016E10EB70
:100B10000E0041EB11214FEA104E4EEA014E10EB50
:100B20000E0041EB1141401841F100014FEAD000A5
:100B300040EA41704FEAD10110EB80054FEA810491
:100B400044EA907444EB01046D1944EB0404521B15
:100B5000A3414FF0000348BF0A3200D530BD401C0E
:100B600041F1000130BD00001FB584B000200A9C97
:100B700006AB04AA02A90094AFF3008018B1DDE926
:100B8000020108B010BD0348204000F028FD0020FD
:100B90000146F6E70000207C2DE9F0470D46994616
:100BA0009246044600F124080168880604D5E069ED
:100BB00021F01001216000E00120A84201DD471B67
:100BC00000E00027A1697A1902EB0900081AA06168
:100BD0002078C00602D42046FFF7C2FC002608E0B9
:100BE000D4E901211AF806009047206A401C761CBF
:100BF00020624E45F4DB2078C0060AD52046FFF778
:100C0000AFFC06E0D4E9012130209047206A401C67
:100C10002062381EA7F10107F4DC07E0D4E90121C6
:100C200018F805009047206A401C2062281EA5F194
:100C30000105F3DC2046FFF7A9FC2078000602D569
:100C40000220BDE8F0870120FBE770472DE9FF4F48
:100C50000C461E464FF0FF378BB0D2E90001DDF89D
:100C600060800A908A46C1F30A5505B93D460021C5
:100C7000084606F089FBBAF1000F00F4400005DADF
:100C800000EB80004FF4400101EA50004FEA905918
:100C9000B9F1010F00DDB9460A9850EA4A000ED0BA
:100CA00044F61050A5F2FF3545432F14B8F1000F5C
:100CB0001ED07542291E1EDDC9F100021CE0B8F1EC
:100CC000010F4FF0000001D0302103E0F24305E0B6
:100CD0002154401CB042FBDB30460022002121544D
:100CE0000B99C1F80880C1E900200FB0BDE8F08F72
:100CF000BD1B6D1CDEE74A4600DA694206A800F01B
:100D0000F3FB06AB93E8070003AB83E8070050460C
:100D10000A9900F0EDFC8DE80700A0F500501F389F
:100D200000900398002D0ADD42F21F014A46084454
:100D3000002303A90390684600F056FF09E0A0F5E0
:100D400000504A461F38002303A90390684600F06C
:100D500060FF8DE807000004000C03D04FF0FF3067
:100D6000410800E01046B8F1000F03D000220092C5
:100D700015461EE0751E05D4FFF7B0FE30326255F1
:100D80006D1EF9D5B3460122084302D000227F1C14
:100D900004E02078302801D100227F1E002A099724
:100DA00084D01DE0112D07DAFFF798FE303262552E
:100DB0006D1C50EA0102F5D1084302D00098C8B179
:100DC0000EE00021681E05E0235C625C635422543F
:100DD000401E491C8142F7DBAB46A81B401E099010
:100DE000002004F80B000B98099AC0F80880C0E9AD
:100DF000002B7AE711264FF0000857E72DE9F04F56
:100E000088460446D21D22F0070191B0D1E90001C5
:100E1000CDE90A0102F0F1FA02460B98C00F01D0A9
:100E20002D2007E02068810701D52B2002E020213A
:100E300001EAC000032A099001D0072A05DB034616
:100E40004146204600F010FB0BE12078800601D5DA
:100E5000E06900E00620B8F1650F814606D0B8F1E0
:100E6000660F18D0B8F1670F70D131E00020B9F1EA
:100E7000110F009001DB112301E009F101030AAA1F
:100E800001A90CA8FFF7E2FEDDE90C70002609F1CC
:100E90000105834647E001204B4600904FF0004794
:100EA0000AAA01A90CA8FFF7D1FEDDE90DB00C9943
:100EB0005D46002610B909F101000D18B9EB0500D7
:100EC00003D4C0F1FF3609F10105A5EB09002BE0C1
:100ED000B9F1010F01DA4FF001090020B9F1110F4A
:100EE0000090484601DD112300E003460AAA01A94B
:100EF0000CA8FFF7ABFEDDE90C704D4600268346DB
:100F0000207800070AD4AB4500DA5D4601A8012D20
:100F100004DD411911F8011C302907D04F4502DAD0
:100F200017F1040F04DA012082460FE06D1EEEE790
:100F3000002F02DCED1B3E4403E0781CA84200DDDC
:100F40007D1CB81B00F1010A4FF000472078000714
:100F500003D4AA4501DB4FF0FF3A0021B7F1004F5F
:100F60000DF143088DF8431024D002202B23002FCD
:100F700001DA7F422D230A21021EA0F1010000DCCC
:100F80005FB197FBF1FC97FBF1F201FB1C7C17466C
:100F90000CF1300C08F801CDEEE7A8F10100037068
:100FA0002188090501D5452100E06521A0F101084E
:100FB00000F8011C09980FA9A1EB0807FF1D00B15B
:100FC0000120411901EBEA70A1693844081A401E5A
:100FD000A0612078C00602D42046FFF7C1FA099824
:100FE00028B1D4E901219047206A401C2062207872
:100FF000C00622D52046FFF7B3FA1EE0002E04DB20
:10100000B34502DD01A8805D00E03020D4E9012174
:101010009047206A401C2062761CAAF101005FEA1A
:10102000000A0AD100F01CFAC0680168405CD4E9EB
:1010300001219047206A401C2062281EA5F101056D
:10104000DCDC07E0D4E9012118F8010B9047206AA5
:10105000401C2062381EA7F10107F3DC2046FFF791
:1010600095FA032011B041E62DE9F04F04460D46F4
:10107000D21D22F0070089B0D0E9009748463946D2
:1010800002F0BBF90246F80F01D02D2307E02068DB
:10109000810701D52B2302E0202101EAC0038DF84E
:1010A00020300BB1012000E00020032A824601D04D
:1010B000072A04DB2946204600F0D6F93FE12078D4
:1010C000800601D40D2500E0E569C7F30A560D2D11
:1010D00049DA00214FEA175B084606F055F9002F60
:1010E00000F4400007DA00EB80004FF4400100EB11
:1010F000D07001EA60008115012901DD4FF0FF3158
:1011000000224FEA850CBCF1180F06D31346ACF150
:1011100018004FF08052C24003E04FF4801323FACE
:101120000CF30CF10C0CBCF1200F04D3ACF1200C2F
:1011300009FA0CF001E007FA0CF000294FF0004822
:1011400001DD18B90FE00ED140450CD319EB0209AF
:101150005F4121B9404502D19F4329EA0209BBEB17
:10116000175F00D0761C2088000502D57B487844A4
:1011700002E07A487844193808AA302302F80A3085
:10118000037C0AF10101002E0AF1020A53546A4657
:1011900002DC4FF0300101E04FF031014FF0010867
:1011A0008DF8001002D0A6F2FF3603E059EA47019D
:1011B00000D06B4E002D02DC2178090704D54FF0DA
:1011C00002082E218DF80110C44600210BE0C7F360
:1011D00003433F01C35C491C6D1E02F8083005291A
:1011E00008F1010801DA002DF1DC00210CE000EB30
:1011F0001973491C1B786D1E082902F808304FEA44
:10120000091908F1010801DA002DF0DC21688B06CC
:1012100002D516E0A8F10108E04505DD02EB080360
:1012200013F8013C302BF5D0B8F1000F09DD02EBCB
:10123000080313F8013C2E2B03D1090701D4A8F1B0
:101240000108002D05DD3E2102F808106D1E08F191
:101250000108407C002E02F8080008F1010804DAB9
:101260002D20764202F8080002E02B2002F8080048
:101270000A214FF47A70864208F101080BDB96FBD5
:10128000F0F3303302F8083096FBF0F308F1010870
:1012900000FB136601E0642E0CDB642096FBF0F388
:1012A000303302F8083096FBF0F308F1010800FB38
:1012B000136601E00A2E06DB96FBF1F0303002F8EF
:1012C000080008F1010896FBF1F001FB10603030D6
:1012D00002F80800A16908F1010808EB050202EB19
:1012E0000A00081AA0612078C00602D42046FFF741
:1012F00037F9216A08AE01EB0A00206204E0D4E964
:10130000012116F8010B9047BAF1010AF7D22078B3
:10131000C00602D52046FFF723F96E4609E016F80D
:10132000010B3E280FD0D4E901219047206A401CD0
:101330002062B8F10108F2D22046FFF727F909B080
:101340000320BDE8F08F206A2844206203E0D4E93E
:101350000121302090476D1EEBD3F8E79166000025
:1013600002FCFFFF10B5436913B1AFF3008001E049
:10137000FFF72FF9012010BD127800F124010A7047
:1013800000224A700122EDE711684FF0FF32E9E7D1
:1013900010B5436913B1AFF3008001E0FFF7B8F96E
:1013A000012010BD128800F1240182840022C28431
:1013B0000122EDE711684FF0FF32E9E770B51646FC
:1013C0000C46054600F044F8036893F80101012833
:1013D00006D0FF2C0FD8185D68B101202C7070BDAD
:1013E000D3F807013246214603F207130344284687
:1013F000BDE8704018474FF0FF3070BD004870479F
:10140000141400207546FFF7F9FFAE460500694643
:10141000534620F00700854618B020B5FEF768FF58
:10142000BDE820404FF000064FF000074FF00008E5
:101430004FF0000B21F00701AC46ACE8C009ACE866
:10144000C009ACE8C009ACE8C0098D46704700008F
:1014500010B500F005F8001D10BD00BFE544000008
:1014600000487047341400202DE9F0411F4604461F
:1014700003260168072A01F4006004DB08B116A501
:1014800005E016A503E008B115A500E015A521F0BB
:1014900010002060A069C01EA0610FB1401EA061B5
:1014A0002046FFF75DF84FB1D4E901213846904757
:1014B000206A401C2062C01C206206E0206AFAE715
:1014C000D4E9012115F8010B9047761EF8D2204689
:1014D000FFF75CF8BDE8F0814E414E006E616E0092
:1014E000494E4600696E66002DE9F0478146164672
:1014F0008AB0354878440DC88DE80D0032487844EC
:10150000801C03AC0DC884E80D0041F69B300844F4
:10151000372190FBF1F290FBF1F5A5F1800501FB7D
:1015200012041B3C02D56442012000E00020DFF8D9
:1015300098A080460027FA44AAF1BE0A0EE0E00710
:101540000AD03246684607EB470101230AEB8101C6
:1015500000F05FFB8DE8070064107F1C002CEED1CB
:10156000194F7F44AE3F19E0E80715D007EB041090
:101570000DF1180A90E80E008AE80E00C068F042EB
:1015800001D1981908903246012306A903A800F05A
:1015900040FB03AB83E807006D10641C002DE3D112
:1015A0004FF0010332466946B8F1000F03A802D09C
:1015B00000F01AFB01E000F02CFBC9E90001C9F8BA
:1015C00008200AB0BDE8F0879C63000010B504460F
:1015D000AFF300802046BDE81040FEF774BE10B5A2
:1015E00000F00AF8BDE8104000F001B8704700288C
:1015F00001D000F057B8704710B5022803D0410160
:1016000003D50DA112E0002010BD010101D50FA1ED
:101610000CE0C10001D511A108E0810001D512A1A3
:1016200004E0400001D513A100E0002115A000F066
:101630003FF8012010BD0000496E76616C6964209E
:101640004F7065726174696F6E000000446976695D
:101650006465204279205A65726F00004F7665728A
:10166000666C6F7700000000556E646572666C6F83
:1016700077000000496E6578616374205265737568
:101680006C7400005349474650453A2041726974D2
:10169000686D6574696320657863657074696F6EE1
:1016A0003A20000001491820ABBEFEE726000200E8
:1016B00070B505460C460A2000E06D1C00F011F8DC
:1016C00035B128780028F8D102E0641C00F009F850
:1016D00014B120780028F8D1BDE870400A20AFF39B
:1016E000008008B569468DF800000320ABBE08BD38
:1016F0005FEA400C08BF91F0000F4FEA8C234FEADD
:10170000C12243EA51514FEA1C5018BF00F5F04086
:101710004FEA300018BF41F000415FEA6C5C00F016
:101720002980BCF1FF3F08BF40F080407047130C98
:1017300006BF12044FF0100C4FF0000C130E04BF44
:1017400012020CF1080C130F04BF12010CF1040C6F
:10175000930F04BF92000CF1020CD30F04BF520090
:101760000CF1010C11464FF00002A0F11F00A0EB9C
:101770000C00704711F0004F08BF704731F0004176
:101780003FF4D5AF0B0C06BF09044FF0100C4FF01F
:10179000000C0B0E04BF09020CF1080C0B0F04BF68
:1017A00009010CF1040C8B0F04BF89000CF1020C31
:1017B000CB0F04BF49000CF1010CCCF12003A0EBCE
:1017C0000C0022FA03F302FA0CF241EA030100F1E1
:1017D0000100704720F07F4C80EA030023F07F4730
:1017E000ACEB070303F57C5300F0004003F1FF036B
:1017F0002DE980494FEA154B09B44FEA144325EA15
:101800000B4E24EA03480FF2042606EB132749087F
:101810003E785FEA320203FB0667C7F5000707FB65
:1018200006F64FEA54374FEAD64606F1020607FBA2
:10183000066CCCF1005C4FEA1C472CEA074C07FB16
:1018400006F40CFB06F504EB15464FEA961634BF7A
:1018500000204FF000404FEAD13706FB07FC4FEA6B
:101860001C4C0CFB0BF7D21B03FB0CF761EB0701C5
:101870000CFB0EF7B0EB074072EB17420CFB08F7BE
:1018800034BFA2EB0742B2EB074261EB17414FEACC
:101890000C444FEA910706FB07FC4FEA1C4C0CFB7B
:1018A0000BF7B0EBC74072EB573203FB0CF734BFBA
:1018B000A2EBC742B2EBC74261EB57310CFB0EF70C
:1018C000B0EBC70072EB57720CFB08F734BFA2EB0A
:1018D000C702B2EBC70261EB5771039F4FEA816108
:1018E00041EA921104EBCC044FEAD1374FEA82620D
:1018F00006FB07FC42EA90124FEA80604FEA1C4C5C
:101900000CFB0BF7D21B03FB0CF761EB07010CFB85
:101910000EF7B0EB074072EB17420CFB08F734BF31
:10192000A2EB0742B2EB074261EB17414FEA8C553D
:101930004FEA910704EB9C2406FB07FC4FEA1C4C82
:101940000CFB0BF7B0EBC74072EB573203FB0CF705
:1019500034BFA2EBC742B2EBC74261EB57310CFB7D
:101960000EF7B0EBC70072EB57720CFB08F734BFF1
:10197000A2EBC702B2EBC70261EB577115EB4C2526
:101980004FEA816141EA92114FEA82624FEAD13710
:1019900042EA901206FB07FC44F100044FEA806023
:1019A0004FEA1C4C0CFB0BF7D21B03FB0CF761EB53
:1019B00007010CFB0EF7B0EB074072EB17420CFB74
:1019C00008F734BFA2EB0742B2EB074261EB1741C5
:1019D00015EB1C154FEA813141EA92414FEA823200
:1019E00042EA90424FEA80304FEA0C7644F100041C
:1019F00048EA03434EEA0B484FF0000EB2EB080CE6
:101A000071EB030724BF624639464EEB0E0E4FF0D2
:101A1000000B0018524149414BEB0B0BB2EB080C89
:101A200071EB03077BF1000B24BF624639464EEB96
:101A30000E0E4FF0000B0018524149414BEB0B0BBF
:101A4000B2EB080C71EB03077BF1000B24BF62467D
:101A500039464EEB0E0E51EA020718BF46F001065A
:101A600016EB0E7655F1000254F1000103D5BDE8E6
:101A70008901BDE80088BDE88901BDE80048B619C4
:101A8000524141EB0101A3F10103704780807F7E49
:101A90007D7C7B7A797877767675747372717170E4
:101AA0006F6E6E6D6C6C6B6A6A6968686766666596
:101AB0006464636362616160605F5F5E5E5D5D5C24
:101AC0005C5B5B5A5A595958585757565655555595
:101AD0005454535352525251515050504F4F4F4EF5
:101AE0004E4D4D4D4C4C4C4B4B4B4A4A4A49494943
:101AF0004848484747474746464645454544444485
:101B0000444343434342424242414141002B9C46AD
:101B100030D477002BD01CB54FEA370703B44FF011
:101B200010004FF01001BAF1000F06D0BCF1000F09
:101B3000DCBF40F0080040F0080105F025FC0FBCB8
:101B4000BDE810400BF1010BBBF1010F08BF5FEACC
:101B5000170722BF12F1010211F101014FF00041FC
:101B600043F1000300F0004043EA00007047F9D35E
:101B70005708D0E746EA064613F1400F4FEA1646EB
:101B80001FDD13F1200FDFBF16430A46002120336B
:101B90005B42BED0C3F1200746EA064602FA07F7C9
:101BA0004FEA164646EA0706C3F1200722FA03F277
:101BB00001FA07F721FA03F14FF0000342EA0702A6
:101BC000A7E746EA020646EA06464FEA164646EA0E
:101BD0000106BCBF46EA0646360C4FF000034FF044
:101BE00000024FF0000194E72DE9804C9A4693469D
:101BF00070B491E8380007C831EA400C48BF34EAB5
:101C0000430C03D5FFF7E6FDFFF780FFF0BCBDE80E
:101C1000008C2DE9804C9A46934670B491E83800C8
:101C200007C810F0804F08BF13F0804F03D100F0B9
:101C300005F8FFF76BFFF0BCBDE8008C20F07F4794
:101C400080EA030023F07F4C07EB0C03A3F57C53E1
:101C500000F00040A3F1FE0392F0000F00F0B3800B
:101C600095F0000F00F077802DE901494FEA11400F
:101C70004FEA144621EA004800FB06FC24EA064726
:101C800008FB06F607FB08F800FB07F718EB064809
:101C90004CEB164C4FEA124B18EB07484FEA15462F
:101CA0004CEB174022EA0B4E0BFB06FC25EA0647DD
:101CB0000EFB06F607FB0EFE0BFB07F71EEB064EB0
:101CC0004CEB164C4FF000061EEB074E4CEB174B3F
:101CD00018EB0B0840F1000018EB0E0B58EB000856
:101CE00040F100008F1A4FF000013CBFC943661B52
:101CF00014BFB5EB040C00213CBFC943F61B4FEAEF
:101D000017444EEA8E0E27EA04454FEA1C4704FBAF
:101D100007622CEA074C05FB07F70CFB05F604FBF2
:101D20000CFC16EB074642EB174216EB0C4642EB57
:101D30001C421BEB060658EB0202414146EA9E0696
:101D400001D5BDE80189B619524141EB0101A3F16A
:101D50000103BDE801894FEA14454FEA114724EA1F
:101D6000054621EA074C05FB07F406FB07F70CFBC9
:101D700006F105FB0CFC11EB074144EB17444FEA5D
:101D8000124711EB0C4144EB1C4422EA074C05FBC3
:101D900007F206FB07F70CFB06F605FB0CFC16EB3F
:101DA000074642EB174216EB0C4642EB1C456A18FD
:101DB00054F1000148BF7047B619524141EB01018F
:101DC000A3F10103704795F0000F37D04FEA11429D
:101DD0004FEA144721EA024624EA074C02FB07F1C6
:101DE00006FB07F70CFB06F402FB0CFC14EB0744A4
:101DF00041EB17414FEA154714EB0C4441EB1C41F2
:101E000025EA074C02FB07F506FB07F70CFB06F675
:101E100002FB0CFC16EB074645EB174516EB0C4690
:101E200045EB1C42121951F1000148BF7047B61929
:101E3000524141EB0101A3F1010370474FEA144500
:101E40004FEA114724EA054621EA074C05FB07F152
:101E500006FB07F70CFB06F24FF0000605FB0CFC37
:101E600012EB074241EB174112EB0C4251EB1C41C4
:101E700048BF7047921841EB0101A3F1010370477D
:101E800021B1826842F00102826003E0826842F080
:101E9000020282607047000010B50022B0F1A04F2E
:101EA00002D0124B984204D1114B1A68114B1A40C0
:101EB00003E0114B1A680F4B1A40D1E90034234359
:101EC0008C682343CC6843EA44330C7C43EA042304
:101ED0001A43B0F1A04F02D0044B984202D1044BF8
:101EE0001A6001E0044B1A6010BD000000010050B0
:101EF00008030050E010FCFF0807005021B1C26841
:101F000042F00102C26003E0C26822F00102C26036
:101F10007047C26822F00202C260C2680A43C2600F
:101F20007047014600208A6802F000420AB1012091
:101F300000E0002070470246002013680B400BB100
:101F4000012000E00020704710B502460020D06854
:101F50000C4B1840D1E9003423438C682343CC68F0
:101F600023430C6923434C6923438C69234318435F
:101F7000D060106B20F00F000B7F5B1E18431063C6
:101F800010BD000007C0FFFDF0B50C461D4600BFA8
:101F900000BF052A0FDA016B02EB420677001F260D
:101FA00006FA07F3994302EB4206760004FA06F3B9
:101FB000194301633CE00A2A11DA416B561F06EB14
:101FC000460677001F2606FA07F39943561F06EBCD
:101FD0004606760004FA06F31943416328E00F2A07
:101FE00013DA816BA2F10A0606EB460677001F267C
:101FF00006FA07F39943A2F10A0606EB46067600B5
:1020000004FA06F31943816312E0C16BA2F10F06D3
:1020100006EB460677001F2606FA07F39943A2F15E
:102020000F0606EB4606760004FA06F31943C16371
:10203000092C14DD8169A4F10A0606EB4607072680
:1020400006FA07F386699E4386618669A4F10A074A
:1020500007EB470705FA07F73E43866110E0416941
:10206000661E06EB4607382606FA07F346699E43C6
:102070004661466904EB440705FA07F73E434661AB
:10208000F0BD826822F08042826082680A438260EA
:102090007047816841F0004181607047816841F07C
:1020A000040181607047816841F0100181607047D0
:1020B000826822F04052826021B1826842F08052F0
:1020C000826003E0826842F000528260704700BF85
:1020D000FEE710B52AB1036801248C402343036056
:1020E00004E0036801248C40A343036010BD10B5D5
:1020F00032B103684FF480548C402343036005E001
:1021000003684FF480548C40A343036010BD00006B
:1021100010B504460B48844209D10121480700F05C
:10212000EFFA00214FF0005000F0EAFA08E0012138
:10213000880600F0E5FA00214FF0806000F0E0FA38
:1021400010BD00000074004070B500230024036837
:1021500040F6FE758D40AB43D2E900563543966894
:102160003543D66845EA060404FA01F52B430360BB
:1021700070BD18B500230093009001F11403009C7A
:1021800023440093009B1A6018BD000010B5022084
:1021900000F024F900283ED0022000F05FF81E482D
:1021A0000078401C1C49087008460078802805D13A
:1021B0001A480078012801D1194908701649087891
:1021C000C11700EB5161C911A0EBC111124A117086
:1021D0004FF0A040FFF767FF0021124800F04CF8D5
:1021E0008021104800F037F900210E48283000F017
:1021F00043F880210B48283000F02DF901210948CF
:10220000283000F039F80121064800F035F84FF089
:10221000A040FFF743FF10BD7B0000205B000020C3
:102220003C0000200800024010B54FF4007000F0A0
:10223000D5F878B14FF4007000F010F8002106488E
:1022400000F01AF88021044800F005F90121024845
:1022500000F012F810BD00003000024000F0805184
:1022600011B10349086001E002494860704700006D
:10227000040402400000024021B1026842F0010261
:10228000026004E002684FF6FE731A400260704775
:1022900001684FF6FE72114001600021016041604B
:1022A0008160C1604B49884208D14A490839496870
:1022B00041F00F01474A083A51608AE0454914311C
:1022C000884208D143490839496841F0F001414A40
:1022D000083A51607DE03F492831884208D13D49A4
:1022E0000839496841F470613A4A083A516070E02F
:1022F00038493C31884208D136490839496841F4A7
:102300007041344A083A516063E0324950318842A2
:1023100008D130490839496841F470212D4A083AFA
:10232000516056E02B496431884208D12949083967
:10233000496841F47001274A083A516049E025494B
:102340007831884208D123490839496841F07061E1
:10235000204A083A51603CE01F49884206D1011FDB
:10236000096841F00F01021F116032E01A4914316F
:10237000884208D11849091F096841F0F001164A3E
:10238000121F116025E014492831884208D11249F2
:10239000091F096841F470610F4A121F116018E0AB
:1023A0000D493C31884208D10B49091F096841F4A5
:1023B0007041094A121F11600BE0074950318842F1
:1023C00007D10549091F096841F47021024A121F0B
:1023D00011607047080002400804024001460020D6
:1023E000002201F0805313B1054B1A6801E0054B40
:1023F0001A6802EA01030BB1012000E000207047D7
:1024000000040240000002401AB103680B4303605D
:1024100002E003688B430360704710B50022026836
:1024200047F6F0739A430C6A8B6823430C69234385
:102430004C6923438C692343CC6923434C6A23436F
:102440008C6A23431A4302608B8943600B68836064
:102450004B68C36010BD41607047704730B501469E
:102460004A680B68934204DD8868401E9D1A441B2D
:1024700006E0934202DAD01A441E01E08868441E46
:10248000A0B230BD0268521C83689A4201DB002270
:1024900001E00268521CC36899540268521C8368A8
:1024A0009A4201DB002201E00268521C0260704780
:1024B000F0B50A46002100240025002300BF3FE0BC
:1024C000012606FA01F4166806EA0405A54236D18B
:1024D0001679012E02D01679022E18D186684FEA9D
:1024E000410C032707FA0CF7BE43866056794F006C
:1024F000BE4087683E438660868801278F40BE4382
:102500008680878896798E40B6B237438780066882
:102510004FEA410C032707FA0CF7BE430660167911
:102520004F00BE4007683E430660C3684F00032665
:10253000BE40B343D6794F00BE403343C360491C0D
:102540001029BDD3F0BDF0B5002300244D07ED0EDA
:1025500002FA05F3CE1000F1200555F826504E077B
:10256000F70E0F26BE40B543CF1000F1200646F807
:102570002750CE1000F1200555F8265045EA0304F7
:10258000CE1000F1200545F82640F0BD01857047CA
:102590008161704700BFFEE700BFFEE770470000A3
:1025A00070B5002100230F22C47804B3154C2468B1
:1025B00004F4E064C4F5E064210AC1F10403CA40F4
:1025C000447804FA03F184781440214309010E4C45
:1025D0000678A155047804F01F050124AC40057865
:1025E0006D11AD0005F1E025C5F8004109E0047862
:1025F00004F01F050124AC40044D0678761145F81F
:10260000264070BD0CED00E000E400E080E100E059
:1026100002490143024A1160704700000000FA05B8
:102620000CED00E041B1094A0244926B42F0010214
:10263000064B03449A6307E0044A0244926B22F07B
:102640000102024B03449A637047000000000140FE
:102650000021024A024491637047000000000140DB
:1026600010B50022064B03449A6B22F06C02D1E9AC
:10267000003423431A43024B03449A6310BD000005
:102680000000014000214160016070477047000078
:102690000021010F31B1094AD26A22F47852074B66
:1026A000DA6205E0054AD26A22F4F872034BDA6274
:1026B000024AD26A0243014BDA62704700100240BC
:1026C00029B1064A52690243044B5A6104E0034AA5
:1026D00052698243014B5A6170470000001002406A
:1026E00029B1064AD2690243044BDA6104E0034A85
:1026F000D2698243014BDA6170470000001002404A
:1027000029B1064A12690243044B1A6104E0034AE4
:1027100012698243014B1A617047000000100240A9
:1027200029B1064A92690243044B9A6104E0034AC4
:1027300092698243014B9A61704700000010024089
:1027400029B1064AD2680243044BDA6004E0034A26
:10275000D2688243014BDA607047000000100240EB
:102760002DE9F04300220026002794460025002191
:1027700000230024DFF83C85D8F8048008F00C0220
:1027800022B1042A07D0082A30D109E0DFF82885D1
:10279000C0F800802FE0DFF82085C0F800802AE034
:1027A000DFF81085D8F8048008F47016DFF8048587
:1027B000D8F8048008F480374FF0020808EB9646FA
:1027C00027B9DFF8F88406FB08F10DE0DFF8E484B0
:1027D000D8F82C8008F00F0808F1010CDFF8D88435
:1027E000B8FBFCF808FB06F1016004E0DFF8C884E0
:1027F000C0F8008000BF00BFDFF8B884D8F80480BC
:1028000008F0F0021209DFF8B88418F80240D0F896
:10281000008028FA04F8C0F80480DFF89884D8F81B
:10282000048008F4E062120ADFF8948418F8025079
:10283000D0F8048028FA05F8C0F80880DFF874841E
:10284000D8F8048008F46052D20ADFF8748418F8CB
:102850000230D0F8048028FA03F8C0F80C80DFF8C2
:102860005484D8F82C8008F4F872120902F00F088A
:10287000DFF8509439F8185002F01008B8F1000F42
:1028800005D025B1B1FBF5F8C0F8108003E0D0F811
:102890000080C0F81080DFF81C84D8F82C8008F481
:1028A0007852520A02F00F08DFF8189439F81850DD
:1028B00002F01008B8F1000F05D025B1B1FBF5F812
:1028C000C0F8148003E0D0F80080C0F81480DFF86E
:1028D000E483D8F8308008F01008B8F1100F04D065
:1028E000DFF8D483C0F8188003E0D0F80080C0F887
:1028F0001880DFF8C083D8F8308008F02008B8F1DD
:10290000200F04D0DFF8B083C0F81C8003E0D0F8BB
:102910000080C0F81C80DFF89C83D8F8308008F075
:102920004008B8F1400F04D0DFF88C83C0F8208055
:1029300003E0D0F80080C0F82080DFF87883D8F872
:10294000308008F48078B8F5807F0AD1D0F8008014
:10295000884506D1A34204D14FEA4108C0F824803B
:1029600003E0D0F80C80C0F82480DFF84883D8F862
:10297000308008F48058B8F5805F0AD1D0F8008024
:10298000884506D1A34204D14FEA4108C0F8288007
:1029900003E0D0F80C80C0F82880DFF81883D8F85E
:1029A000308008F40078B8F5007F0AD1D0F80080B4
:1029B000884506D1A34204D14FEA4108C0F82C80D3
:1029C00003E0D0F80C80C0F82C80DFF8E882D8F85B
:1029D000308008F48068B8F5806F0AD1D0F80080A4
:1029E000884506D1A34204D14FEA4108C0F84C8083
:1029F00003E0D0F80C80C0F84C80DFF8B882D8F83B
:102A0000308008F40068B8F5006F0AD1D0F8008073
:102A1000884506D1A34204D14FEA4108C0F850804E
:102A200003E0D0F80C80C0F85080DFF88882D8F836
:102A3000308008F40058B8F5005F0AD1D0F8008063
:102A4000884506D1A34204D14FEA4108C0F854801A
:102A500003E0D0F80C80C0F85080DFF85882D8F836
:102A6000308008F40048B8F5004F0AD1D0F8008053
:102A7000884506D1A34204D14FEA4108C0F85880E6
:102A800003E0D0F80C80C0F85880DFF82882D8F82E
:102A9000308008F00308B8F1000F04D1D0F80C80A2
:102AA000C0F8388028E0DFF80C82D8F8308008F0D1
:102AB0000308B8F1010F04D1D0F80080C0F83880C5
:102AC0001AE0DFF8F081D8F8308008F00308B8F198
:102AD000020F04D14FF40048C0F838800CE0DFF852
:102AE000D481D8F8308008F00308B8F1030F03D17F
:102AF000DFF8C481C0F83880DFF8B881D8F83080BA
:102B000008F44038B8F1000F04D1D0F80880C0F8BC
:102B10003C8028E0DFF89C81D8F8308008F4403809
:102B2000B8F5803F04D1D0F80080C0F83C801AE0AE
:102B3000DFF88081D8F8308008F44038B8F5003FDD
:102B400004D14FF40048C0F83C800CE0DFF8648109
:102B5000D8F8308008F44038B8F5403F03D1DFF8AA
:102B60005881C0F83C80DFF84C81D8F8308008F4F8
:102B70004028B8F1000F04D1D0F80880C0F8408098
:102B800028E0DFF83081D8F8308008F44028B8F524
:102B9000802F04D1D0F80080C0F840801AE0DFF820
:102BA0001481D8F8308008F44028B8F5002F04D1FB
:102BB0004FF40048C0F840800CE0DFF8F880D8F807
:102BC000308008F44028B8F5402F03D1DFF8E880C2
:102BD000C0F84080DFF8DC80D8F8308008F4401876
:102BE000B8F1000F04D1D0F80880C0F8448028E084
:102BF000DFF8C080D8F8308008F44018B8F5801F9E
:102C000004D1D0F80080C0F844801AE0DFF8A48036
:102C1000D8F8308008F44018B8F5001F04D14FF4FC
:102C20000048C0F844800CE0DFF88880D8F8308095
:102C300008F44018B8F5401F03D1DFF87C80C0F8D5
:102C40004480DFF87080D8F8308008F44008B8F18C
:102C5000000F04D1D0F80880C0F8488028E0DFF8E1
:102C60005480D8F8308008F44008B8F5800F04D1BB
:102C7000D0F80080C0F848801AE0DFF83880D8F833
:102C8000308008F44008B8F5000F04D14FF4004834
:102C9000C0F848800CE0DFF81C80D8F8308008F4D9
:102CA0004008B8F5400F03D1DFF80C80C0F8488029
:102CB000BDE8F0830010024000127A0000093D00D8
:102CC000C2000020D20000207047000000F0004247
:102CD000B2F1004F0CD029B10C4A126802430B4BE1
:102CE0001A6011E0094A12688243084B1A600BE02F
:102CF00029B1064A126D0243044B1A6504E0034AE7
:102D0000126D8243014B1A657047000000000140BC
:102D10002DE9F04705460E461446A046002714B993
:102D20000020BDE8F087A86A08B1A86A80471BE0C8
:102D3000002704E005F10800FFF790FB0746002F8D
:102D4000F8D0BC4201DDB94600E0A146A4EB09047D
:102D500005E0317805F10800FFF794FB761CB9F126
:102D60000000A9F10109F4D1002CE1D14046D8E7D7
:102D70000CB50020019000903748006840F4803086
:102D80003549086000BF3448006800F40030009006
:102D90000198401C0190009818B90198B0F5A04F17
:102DA000F1D12D48006800F4003010B101200090EE
:102DB00001E000200090009801284BD127480068CE
:102DC00040F01000254908600846006820F0030024
:102DD00008600846006840F0020008601E4840682D
:102DE0001D4948600846406848600846406840F40D
:102DF000806048600846406820F47C1048600846BF
:102E0000406840F4E81048600846C06A20F00F00AF
:102E1000C8620846C06AC8620846006840F0807010
:102E2000086000BF0C48006800F000700028F9D06E
:102E30000948406820F00300074948600846406898
:102E400040F00200486000BF0348406800F00C00FA
:102E50000828F9D10CBD00000010024000200240FB
:102E600010B504480068401E0249086002F04AFCA0
:102E700010BD00007C00002010B51748006840F429
:102E80007000154908601548006840F001001349BA
:102E900008600020486008460068114908400F4952
:102EA00008600846006820F48020086008464068F2
:102EB00020F4FE0048600846C06A20F00F00C86297
:102EC0000846006B074908400449086300208860F1
:102ED000FFF74EFF10BD000088ED00E0001002403B
:102EE000FFFFF6FECCFC00FF10B50121044800F006
:102EF00039F818B10121024800F024F810BD000093
:102F0000002C014010B501210B4800F02BF880B1D6
:102F10000121094800F016F80848007800B110BDFA
:102F200007480068401C0649086002F05BF801F0A1
:102F300037FF00BFF3E7000000040040440000201A
:102F400040000020CA4392B20261704721B102885A
:102F500042F00102028004E002884FF6FE731A403C
:102F60000280704730B50246002000230024156916
:102F700005EA0103D56805EA010413B10CB101208B
:102F800000E0002030BD000030B500240022002306
:102F9000056A25F010050562026A43688469174DC9
:102FA0002C4024F440740D6844EA052422F02002E9
:102FB0008D8942EA05128D8842EA0512104DA84219
:102FC00002D0104DA84213D122F08002CD8942EAEE
:102FD000051222F04002CD8842EA051223F48063F4
:102FE00023F400630D8A43EA85034D8A43EA85038F
:102FF000436084618D688563026230BDFF8FFFFE90
:10300000002C014000340140002101608180C1801A
:1030100081608181C1810182418270470185426165
:10302000704742684FF68F731A40426042680A4305
:1030300042607047002202881E4B98420ED01E4B01
:1030400098420BD0B0F1804F08D01C4B984205D06D
:103050001B4B984202D01B4B984204D14FF68F7302
:103060001A404B881A43184B984207D0174B984286
:1030700004D04FF6FF431A400B891A4302804B6875
:10308000C3620B8803850B4B98420ED00A4B9842C3
:103090000BD00F4B984208D00E4B984205D00E4BE8
:1030A000984202D0074B984201D14B8903860123F5
:1030B00043617047002C014000340140000400408F
:1030C0000008004000500140001000400014004083
:1030D0000040014000440140004801404FF0FF31F2
:1030E000416000210180018141804181704770472A
:1030F00010B52449244800F051F82449224800F032
:10310000B8F801281CD121491F4800F047F81E4893
:1031100000F068F91E49B1F800141D4A50541046D9
:10312000B0F80004401C1146A1F80004B1F80004F6
:10313000C11700EB91518912A0EB8121A2F8001474
:103140001449114800F095F801280FD111490E4893
:1031500000F024F80C4800F045F90D48B0F80014D0
:1031600002F07EF800200A49A1F800040A49064846
:1031700000F07FF8012803D10749034800F00EF85A
:1031800010BD0000000303000044004005010500DD
:10319000EE060020040104000601060010B500221E
:1031A00000230A0C012404FA02F3036210BD21B1CA
:1031B000026842F00102026003E0026822F00102AC
:1031C0000260704710B504462048844209D10121AD
:1031D0008803FFF7B5FA00214FF48040FFF7B0FAFB
:1031E00032E01B48844209D101214804FFF788FAE4
:1031F00000214FF40030FFF783FA25E015488442A0
:1032000009D101218804FFF77BFA00214FF48020C7
:10321000FFF776FA18E01048844209D10121C8046A
:10322000FFF76EFA00214FF40020FFF769FA0BE078
:103230000A48844208D101210805FFF761FA0021FC
:103240004FF48010FFF75CFA10BD00000038014019
:103250000044004000480040004C00400050004046
:1032600002460020D3690B400BB1012000E0002092
:10327000704770B502460B4600240021002500204F
:10328000C3F30725D9B2012606FA01F1012D02D1B7
:103290001668314006E0022D02D15668314001E047
:1032A000966831401C0C012606FA04F4D6693440B5
:1032B00011B10CB1012000E0002070BDF0B5034653
:1032C00000240026002500201846C1F30724CEB2B2
:1032D000012707FA06F5022C01D1001D02E0032C9C
:1032E00000D108301AB107682F43076002E0076871
:1032F000AF430760F0BD00002DE9F04198B00446EF
:103300000D460027B8460026206820F00100206006
:10331000666826F44056A86806436660266841F24F
:103320000C608643E96868680843296908430643D6
:103330002660A66826F4407668690643A66001A860
:10334000FFF70EFA2348844202D1DDF83C8013E0F7
:103350002148844202D1DDF840800DE01F488442BC
:1033600002D1DDF8448007E01D48844202D1DDF837
:10337000488001E0DDF84C80206800F4004060B136
:103380004FEA48002968B0FBF1F74FEA4800296886
:10339000B0FBF1F201FB120607E02868B8FBF0F77A
:1033A0002868B8FBF0F100FB11862868B6EB500FD7
:1033B00000D37F1C206800F4004038B1C7F34206F8
:1033C0004FF6F07107EA010040EA0607A78118B03E
:1033D000BDE8F08100380140004400400048004052
:1033E000004C00400146888CC0F308007047C1F3D0
:1033F00008020285704700BFFEE703B40198410050
:10340000009850EAC12018BF04204A0D18BF40F0B0
:10341000010040F2FF72B2EB515F08BF40F00200C2
:10342000012808BF052002B070470000000000001E
:103430002DE9F04D2DED040B2DED0E8B96B0DDE951
:103440002550279CDDF890A025F0004624F0004888
:10345000BAF1000F14BF0121002101EB4502FC4924
:1034600053184A1093422AD3002814BF0123002383
:1034700003EB44030B44F7498B4220D358EA000185
:103480009FEDF59B76D0DFF8D8B35D4503D1BAF157
:10349000000F05D188E0BAF1000F08BF002100D06D
:1034A000012101EB450111F5001F08D8002814BFC8
:1034B0000121002101EB440111F5001F0BD99DED05
:1034C000261B9DED240B16B0BDEC0E8B04B0BDE8A1
:1034D000F04D01F043BA0027002DBCBFE1498845FB
:1034E00021DAE1498845A8BF02271CDAC3451ADC66
:1034F000DE4901EB2851142908DDC1F1340220FA1C
:1035000002F101FA02F282420DD108E058B9C1F18C
:10351000140228FA02F101FA02F2424503D101F045
:103520000101C1F1020756EA0A0124D1002C22DA76
:10353000002D18BF022F01D0012F0AD00220FDF765
:1035400009F816B0BDEC0E8B04B0BDE8F04D01F0EB
:10355000E3B90220FCF7FEFF01F0DEF951EC100B9D
:1035600002F004FA41EC100B16B0BDEC0E8B04B067
:10357000BDE8F08D18E09FEDBEAB9FEDBF8B00283E
:1035800071D1B848804522D105F1804010F58010F6
:1035900008BFBAF1000F07D0B3450ADC002CA8BF62
:1035A0009DED260BE0DA0DE0B0EE490AF0EE690A77
:1035B000DAE7002C06DA9DED260B51EC100B02F039
:1035C000D5F96FE0AE48784490ED000BCCE7D845D4
:1035D0004DD1002C48DA2EB186423AD1BAF1000F13
:1035E00042D126E0BAF1000F13D00220FCF7B2FF5F
:1035F00001F0CEF98DED020B9DED240B8DED000B4E
:1036000010EE900A039961F31E0003909DED020BEA
:10361000AAE78DED02AB9DED240B1AEE901A10EE89
:10362000900A8DED000B61F31E0003909DED020BDF
:103630009AE78DED028B9DED240B18EE901A10EE9B
:10364000900A8DED000B61F31E0003909DED020BBF
:103650008AE709DA9DED240B51EC190B53EC102B82
:1036600002F032FC1EE020E09DED240B7CE7864258
:103670001BDAB4F1804F0DD0A4F10050B0F1FF502F
:1036800013D1002D11DB9DED240B51EC100B01F03B
:1036900077FF07E09DED240B53EC102B51EC100B42
:1036A00000F0C2BC41EC100B5EE79DED240B51EC29
:1036B000100B01F091FBBAF1000FCDE90E0142D1E0
:1036C0009FED710B46B3A6F1E040B0F17F600CD0E6
:1036D0005E4538D1002D00DAA7B3022F0CBF0120C0
:1036E0004FF0FF3002F080FEDCE7002D01DD002C02
:1036F0000DDA002D01DD002C1FDB002D16DA002C69
:1037000014DB012F08BF9FED620B3FF42DAFB0EE2D
:103710004A0AF0EE6A0A27E7022F18BF002D0CD0E4
:10372000012F0AD1002DFFF61FAF06E0002DB8BF14
:10373000002C08DA012F3FF417AFB0EE480AF0EE84
:10374000680A11E71BE0012000EBE57050EA070171
:1037500015D0791EB0EE498AF0EE698A084308BF99
:103760009FED4D8B4E480025804570DD4D494E48FC
:10377000884514DDB0420DDB002C19DB2FE0012061
:10378000FCF7E8FE16B0BDEC0E8B04B0BDE8F04DC2
:1037900001F0EEB8B34502DC002C09DC1FE08642E4
:1037A00002DA002C1BDA03E05E452BDD002C16DD6F
:1037B0000220FCF7CFFE01F0EBF88DED020B53EC8D
:1037C0001A2B51EC180B02F083FECDE9000103998E
:1037D000019861F31E0003909DED020BC4E60220E8
:1037E000FCF7B8FE01F0E4F810EE901A18EE900A1B
:1037F0008DED020B8DED008B61F31E0003909DEDAE
:10380000020BB1E69DED0E0B53EC192B51EC100B96
:1038100003F05AF99FED260BCDE9080153EC102B6C
:103820009DED080B51EC100B02F052FE9FED221B98
:1038300053EC112B03F01CF89DED081B53EC112BDE
:1038400002F046FE9FED1E1B53EC112B3CE08CE07A
:10385000FFFF1F00FFFF0F00000000000000F03F0F
:103860000000F03F0000F07F0000404301FCFFFF3C
:10387000000000000000F07F0000000000000000D9
:103880002E41000000000000000000000000008049
:10389000000000000000F0FF000000000000F0BF8A
:1038A0000000E0410000F043FFFFEF3F0000000098
:1038B000000000000000D03F555555555555D53FE7
:1038C000000000000000E03F02F0D2FF9DED080B79
:1038D00041EC1A0B53EC102B51EC100B02F0F8FDDD
:1038E00053EC1A2B02F0F4FD41EC1A0B9FEDFE0B8A
:1038F00053EC102B9DED080B51EC100B02F0E8FD82
:1039000041EC1B0B9FEDFA0B51EC1A0B53EC102BF7
:1039100002F0DEFD41EC1A0B9FEDF70B53EC102B80
:103920009DED080B51EC100B02F0D2FD53EC1A2B5D
:1039300003F0CAF841EC1A0B51EC1B0B53EC1A2B99
:1039400002F082F90690CDE906519DED060B53EC8D
:103950001B2B51EC100B03F0B7F853EC1A2B02F0B1
:1039600087FF41EC100B00F0A1B90020B6F5801FD5
:103970000EDA9FEDE30B53EC102B9DED0E0B51EC8B
:10398000100B02F0A5FDCDE90E016FF034000E46DC
:1039900000EB2650A0F2FF37C6F31300DA4940F0DF
:1039A0007F6646F040568842D8BF002408DDD749DC
:1039B0008142C8BF012403DC0024A6F580167F1CC9
:1039C000D348784400EBC4000F9690ED00CB9DEDFA
:1039D0000E0B53EC1C2B51EC100B03F075F89DED06
:1039E0000E0B41EC1B0B53EC1C2B51EC100B02F09B
:1039F0002BF941EC100B51EC190B53EC102B02F08E
:103A000063FA41EC1D0B51EC1B0B53EC1D2B02F028
:103A10005FFD41EC1A0BBF488DED10AB784410955B
:103A200090ED000B4FF0005040EA660000EB844040
:103A30008DED080B00F5002009909DED080B53EC6F
:103A40001C2B51EC100B03F03FF89DED0E1B53ECBB
:103A5000112B02F00DFF41EC100B53EC102B9DEDE0
:103A6000100B51EC100B02F033FD9DED080B41ECF7
:103A70001C0B53EC102B9DED100B51EC100B02F0B6
:103A800027FD53EC1B2B02F0F3FE53EC1C2B03F031
:103A90001BF853EC1D2B02F01BFD41EC1C0B53ECEF
:103AA0001A2B51EC1A0B02F013FD41EC1B0B9A4838
:103AB0000621B0EE4B0AF0EE6B0A784400F018FED7
:103AC000B0EE401AF0EE601AB0EE41DAF0EE61DAD4
:103AD00053EC1B2B51EC1B0B02F0FAFC53EC1D2B8F
:103AE00002F0F6FC9DED100B41EC1B0B53EC1A2B76
:103AF00051EC100B02F0A8F853EC1C2B02F0E8FC80
:103B000053EC1B2B02F0A0F89DED100B41EC1B0BAE
:103B100053EC102B51EC100B02F0DAFC41EC1D0BB6
:103B20009FED7FEB53EC1E2B02F08EF853EC1B2B1A
:103B300002F08AF80890CDE908519DED080B53EC8E
:103B40001E2B51EC100B02F0BFFF53EC1D2B02F0AB
:103B5000BBFF53EC1B2B02F08BFE9DED080B41ECE1
:103B60001D0B53EC102B9DED100B51EC100B02F0C4
:103B7000AFFC41EC1B0B53EC1A2B51EC1D0B02F06C
:103B8000A7FC9DED080B41EC1A0B53EC102B51ECEC
:103B90001C0B02F09DFC53EC1A2B02F055F841EC83
:103BA0001A0B51EC1B0B53EC1A2B02F04DF80C9036
:103BB000CDE90C519DED0C0B53EC1B2B51EC100B74
:103BC00002F082FF53EC1A2B02F052FE41EC1B0B69
:103BD0009FED550B53EC102B9DED0C0B51EC100B86
:103BE00002F076FC41EC1A0B9FED510B51EC1B0BD4
:103BF00053EC102B02F06CFC41EC1B0B9FED4E0BB9
:103C000053EC102B9DED0C0B51EC100B02F060FCF3
:103C100053EC1B2B02F018F841EC100B4848784489
:103C200000EBC40090ED001B51EC100B53EC112B7A
:103C300002F00AF841EC1B0B384602F0D5FBCDE947
:103C4000080153EC1B2B51EC1A0B01F0FDFF41EC6A
:103C5000100B3C48784400EBC40090ED00CB51ECD5
:103C6000100B53EC1C2B01F0EFFF9DED081B53ECE8
:103C7000112B01F0E9FF0690CDE906519DED080BEF
:103C800053EC102B9DED060B51EC100B02F01CFFBA
:103C900053EC1C2B02F018FF53EC1A2B02F014FF0C
:103CA00053EC1B2B02F0E4FD41EC100B9DED261BA9
:103CB00053EC102B8DED001B00959DED260B51EC68
:103CC000100B02F005FC9DED000B41EC1A0B53ECC0
:103CD000102B9DED260B51EC100B02F0F5FE9DED27
:103CE000061B53EC112B2FE0000000604715F73F37
:103CF000FE822B654715F73F44DF5DF80BAE543E5F
:103D000000000000000040438E9803007AB60B00CC
:103D1000323C0000D83C00006A3B0000000000007C
:103D20000000000000000840000000E009C7EE3F6E
:103D3000FD033ADC09C7EE3FF5015B14E02F3EBE00
:103D4000F6390000B039000002F0C2FB53EC1A2B28
:103D500001F07AFF9DED060B41EC1A0B53EC102B92
:103D60009DED000B51EC100B02F0B2FBCDE90C0104
:103D70009DED0C0B51EC1A0B53EC102B01F064FF72
:103D8000CDE902010C46AA498C422FDB611A084397
:103D900018D19DED0C0B53EC102B9DED020B51EC4B
:103DA000100B02F091FE41EC1B0B9FEDA30B51ECAD
:103DB0001A0B53EC102B01F047FF53EC1B2B02F0B6
:103DC00026FD2DD20220FCF7C5FB00F0E1FD10EE30
:103DD000901A18EE900A8DED020B8DED008B61F3B9
:103DE0001E0003909DED020BFFF7BEBB944A24F02A
:103DF0000041914214D39349214408437FF4EFAC2E
:103E00009DED0C0B53EC102B9DED020B51EC100BA8
:103E100002F05AFE53EC1A2B02F0F9FC7FF6DFACED
:103E200024F000408849894A002601EB2051824253
:103E30002BDA481C4FF4801121FA00F02044844A08
:103E4000C0F30A517A44A1F2FF3192ED000B814A8E
:103E50008DED080BCA4020EA0202C0F3130040F4C3
:103E60008010C1F1140120FA01F60992002CB8BFAC
:103E700076429DED080B53EC102B9DED0C0B51EC95
:103E8000100B02F021FECDE90C019DED0C0B51EC65
:103E90001A0B53EC102B01F0D7FE9FED6F0B08901F
:103EA000CDE9085153EC102B9DED080B51EC100B94
:103EB00002F00EFB41EC1B0B9FED690B53EC102B3A
:103EC0009DED080B51EC100B02F002FB9DED0C0B6D
:103ED00041EC1C0B53EC102B9DED080B51EC100B1F
:103EE00002F0F2FD53EC1A2B02F0C2FC9FED5E1BB8
:103EF00053EC112B02F0ECFA53EC1C2B01F0A4FE56
:103F000041EC1A0B51EC1B0B53EC1A2B01F09CFEED
:103F1000CDE902019DED020B53EC1B2B51EC100B74
:103F200002F0D2FD53EC1A2B02F0A2FC9DED020B25
:103F300041EC1A0B53EC102B51EC100B02F0C8FAA9
:103F4000CDE908014A489DED080B0521784400F0B1
:103F5000CFFB9DED081B51EC100B53EC112B02F025
:103F6000B7FA9DED021B53EC112B02F081FCCDE959
:103F700006019DED020B53EC1A2B51EC100B02F0D5
:103F8000A7FA53EC1A2B01F05FFE9FED3B0B41ECBF
:103F90001A0B53EC102B9DED060B51EC100B02F09D
:103FA00093FD9DED060B41EC1B0B53EC102B9DED8F
:103FB000020B51EC100B02F08BFA53EC1B2B01F0AF
:103FC00083FF53EC1A2B02F07FFD9DED021B53EC97
:103FD000112B02F079FD53EC192B02F049FCCDE9CD
:103FE000020101EB065001150029C8BF039015DC42
:103FF0009DED020B324651EC100B03F033FAFFF744
:10400000FCF9042808BF00F0D3FC32469DED020BFA
:1040100051EC100B03F026FACDE902019DED020BE5
:1040200051EC180B53EC102B02F052FAFFF73ABB8D
:104030000000904000000000FE822B654715973C71
:1040400000CC904000346F3F01FCFFFF0000E03FD8
:10405000B0380000FFFF0F0000000000432EE63FD5
:10406000396CA80C615C20BEEF39FAFE422EE63FA7
:1040700008370000000000000000000000000040C1
:1040800010B52F499FED2C1B2DED020B84B0059828
:1040900020F000408842DCBF00209DED040B32DDA3
:1040A0002849884209D1049840B94FF00100FCF733
:1040B00051FA00F05DFC06B010BD05DB9DED040B70
:1040C00000F042FC06B010BD68469DED040B00F008
:1040D0003BF810F0030011D0012818D09DED021B11
:1040E0009DED000B02281AD000F04AFA51EC100B9B
:1040F00001F03CFC06B041EC100B10BD9DED021B25
:104100009DED000B012000F06FFB06B010BD9DED92
:10411000021B9DED000B00F033FA06B010BD01202C
:1041200000F062FB51EC100B01F020FC06B041ECFA
:10413000100B10BD00000000000000000000000097
:10414000FB21E93F0000F07F2DE9F14F04462DED02
:10415000020B2DED088B8AB09FEDE70B80ED020B73
:10416000139EE74826F0004585420ADC9DED120BC0
:10417000002084ED000B0AB0BDEC088B03B0BDE855
:10418000F08FE0489FEDE0AB9FEDE1BBA84247DD3B
:10419000E14F9FEDE39B9FEDE48B9DED120B53EC04
:1041A0001A2B51EC100B002E1CDD02F08DFC41ECA3
:1041B000100BBD4208D053EC1B2B51EC100B02F03E
:1041C00083FCC4E900010BE053EC192B51EC100BFC
:1041D00002F07AFC53EC182B02F076FCC4E90001E3
:1041E0000120C8E701F030FD41EC100BBD4208D0C2
:1041F00053EC1B2B51EC100B01F026FDC4E9000120
:104200000BE053EC192B51EC100B01F01DFD53EC9E
:10421000182B01F019FDC4E900014FF0FF30AAE7A7
:10422000C348A84279DB9DED120B51EC100B00F056
:10423000D3FD41EC180B9FEDC00B53EC102B02F09B
:1042400047F99FEDBF1B53EC112B01F0FDFC01F072
:10425000F9FF074602F0C8F841EC190B53EC1A2B92
:1042600002F036F953EC182B02F002FB41EC180B6C
:1042700053EC1B2B51EC190B02F02AF9DFF8C8A202
:1042800041EC100B4FEA15580125FA4453EC102B62
:1042900051EC180B02F018FC032DC4E900013DD0CD
:1042A000C1F30A5005EB4511A8EB0000113981421A
:1042B00034DA0AEB051BB0EE48AA9BED000BF0EEDA
:1042C00068AA53EC102B51EC190B02F001F941ECE8
:1042D0001B0B51EC1A0B53EC1B2B02F0F5FB41ECC2
:1042E000180B51EC1A0B53EC182B02F0EDFB53ECAE
:1042F0001B2B02F0E9FB9BED020B41EC1A0B53EC7C
:10430000102B51EC190B02F0E3F853EC1A2B02F0CE
:10431000DBFB41EC100B6D1CB8E70EE0002EA8BFD4
:104320003846BFF628AF94ED000B51EC100B01F0AE
:104330001DFBC4E9000178421DE7C6F3130040F4F9
:10434000801EC6F30A50A0F2F530471100F01F0599
:10435000C5F12000DDF848B00890002006900790D5
:104360000520EC467949002D07EB0002794408BF8F
:1043700051F8221009D051F8223001EB8201AB40F4
:104380004A68089922FA01F11943A1FB0E26A1FB04
:104390000B131A449A4234BF0123002303EB06088F
:1043A0000CEB8003D3E901A60E448E4234BF0121F9
:1043B000002192448A4411B1924502D903E092450A
:1043C00001D2012100E00021C3E901A641444CF8DB
:1043D0002010011EA0F10100C4DC029800F1005081
:1043E000850F0298DDE903678000DDF8148001F095
:1043F000FBFF41EC1A0B304602F01AF89FED541BFC
:1044000053EC112B02F064F841EC1B0B384602F020
:104410000FF89FED511B53EC112B02F059F841ECB2
:10442000180B404602F004F89FED4D1B53EC112B86
:1044300002F04EF841EC190B51EC180B53EC192B10
:1044400001F002FC53EC1B2B01F0FEFB53EC1A2B8A
:1044500001F0FAFBCDE90801002008909DED080B62
:1044600053EC1A2B51EC100B02F02EFB53EC1B2BD0
:1044700002F02AFB53EC182B02F026FB53EC192B0D
:1044800002F0F6F99FED381B53EC112B02F020F8E7
:104490009FED370B41EC180B53EC102B9DED080BE7
:1044A00051EC100B02F014F853EC182B01F0CCFB7C
:1044B0009FED310B41EC180B53EC102B9DED080BCD
:1044C00051EC100B02F004F853EC182B01F0BCFB7C
:1044D00041EC100B139810F0004F06D06D4251ECD8
:1044E000100B01F043FA41EC100B284684ED000B51
:1044F00041E6000000000000000000000000000095
:10450000FB21E93F7CD9024000004054FB21F93FE8
:104510003163621A61B4D03DFB21F93F0000000015
:104520000000601A61B4D03D7370032E8A19A33B5A
:10453000FB2139410000000083C8C96D305FE43FB2
:10454000000000000000E03F72340000C0330000B3
:10455000000000000000103E000000000000103CC1
:10456000000000000000103A182D4454FB21F93DD2
:104570003326A611460B113C00000054FB21F93DE7
:1045800010B52DED040B2DED088B82B0B0EE419AE5
:10459000F0EE619A0B9820F000449FED4BABB4F124
:1045A000795F11DA9DED0A0B51EC100B01F04AFE18
:1045B000002801BFB0EE4A0AF0EE6A0A02B0BDEC74
:1045C000088B04BF04B010BD9DED0A0B53EC102BFB
:1045D00051EC100B01F07CFF41EC180B3C4806211C
:1045E000B0EE480AF0EE680A784400F081F853EC27
:1045F000182B51EC100B01F06BFF9DED0A0B41ECF9
:104600001B0B53EC192B51EC100B01F061FF41EC2B
:10461000190B53EC1B2B51EC180B01F059FF53EC09
:10462000192B02F051FA9FED2C0B41EC190B53ECB6
:10463000102B51EC180B01F04BFF41EC100B2848EC
:10464000844210DA53EC192B51EC100B02F03CFAB7
:1046500053EC1A2B02F00CF941EC100B02B0BDEC3C
:10466000088B04B010BD1F48A042BCBF9FED1E1BAD
:104670008DED001B06DBA4F50010019000200090DA
:104680009DED001B51EC100B53EC112B02F01CFAAA
:104690009DED000B41EC180B53EC102B51EC1A0B59
:1046A00002F012FA41EC1A0B53EC192B51EC180BD7
:1046B00002F00AFA53EC1A2B02F0DAF841EC100B74
:1046C000CCE7000000000000000000000000F03F08
:1046D000DC30000000000000000000000000E03FAF
:1046E0003333D33F0000E93F000000000000D23F19
:1046F00070B504462DED028B4D1E00EBC500B0EEEB
:10470000408AF0EE608A90ED000B35F0060017D07D
:1047100053EC182B51EC100B01F0DAFE41EC100BAE
:104720006D1E04EBC50090ED001B51EC100B53EC1B
:10473000112B01F089FA41EC100B35F00600E7D19E
:10474000022D36D0042D1CD0062D1CBFBDEC028BD3
:1047500070BD53EC182B51EC100B01F0B9FE94ED29
:104760000A1B53EC112B01F06FFA53EC182B01F0DC
:10477000AFFE94ED081B53EC112B01F065FA41ECF0
:10478000100B53EC182B51EC100B01F0A1FE94ED23
:10479000061B53EC112B01F057FA53EC182B01F0C8
:1047A00097FE94ED040B53EC102B01F04DFA41EC05
:1047B000100B53EC182B51EC100B01F089FE94ED0B
:1047C000021B53EC112B01F03FFA53EC182B01F0B4
:1047D0007FFE94ED001B53EC112B01F035FABDEC7C
:1047E000028B41EC100B70BD31B504462DED040B6E
:1047F0002DED0A8BB0EE41BAF0EE61BA0B989DED4B
:104800000A0B20F00040B0F1795F0DDA51EC100B8B
:10481000FEF7F3FD042808BF00F0CAF89DED0A0B6F
:10482000BDEC0A8B05B030BD53EC102B51EC100BD6
:1048300001F04EFE41EC180B9DED0A0B53EC182BCA
:1048400051EC100B01F044FE41EC190B2C48B0EE7A
:10485000480AF0EE680A05217844FFF749FF9FED0A
:104860002ACBB0EE40AAF0EE60AA9CB353EC1C2B0E
:1048700051EC190B01F02CFE41EC1C0B53EC1A2BE4
:1048800051EC190B01F024FE9FED210B41EC190BAB
:1048900053EC102B51EC1B0B01F01AFE53EC192BAF
:1048A00002F012F953EC182B01F012FE53EC1B2B03
:1048B00002F00AF953EC1C2B02F006F99DED0A1BDD
:1048C00053EC112B01F0D4FFBDEC0A8B05B041EC89
:1048D000100B30BDFFE753EC1A2B51EC180B01F015
:1048E000F7FD53EC1C2B01F0AFF953EC192B01F041
:1048F000EFFD9DED0A1B53EC112B01F0A5F9E3E749
:104900006C2F000000000000495555555555C5BF96
:10491000000000000000E03F9FED070B10B553ECD6
:10492000102B9FED070B51EC100B01F0CDFA41EC71
:10493000100B10BD0000000000000000000000008F
:10494000000000000000F03F10B553EC102B51ECBC
:10495000100B01F079F941EC100B10BD10B553ECC0
:10496000112B51EC100B01F06FF941EC100B10BD45
:104970009FED050B10B553EC102B51EC100B01F013
:10498000A3FA41EC100B10BD000000000000000075
:104990009FED050B10B553EC102B51EC100B01F0F3
:1049A00097FD41EC100B10BD0000000000000070EE
:1049B0009FED050B10B553EC102B51EC100B01F0D3
:1049C00087FD41EC100B10BD00000000000000103E
:1049D00030380A2801D201207047002070470000BB
:1049E00000B58BB001210220FDF76AFE0E48009051
:1049F0000E480190002002908020ADF80C000020AD
:104A000004908020059040000690800007902020B0
:104A100008900002099000200A9069460448FDF7BA
:104A2000FCFC0BB000BD0000400400504E02002012
:104A30005804024000B58DB04FF48070FDF728FE99
:104A40005C48FDF725FE01210807FDF739FE01212D
:104A50004807FDF735FE01214FF0A040FDF728FB88
:104A600001215548FDF724FB01215448FDF720FBA7
:104A70004FF080414FF0A040FDF703FB4FF0A04006
:104A8000FDF707FB4FF080414B48FDF7FAFA4A4823
:104A9000FDF7FFFA4FF080414848FDF7F2FA47482A
:104AA000FDF7F7FA00BF4FF0A040FDF73AFA0028F3
:104AB000F9D100BF4048FDF734FA0028FAD100BF11
:104AC0003E48FDF72EFA0028FAD1009001904FF4ED
:104AD00000400290022003900A208DF810006946E1
:104AE000C006FDF7D9F969463348FDF7D5F969469F
:104AF0003248FDF7D1F90020059006904FF4307050
:104B000007904FF480600890002009900A900B9065
:104B100001208DF8300005A94FF0A040FDF714FAF0
:104B200003208DF83000002005904FF4107007909E
:104B30004FF48060089005A91F48FDF705FA012091
:104B40008DF8300005A91D48FDF7FEF90623012266
:104B500005211A48FDF718FA02214FF0A040FDF791
:104B6000D8F901214FF0A040FDF7C8F90221124801
:104B7000FDF7CFF901211048FDF7C0F902210F48D8
:104B8000FDF7C7F901210D48FDF7B8F901210B48E0
:104B9000FDF776F900BF01210848FDF7CCF90028A0
:104BA000F9D001210648FDF767FB0448FDF776FAC6
:104BB0000DB000BD002000100001005000040050A6
:104BC000580402401CB501214804FDF779FD01217C
:104BD0008804FDF775FDC020009003208DF80400C7
:104BE00000208DF8070069464FF09040FDF760FC0B
:104BF00047F60140009069460148FDF759FC1CBD8D
:104C00000004004810B5FFF7DDFF00F005F8FFF7DE
:104C1000E7FEFFF70FFF10BD1CB50C20FDF718FDD8
:104C20006846FDF72FFD00200090019069460C209A
:104C3000FDF716FD01210C20FDF7F4FC1CBD000062
:104C40001FB501214807FDF74BFD1848FDF760FA35
:104C50002420009000200190029003906A460021D9
:104C60001248FDF771FA012200211048FDF731FAD0
:104C7000012200210D48FDF73AFA242000908020FF
:104C8000019000200290022003906A4610210748FC
:104C9000FDF75AFA012210210448FDF71AFA40F2F2
:104CA000FF7200210148FDF764FA1FBD0074004047
:104CB00000B58DB001210846FDF702FD1F48FDF744
:104CC000E7FA1F4802901F480390102004908020AC
:104CD000ADF8140000200690802007904000089056
:104CE0008000099000200A904FF440500B90002063
:104CF0000C9002A91148FDF790FB01214803FDF734
:104D0000E5FF01218803FDF7E1FF0D208DF8040088
:104D100000208DF806008DF8050001208DF80700B1
:104D200001A8FDF73DFC012202210448FDF76CFBC0
:104D300001210248FDF7A0FA0DB000BD300002408D
:104D4000087400404E0300201CB501214804FDF703
:104D5000B7FC01210846FDF7E3FC3020009003205A
:104D60008DF804008DF8050000208DF807006946D5
:104D70004FF09040FDF79CFB1CBD000010B5802358
:104D800040F2FF724FF41B71044800F02FF9FFF757
:104D9000DBFFFFF755FFFFF78BFF10BD4E03002031
:104DA00010B50B480088401C094908800846008857
:104DB000C82190FBF1F201FB12000549088008466A
:104DC000008818B903A1002000F0B8FB10BD000056
:104DD000460000200D0A000082B0CDE9000121F05C
:104DE000004001909DED000B02B051EC100B70479C
:104DF00010B52DED0C8B82B09FED6C0AB0EE408AA1
:104E00009FED6A0A10EE104A6948008880B1684830
:104E1000008840F6FF71081A6549098890FBF1F097
:104E200000EB8000400000EE100AB8EEC08A03E0FC
:104E300060A1002000F082FB5D48408868B15C48BA
:104E4000408841F6FE7191FBF0F0801E00EE100AE2
:104E5000B8EEC00A10EE104A03E05AA1002000F09C
:104E60006DFB5C48D0F80510084602F02FF941ECC4
:104E70001C0B18EE100A02F029F941EC1D0BB0EEE4
:104E80004C1AF0EE6C1AB0EE4D0AF0EE6D0AFEF719
:104E9000CFFAB0EE40AAF0EE60AA4E48D0F801106A
:104EA000084602F013F941EC1B0B53EC1A2B01F0EE
:104EB0000FFB41EC190B00F065FD4649C1F81500E8
:104EC0000846D0F80D10084602F000F941EC1C0B22
:104ED000204602F0FBF841EC1D0BB0EE4C1AF0EE50
:104EE0006C1AB0EE4D0AF0EE6D0AFEF7A1FAB0EEC4
:104EF00040AAF0EE60AA3748D0F80910084602F040
:104F0000E5F841EC1B0B53EC1A2B01F0E1FA41ECF4
:104F1000190B00F037FD2F49C1F811002E48008809
:104F200000EE100AB8EE400A10EE100AC1F819009F
:104F30000020009001900846D0F8150000EE100AFD
:104F4000BCEEC00A10EE100A80B2ADF800000846B0
:104F5000D0F8110000EE100ABCEEC00A10EE100AE4
:104F600080B2ADF802000846D0F8190000EE100A31
:104F7000BCEEC00A10EE100A80B2ADF804000322A5
:104F800069464FF4805000F035FA094840881349CB
:104F900008800748008848800F48008888801048AB
:104FA0000088C88002B0BDEC0C8B10BD0000000072
:104FB0004E020020636F20616463203A20300D0AA6
:104FC00000000000683220616463203A20300D0A3E
:104FD0000000000030010020F20000200C01002041
:104FE000B400002010B5FFF703FF10BD2DE9F0411C
:104FF0002DED108B82B006460F4690461D460024CC
:105000003AE0404601F014FA41EC190B284601F051
:105010000FFA41EC1D0B204601F0E6F941EC1F0BA5
:105020009FED190B53EC102B01F052FA41EC1E0BC3
:1050300053EC1D2B00F048FFCDE900019DED000B66
:10504000FFF71EF8B0EE40BAF0EE60BA384601F055
:10505000EFF941EC1C0B53EC1B2B01F039FA41EC3E
:105060001A0B53EC192B00F0EFFD41EC180B01F07B
:105070004DF926F81400641CAC42C2DB02B0BDEC52
:10508000108BBDE8F0810000182D4454FB2119401D
:105090001CB501218804FDF713FB4FF4007000904C
:1050A00001208DF8040003208DF8050069460448AE
:1050B000FDF7FEF94FF400710148FDF767FA1CBDDA
:1050C0000004004810B5FFF7E3FF00F001F810BD41
:1050D00010B54FF400710248FDF758FA10BD0000FA
:1050E0000004004810B54FF400710248FDF750FA73
:1050F00010BD00000004004810B5044607480078C1
:1051000028B9012005490870FFF7E2FF04E00020FC
:1051100002490870FFF7E6FF10BD0000F80000200C
:1051200010B50C48007830B900F0F4FA0A4908606C
:10513000012008490870094801680748006800F024
:10514000EFFA30B10020034908700021044800F054
:10515000B3FA10BD04010020FC0000200001002073
:10516000F95000081949481EB0F1807F00D31BE0B8
:10517000481E4FF0E022506150170F22002807DA36
:1051800013071D0E124B00F00F04241F1D5503E0E2
:1051900013071C0E0F4B1C5400BF00204FF0E022E1
:1051A00090610720106100BF00F07CFAFFF78AFFD2
:1051B000FFF7E4FDFFF726FD00F019FB00F08EFB82
:1051C00003E0FFF7ADFF00F013FAFAE74019010022
:1051D00018ED00E000E400E030B502460B464FF663
:1051E000FF70002109E0555C4540ECB2044D35F8F4
:1051F000145085EA20204C1CA1B29942F3DB30BD4B
:105200004E040020F0B5C1B005460E464FF4807143
:1052100001A8FBF72FF90024002710480278214647
:10522000641C01A8425405F18000C2B22146641CEE
:1052300001A842542146641C4654611CFFF7CCFF70
:1052400007463A0A2146641C01A842542146641CC0
:105250004754214600F048FB41B0F0BD0501002055
:105260002DE9F04704460D464FF00009CA46207864
:105270001D490978884201D0BDE8F087A81E215C4D
:10528000681E205C41EA0029A81E81B22046FFF773
:10529000A3FF8246D14500D0EEE76678E078A1789A
:1052A00040EA01276079217940EA0128032E04D0E1
:1052B000042E03D0102E0ED106E000BF4246394620
:1052C000304600F013F80BE023464246394630469C
:1052D00000F0CAF804E001213046FFF793FF00BF59
:1052E00000BF00BFC8E70000050100202DE9F04322
:1052F000C1B007460C4616464FF4807101A8FBF773
:10530000B9F80025A846A946142E06DD0321384623
:10531000FFF778FF41B0BDE8F083B4F5805F03DAB2
:105320002F4800EB44091FE0B4F5005F05DAA4F54F
:1053300080502C4901EB400916E0B4F5405F05DAD6
:10534000A4F50050284901EB40090DE0B4F5804F69
:1053500005DAA4F54050254901EB400904E002219B
:105360003846FFF74FFFD5E7214802782846691CE9
:105370008DB201A90A542846691C8DB201A90F54A7
:105380007000C0F307222846691C8DB201A90A5497
:105390007006020E2846691C8DB201A90A547200DB
:1053A00048194946FAF7EFFF05EB460085B2294652
:1053B00001A8FFF711FF80462846691C8DB201A99C
:1053C00001F800804FEA18222846691C8DB201A915
:1053D0000A54294601A800F087FA00BF9AE70000A6
:1053E0004E060020760600209E060020C6060020FD
:1053F000050100202DE9F04104460E461546002720
:10540000B4F5805F03DA144800EB44071CE0B4F500
:10541000005F05DAA4F58050104901EB400713E066
:10542000B4F5405F05DAA4F500500D4901EB4007E3
:105430000AE0B4F5804F05DAA4F54050094901EBC4
:10544000400701E0BDE8F0816A0031463846FAF7CE
:105450009AFF00BFF6E700004E0600207606002007
:105460009E060020C60600202DE9F047C0B0074682
:105470000D46164698464FF480716846FAF7FAFFD3
:105480000024A146A246142E06DD03213846FFF76C
:10549000B9FE40B0BDE8F087B5F5805F03DA254876
:1054A00000EB450A04E002213846FFF7ABFEF0E7C7
:1054B000720041465046FAF766FF1F4802782046C0
:1054C000611C8CB20DF800202046611C8CB20DF8D6
:1054D00000702A122046611C8CB20DF80020EAB23E
:1054E0002046611C8CB20DF8002032122046611C4F
:1054F0008CB20DF80020F2B22046611C8CB20DF87F
:10550000002021466846FFF767FE814609F0FF024A
:105510002046611C8CB20DF800204FEA192220466B
:10552000611C8CB20DF800202146684600F0DCF9C1
:1055300000BFAEE74E060020050100200FB470B595
:10554000ADF5027D064688A8009040F2012101A831
:10555000009B879AFAF7DEFE044601A8FAF7F4FEEC
:1055600005462A4601A90548FDF7D2FB0020009018
:1055700020460DF5027D70BC5DF814FBF00A00209A
:1055800000B52DED048B83B041EC190B01F098F9B7
:1055900041EC180B18EE100A18EE901A8DED008BE6
:1055A000002818BF0120084320F00040C0F17F60B0
:1055B00000F1E040C00F14D019EE101A19EE900A55
:1055C0008DED009B002918BF0121084320F0004009
:1055D000C0F17F6000F1E040C00F04BF0120FAF786
:1055E000B9FF51EC180B03B0BDEC048B00BD0000FB
:1055F00010B54BE02A48B0F8F00000EB4000284915
:1056000001EB8000007A012809D10020B1F8F010E8
:1056100001EB4101224A02EB8101087212E02048AD
:10562000B0F8F000401C1E49A1F8F0000846B0F8A0
:10563000F000142190FBF1F201FB12001849A1F8CF
:10564000F00023E0164AB2F8F02002EB4202144BBD
:1056500003EB820250681A46B2F8F02002EB4202D5
:1056600053F8221088470E48B0F8F000401C0C494F
:10567000A1F8F0000846B0F8F000142190FBF1F218
:1056800001FB12000649A1F8F00000BF0448B0F881
:10569000F0000349B1F8F2108842ABD110BD000010
:1056A0002013002000200349A1F8F000A1F8F20027
:1056B00070470000201300203EB5009001910122A8
:1056C0008DF808200E4AB2F8F22002EB42020C4B91
:1056D00003EB82029DE8380038C2094AB2F8F22092
:1056E000521C074BA3F8F2201A46B2F8F2201423FA
:1056F00092FBF3F403FB1422014BA3F8F2203EBD0E
:105700002013002002480068401C014908607047CF
:1057100008010020014800687047000008010020CF
:1057200010B502460B4600210024FFF7F3FF0146A7
:10573000914203D2C2F1FF30441800E08C1A9C421F
:1057400001D9012010BD0020FCE700B58BB001217C
:105750000846FCF7C5FF08A8FDF7C0FC40F264400E
:1057600009900020ADF82000ADF82800ADF8220027
:1057700008A94FF08040FDF75DFC002211464FF074
:105780008040FDF74BFC20214806FDF74AFC4FF412
:105790000070069002208DF81C0003208DF81D007B
:1057A00000208DF81E0001208DF81F0006A94FF083
:1057B0009040FCF77DFE0A220921C806FCF7C3FED3
:1057C00001A8FDF721FC602001900020ADF8100039
:1057D0000120ADF80800C820039001A9C006FDF71C
:1057E000D3FB01218807FDF7B1FB0BB000BD10B55D
:1057F000FFF7ABFF10BD000000B587B001214804E2
:10580000FCF76EFF4FF4E060FCF702FF26208DF8F6
:10581000000000208DF801008DF8020001208DF8B5
:1058200003006846FCF7BCFE1848FDF7CBFC4FF4BC
:10583000E1300190002002900390049006900C202B
:10584000059001A91148FDF757FD012210490F48A5
:10585000FDF734FD01220F490C48FDF72FFD012112
:105860000A48FDF7A4FC00BF4FF480010748FDF78C
:10587000F7FC0028F8D000BF4FF400110348FDF7F3
:10588000EFFC0028F8D007B000BD00000044004045
:1058900005010500040104001CB501218804FCF782
:1058A0000FFF1820009002208DF8040003208DF8CF
:1058B000050000208DF8060069460748FCF7F8FD52
:1058C000072203210448FCF73EFE07220421024878
:1058D000FCF739FE1CBD00000004004810B5FFF7BE
:1058E000DBFFFFF789FF10BD70B505460E460024AB
:1058F0000BE0295D0648FDF77AFD00BF4021044812
:10590000FDF7AEFC0028F9D0641CB442F1DB70BD99
:105910000044004010B500290AD00878002807D0BC
:1059200005487844FAF7CEFD002801D0002010BDCC
:105930000248784410BD0000AA1F0000A21F00000A
:1059400010B500290AD00878002807D00548784407
:10595000FAF7B8FD002801D0002010BD02487844B5
:1059600010BD00009A1F0000921F000081F000414E
:10597000704780F00040704721F00041704720F0F0
:105980000040704721F00042A2F16052B2F5801F42
:1059900001F0004328BFD2F17E6C51D9F1EE10CA5C
:1059A0001CF4400F14D15FEAC00C43EAC20202EBC0
:1059B000507008BF70475FEA4C0C40F10000DFF800
:1059C00080C241F08D8228BF20F0010001F088BA2A
:1059D000C30001F0004343EAC20202EB507008BF6B
:1059E00070471B4248BF4FEA4C0C1CF4000F08BF25
:1059F000401CDFF84CC201F073BAC30001F0004351
:105A000043EAC20202EB507204BF104670471B42C9
:105A100048BF4FEA4C0C1CF4000FDFF824C218BF3B
:105A2000104641F05D8208BF521C12F4000F08BFFF
:105A3000104601F0558221F0004201F0004330E0B1
:105A400050EA410C04BF084670475FEA125CBCF1A3
:105A5000FE0F1ED1F1EE10CA1CF4400FCDD15FEA4B
:105A6000C00C9BD05FEA001C4FEAC20C4CEB507C90
:105A700004BFC2002CEAD27C1CF4000F04BF4CEA25
:105A80000300DFF8BCC101F02B8221F00042A2F13B
:105A90006052B2F5801F4FEA410C2ADB1CF5001F53
:105AA00016D2F1EE10CA1CF4806F06D02CF0005C08
:105AB0004CF0805CA1F140612AE04FF07F40DFF8BC
:105AC00084C143EA500001F00BBA084601F0B9BBAB
:105AD00070B500F0DDFD00BF000000B988000004D3
