:020000040800F2
:10000000A0950020F5020008C9300008292D00083D
:100010002D2D0008C7250008A7400008000000009B
:10002000000000000000000000000000F53700089C
:100030005329000800000000B93100088D3900087C
:100040000F0300080F0300080F0300080F03000848
:100050000F0300080F0300080F0300080F03000838
:100060000F0300080F0300080F030008852600088F
:100070000F030008212700080F0300080F030008E2
:100080000F0300080F0300080F0300080F03000808
:100090000F0300080F0300080F0300080F030008F8
:1000A0000F030008153A00080F0300080F030008AB
:1000B0000F030008CD3A00080F0300080F030008E3
:1000C0000F0300080F0300080F0300080F030008C8
:1000D0000F030008C53C0008A13D00080F030008FD
:1000E0000F0300080F0300080F0300080F030008A8
:1000F0000F0300080F0300080F0300080F03000898
:100100000000000000000000000000000F030008D5
:100110000F0300080F0300080F0300080F03000877
:100120000F0300080F0300080F0300080F03000867
:100130000F0300080F03000800000000000000008B
:100140000F0300080F0300080F0300080000000061
:10015000000000000000000000000000000000009F
:1001600000000000000000000F0300080F0300085B
:100170000F03000800000000000000000000000065
:10018000000000000F03000800F002F800F0A2F8E1
:100190000AA090E8000C82448344AAF10107DA45E2
:1001A00001D100F097F8AFF2090EBAE80F0013F092
:1001B000010F18BFFB1A43F001031847288A0000FB
:1001C000488A00000A4410F8014B14F00F0508BFDC
:1001D00010F8015B240908BF10F8014B6D1E05D013
:1001E00010F8013B6D1E01F8013BF9D1641E03D0EC
:1001F000641E01F8015BFBD19142E4D3704700001B
:100200000023002400250026103A28BF78C1FBD81F
:10021000520728BF30C148BF0B6070476E2900F0FD
:100220008784702900F0D185662908F057816529F7
:1002300008F05481672908F05181612908F0508144
:1002400003681B0A28BF41F08001692900F034844B
:10025000642900F03184752900F02E846F2900F0A4
:100260005E85782900F09D85E92900F0F984E4296C
:1002700000F0F684F52900F0F384EF2900F05B85A7
:10028000F82900F09C850368DB0928BF41F0800154
:10029000632901F0ED82732901F0F282E32901F074
:1002A000FD82F32901F00283002070471FB508F09A
:1002B0005DF801F051FB04000020002106F0DAFB9C
:1002C000401C60600020002106F0BEFBE0601FBD06
:1002D00010B510BD01F012FB1146FFF7E7FF05F066
:1002E00055FE01F0EFFB03B4FFF7F2FF03BC01F092
:1002F00055FC00000948804709480047FEE7FEE733
:10030000FEE7FEE7FEE7FEE7FEE7FEE7FEE7FEE7C5
:1003100004480549054A064B70470000A539000806
:1003200089010008A0350020A0950020A0750020BC
:10033000A07500202DE9F00F5FEA510C32D0044681
:1003400000EBCC0516466746D4ED012A95ED012A4F
:10035000D4ED001A95ED001A32EEC20A32EE222ACE
:1003600071EEC10AD6ED003AD6ED012A31EE811ABE
:1003700023EEA03A22EE804A23EE800A62EEA00A23
:1003800084ED001A33EE041A84ED012A30EE600A7F
:1003900085ED001A083485ED010A083506EBC30621
:1003A0007F1ED1D14FF6FF7A0AEA430BE146BCF13A
:1003B000020F44D966464FF000084FEA5C0C4446F1
:1003C00002EBC803D84493ED001AD3ED010A23468B
:1003D00003EB0C0700EBC30500EBC707D5ED001AD4
:1003E00097ED000A95ED012AD7ED012A31EE803A0A
:1003F00031EEC00A72EE621A72EE822A85ED003A80
:1004000020EE012A61EEA03A61EE811A20EE200A68
:10041000C5ED012A32EE232A334431EEC00A87EDBE
:10042000002A8B4287ED010AD2D3641CA445C7D8A9
:100430004FEA59090AEA4B0BB9F1020FBAD8002961
:1004400019BF491C5FEA5101BDE8F00F704700BFBA
:1004500090ED002AD0ED021A90ED011AD0ED032A9A
:1004600032EE610A72EE211A71EE620A32EE811AE0
:10047000C0ED001A80ED011A80ED020AC0ED030AFA
:100480001030491EE4D1BDE8F00F70472DE9F00FA0
:100490005FEA5109CC4633D0044600EBCC05164642
:1004A0004FEA090794ED002AD5ED001A94ED013AC0
:1004B000D5ED012A72EE610AD6ED004A33EE621ADA
:1004C000D6ED013A72EE832A24EEA03A23EE814A59
:1004D00072EE211A24EE811A63EEA00AC4ED001A0E
:1004E00073EE441AC4ED012A71EE200AC5ED001A1C
:1004F0000834C5ED010A083506EBC3067F1ED1D1CD
:100500004FF6FF7A0AEA430BB9F1020F45D9674665
:100510004FF000084FEA5C0C4FEA080502EBC803F5
:10052000D844D3ED001A93ED011A2B4603EB0C04CB
:1005300000EBC30600EBC40496ED002AD4ED000ADC
:1005400096ED013AD4ED012A72EE203A72EE600A7D
:1005500033EE622A32EE834AC6ED003A60EEA12AFB
:1005600022EE013A22EE212A60EE810A86ED014A4E
:1005700072EEC32A3B4472EE200AC4ED002A8B427D
:10058000C4ED010AD2D36D1CAC45C7D84FEA590956
:100590000AEA4B0BB9F1020FB9D8002919BF491C5F
:1005A0005FEA5101BDE8F00F704700BFD0ED002AAF
:1005B00090ED022A90ED031A90ED013A72EEC20A14
:1005C00032EE822A60EE801A71EE030A33EE411A8F
:1005D00022EE002A60EE800A21EE001A80ED002A49
:1005E000C0ED010AC0ED021A80ED031A1030491E59
:1005F000DCD1BDE8F00F704770B504460D46807839
:100600002188A389626801280ED02846FFF792FE50
:10061000E078012818BF70BDE28921882846A368C8
:10062000BDE8704000F006B894ED040A2846FFF7D4
:100630002DFFEDE72DE9F0014E0801244FF0000CED
:1006400004EB51076146A6F102082CE061452AD26D
:1006500000EBCC0500EBC104D5ED000A94ED000AD7
:10066000C4ED000A85ED000AD5ED010A94ED010AFA
:10067000C4ED010A85ED010ACC1900EBC4050CEBB1
:10068000070400EBC40495ED000AD4ED000AC5EDA3
:10069000000A84ED000AD4ED010A95ED010AC5EDCA
:1006A000010A84ED010A00EBC104B44400EBCC0C58
:1006B00094ED020ADCED000A891CC4ED020A8CEDFF
:1006C000000ADCED010A94ED030AC4ED030A8CED87
:1006D000010AB3F800C089B203EB42034145B5D922
:1006E000BDE8F00170472DE9F0074D0801244FF0F7
:1006F000000C04EB51066146A5F102082BE06145B0
:1007000029D250F8314050F83C7040F8317040F830
:100710003C4000EBC10900EBCC04D9F80470D4F8DC
:1007200004A0C9F804A067608C190CEB060750F808
:10073000349050F837A040F834A040F8379000EBE0
:10074000C40400EBC707D4F80490D7F804A0C4F899
:1007500004A0C7F8049000EBC104AC44A76850F8AB
:100760003C90C4F8089040F83C7000EBCC0CE76873
:10077000DCF80490C4F80C90CCF80470B3F800C016
:10078000891C03EB42034145B9D9BDE8F007704726
:100790002DE9F00F01244F0804EB51084FF0000C35
:1007A0007C0804BFBDE8F00F7047014600EB8805E8
:1007B000002614E0BCEB460F11D950F82CA0D1F85C
:1007C0000090C1F800A040F82C900CEB0809D5F877
:1007D00000A050F829B0C5F800B040F829A0BC44EA
:1007E00051F8049F50F82CA041F804AB40F82C902D
:1007F000B3F800C003EB4203641E05F1080506F1DF
:100800000106D7D1BDE8F00F704700007CB51D464A
:1008100016460C00009001D02044401E074B7B443C
:100820002A4669460190304600F09BF905461CB106
:100830000020694600F0A8F928467CBD710300003D
:1008400010B5431C02E010F8011B71B18107FAD109
:100850004FF0013202C88C1A8C4314EAC211F9D04D
:10086000C01A0A0603D0C01E10BDC01A10BD0A046B
:1008700001D0801E10BD0902FCD0401E10BD032A0D
:1008800040F2308010F0030C00F0158011F8013BAD
:10089000BCF1020F624498BF11F801CB00F8013B94
:1008A00038BF11F8013BA2F1040298BF00F801CB58
:1008B00038BF00F8013B11F0030300F05583083AFC
:1008C000C0F0088051F8043B083A51F804CBA0E886
:1008D0000810F5E7121D5CBF51F8043B40F8043BDB
:1008E000AFF30080D20724BF11F8013B11F801CB10
:1008F00048BF11F8012B24BF00F8013B00F801CBE1
:1009000048BF00F8012B70474FF0000200B51346B6
:1009100094469646203922BFA0E80C50A0E80C501F
:10092000B1F12001BFF4F7AF090728BFA0E80C50D0
:1009300048BF0CC05DF804EB890028BF40F8042BC9
:1009400008BF704748BF20F8022B11F0804F18BF36
:1009500000F8012B704700004FF0013C50F8042BC9
:1009600051F8043B9A4221D1A2EB0C03934313EAC2
:10097000CC1317D150F8042B51F8043B9A4215D1EF
:10098000A2EB0C03934313EACC130BD150F8042BC6
:1009900051F8043B9A4209D1A2EB0C03934313EAAA
:1009A000CC13DBD04FF00000704700BFD01A01BA63
:1009B000B1FA81F101F0180122FA01F0CB40C1F146
:1009C0002001DBB2C0B2C01A2CFA01F3D11A914354
:1009D00011EAC311E6D1704770477047704710B5F0
:1009E00000F0F4FA006810BD10B5044600F0EEFA0D
:1009F000046010BD70B5044685690068C10601D564
:100A0000302600E02026C00707D070BDD4E90121C0
:100A100030469047206A401C20626D1EF6D570BD9E
:100A200070B5044685690078C00707D170BDD4E968
:100A3000012120209047206A401C20626D1EF6D5BF
:100A400070BD09684A0501D540B27047C905FCD59B
:100A500000B2704709684A0501D5C0B27047C905A0
:100A6000FCD580B2704770B50C460546012A05D00A
:100A70002878800600D5EA69002302E0012305E01A
:100A80005B1C934202D2E05C0028F9D1A869E61809
:100A9000C01AA861286A184428622846FFF7AAFFEE
:100AA00004E0D5E9012114F8010B9047B442F8D3D2
:100AB0002846FFF7B5FF70BD2DE9F041064600243A
:100AC00010687529314616A510D0FFF7BAFF002827
:100AD00002DA404213A507E031688A0701D512A562
:100AE00002E0490704D511A5012401E0FFF7B2FF98
:100AF00000210A2206F1240709E0B0FBF2FCB0FB5A
:100B0000F2F302FB1C00303078541846491C0028D0
:100B1000F3D123462A463046BDE8F04100F0B8BA8A
:100B2000000000002D0000002B000000200000004D
:100B300011680268006A530501D508700AE0D30500
:100B400001D5088006E0130603D5C217C1E90002EB
:100B500000E008600120704701694A1C02610878C2
:100B6000704700B58FB0CDE90131002105910549ED
:100B70007944CDE903101146684600F031F90FB011
:100B800000BD0000E5FFFFFF0A6802F8010B0A60E4
:100B90007047D1E900239A4202D2531C0B601070B7
:100BA000704700002DE9FF5F15468A460446DFF8CE
:100BB000AC80F8440027D8E900103E46CDE900108B
:100BC00010E03AF816106A4602A800F073FE411CC5
:100BD00007D02178890603D5E269391891420DD8EA
:100BE0000744761C2078800602D5E069B84205DD0E
:100BF000AE42E6DB3AF816000028E2D1A069C01B3D
:100C0000A0612046FFF7F6FED8E90010CDE90010FC
:100C1000002017E03AF818106A4602A800F04AFED1
:100C2000B0F1FF3F81460BD000250DF1080B05E028
:100C3000D4E901211BF8050090476D1C4D45F7D301
:100C400008F10100B0428046E4DB206A38442062AB
:100C50002046FFF7E5FEBDE8FF9F0000027E000092
:100C60002DE9F0418046D21D22F007020025D2E98D
:100C70000002F52915A614D0011E72F1000106DA52
:100C80000023D0EB030063EB020211A608E0D8F8C2
:100C900000108B0701D50FA602E0490701D50EA66B
:100CA00001251146002408F1240704E000F092F920
:100CB00030323A55641C50EA0102F7D12B463246D5
:100CC00021464046BDE8F04100F0E2B900000000D6
:100CD0002D0000002B0000002000000030B4002197
:100CE00000F1240408E002F00705D208303542EA9A
:100CF0004372DB086554491C52EA0305F3D10468CA
:100D0000002310A2250707D5A40600D421B1C46989
:100D100001230DA2641EC46130BC00F0B9B910B546
:100D2000044621461068FFF795FE02462046BDE8BE
:100D300010400023D2E7D21D22F00701D1E90023A1
:100D4000CCE700000000000030000000F0B40D46C9
:100D50000188090502D5214C7C4402E01F4C7C44EB
:100D60000E34002100F1240608E002F00F071209FA
:100D7000E75D42EA03721B097754491C52EA0307F4
:100D8000F3D102780023120704D5702D06D009B1E3
:100D9000022311342246F0BC00F07AB9012310344A
:100DA000F8E770B504460D4621461068FFF752FE7D
:100DB000024629462046BDE870400023C6E7D21D02
:100DC00022F00703D3E90023C0E70368126843F069
:100DD000200303600823C3610023B7E7647C00009D
:100DE0002DE9F05F894604464FF0000ADFF874B140
:100DF000FB44C0F820A02046E1688847002874D052
:100E0000252806D0D4E901219047206A401C2062A1
:100E1000F1E700265F462046E1688847202805461E
:100E200007DB312D05D2781910F8200C08B10643E4
:100E3000F1E7B00701D526F00406C4F81CA000278E
:100E4000C4F818A02A2D09D0284604F039FC38B37C
:100E500004EB8708303DC8F8185019E059F8041B16
:100E6000204604EB87029161E1688847012F05461F
:100E700018D1E069002820DA26F020061DE0D8F815
:100E8000180000EB800005EB40003038C8F818006F
:100E90002046E1688847054604F012FC0028EED1A0
:100EA000012F0AD02E2D08D12046E16888477F1CEB
:100EB0000546022F46F02006C4DBA069002803DAAD
:100EC000404246F00106A061F00701D026F010066E
:100ED0006C2D0BD0682D09D04C2D39D06A2D35D012
:100EE000742D35D07A2D33D016E038E0E1682F46E6
:100EF00020468847B842054609D16C2F26D04FF4CA
:100F00008060E168064320468847054604E06C2F70
:100F10001AD04FF4807006430DB3A5F14100192893
:100F200002D8203546F400664A4629462046266007
:100F30004E46FFF773F980B101280BD0F61D26F05D
:100F4000070000F1080956E74020E4E78020D8E7D1
:100F50000020D6E706F104094DE7284652E7206A4B
:100F6000BDE8F09FF47B000010B5203AC0F00B8084
:100F7000B1E81850203AA0E81850B1E81850A0E89D
:100F80001850BFF4F5AF5FEA027C24BFB1E81850F7
:100F9000A0E8185044BF18C918C0BDE810405FEA67
:100FA000827C24BF51F8043B40F8043B08BF7047E3
:100FB000D20728BF31F8023B48BF11F8012B28BFE8
:100FC00020F8023B48BF00F8012B704700487047EB
:100FD0003C35002030B5B0F10A024FEA900E71F1B5
:100FE00000034EEA817EB0EB0E0061EB91014FEA07
:100FF000101E4EEA017E10EB0E0041EB11114FEA7C
:10100000102E4EEA016E10EB0E0041EB11214FEA5B
:10101000104E4EEA014E10EB0E0041EB114140180C
:1010200041F100014FEAD00040EA41704FEAD1019E
:1010300010EB80054FEA810444EA907444EB01040C
:101040006D1944EB0404521BA3414FF0000348BF49
:101050000A3200D530BD401C41F1000130BD000016
:101060001FB584B000200A9C06AB04AA02A9009414
:10107000AFF3008018B1DDE9020108B010BD0348EC
:10108000204000F028FD00200146F6E70000207C0B
:101090002DE9F0470D4699469246044600F1240892
:1010A0000168880604D5E06921F01001216000E0A4
:1010B0000120A84201DD471B00E00027A1697A1941
:1010C00002EB0900081AA0612078C00602D420466D
:1010D000FFF790FC002608E0D4E901211AF8060089
:1010E0009047206A401C761C20624E45F4DB207835
:1010F000C0060AD52046FFF77DFC06E0D4E90121B1
:1011000030209047206A401C2062381EA7F101075A
:10111000F4DC07E0D4E9012118F805009047206AC3
:10112000401C2062281EA5F10105F3DC2046FFF7D4
:1011300077FC2078000602D50220BDE8F087012068
:10114000FBE770472DE9FF4F0C461E464FF0FF3777
:101150008BB0D2E90001DDF860800A908A46C1F3C5
:101160000A5505B93D460021084607F0A7F9BAF12E
:10117000000F00F4400005DA00EB80004FF440015E
:1011800001EA50004FEA9059B9F1010F00DDB9466C
:101190000A9850EA4A000ED044F61050A5F2FF35E6
:1011A00045432F14B8F1000F1ED07542291E1EDDD5
:1011B000C9F100021CE0B8F1010F4FF0000001D0AE
:1011C000302103E0F24305E02154401CB042FBDB38
:1011D00030460022002121540B99C1F80880C1E952
:1011E00000200FB0BDE8F08FBD1B6D1CDEE74A4646
:1011F00000DA694206A800F0F3FB06AB93E80700AB
:1012000003AB83E8070050460A9900F0EDFC8DE837
:101210000700A0F500501F3800900398002D0ADD4C
:1012200042F21F014A460844002303A9039068467E
:1012300000F056FF09E0A0F500504A461F38002391
:1012400003A90390684600F060FF8DE807000004E2
:10125000000C03D04FF0FF30410800E01046B8F119
:10126000000F03D00022009215461EE0751E05D423
:10127000FFF7B0FE303262556D1EF9D5B34601223C
:10128000084302D000227F1C04E02078302801D1DE
:1012900000227F1E002A099784D01DE0112D07DA55
:1012A000FFF798FE303262556D1C50EA0102F5D10D
:1012B000084302D00098C8B10EE00021681E05E086
:1012C000235C625C63542254401E491C8142F7DB5C
:1012D000AB46A81B401E0990002004F80B000B9899
:1012E000099AC0F80880C0E9002B7AE711264FF070
:1012F000000857E72DE9F04F88460446D21D22F03A
:10130000070191B0D1E90001CDE90A0102F0CDFE5B
:1013100002460B98C00F01D02D2007E020688107FE
:1013200001D52B2002E0202101EAC000032A099008
:1013300001D0072A05DB03464146204600F010FB9A
:101340000BE12078800601D5E06900E00620B8F1C5
:10135000650F814606D0B8F1660F18D0B8F1670F57
:1013600070D131E00020B9F1110F009001DB1123A1
:1013700001E009F101030AAA01A90CA8FFF7E2FEA6
:10138000DDE90C70002609F10105834647E00120E4
:101390004B4600904FF000470AAA01A90CA8FFF79E
:1013A000D1FEDDE90DB00C995D46002610B909F1BA
:1013B00001000D18B9EB050003D4C0F1FF3609F1A7
:1013C0000105A5EB09002BE0B9F1010F01DA4FF09F
:1013D00001090020B9F1110F0090484601DD1123E9
:1013E00000E003460AAA01A90CA8FFF7ABFEDDE95D
:1013F0000C704D4600268346207800070AD4AB4582
:1014000000DA5D4601A8012D04DD411911F8011C27
:10141000302907D04F4502DA17F1040F04DA012012
:1014200082460FE06D1EEEE7002F02DCED1B3E440E
:1014300003E0781CA84200DD7D1CB81B00F1010A06
:101440004FF000472078000703D4AA4501DB4FF096
:10145000FF3A0021B7F1004F0DF143088DF843101A
:1014600024D002202B23002F01DA7F422D230A21D2
:10147000021EA0F1010000DC5FB197FBF1FC97FBBD
:10148000F1F201FB1C7C17460CF1300C08F801CD81
:10149000EEE7A8F1010003702188090501D5452177
:1014A00000E06521A0F1010800F8011C09980FA9CE
:1014B000A1EB0807FF1D00B10120411901EBEA7003
:1014C000A1693844081A401EA0612078C00602D4E1
:1014D0002046FFF78FFA099828B1D4E901219047F7
:1014E000206A401C20622078C00622D52046FFF7E3
:1014F00081FA1EE0002E04DBB34502DD01A8805D09
:1015000000E03020D4E901219047206A401C20628D
:10151000761CAAF101005FEA000A0AD100F01CFA69
:10152000C0680168405CD4E901219047206A401CF2
:101530002062281EA5F10105DCDC07E0D4E90121C9
:1015400018F8010B9047206A401C2062381EA7F152
:101550000107F3DC2046FFF763FA032011B041E6F0
:101560002DE9F04F04460D46D21D22F0070089B048
:10157000D0E900974846394602F097FD0246F80F39
:1015800001D02D2307E02068810701D52B2302E03D
:10159000202101EAC0038DF820300BB1012000E0CA
:1015A0000020032A824601D0072A04DB2946204670
:1015B00000F0D6F93FE12078800601D40D2500E047
:1015C000E569C7F30A560D2D49DA00214FEA175B8A
:1015D000084606F073FF002F00F4400007DA00EB26
:1015E00080004FF4400100EBD07001EA60008115EB
:1015F000012901DD4FF0FF3100224FEA850CBCF1DB
:10160000180F06D31346ACF118004FF08052C240B9
:1016100003E04FF4801323FA0CF30CF10C0CBCF133
:10162000200F04D3ACF1200C09FA0CF001E007FA0A
:101630000CF000294FF0004801DD18B90FE00ED181
:1016400040450CD319EB02095F4121B9404502D155
:101650009F4329EA0209BBEB175F00D0761C208864
:10166000000502D57B48784402E07A48784419386E
:1016700008AA302302F80A30037C0AF10101002E87
:101680000AF1020A53546A4602DC4FF0300101E0CD
:101690004FF031014FF001088DF8001002D0A6F292
:1016A000FF3603E059EA470100D06B4E002D02DC03
:1016B0002178090704D54FF002082E218DF801107A
:1016C000C44600210BE0C7F303433F01C35C491C40
:1016D0006D1E02F80830052908F1010801DA002D15
:1016E000F1DC00210CE000EB1973491C1B786D1E26
:1016F000082902F808304FEA091908F1010801DA4F
:10170000002DF0DC21688B0602D516E0A8F1010857
:10171000E04505DD02EB080313F8013C302BF5D062
:10172000B8F1000F09DD02EB080313F8013C2E2B82
:1017300003D1090701D4A8F10108002D05DD3E21E0
:1017400002F808106D1E08F10108407C002E02F816
:10175000080008F1010804DA2D20764202F808009A
:1017600002E02B2002F808000A214FF47A7086422A
:1017700008F101080BDB96FBF0F3303302F8083078
:1017800096FBF0F308F1010800FB136601E0642EFC
:101790000CDB642096FBF0F3303302F8083096FB44
:1017A000F0F308F1010800FB136601E00A2E06DBE6
:1017B00096FBF1F0303002F8080008F1010896FBC2
:1017C000F1F001FB1060303002F80800A16908F167
:1017D000010808EB050202EB0A00081AA061207854
:1017E000C00602D42046FFF705F9216A08AE01EBD6
:1017F0000A00206204E0D4E9012116F8010B9047A9
:10180000BAF1010AF7D22078C00602D52046FFF7C8
:10181000F1F86E4609E016F8010B3E280FD0D4E926
:1018200001219047206A401C2062B8F10108F2D2E1
:101830002046FFF7F5F809B00320BDE8F08F206AD5
:101840002844206203E0D4E90121302090476D1E36
:10185000EBD3F8E7D174000002FCFFFF10B5436939
:1018600013B1AFF3008001E0FFF7FDF8012010BDD8
:10187000127800F124010A7000224A700122EDE77B
:1018800011684FF0FF32E9E710B5436913B1AFF3C8
:10189000008001E0FFF786F9012010BD128800F1F9
:1018A000240182840022C2840122EDE711684FF0F6
:1018B000FF32E9E770B516460C46054600F044F8DD
:1018C000036893F80101012806D0FF2C0FD8185D9A
:1018D00068B101202C7070BDD3F807013246214653
:1018E00003F2071303442846BDE8704018474FF041
:1018F000FF3070BD004870473C3500207546FFF74B
:10190000F9FFAE4605006946534620F007008546BC
:1019100018B020B5FEF7FCFCBDE820404FF00006F3
:101920004FF000074FF000084FF0000B21F00701C7
:10193000AC46ACE8C009ACE8C009ACE8C009ACE80A
:10194000C0098D467047000010B500F005F8001D75
:1019500010BD00BF21510000004870475C350020D9
:101960002DE9F0411F46044603260168072A01F4C9
:10197000006004DB08B116A505E016A503E008B178
:1019800015A500E015A521F010002060A069C01E7B
:10199000A0610FB1401EA0612046FFF72BF84FB1A8
:1019A000D4E9012138469047206A401C2062C01CBF
:1019B000206206E0206AFAE7D4E9012115F8010B5C
:1019C0009047761EF8D22046FFF72AF8BDE8F0814E
:1019D0004E414E006E616E00494E4600696E6600D3
:1019E0002DE9F047814616468AB0354878440DC83F
:1019F0008DE80D0032487844801C03AC0DC884E8A3
:101A00000D0041F69B300844372190FBF1F290FB2A
:101A1000F1F5A5F1800501FB12041B3C02D56442DF
:101A2000012000E00020DFF898A080460027FA445B
:101A3000AAF1BE0A0EE0E0070AD03246684607EB7C
:101A4000470101230AEB810100F05FFB8DE80700ED
:101A500064107F1C002CEED1194F7F44AE3F19E07B
:101A6000E80715D007EB04100DF1180A90E80E00F6
:101A70008AE80E00C068F04201D1981908903246F9
:101A8000012306A903A800F040FB03AB83E807008D
:101A90006D10641C002DE3D14FF0010332466946FE
:101AA000B8F1000F03A802D000F01AFB01E000F02B
:101AB0002CFBC9E90001C9F808200AB0BDE8F0878D
:101AC000DC71000010B50446AFF300802046BDE88D
:101AD0001040FEF708BC10B500F00AF8BDE8104051
:101AE00000F001B87047002801D000F057B87047E7
:101AF00010B5022803D0410103D50DA112E000204A
:101B000010BD010101D50FA10CE0C10001D511A14B
:101B100008E0810001D512A104E0400001D513A125
:101B200000E0002115A000F03FF8012010BD0000EA
:101B3000496E76616C6964204F7065726174696F7B
:101B40006E000000446976696465204279205A6518
:101B5000726F00004F766572666C6F770000000050
:101B6000556E646572666C6F77000000496E65782B
:101B700061637420526573756C7400005349474665
:101B800050453A2041726974686D657469632065D7
:101B90007863657074696F6E3A20000001491820FF
:101BA000ABBEFEE72600020070B505460C460A20D3
:101BB00000E06D1C00F011F835B128780028F8D14C
:101BC00002E0641C00F009F814B120780028F8D174
:101BD000BDE870400A20AFF3008008B569468DF873
:101BE00000000320ABBE08BD5FEA400C08BF91F0C7
:101BF000000F4FEA8C234FEAC12243EA51514FEACA
:101C00001C5018BF00F5F0404FEA300018BF41F0FB
:101C100000415FEA6C5C00F02980BCF1FF3F08BF27
:101C200040F080407047130C06BF12044FF0100CB8
:101C30004FF0000C130E04BF12020CF1080C130F2E
:101C400004BF12010CF1040C930F04BF92000CF1BD
:101C5000020CD30F04BF52000CF1010C11464FF0DF
:101C60000002A0F11F00A0EB0C00704711F0004F24
:101C700008BF704731F000413FF4D5AF0B0C06BFF1
:101C800009044FF0100C4FF0000C0B0E04BF0902BA
:101C90000CF1080C0B0F04BF09010CF1040C8B0FA5
:101CA00004BF89000CF1020CCB0F04BF49000CF1FA
:101CB000010CCCF12003A0EB0C0022FA03F302FA92
:101CC0000CF241EA030100F10100704720F07F4C63
:101CD00080EA030023F07F47ACEB070303F57C5356
:101CE00000F0004003F1FF032DE980494FEA154B56
:101CF00009B44FEA144325EA0B4E24EA03480FF2D5
:101D0000042606EB132749083E785FEA320203FBFC
:101D10000667C7F5000707FB06F64FEA54374FEA98
:101D2000D64606F1020607FB066CCCF1005C4FEAD2
:101D30001C472CEA074C07FB06F40CFB06F504EBEA
:101D400015464FEA961634BF00204FF000404FEA88
:101D5000D13706FB07FC4FEA1C4C0CFB0BF7D21BE0
:101D600003FB0CF761EB07010CFB0EF7B0EB074030
:101D700072EB17420CFB08F734BFA2EB0742B2EB41
:101D8000074261EB17414FEA0C444FEA910706FB0B
:101D900007FC4FEA1C4C0CFB0BF7B0EBC74072EB97
:101DA000573203FB0CF734BFA2EBC742B2EBC7427A
:101DB00061EB57310CFB0EF7B0EBC70072EB5772BB
:101DC0000CFB08F734BFA2EBC702B2EBC70261EB12
:101DD0005771039F4FEA816141EA921104EBCC04F1
:101DE0004FEAD1374FEA826206FB07FC42EA9012C3
:101DF0004FEA80604FEA1C4C0CFB0BF7D21B03FB35
:101E00000CF761EB07010CFB0EF7B0EB074072EB30
:101E100017420CFB08F734BFA2EB0742B2EB0742B4
:101E200061EB17414FEA8C554FEA910704EB9C2474
:101E300006FB07FC4FEA1C4C0CFB0BF7B0EBC74052
:101E400072EB573203FB0CF734BFA2EBC742B2EB85
:101E5000C74261EB57310CFB0EF7B0EBC70072EBDA
:101E600057720CFB08F734BFA2EBC702B2EBC702F4
:101E700061EB577115EB4C254FEA816141EA9211F4
:101E80004FEA82624FEAD13742EA901206FB07FC22
:101E900044F100044FEA80604FEA1C4C0CFB0BF746
:101EA000D21B03FB0CF761EB07010CFB0EF7B0EB49
:101EB000074072EB17420CFB08F734BFA2EB074256
:101EC000B2EB074261EB174115EB1C154FEA81316C
:101ED00041EA92414FEA823242EA90424FEA803030
:101EE0004FEA0C7644F1000448EA03434EEA0B48FB
:101EF0004FF0000EB2EB080C71EB030724BF6246F3
:101F000039464EEB0E0E4FF0000B0018524149417E
:101F10004BEB0B0BB2EB080C71EB03077BF1000BE7
:101F200024BF624639464EEB0E0E4FF0000B0018F0
:101F3000524149414BEB0B0BB2EB080C71EB030721
:101F40007BF1000B24BF624639464EEB0E0E51EA80
:101F5000020718BF46F0010616EB0E7655F1000297
:101F600054F1000103D5BDE88901BDE80088BDE852
:101F70008901BDE80048B619524141EB0101A3F1C6
:101F80000103704780807F7E7D7C7B7A79787776CD
:101F900076757473727171706F6E6E6D6C6C6B6A46
:101FA0006A696868676666656464636362616160E4
:101FB000605F5F5E5E5D5D5C5C5B5B5A5A59595861
:101FC00058575756565555555454535352525251CB
:101FD000515050504F4F4F4E4E4D4D4D4C4C4C4B21
:101FE0004B4B4A4A4A494949484848474747474668
:101FF00046464545454444444443434343424242A4
:1020000042414141002B9C4630D477002BD01CB577
:102010004FEA370703B44FF010004FF01001BAF148
:10202000000F06D0BCF1000FDCBF40F0080040F00C
:10203000080106F043FA0FBCBDE810400BF1010B9C
:10204000BBF1010F08BF5FEA170722BF12F10102BF
:1020500011F101014FF0004143F1000300F0004095
:1020600043EA00007047F9D35708D0E746EA06462E
:1020700013F1400F4FEA16461FDD13F1200FDFBFAB
:1020800016430A46002120335B42BED0C3F120072D
:1020900046EA064602FA07F74FEA164646EA0706F8
:1020A000C3F1200722FA03F201FA07F721FA03F13C
:1020B0004FF0000342EA0702A7E746EA020646EAB3
:1020C00006464FEA164646EA0106BCBF46EA064601
:1020D000360C4FF000034FF000024FF0000194E780
:1020E0002DE9804C9A46934670B491E8380007C8B1
:1020F00031EA400C48BF34EA430C03D5FFF7E6FD54
:10210000FFF780FFF0BCBDE8008C2DE9804C9A46BB
:10211000934670B491E8380007C810F0804F08BFAC
:1021200013F0804F03D100F005F8FFF76BFFF0BC10
:10213000BDE8008C20F07F4780EA030023F07F4C4D
:1021400007EB0C03A3F57C5300F00040A3F1FE0362
:1021500092F0000F00F0B38095F0000F00F0778050
:102160002DE901494FEA11404FEA144621EA00489F
:1021700000FB06FC24EA064708FB06F607FB08F806
:1021800000FB07F718EB06484CEB164C4FEA124BD6
:1021900018EB07484FEA15464CEB174022EA0B4E66
:1021A0000BFB06FC25EA06470EFB06F607FB0EFEB8
:1021B0000BFB07F71EEB064E4CEB164C4FF00006E0
:1021C0001EEB074E4CEB174B18EB0B0840F10000D1
:1021D00018EB0E0B58EB000840F100008F1A4FF07F
:1021E00000013CBFC943661B14BFB5EB040C0021C2
:1021F0003CBFC943F61B4FEA17444EEA8E0E27EA4E
:1022000004454FEA1C4704FB07622CEA074C05FB18
:1022100007F70CFB05F604FB0CFC16EB074642EB3C
:10222000174216EB0C4642EB1C421BEB060658EB22
:102230000202414146EA9E0601D5BDE80189B61970
:10224000524141EB0101A3F10103BDE801894FEACD
:1022500014454FEA114724EA054621EA074C05FBDD
:1022600007F406FB07F70CFB06F105FB0CFC11EB72
:10227000074144EB17444FEA124711EB0C4144EB82
:102280001C4422EA074C05FB07F206FB07F70CFB90
:1022900006F605FB0CFC16EB074642EB174216EB65
:1022A0000C4642EB1C456A1854F1000148BF7047C8
:1022B000B619524141EB0101A3F10103704795F0BA
:1022C000000F37D04FEA11424FEA144721EA024685
:1022D00024EA074C02FB07F106FB07F70CFB06F4A8
:1022E00002FB0CFC14EB074441EB17414FEA154786
:1022F00014EB0C4441EB1C4125EA074C02FB07F5AB
:1023000006FB07F70CFB06F602FB0CFC16EB074678
:1023100045EB174516EB0C4645EB1C42121951F1E3
:10232000000148BF7047B619524141EB0101A3F1CA
:10233000010370474FEA14454FEA114724EA054666
:1023400021EA074C05FB07F106FB07F70CFB06F239
:102350004FF0000605FB0CFC12EB074241EB174166
:1023600012EB0C4251EB1C4148BF7047921841EBF5
:102370000101A3F10103704721B1826842F001021B
:10238000826003E0826842F00202826070470000CF
:1023900010B50022B0F1A04F02D0124B984204D1E8
:1023A000114B1A68114B1A4003E0114B1A680F4B7E
:1023B0001A40D1E9003423438C682343CC6843EAB4
:1023C00044330C7C43EA04231A43B0F1A04F02D0FB
:1023D000044B984202D1044B1A6001E0044B1A608E
:1023E00010BD00000001005008030050E010FCFF89
:1023F0000807005021B1C26842F00102C26003E048
:10240000C26822F00102C2607047C26822F0020274
:10241000C260C2680A43C2607047014600208A68F1
:1024200002F000420AB1012000E00020704702469D
:10243000002013680B400BB1012000E00020704722
:1024400010B502460020D0680C4B1840D1E900348A
:1024500023438C682343CC6823430C6923434C6992
:1024600023438C6923431843D060106B20F00F0086
:102470000B7F5B1E1843106310BD000007C0FFFDFB
:10248000F0B50C461D4600BF00BF052A0FDA016BF0
:1024900002EB420677001F2606FA07F3994302EB88
:1024A0004206760004FA06F3194301633CE00A2A67
:1024B00011DA416B561F06EB460677001F2606FA17
:1024C00007F39943561F06EB4606760004FA06F317
:1024D0001943416328E00F2A13DA816BA2F10A063F
:1024E00006EB460677001F2606FA07F39943A2F18A
:1024F0000A0606EB4606760004FA06F319438163E2
:1025000012E0C16BA2F10F0606EB460677001F260C
:1025100006FA07F39943A2F10F0606EB460676008A
:1025200004FA06F31943C163092C14DD8169A4F18F
:102530000A0606EB4607072606FA07F386699E4356
:1025400086618669A4F10A0707EB470705FA07F7D2
:102550003E43866110E04169661E06EB4607382659
:1025600006FA07F346699E434661466904EB440751
:1025700005FA07F73E434661F0BD826822F08042CB
:10258000826082680A4382607047816841F000413E
:1025900081607047816841F0040181607047816803
:1025A00041F0100181607047826822F040528260E1
:1025B00021B1826842F08052826003E0826842F07A
:1025C00000528260704700BFFEE710B52AB1036871
:1025D00001248C402343036004E0036801248C4001
:1025E000A343036010BD10B532B103684FF48054AB
:1025F0008C402343036005E003684FF480548C4013
:10260000A343036010BD000010B504460B4884428C
:1026100009D10121480700F009FE00214FF00050C8
:1026200000F004FE08E00121880600F0FFFD002113
:102630004FF0806000F0FAFD10BD00000074004013
:1026400070B500230024036840F6FE758D40AB434F
:10265000D2E90056354396683543D66845EA060404
:1026600004FA01F52B43036070BD18B500230093F5
:10267000009001F11403009C23440093009B1A6016
:1026800018BD000010B5022000F024F900283ED04B
:10269000022000F05FF81E480078401C1C490870BA
:1026A00008460078802805D11A480078012801D111
:1026B0001949087016490878C11700EB5161C91112
:1026C000A0EBC111124A11704FF0A040FFF767FF55
:1026D0000021124800F04CF88021104800F037F932
:1026E00000210E48283000F043F880210B482830A4
:1026F00000F02DF901210948283000F039F80121B6
:10270000064800F035F84FF0A040FFF743FF10BD3A
:10271000B3000020930000203C000020080002408D
:1027200010B54FF4007000F0D5F878B14FF4007098
:1027300000F010F80021064800F01AF88021044843
:1027400000F005F90121024800F012F810BD000068
:102750003000024000F0805111B10349086001E0EF
:102760000249486070470000040402400000024033
:1027700021B1026842F00102026004E002684FF6F3
:10278000FE731A400260704701684FF6FE721140F6
:1027900001600021016041608160C1604B49884255
:1027A00008D14A490839496841F00F01474A083AB7
:1027B00051608AE045491431884208D143490839BB
:1027C000496841F0F001414A083A51607DE03F49D3
:1027D0002831884208D13D490839496841F470617F
:1027E0003A4A083A516070E038493C31884208D191
:1027F00036490839496841F47041344A083A516011
:1028000063E032495031884208D13049083949687B
:1028100041F470212D4A083A516056E02B49643149
:10282000884208D129490839496841F47001274A8A
:10283000083A516049E025497831884208D1234956
:102840000839496841F07061204A083A51603CE01B
:102850001F49884206D1011F096841F00F01021F7C
:10286000116032E01A491431884208D11849091F11
:10287000096841F0F001164A121F116025E0144961
:102880002831884208D11249091F096841F4706152
:102890000F4A121F116018E00D493C31884208D1DF
:1028A0000B49091F096841F47041094A121F116060
:1028B0000BE007495031884207D10549091F0968D3
:1028C00041F47021024A121F116070470800024053
:1028D0000804024001460020002201F0805313B199
:1028E000054B1A6801E0054B1A6802EA01030BB1B7
:1028F000012000E000207047000402400000024078
:102900001AB103680B43036002E003688B43036062
:10291000704710B50022026847F6F0739A430C6ABC
:102920008B6823430C6923434C6923438C692343FD
:10293000CC6923434C6A23438C6A23431A430260C5
:102940008B8943600B6883604B68C36010BD416036
:102950007047704770B52DED088B86480088401C85
:1029600084490880084600884FF4FA7190FBF1F220
:1029700001FB12007F4908800846008810B9BDECB1
:10298000088B70BD7C480078012872D100207A49FC
:10299000087000BF14E0794931F8101000EE101AE9
:1029A000B8EE400A764A02EBC00181ED000A9FEDC5
:1029B000750A4100491C02EB810181ED000A401CAF
:1029C0008028E8DB6E497048FDF716FE002436E0EB
:1029D0006B4901EBC40090ED000AF0EE408A600004
:1029E000401C01EB800090ED000AB0EE408A68EEDA
:1029F000A80A48EE080AB0EE600A02F0FDF9F0EE0F
:102A0000000A20EE200ADFED610A80EE201A11EEA6
:102A1000105A284605F0F4FB5D4A02EBC40203C2DB
:102A20004FF4FA3004FB00F5E91705EB5161C811CA
:102A300004F074FD574A02EBC40203C2641C402C2C
:102A4000C6DB534890ED020B53485449097800EB1C
:102A5000C10080ED000B51480078401C4F490870C0
:102A6000084600780A2190FBF1F201FB12004B4965
:102A700008704A480078002862D10A21464803F0CD
:102A80003BFD474880ED000B464B474A47494848C5
:102A9000434C94ED000B03F097FC464880ED000B8F
:102AA00045490988C92201FB02F004F037FD41ECD9
:102AB000190B9FED420B53EC102B3E4890ED000B91
:102AC00051EC100B04F09EFD9FED3E0B53EC102BD0
:102AD00004F098FD53EC192B04F090FA03F0ECFF8E
:102AE0003A49086034490988C92201FB02F004F020
:102AF00015FD41EC190B9FED310B53EC102B2D48BC
:102B000090ED000B51EC100B04F07CFD9FED2D0BB4
:102B100053EC102B04F076FD53EC192B04F06EFAF5
:102B200003F0CAFF2A4908602848408829490880DC
:102B30002648008848809FED280B204680ED000B3A
:102B400027480078012813D10C4800880B49498890
:102B5000401A00EE100AB8EEC00ADFED220A20EE9D
:102B6000200ADFED210A80EE201A204880ED001AAD
:102B700000BF04E77A0000203C000020EE10002097
:102B800080030020000000006C03002000000043D0
:102B9000E0070020300A0020E00900206300002048
:102BA0004800002078000020680000206400002019
:102BB000300E0020700000206000002000000000A7
:102BC000000024400000000000408F402801002049
:102BD000580000200000002000000000000000005D
:102BE0003D00002033335340000080455C0000204E
:102BF00030B501464A680B68934204DD8868401E80
:102C00009D1A441B06E0934202DAD01A441E01E0EA
:102C10008868441EA0B230BD0268521C83689A4284
:102C200001DB002201E00268521CC368995402686B
:102C3000521C83689A4201DB002201E00268521CA8
:102C400002607047F0B50A460021002400250023E9
:102C500000BF3FE0012606FA01F4166806EA040503
:102C6000A54236D11679012E02D01679022E18D13E
:102C700086684FEA410C032707FA0CF7BE438660CB
:102C800056794F00BE4087683E438660868801279C
:102C90008F40BE438680878896798E40B6B2374390
:102CA000878006684FEA410C032707FA0CF7BE43FA
:102CB000066016794F00BE4007683E430660C36851
:102CC0004F000326BE40B343D6794F00BE40334386
:102CD000C360491C1029BDD3F0BDF0B5002300240A
:102CE0004D07ED0E02FA05F3CE1000F1200555F860
:102CF00026504E07F70E0F26BE40B543CF1000F109
:102D0000200646F82750CE1000F1200555F8265031
:102D100045EA0304CE1000F1200545F82640F0BD39
:102D2000018570478161704700BFFEE700BFFEE785
:102D30002DE9F04FCDB004468A464FF0000BD8463F
:102D40006678012E06D1E0788DF83001A0788DF8F4
:102D500031016DE1032E6FD1E0788DF83001A0785C
:102D60008DF8310160798DF82C0120798DF82D01D5
:102D7000BDF93001C0F58970BDF92C11884201DA26
:102D80004FF0010BBBF1000FE3D101208DF8C8001B
:102D90008DF8C960BDF82C014006000E8DF8CA0000
:102DA000002017E0BDF93011A1F580710144BF4A40
:102DB00032F8111009120DF81010BDF93011A1F5FB
:102DC0008071014412F811106A4602EB4002517002
:102DD000411CC8B2BDF92C118142E3DCBDF92C01C4
:102DE000420069460DF1CB00FDF749FDBDF82C010D
:102DF000032202EB400081B232A803F009FE05462F
:102E00002912BDF92C01042202EB400032AA115410
:102E1000BDF92C01032202EB400032AA1554BDF883
:102E20002C01052101EB400000F0FF09494632A8C2
:102E300003F032F9FCE0FFE7052E06D1E0788DF8CB
:102E40003001A0788DF83101F2E00F2E06D1E07844
:102E50008DF83001A0788DF83101E9E0062E46D1D9
:102E6000E0788DF83001A0788DF8310160799049D3
:102E7000087020794870BDF93001B0F5807F04DB1F
:102E8000BDF93001B0F5847F01DD4FF0010B8848BA
:102E9000B0F90000002801DA4FF00108B8F1000F86
:102EA000C8D1B8F1000FC5D18148008881B2BDF901
:102EB0003001A0F580707F4A22F810107E4811463C
:102EC0000A684261496881610AF0FF09002004E054
:102ED000215C32AA1154411CC8B25045F8DB0120D4
:102EE00076490870494632A803F0D6F8A0E0102EC3
:102EF0007DD1E0788DF83001A0788DF831016079CE
:102F00008DF82C0120798DF82D01BDF93001B0F537
:102F1000807F0CDBBDF93001B0F5847F07DCBDF9A3
:102F20003001C0F58470BDF92C11884201DA4FF0F0
:102F3000010BA779002017E0072101EB4001615C3C
:102F40005F4A02EB40025170082101EB4001615CD5
:102F50005B4A02F81010114631F91010002901DA0D
:102F60004FF00108411CC8B207EBD772B0EB620FFB
:102F7000E2DBB8F1000F5BD1B8F1000F58D10020AF
:102F80000DE04F4931F810108AB2BDF93011A1F5AA
:102F900080710144454B23F81120411CC8B207EB56
:102FA000D772B0EB620FECDB01208DF8C8008DF812
:102FB000C9609DF831018DF8CA009DF830018DF887
:102FC000CB0020798DF8CC0060798DF8CD000621FA
:102FD00032A802F01DFF054628128DF8CE00E8B297
:102FE0008DF8CF004FF00809494632A800E005E00F
:102FF00003F052F801203349087019E001208DF8E0
:10300000C80082208DF8C90001208DF8CA00032174
:1030100032A802F0FDFE054628128DF8CB00E8B27A
:103020008DF8CC004FF00509494632A803F034F87A
:10303000B8F1010F19D101208DF8C80082208DF858
:10304000C90003208DF8CA00032132A802F0E0FE77
:10305000054628128DF8CB00E8B28DF8CC004FF071
:103060000509494632A803F017F8BBF1010F19D141
:1030700001208DF8C80082208DF8C90002208DF84B
:10308000CA00032132A802F0C3FE054628128DF8BB
:10309000CB00E8B28DF8CC004FF00509494632A8C4
:1030A00002F0FAFF4DB0BDE8F08F000048010020AB
:1030B0002601002026000020000000203E00002005
:1030C000B8140020300100207047000070B50021C6
:1030D00000230F22C47804B3154C246804F4E06480
:1030E000C4F5E064210AC1F10403CA40447804FA3B
:1030F00003F184781440214309010E4C0678A15550
:10310000047804F01F050124AC4005786D11AD0072
:1031100005F1E025C5F8004109E0047804F01F0539
:103120000124AC40044D0678761145F8264070BD68
:103130000CED00E000E400E080E100E00249014322
:10314000024A1160704700000000FA050CED00E033
:1031500041B1094A0244926B42F00102064B03441A
:103160009A6307E0044A0244926B22F00102024B88
:1031700003449A6370470000000001400021024AA6
:1031800002449163704700000000014010B5002226
:10319000064B03449A6B22F06C02D1E900342343BE
:1031A0001A43024B03449A6310BD00000000014023
:1031B0000021416001607047704700000021010F4D
:1031C00031B1094AD26A22F47852074BDA6205E03B
:1031D000054AD26A22F4F872034BDA62024AD26AD2
:1031E0000243014BDA6270470010024029B1064ADF
:1031F00052690243044B5A6104E0034A5269824314
:10320000014B5A61704700000010024029B1064A84
:10321000D2690243044BDA6104E0034AD269824373
:10322000014BDA61704700000010024029B1064AE4
:1032300012690243044B1A6104E0034A1269824393
:10324000014B1A61704700000010024029B1064A84
:1032500092690243044B9A6104E0034A92698243F3
:10326000014B9A61704700000010024029B1064AE4
:10327000D2680243044BDA6004E0034AD268824316
:10328000014BDA6070470000001002402DE9F04366
:103290000022002600279446002500210023002458
:1032A000DFF83C85D8F8048008F00C0222B1042A2B
:1032B00007D0082A30D109E0DFF82885C0F800805F
:1032C0002FE0DFF82085C0F800802AE0DFF81085C5
:1032D000D8F8048008F47016DFF80485D8F8048064
:1032E00008F480374FF0020808EB964627B9DFF85C
:1032F000F88406FB08F10DE0DFF8E484D8F82C80B0
:1033000008F00F0808F1010CDFF8D884B8FBFCF8CE
:1033100008FB06F1016004E0DFF8C884C0F8008013
:1033200000BF00BFDFF8B884D8F8048008F0F002CE
:103330001209DFF8B88418F80240D0F8008028FAA3
:1033400004F8C0F80480DFF89884D8F8048008F402
:10335000E062120ADFF8948418F80250D0F8048072
:1033600028FA05F8C0F80880DFF87484D8F80480DB
:1033700008F46052D20ADFF8748418F80230D0F8EA
:10338000048028FA03F8C0F80C80DFF85484D8F8D9
:103390002C8008F4F872120902F00F08DFF850943C
:1033A00039F8185002F01008B8F1000F05D025B117
:1033B000B1FBF5F8C0F8108003E0D0F80080C0F849
:1033C0001080DFF81C84D8F82C8008F47852520A58
:1033D00002F00F08DFF8189439F8185002F01008BE
:1033E000B8F1000F05D025B1B1FBF5F8C0F8148095
:1033F00003E0D0F80080C0F81480DFF8E483D8F848
:10340000308008F01008B8F1100F04D0DFF8D48332
:10341000C0F8188003E0D0F80080C0F81880DFF80A
:10342000C083D8F8308008F02008B8F1200F04D00D
:10343000DFF8B083C0F81C8003E0D0F80080C0F84B
:103440001C80DFF89C83D8F8308008F04008B8F181
:10345000400F04D0DFF88C83C0F8208003E0D0F860
:103460000080C0F82080DFF87883D8F8308008F436
:103470008078B8F5807F0AD1D0F80080884506D1E1
:10348000A34204D14FEA4108C0F8248003E0D0F8F9
:103490000C80C0F82480DFF84883D8F8308008F426
:1034A0008058B8F5805F0AD1D0F80080884506D1F1
:1034B000A34204D14FEA4108C0F8288003E0D0F8C5
:1034C0000C80C0F82880DFF81883D8F8308008F422
:1034D0000078B8F5007F0AD1D0F80080884506D181
:1034E000A34204D14FEA4108C0F82C8003E0D0F891
:1034F0000C80C0F82C80DFF8E882D8F8308008F41F
:103500008068B8F5806F0AD1D0F80080884506D170
:10351000A34204D14FEA4108C0F84C8003E0D0F840
:103520000C80C0F84C80DFF8B882D8F8308008F4FE
:103530000068B8F5006F0AD1D0F80080884506D140
:10354000A34204D14FEA4108C0F8508003E0D0F80C
:103550000C80C0F85080DFF88882D8F8308008F4FA
:103560000058B8F5005F0AD1D0F80080884506D130
:10357000A34204D14FEA4108C0F8548003E0D0F8D8
:103580000C80C0F85080DFF85882D8F8308008F4FA
:103590000048B8F5004F0AD1D0F80080884506D120
:1035A000A34204D14FEA4108C0F8588003E0D0F8A4
:1035B0000C80C0F85880DFF82882D8F8308008F0F6
:1035C0000308B8F1000F04D1D0F80C80C0F838809F
:1035D00028E0DFF80C82D8F8308008F00308B8F152
:1035E000010F04D1D0F80080C0F838801AE0DFF86D
:1035F000F081D8F8308008F00308B8F1020F04D148
:103600004FF40048C0F838800CE0DFF8D481D8F8D7
:10361000308008F00308B8F1030F03D1DFF8C4814C
:10362000C0F83880DFF8B881D8F8308008F4403826
:10363000B8F1000F04D1D0F80880C0F83C8028E031
:10364000DFF89C81D8F8308008F44038B8F5803F26
:1036500004D1D0F80080C0F83C801AE0DFF8808107
:10366000D8F8308008F44038B8F5003F04D14FF462
:103670000048C0F83C800CE0DFF86481D8F8308066
:1036800008F44038B8F5403F03D1DFF85881C0F85E
:103690003C80DFF84C81D8F8308008F44028B8F13D
:1036A000000F04D1D0F80880C0F8408028E0DFF88F
:1036B0003081D8F8308008F44028B8F5802F04D144
:1036C000D0F80080C0F840801AE0DFF81481D8F804
:1036D000308008F44028B8F5002F04D14FF400489A
:1036E000C0F840800CE0DFF8F880D8F8308008F4AB
:1036F0004028B8F5402F03D1DFF8E880C0F84080BB
:10370000DFF8DC80D8F8308008F44018B8F1000FFA
:1037100004D1D0F80880C0F8448028E0DFF8C080E9
:10372000D8F8308008F44018B8F5801F04D1D0F8DC
:103730000080C0F844801AE0DFF8A480D8F8308018
:1037400008F44018B8F5001F04D14FF40048C0F841
:1037500044800CE0DFF88880D8F8308008F4401806
:10376000B8F5401F03D1DFF87C80C0F84480DFF853
:103770007080D8F8308008F44008B8F1000F04D108
:10378000D0F80880C0F8488028E0DFF85480D8F8E6
:10379000308008F44008B8F5800F04D1D0F80080DC
:1037A000C0F848801AE0DFF83880D8F8308008F494
:1037B0004008B8F5000F04D14FF40048C0F8488025
:1037C0000CE0DFF81C80D8F8308008F44008B8F529
:1037D000400F03D1DFF80C80C0F84880BDE8F083CB
:1037E0000010024000127A0000093D00EE000020A7
:1037F000FE0000207047000000F00042B2F1004FD0
:103800000CD029B10C4A126802430B4B1A6011E02C
:10381000094A12688243084B1A600BE029B1064A34
:10382000126D0243044B1A6504E0034A126D824391
:10383000014B1A6570470000000001402DE9F04778
:1038400005460E461446A046002714B90020BDE8E0
:10385000F087A86A08B1A86A80471BE0002704E047
:1038600005F10800FFF7C4F90746002FF8D0BC4265
:1038700001DDB94600E0A146A4EB090405E031787A
:1038800005F10800FFF7C8F9761CB9F10000A9F1AD
:103890000109F4D1002CE1D14046D8E70CB5002055
:1038A000019000903748006840F480303549086046
:1038B00000BF3448006800F4003000900198401CBC
:1038C0000190009818B90198B0F5A04FF1D12D489A
:1038D000006800F4003010B10120009001E00020E9
:1038E0000090009801284BD12748006840F0100054
:1038F000254908600846006820F003000860084673
:10390000006840F0020008601E4840681D49486099
:103910000846406848600846406840F48060486057
:103920000846406820F47C1048600846406840F42F
:10393000E81048600846C06A20F00F00C8620846D8
:10394000C06AC8620846006840F08070086000BF26
:103950000C48006800F000700028F9D00948406861
:1039600020F00300074948600846406840F0020024
:10397000486000BF0348406800F00C000828F9D1F7
:103980000CBD0000001002400020024010B50448A9
:103990000068401E0249086002F0EEFE10BD000003
:1039A000B400002010B51748006840F470001549B5
:1039B00008601548006840F00100134908600020C5
:1039C000486008460068114908400F4908600846E9
:1039D000006820F4802008600846406820F4FE005B
:1039E00048600846C06A20F00F00C8620846006BB5
:1039F000074908400449086300208860FFF74EFF2C
:103A000010BD000088ED00E000100240FFFFF6FE50
:103A1000CCFC00FF10B52DED028B01211F4800F0FA
:103A20008BF8C0B301211D4800F076F81C4840888F
:103A30001B498988401A00EE100AB8EEC00ADFED73
:103A4000190A20EE200ADFED180A20EE200ADFED29
:103A5000170A80EE201A164880ED001A90ED000A31
:103A600010EE101A084604F0CBFB41EC180B114B7A
:103A7000114A12491248B0EE480AF0EE680A02F004
:103A8000A3FC104880ED000B094840880E4988804F
:103A900007480088C880BDEC028B10BD002C014097
:103AA0001E0100200000CA4233335340000080450D
:103AB0002C010020B0000020A00000209800002071
:103AC000800F0020A80000200000002010B5012178
:103AD0000E4800F031F8B0B101210C4800F01CF89C
:103AE0000B48007800B110BD0A480068401C094925
:103AF000086002F037F9FEF72DFF02F0ADF902F091
:103B0000B5FE01F0C5FF00BFEDE700000004004076
:103B10004400002040000020CA4392B20261704776
:103B200021B1028842F00102028004E002884FF6CF
:103B3000FE731A400280704730B502460020002311
:103B40000024156905EA0103D56805EA010413B1EB
:103B50000CB1012000E0002030BD000030B5002491
:103B600000220023056A25F010050562026A4368F9
:103B70008469174D2C4024F440740D6844EA0524F0
:103B800022F020028D8942EA05128D8842EA051250
:103B9000104DA84202D0104DA84213D122F080024D
:103BA000CD8942EA051222F04002CD8842EA051290
:103BB00023F4806323F400630D8A43EA85034D8A6E
:103BC00043EA8503436084618D688563026230BD8A
:103BD000FF8FFFFE002C01400034014000210160F6
:103BE0008180C18081608181C18101824182704771
:103BF00001854261704742684FF68F731A404260F8
:103C000042680A4342607047002202881E4B984275
:103C10000ED01E4B98420BD0B0F1804F08D01C4BF9
:103C2000984205D01B4B984202D01B4B984204D1BE
:103C30004FF68F731A404B881A43184B984207D09F
:103C4000174B984204D04FF6FF431A400B891A4392
:103C500002804B68C3620B8803850B4B98420ED0E1
:103C60000A4B98420BD00F4B984208D00E4B98420B
:103C700005D00E4B984202D0074B984201D14B8998
:103C80000386012343617047002C0140003401404A
:103C900000040040000800400050014000100040B7
:103CA0000014004000400140004401400048014031
:103CB0004FF0FF314160002101800181418041814D
:103CC0007047000070B5002400253049304800F0EE
:103CD000BDF830492E4800F024F9012820D12D49A3
:103CE0002B4800F0B3F82A4800F0D4F9C5B22848B0
:103CF00000F0D0F9C1B2284890F8642090F8640030
:103D0000401C254B83F864001846815490F86400E9
:103D1000642190FBF1F201FB1200194681F8640066
:103D20001E491B4800F0FDF801282DD11B491848F9
:103D300000F08CF8164800F0ADF91748007801281B
:103D40001ED1154890F86400811E134802F060F8F7
:103D50000446114890F86400801E0F49085CB0EBDF
:103D6000242F0DD1E1B20C4890F86400401E0A4A9D
:103D7000105C814204D1104690F86410FEF7D8FF21
:103D80000020054981F8640070BD000000030300B5
:103D9000003801400501050053140020040104000F
:103DA00010B52449244800F051F82449224800F075
:103DB000B8F801281CD121491F4800F047F81E48D7
:103DC00000F068F91E49B1F800141D4A505410461D
:103DD000B0F80004401C1146A1F80004B1F800043A
:103DE000C11700EB91518912A0EB8121A2F80014B8
:103DF0001449114800F095F801280FD111490E48D7
:103E000000F024F80C4800F045F90D48B0F8001413
:103E100002F0A6F900200A49A1F800040A49064860
:103E200000F07FF8012803D10749034800F00EF89D
:103E300010BD000000030300004400400501050020
:103E400014280020040104000601060010B5002219
:103E500000230A0C012404FA02F3036210BD21B10D
:103E6000026842F00102026003E0026822F00102EF
:103E70000260704710B504462048844209D10121F0
:103E80008803FFF7F3F900214FF48040FFF7EEF9C4
:103E900032E01B48844209D101214804FFF7C6F9EA
:103EA00000214FF40030FFF7C1F925E015488442A6
:103EB00009D101218804FFF7B9F900214FF48020CE
:103EC000FFF7B4F918E01048844209D10121C80471
:103ED000FFF7ACF900214FF40020FFF7A7F90BE042
:103EE0000A48844208D101210805FFF79FF9002103
:103EF0004FF48010FFF79AF910BD00000038014020
:103F00000044004000480040004C00400050004089
:103F100002460020D3690B400BB1012000E00020D5
:103F2000704770B502460B46002400210025002092
:103F3000C3F30725D9B2012606FA01F1012D02D1FA
:103F40001668314006E0022D02D15668314001E08A
:103F5000966831401C0C012606FA04F4D6693440F8
:103F600011B10CB1012000E0002070BDF0B5034696
:103F700000240026002500201846C1F30724CEB2F5
:103F8000012707FA06F5022C01D1001D02E0032CDF
:103F900000D108301AB107682F43076002E00768B4
:103FA000AF430760F0BD00002DE9F04198B0044632
:103FB0000D460027B8460026206820F0010020604A
:103FC000666826F44056A86806436660266841F293
:103FD0000C608643E968686808432969084306431A
:103FE0002660A66826F4407668690643A66001A8A4
:103FF000FFF74CF92348844202D1DDF83C8013E0FE
:104000002148844202D1DDF840800DE01F488442FF
:1040100002D1DDF8448007E01D48844202D1DDF87A
:10402000488001E0DDF84C80206800F4004060B179
:104030004FEA48002968B0FBF1F74FEA48002968C9
:10404000B0FBF1F201FB120607E02868B8FBF0F7BD
:104050002868B8FBF0F100FB11862868B6EB500F1A
:1040600000D37F1C206800F4004038B1C7F342063B
:104070004FF6F07107EA010040EA0607A78118B081
:10408000BDE8F08100380140004400400048004095
:10409000004C00400146888CC0F308007047C1F313
:1040A00008020285704700BFFEE703B40198410093
:1040B000009850EAC12018BF04204A0D18BF40F0F4
:1040C000010040F2FF72B2EB515F08BF40F0020006
:1040D000012808BF052002B0704700000000000062
:1040E0002DE9F04D2DED040B2DED0E8B96B0DDE995
:1040F0002550279CDDF890A025F0004624F00048CC
:10410000BAF1000F14BF0121002101EB4502FC4967
:1041100053184A1093422AD3002814BF01230023C6
:1041200003EB44030B44F7498B4220D358EA0001C8
:104130009FEDF59B76D0DFF8D8B35D4503D1BAF19A
:10414000000F05D188E0BAF1000F08BF002100D0B0
:10415000012101EB450111F5001F08D8002814BF0B
:104160000121002101EB440111F5001F0BD99DED48
:10417000261B9DED240B16B0BDEC0E8B04B0BDE8E4
:10418000F04D01F063BA0027002DBCBFE14988451E
:1041900021DAE1498845A8BF02271CDAC3451ADCA9
:1041A000DE4901EB2851142908DDC1F1340220FA5F
:1041B00002F101FA02F282420DD108E058B9C1F1D0
:1041C000140228FA02F101FA02F2424503D101F089
:1041D0000101C1F1020756EA0A0124D1002C22DABA
:1041E000002D18BF022F01D0012F0AD00220FCF7AA
:1041F000FBFB16B0BDEC0E8B04B0BDE8F04D01F03A
:1042000003BA0220FCF7F0FB01F0FEF951EC100BB1
:1042100002F046FC41EC100B16B0BDEC0E8B04B066
:10422000BDE8F08D18E09FEDBEAB9FEDBF8B002881
:1042300071D1B848804522D105F1804010F5801039
:1042400008BFBAF1000F07D0B3450ADC002CA8BFA5
:104250009DED260BE0DA0DE0B0EE490AF0EE690ABA
:10426000DAE7002C06DA9DED260B51EC100B02F07C
:1042700017FC6FE0AE48784490ED000BCCE7D845D2
:104280004DD1002C48DA2EB186423AD1BAF1000F56
:1042900042D126E0BAF1000F13D00220FCF7A4FBB4
:1042A00001F0EEF98DED020B9DED240B8DED000B71
:1042B00010EE900A039961F31E0003909DED020B2E
:1042C000AAE78DED02AB9DED240B1AEE901A10EECD
:1042D000900A8DED000B61F31E0003909DED020B23
:1042E0009AE78DED028B9DED240B18EE901A10EEDF
:1042F000900A8DED000B61F31E0003909DED020B03
:104300008AE709DA9DED240B51EC190B53EC102BC5
:1043100002F074FE1EE020E09DED240B7CE7864257
:104320001BDAB4F1804F0DD0A4F10050B0F1FF5072
:1043300013D1002D11DB9DED240B51EC100B02F07D
:1043400059F907E09DED240B53EC102B51EC100BA9
:1043500000F0C2BC41EC100B5EE79DED240B51EC6C
:10436000100B01F013FCBAF1000FCDE90E0142D1A0
:104370009FED710B46B3A6F1E040B0F17F600CD029
:104380005E4538D1002D00DAA7B3022F0CBF012003
:104390004FF0FF3003F0C2F8DCE7002D01DD002C08
:1043A0000DDA002D01DD002C1FDB002D16DA002CAC
:1043B00014DB012F08BF9FED620B3FF42DAFB0EE71
:1043C0004A0AF0EE6A0A27E7022F18BF002D0CD028
:1043D000012F0AD1002DFFF61FAF06E0002DB8BF58
:1043E000002C08DA012F3FF417AFB0EE480AF0EEC8
:1043F000680A11E71BE0012000EBE57050EA0701B5
:1044000015D0791EB0EE498AF0EE698A084308BFDC
:104410009FED4D8B4E480025804570DD4D494E483F
:10442000884514DDB0420DDB002C19DB2FE00120A4
:10443000FCF7DAFA16B0BDEC0E8B04B0BDE8F04D17
:1044400001F00EB9B34502DC002C09DC1FE0864206
:1044500002DA002C1BDA03E05E452BDD002C16DDB2
:104460000220FCF7C1FA01F00BF98DED020B53ECC1
:104470001A2B51EC180B03F0C5F8CDE90001039994
:10448000019861F31E0003909DED020BC4E602202B
:10449000FCF7AAFA01F004F910EE901A18EE900A4F
:1044A0008DED020B8DED008B61F31E0003909DEDF1
:1044B000020BB1E69DED0E0B53EC192B51EC100BDA
:1044C00003F09CFB9FED260BCDE9080153EC102B6C
:1044D0009DED080B51EC100B03F094F89FED221B9F
:1044E00053EC112B03F05EFA9DED081B53EC112BDE
:1044F00003F088F89FED1E1B53EC112B3CE08CE081
:10450000FFFF1F00FFFF0F00000000000000F03F52
:104510000000F03F0000F07F0000404301FCFFFF7F
:10452000000000000000F07F00000000000000001C
:10453000B6470000000000000000000000000080FE
:10454000000000000000F0FF000000000000F0BFCD
:104550000000E0410000F043FFFFEF3F00000000DB
:10456000000000000000D03F555555555555D53F2A
:10457000000000000000E03F03F014FA9DED080B7E
:1045800041EC1A0B53EC102B51EC100B03F03AF8E2
:1045900053EC1A2B03F036F841EC1A0B9FEDFE0B8F
:1045A00053EC102B9DED080B51EC100B03F02AF887
:1045B00041EC1B0B9FEDFA0B51EC1A0B53EC102B3B
:1045C00003F020F841EC1A0B9FEDF70B53EC102B86
:1045D0009DED080B51EC100B03F014F853EC1A2B63
:1045E00003F00CFB41EC1A0B51EC1B0B53EC1A2B98
:1045F00002F0C4FB0690CDE906519DED060B53EC8D
:104600001B2B51EC100B03F0F9FA53EC1A2B03F0AF
:10461000C9F941EC100B00F0A1B90020B6F5801FDC
:104620000EDA9FEDE30B53EC102B9DED0E0B51ECCE
:10463000100B02F0E7FFCDE90E016FF034000E46DB
:1046400000EB2650A0F2FF37C6F31300DA4940F022
:104650007F6646F040568842D8BF002408DDD7491F
:104660008142C8BF012403DC0024A6F580167F1C0C
:10467000D348784400EBC4000F9690ED00CB9DED3D
:104680000E0B53EC1C2B51EC100B03F0B7FA9DED05
:104690000E0B41EC1B0B53EC1C2B51EC100B02F0DE
:1046A0006DFB41EC100B51EC190B53EC102B02F08D
:1046B000A5FC41EC1D0B51EC1B0B53EC1D2B02F028
:1046C000A1FF41EC1A0BBF488DED10AB784410955B
:1046D00090ED000B4FF0005040EA660000EB844084
:1046E0008DED080B00F5002009909DED080B53ECB3
:1046F0001C2B51EC100B03F081FA9DED0E1B53ECBB
:10470000112B03F04FF941EC100B53EC102B9DEDE6
:10471000100B51EC100B02F075FF9DED080B41ECF6
:104720001C0B53EC102B9DED100B51EC100B02F0F9
:1047300069FF53EC1B2B03F035F953EC1C2B03F0F2
:104740005DFA53EC1D2B02F05DFF41EC1C0B53ECAA
:104750001A2B51EC1A0B02F055FF41EC1B0B9A4837
:104760000621B0EE4B0AF0EE6B0A784400F038FEFA
:10477000B0EE401AF0EE601AB0EE41DAF0EE61DA17
:1047800053EC1B2B51EC1B0B02F03CFF53EC1D2B8D
:1047900002F038FF9DED100B41EC1B0B53EC1A2B74
:1047A00051EC100B02F0EAFA53EC1C2B02F02AFF3A
:1047B00053EC1B2B02F0E2FA9DED100B41EC1B0BAE
:1047C00053EC102B51EC100B02F01CFF41EC1D0BB5
:1047D0009FED7FEB53EC1E2B02F0D0FA53EC1B2B1A
:1047E00002F0CCFA0890CDE908519DED080B53EC8E
:1047F0001E2B51EC100B03F001FA53EC1D2B03F0B0
:10480000FDF953EC1B2B03F0CDF89DED080B41ECAB
:104810001D0B53EC102B9DED100B51EC100B02F007
:10482000F1FE41EC1B0B53EC1A2B51EC1D0B02F06B
:10483000E9FE9DED080B41EC1A0B53EC102B51ECEB
:104840001C0B02F0DFFE53EC1A2B02F097FA41EC3E
:104850001A0B51EC1B0B53EC1A2B02F08FFA0C9035
:10486000CDE90C519DED0C0B53EC1B2B51EC100BB7
:1048700003F0C4F953EC1A2B03F094F841EC1B0B32
:104880009FED550B53EC102B9DED0C0B51EC100BC9
:1048900002F0B8FE41EC1A0B9FED510B51EC1B0BD3
:1048A00053EC102B02F0AEFE41EC1B0B9FED4E0BB8
:1048B00053EC102B9DED0C0B51EC100B02F0A2FEF3
:1048C00053EC1B2B02F05AFA41EC100B4848784489
:1048D00000EBC40090ED001B51EC100B53EC112BBE
:1048E00002F04CFA41EC1B0B384602F017FECDE902
:1048F000080153EC1B2B51EC1A0B02F03FFA41EC70
:10490000100B3C48784400EBC40090ED00CB51EC18
:10491000100B53EC1C2B02F031FA9DED081B53ECED
:10492000112B02F02BFA0690CDE906519DED080BF4
:1049300053EC102B9DED060B51EC100B03F05EF9C0
:1049400053EC1C2B03F05AF953EC1A2B03F056F9D5
:1049500053EC1B2B03F026F841EC100B9DED261BAE
:1049600053EC102B8DED001B00959DED260B51ECAB
:10497000100B02F047FE9DED000B41EC1A0B53ECBF
:10498000102B9DED260B51EC100B03F037F99DED2C
:10499000061B53EC112B2FE0000000604715F73F7A
:1049A000FE822B654715F73F44DF5DF80BAE543EA2
:1049B00000000000000040438E9803007AB60B0010
:1049C000BA42000060430000F24100000000000015
:1049D0000000000000000840000000E009C7EE3FB2
:1049E000FD033ADC09C7EE3FF5015B14E02F3EBE44
:1049F0007E4000003840000002F004FE53EC1A2B09
:104A000002F0BCF99DED060B41EC1A0B53EC102B98
:104A10009DED000B51EC100B02F0F4FDCDE90C0103
:104A20009DED0C0B51EC1A0B53EC102B02F0A6F978
:104A3000CDE902010C46AA498C422FDB611A0843DA
:104A400018D19DED0C0B53EC102B9DED020B51EC8E
:104A5000100B03F0D3F841EC1B0B9FEDA30B51ECB3
:104A60001A0B53EC102B02F089F953EC1B2B02F0BC
:104A700068FF2DD20220FBF7B7FF00F001FE10EE19
:104A8000901A18EE900A8DED020B8DED008B61F3FC
:104A90001E0003909DED020BFFF7BEBB944A24F06D
:104AA0000041914214D39349214408437FF4EFAC71
:104AB0009DED0C0B53EC102B9DED020B51EC100BEC
:104AC00003F09CF853EC1A2B02F03BFF7FF6DFACAF
:104AD00024F000408849894A002601EB2051824297
:104AE0002BDA481C4FF4801121FA00F02044844A4C
:104AF000C0F30A517A44A1F2FF3192ED000B814AD2
:104B00008DED080BCA4020EA0202C0F3130040F406
:104B10008010C1F1140120FA01F60992002CB8BFEF
:104B200076429DED080B53EC102B9DED0C0B51ECD8
:104B3000100B03F063F8CDE90C019DED0C0B51EC6B
:104B40001A0B53EC102B02F019F99FED6F0B089024
:104B5000CDE9085153EC102B9DED080B51EC100BD7
:104B600002F050FD41EC1B0B9FED690B53EC102B39
:104B70009DED080B51EC100B02F044FD9DED0C0B6C
:104B800041EC1C0B53EC102B9DED080B51EC100B62
:104B900003F034F853EC1A2B02F004FF9FED5E1B78
:104BA00053EC112B02F02EFD53EC1C2B02F0E6F817
:104BB00041EC1A0B51EC1B0B53EC1A2B02F0DEF8F4
:104BC000CDE902019DED020B53EC1B2B51EC100BB8
:104BD00003F014F853EC1A2B02F0E4FE9DED020BE7
:104BE00041EC1A0B53EC102B51EC100B02F00AFDA8
:104BF000CDE908014A489DED080B0521784400F0F5
:104C0000EFFB9DED081B51EC100B53EC112B02F048
:104C1000F9FC9DED021B53EC112B02F0C3FECDE914
:104C200006019DED020B53EC1A2B51EC100B02F018
:104C3000E9FC53EC1A2B02F0A1F89FED3B0B41EC81
:104C40001A0B53EC102B9DED060B51EC100B02F0E0
:104C5000D5FF9DED060B41EC1B0B53EC102B9DED8E
:104C6000020B51EC100B02F0CDFC53EC1B2B02F0AD
:104C7000C5F953EC1A2B02F0C1FF9DED021B53EC5A
:104C8000112B02F0BBFF53EC192B02F08BFECDE988
:104C9000020101EB065001150029C8BF039015DC85
:104CA0009DED020B324651EC100B03F075FCFFF743
:104CB000FCF9042808BF00F0F3FC32469DED020B1E
:104CC00051EC100B03F068FCCDE902019DED020BE5
:104CD00051EC180B53EC102B02F094FCFFF73ABB8D
:104CE0000000904000000000FE822B654715973CB5
:104CF00000CC904000346F3F01FCFFFF0000E03F1C
:104D0000383F0000FFFF0F0000000000432EE63F89
:104D1000396CA80C615C20BEEF39FAFE422EE63FEA
:104D2000903D000000000000000000000000004076
:104D300010B52F499FED2C1B2DED020B84B005986B
:104D400020F000408842DCBF00209DED040B32DDE6
:104D50002849884209D1049840B94FF00100FBF777
:104D600043FE00F07DFC06B010BD05DB9DED040B9D
:104D700000F062FC06B010BD68469DED040B00F02B
:104D80005BF810F0030011D0012818D09DED021B34
:104D90009DED000B02281AD000F06AFA51EC100BBE
:104DA00001F07EFE06B041EC100B10BD9DED021B24
:104DB0009DED000B012000F08FFB06B010BD9DEDB6
:104DC000021B9DED000B00F053FA06B010BD012050
:104DD00000F082FB51EC100B01F062FE06B041ECDA
:104DE000100B10BD000000000000000000000000DB
:104DF000FB21E93F0000F07F10B52DED028BB1EEF5
:104E0000C08A18EE100A20F00040C0F1FF40C00F29
:104E10000AD010EE100A20F00040C0F1FF40C00F91
:104E200004BF0120FBF7E0FDB0EE480ABDEC028BA9
:104E300010BD0000000000002DE9F14F04462DEDEB
:104E4000020B2DED088B8AB09FEDE70B80ED020B76
:104E5000139EE74826F0004585420ADC9DED120BC3
:104E6000002084ED000B0AB0BDEC088B03B0BDE858
:104E7000F08FE0489FEDE0AB9FEDE1BBA84247DD3E
:104E8000E14F9FEDE39B9FEDE48B9DED120B53EC07
:104E90001A2B51EC100B002E1CDD02F0AFFE41EC82
:104EA000100BBD4208D053EC1B2B51EC100B02F041
:104EB000A5FEC4E900010BE053EC192B51EC100BDB
:104EC00002F09CFE53EC182B02F098FEC4E900019E
:104ED0000120C8E701F052FF41EC100BBD4208D0A1
:104EE00053EC1B2B51EC100B01F048FFC4E90001FF
:104EF0000BE053EC192B51EC100B01F03FFF53EC7E
:104F0000182B01F03BFFC4E900014FF0FF30AAE786
:104F1000C348A84279DB9DED120B51EC100B00F059
:104F200035FE41EC180B9FEDC00B53EC102B02F03B
:104F300069FB9FEDBF1B53EC112B01F01FFF02F02B
:104F40001BFA074602F0EAFA41EC190B53EC1A2B54
:104F500002F058FB53EC182B02F024FD41EC180B27
:104F600053EC1B2B51EC190B02F04CFBDFF8C8A2E1
:104F700041EC100B4FEA15580125FA4453EC102B65
:104F800051EC180B02F03AFE032DC4E900013DD0AC
:104F9000C1F30A5005EB4511A8EB0000113981421D
:104FA00034DA0AEB051BB0EE48AA9BED000BF0EEDD
:104FB00068AA53EC102B51EC190B02F023FB41ECC7
:104FC0001B0B51EC1A0B53EC1B2B02F017FE41ECA0
:104FD000180B51EC1A0B53EC182B02F00FFE53EC8C
:104FE0001B2B02F00BFE9BED020B41EC1A0B53EC5A
:104FF000102B51EC190B02F005FB53EC1A2B02F0AD
:10500000FDFD41EC100B6D1CB8E70EE0002EA8BFB3
:105010003846BFF628AF94ED000B51EC100B01F0B1
:105020003FFDC4E9000178421DE7C6F3130040F4D8
:10503000801EC6F30A50A0F2F530471100F01F059C
:10504000C5F12000DDF848B00890002006900790D8
:105050000520EC467949002D07EB0002794408BF92
:1050600051F8221009D051F8223001EB8201AB40F7
:105070004A68089922FA01F11943A1FB0E26A1FB07
:105080000B131A449A4234BF0123002303EB060892
:105090000CEB8003D3E901A60E448E4234BF0121FC
:1050A000002192448A4411B1924502D903E092450D
:1050B00001D2012100E00021C3E901A641444CF8DE
:1050C0002010011EA0F10100C4DC029800F1005084
:1050D000850F0298DDE903678000DDF8148002F097
:1050E0001DFA41EC1A0B304602F03CFA9FED541BBE
:1050F00053EC112B02F086FA41EC1B0B384602F000
:1051000031FA9FED511B53EC112B02F07BFA41EC6D
:10511000180B404602F026FA9FED4D1B53EC112B65
:1051200002F070FA41EC190B51EC180B53EC192BEF
:1051300001F024FE53EC1B2B01F020FE53EC1A2B44
:1051400001F01CFECDE90801002008909DED080B40
:1051500053EC1A2B51EC100B02F050FD53EC1B2BAF
:1051600002F04CFD53EC182B02F048FD53EC192BC8
:1051700002F018FC9FED381B53EC112B02F042FAA1
:105180009FED370B41EC180B53EC102B9DED080BEA
:1051900051EC100B02F036FA53EC182B01F0EEFD37
:1051A0009FED310B41EC180B53EC102B9DED080BD0
:1051B00051EC100B02F026FA53EC182B01F0DEFD37
:1051C00041EC100B139810F0004F06D06D4251ECDB
:1051D000100B01F065FC41EC100B284684ED000B30
:1051E00041E6000000000000000000000000000098
:1051F000FB21E93F7CD9024000004054FB21F93FEC
:105200003163621A61B4D03DFB21F93F0000000018
:105210000000601A61B4D03D7370032E8A19A33B5D
:10522000FB2139410000000083C8C96D305FE43FB5
:10523000000000000000E03FBA3A0000083A000019
:10524000000000000000103E000000000000103CC4
:10525000000000000000103A182D4454FB21F93DD5
:105260003326A611460B113C00000054FB21F93DEA
:1052700010B52DED040B2DED088B82B0B0EE419AE8
:10528000F0EE619A0B9820F000449FED4BABB4F127
:10529000795F11DA9DED0A0B51EC100B02F06CF8FE
:1052A000002801BFB0EE4A0AF0EE6A0A02B0BDEC77
:1052B000088B04BF04B010BD9DED0A0B53EC102BFE
:1052C00051EC100B02F09EF941EC180B3C48062102
:1052D000B0EE480AF0EE680A784400F081F853EC2A
:1052E000182B51EC100B02F08DF99DED0A0B41ECDF
:1052F0001B0B53EC192B51EC100B02F083F941EC12
:10530000190B53EC1B2B51EC180B02F07BF953ECEF
:10531000192B02F073FC9FED2C0B41EC190B53EC95
:10532000102B51EC180B02F06DF941EC100B2848D2
:10533000844210DA53EC192B51EC100B02F05EFC96
:1053400053EC1A2B02F02EFB41EC100B02B0BDEC1B
:10535000088B04B010BD1F48A042BCBF9FED1E1BB0
:105360008DED001B06DBA4F50010019000200090DD
:105370009DED001B51EC100B53EC112B02F03EFC89
:105380009DED000B41EC180B53EC102B51EC1A0B5C
:1053900002F034FC41EC1A0B53EC192B51EC180BB6
:1053A00002F02CFC53EC1A2B02F0FCFA41EC100B2F
:1053B000CCE7000000000000000000000000F03F0B
:1053C0002437000000000000000000000000E03F63
:1053D0003333D33F0000E93F000000000000D23F1C
:1053E00070B504462DED028B4D1E00EBC500B0EEEE
:1053F000408AF0EE608A90ED000B35F0060017D081
:1054000053EC182B51EC100B02F0FCF841EC100B94
:105410006D1E04EBC50090ED001B51EC100B53EC1E
:10542000112B01F0ABFC41EC100B35F00600E7D17D
:10543000022D36D0042D1CD0062D1CBFBDEC028BD6
:1054400070BD53EC182B51EC100B02F0DBF894ED0F
:105450000A1B53EC112B01F091FC53EC182B02F0BA
:10546000D1F894ED081B53EC112B01F087FC41ECB3
:10547000100B53EC182B51EC100B02F0C3F894ED09
:10548000061B53EC112B01F079FC53EC182B02F0A6
:10549000B9F894ED040B53EC102B01F06FFC41ECC8
:1054A000100B53EC182B51EC100B02F0ABF894EDF1
:1054B000021B53EC112B01F061FC53EC182B02F092
:1054C000A1F894ED001B53EC112B01F057FCBDEC3F
:1054D000028B41EC100B70BD31B504462DED040B71
:1054E0002DED0A8BB0EE41BAF0EE61BA0B989DED4E
:1054F0000A0B20F00040B0F1795F0DDA51EC100B8F
:10550000FEF7D3FD042808BF00F0CAF89DED0A0B92
:10551000BDEC0A8B05B030BD53EC102B51EC100BD9
:1055200002F070F841EC180B9DED0A0B53EC182BB0
:1055300051EC100B02F066F841EC190B2C48B0EE60
:10554000480AF0EE680A05217844FFF749FF9FED0D
:105550002ACBB0EE40AAF0EE60AA9CB353EC1C2B11
:1055600051EC190B02F04EF841EC1C0B53EC1A2BCA
:1055700051EC190B02F046F89FED210B41EC190B91
:1055800053EC102B51EC1B0B02F03CF853EC192B95
:1055900002F034FB53EC182B02F034F853EC1B2BC5
:1055A00002F02CFB53EC1C2B02F028FB9DED0A1B98
:1055B00053EC112B02F0F6F9BDEC0A8B05B041EC6F
:1055C000100B30BDFFE753EC1A2B51EC180B02F017
:1055D00019F853EC1C2B01F0D1FB53EC192B02F002
:1055E00011F89DED0A1B53EC112B01F0C7FBE3E70B
:1055F000B435000000000000495555555555C5BF4C
:10560000000000000000E03F9FED070B10B553ECD9
:10561000102B9FED070B51EC100B01F0EFFC41EC50
:10562000100B10BD00000000000000000000000092
:10563000000000000000F03F10B553EC102B51ECBF
:10564000100B01F09BFB41EC100B10BD10B553EC9F
:10565000112B51EC100B01F091FB41EC100B10BD24
:105660009FED050B10B553EC102B51EC100B01F016
:10567000C5FC41EC100B10BD000000000000000054
:105680009FED050B10B553EC102B51EC100B01F0F6
:10569000B9FF41EC100B10BD0000000000000070CD
:1056A0009FED050B10B553EC102B51EC100B01F0D6
:1056B000A9FF41EC100B10BD00000000000000101D
:1056C00030380A2801D201207047002070470000BE
:1056D00000B58BB001210220FDF788FD0E48009037
:1056E0000E480190002002908020ADF80C000020B0
:1056F00004908020059040000690800007902020B4
:1057000008900002099000200A9069460448FDF7BD
:1057100000F90BB000BD000040040050EE11002065
:105720005804024000B58DB04FF48070FDF746FD7F
:105730005C48FDF743FD01210807FDF757FD0121F6
:105740004807FDF753FD01214FF0A040FCF72CFF67
:1057500001215548FCF728FF01215448FCF724FF9C
:105760004FF080414FF0A040FCF707FF4FF0A04002
:10577000FCF70BFF4FF080414B48FCF7FEFE4A4818
:10578000FCF703FF4FF080414848FCF7F6FE47481E
:10579000FCF7FBFE00BF4FF0A040FCF73EFE0028E8
:1057A000F9D100BF4048FCF738FE0028FAD100BF0D
:1057B0003E48FCF732FE0028FAD1009001904FF4E9
:1057C00000400290022003900A208DF810006946E4
:1057D000C006FCF7DDFD69463348FCF7D9FD694694
:1057E0003248FCF7D5FD0020059006904FF430704C
:1057F00007904FF480600890002009900A900B9069
:1058000001208DF8300005A94FF0A040FCF718FEEC
:1058100003208DF83000002005904FF410700790A1
:105820004FF48060089005A91F48FCF709FE01208D
:105830008DF8300005A91D48FCF702FE0623012261
:1058400005211A48FCF71CFE02214FF0A040FCF78E
:10585000DCFD01214FF0A040FCF7CCFD02211248F5
:10586000FCF7D3FD01211048FCF7C4FD02210F48CD
:10587000FCF7CBFD01210D48FCF7BCFD01210B48D5
:10588000FCF77AFD00BF01210848FCF7D0FD002895
:10589000F9D001210648FCF76BFF0448FCF77AFEBB
:1058A0000DB000BD002000100001005000040050A9
:1058B000580402401CB501214804FDF797FC012162
:1058C0008804FDF793FCC020009003208DF80400AD
:1058D00000208DF8070069464FF09040FDF7B2F9BF
:1058E00047F60140009069460148FDF7ABF91CBD41
:1058F0000004004810B5FFF7DDFF00F005F8FFF7E2
:10590000E7FEFFF70FFF10BD1CB50C20FDF736FCBE
:105910006846FDF74DFC00200090019069460C2080
:10592000FDF734FC01210C20FDF712FC1CBD00002A
:105930001FB501214807FDF769FC1848FCF764FE14
:105940002420009000200190029003906A460021DC
:105950001248FCF775FE012200211048FCF735FEC5
:10596000012200210D48FCF73EFE242000908020FB
:10597000019000200290022003906A4610210748FF
:10598000FCF75EFE012210210448FCF71EFE40F2E7
:10599000FF7200210148FCF768FE1FBD0074004043
:1059A00000B58DB001210846FDF720FC1F48FCF72B
:1059B000EBFE1F4802901F480390102004908020A7
:1059C000ADF8140000200690802007904000089059
:1059D0008000099000200A904FF440500B90002066
:1059E0000C9002A91148FCF794FF01214803FDF730
:1059F00003FF01218803FDF7FFFE0D208DF8040051
:105A000000208DF806008DF8050001208DF80700B4
:105A100001A8FDF75BFB012202210448FCF770FF9F
:105A200001210248FCF7A4FE0DB000BD3000024089
:105A300008740040EE1200201CB501214804FDF757
:105A4000D5FB01210846FDF701FC30200090032022
:105A50008DF804008DF8050000208DF807006946D8
:105A60004FF09040FDF7EEF81CBD000010B580230C
:105A700040F2FF724FF41B71044800F077F9FFF712
:105A8000DBFFFFF755FFFFF78BFF10BDEE12002085
:105A900000B52DED068B85B022480088401C2149B9
:105AA000088008460088C82190FBF1F201FB120033
:105AB0001C4908800846008800282FD11A48008811
:105AC00000901A484388028819A1002000F0F2FCD7
:105AD0002148D0F81A10084602F092FB41EC180B4E
